:02000000ff00ff
:080002004c6174746963650030
:17000a00694345637562653220323032302e31322e32373934330071
:16002100506172743a2069434534304858384b2d43423133320018
:1b003700446174653a204d617920323320323032322030323a30313a3130008c
:0200520000ffad
:040054007eaa997e69
:02005800510055
:02005a0001059e
:03005c00920020ef
:03005f00620367d2
:0300620072011018
:0300650082000016
:02006800110085
:02006a00010192
:20006c00000000000000000000000000000000000000000000000000000000000000000074
:20008c00000000000000000000000000000000000000000000000000000000000000000054
:2000ac0000000000000000000000000800000000000000000000000000000000000000002c
:0d00cc000000000000000000000000000027
:2000d900000000000000000000000000000000000000000000000000000000000000000007
:2000f9000000000000000000000000000000000000000000000000000000000000000000e7
:200119000000000000000000000000000000000000000000000000000000000000000000c6
:0d01390000000000000000000000000000b9
:20014600000000000000000000000000000000000000000000000000000000000000000099
:20016600000000000000000000000000000000000000000000000000000000000000000079
:20018600000000000000000000000004000000000000000000000000000000000000000055
:0d01a6000000000000000400000000000048
:2001b30000000000000000000000000000000000000000000000000000000000000000002c
:2001d30000000000000000000000000000000000000000000000000000000000000000000c
:2001f3000000000000000000000000000000000000000000000000000000000000000000ec
:0d02130000000000000000000000000000de
:200220000000000000000000000000000000000000000000000000000000000000000000be
:2002400000000000000000000000000000000000000000000000000000000000000000009e
:20026000000000000000000000000008000000000000000000000000000000000000000076
:0d0280000000000000000000000000000071
:20028d00000000000000000000000000000000000000000000000000000000000000000051
:2002ad00000000000000000000000000000000000000000000000000000000000000000031
:2002cd00000000000000000000000000000000000000000000000000000000000000000011
:0d02ed000000000000000000000000000004
:2002fa000000000000000000000000000000000000000000000000000000000000000000e4
:20031a000000000000000000000000000000000000000000000000000000000000000000c3
:20033a000000000000000000000000000000000000000000000000000000000000000000a3
:0d035a000000000000000000000000000096
:20036700000000000000000000000000000000000000000000000000000000000000000076
:20038700000000000000000000000000000000000000000000000000000000000000000056
:2003a700000000000000000000000000000000000000000000000000000000000000000036
:0d03c7000000000000000000000000000029
:2003d400000000000000000000000000000000000000000000000000000000000000000009
:2003f4000000000000000000000000000000000000000000000000000000000000000000e9
:200414000000000000000000000000000000000000000000000000000000000000000000c8
:0d04340000000800000000000010000000a3
:2004410000000000000000000000000000000000000000000000000000000000000000009b
:2004610000000000000000000000000000000000000000000000000000000000000000007b
:2004810000000000000000000000000000000000000000000000000000000000000000005b
:0d04a100000000000000000000000000004e
:2004ae0000000000000000000000000000000000000000000000000000000000000000002e
:2004ce0000000000000000000000000000000000000000000000000000000000000000000e
:2004ee000000000000000000000000000000000000000000000000000000000000000000ee
:0d050e0000000000000000000000000000e0
:20051b000000000000000000000000000000000000000000000000000000000000000000c0
:20053b000000000000000000000000000000000000000000000000000000000000000000a0
:20055b0000000000000000000000000000000000000000000000000000000000000000027e
:0d057b000000000000000000000000000073
:20058800000000000000000000000000000000000000000000000000000000000000000053
:2005a800000000000000000000000000000000000000000000000000000000000000000033
:2005c800000000000000000000000000000000000000000000000000000000000000000013
:0d05e8000000000000000000000000000006
:2005f5000000000000000000000000000000000000000000000000000000000000000000e6
:200615000000000000000000000000000000000000000000000000000000000000000000c5
:200635000000000000000000000000000000000000000000000000000000000000000001a4
:0d0655000000000000000000000000000098
:20066200000000000000000000000000000000000000000000000000000000000000000078
:20068200000000000000000000000000000000000000000000000000000000000000000058
:2006a200000000000000000000000000000010000000000000000000000000000000000028
:0d06c20000000000000000000010200000fb
:2006cf0000000000000000000000000000000000000000000000000000000000000000000b
:2006ef000000000000000000000000000000000000000000000000000000000000000000eb
:20070f000000000000000000000000000000000000000000000000000000000000000002c8
:0d072f0000000000000000000000000000bd
:20073c0000000000000000000000000000000000000000000000000000000000000000009d
:20075c0000000000000000000000000000000000000000000000000000000000000000007d
:20077c0000000000000000000000000000000000000000000000000000000000000000005d
:0d079c000000000000000000000000000050
:2007a900000000000000000000000000000000000000000000000000000000000000000030
:2007c900000000000000000000000000000000000000100000000000000000000000000000
:2007e9000000000000000000000000000000000000000000000000000000000000000000f0
:0d08090000000000000000000000000000e2
:200816000000000000000000000000000000000000000000000000000000000000000000c2
:2008360000000000000000000000000000000000000e001c00000000000000000000000078
:20085600000000000000000000000000000000000000000000000000000000000000000082
:0d0876000000000000000000000000000075
:20088300000000000000000000000000000000000000000000000000000000000000000055
:2008a300000000000000000000000000000000000000000200000000000000000000000033
:2008c300000000000000000000000000000000000000000000000000000000000000000015
:0d08e3000000000000000000000000000008
:2008f0000000000000000000000000000000000000000000000000000000000000000000e8
:200910000000000000000000000000000000000000000000000000000000000000000000c7
:200930000000000000000000000000000000000000000000000000000000000000000000a7
:0d095000000000000000000000000000009a
:20095d0000000000000000000000000000000000000000000000000000000000000000007a
:20097d0000000000000000000000000000000000000000000000000000000000000000005a
:20099d0000000000000000000000000000000000000000000000000000000000000000003a
:0d09bd00000000000000000000000000002d
:2009ca0000000000000000000000000000000000000000000000000000000000000000000d
:2009ea000000000000000000000000000000000000010000000000000000000000000000ec
:200a0a000000000000000000000000000800000000000000000000000000000000000000c4
:0d0a2a0000000000000000000000000000bf
:200a370000000000000000000000000000000000000000000000000000000000000000009f
:200a570000000000000000000000000000000000000100000000000000000000000000007e
:200a770000000000000000000000000014000000000000000000000000000000000000004b
:0d0a97000000000000000000000000000052
:200aa400000000000000000000000000000000000000000000000000000000000000000032
:200ac400000000000000000000000000000000000000000000604000000000000000000072
:200ae4000000000000000000000000000000000000000000000000000000000000000000f2
:0d0b040000000000000000000000000000e4
:200b11000000000000000000000000000000000000000000000000000000000000000000c4
:200b31000000000000000000000000000000000000000000000000000000000000000000a4
:200b5100000000000000000000000000000000000000000000000000000000000000000084
:0d0b71000000000000000000000000000077
:200b7e00000000000000000000000000000000000000000000000000000000000000000057
:200b9e00000000000000000000000000000000000000000000000000000000000000000037
:200bbe00000000000000000000000000000000000000000000000000000000000000000017
:0d0bde00000000000000000000000000000a
:200beb000000000000000000000000000000000000000000000000000000000000000000ea
:200c0b000000000000000000000000000000000000000024000000000000000000000000a5
:200c2b000000000000000000000000000000000000000000000000000000000000000000a9
:0d0c4b00000000000000000000000000009c
:200c580000000000000000000000000000000000000000000000000000000000000000007c
:200c780000000000000000000000000000000000000000000000000000000000000000005c
:200c980000000000000000000000000000000000000000000000000000000000000000003c
:0d0cb800000000000000000000000000002f
:200cc50000000000000000000000000000000000000000000000000000000000000000000f
:200ce5000000000000000000000000000000000000000000000000000000000000000000ef
:200d05000000000000000000000000000000000000000000000000000000000000000000ce
:0d0d250000000000000000000000000000c1
:200d32000000000000000000000000000000000000000000000000000000000000000000a1
:200d520000000000000000000000000000000000000c000000000000000000000000000075
:200d7200000000000000000000000000000000000000000000000000000000000000000061
:0d0d92000000000000000000000000000054
:200d9f00000000000000000000000000000000000000000000000000000000000000000034
:200dbf00000000000000000000000000000000000004000000000000000000000000000010
:200ddf000000000000000000000000000000000000000000000000000000000000000000f4
:0d0dff0000000000000000000000000000e7
:200e0c000000000000000000000000000000000000000000000000000000000000000000c6
:200e2c00000000000000000000000000000000000000100000000000000000000000000096
:200e4c00000000000000000000000000000000000000000000000000000000000000000086
:0d0e6c000000000000000000000000000079
:200e7900000000000000000000000000000000000000000000000000000000000000000059
:200e9900000000000000000000000000000000000000100000000000000000000000000029
:200eb900000000000000000000000000000000000000000000000000000000000000000019
:0d0ed900000000000000000000000000000c
:200ee6000000000000000000000000000000000000000000000000000000000000000000ec
:200f060000000000000000000000000000000000000e101c00000000000000000000000091
:200f26000000000000000000000000000000000000000000000000000000000000000000ab
:0d0f4600000000000000000000000000009e
:200f530000000000000000000000000000000000000000000000000000000000000000007e
:200f7300000000000000000000000000000000000000102600000000000000000000000028
:200f930000000000000000000000000000000000000000000000000000000000000000003e
:0d0fb3000000000000000000000000000031
:200fc000000000000000000000000000000000000000000000000000000000000000000011
:200fe00000000000000000000000000000000000000c0000000000000000000000000000e5
:201000000000000000000000000000000000000000000000000000000000000000000000d0
:0d10200000000000000000000000000000c3
:20102d000000000000000000000000000000000000000000000000000000000000000000a3
:20104d0000000000000000000000000000000000000c100000000000000000000000000067
:20106d00000000000000000000000000000000000000000000000000000000000000000063
:0d108d000000000000000000000000000056
:20109a00000000000000000000000000000000000000000000000000000000000000000036
:2010ba00000000000000000000000000000000000000000000000000000000000000000016
:2010da000000000000000000000000000800000000000000000000000000000000000000ee
:0d10fa0000000000000000000000000000e9
:201107000000000000000000000000000000000000000000000000000000000000000000c8
:20112700000000000000000000000000000000000000100000000000000000000000000098
:20114700000000000000000000000000100000000000000000000000000000000000000078
:0d116700000000000000000000000000007b
:2011740000000000000000000000000000000000000000000000000000000000000000005b
:201194000000000000000000000000000000000000000000006010000000000000000000cb
:2011b40000000000000000000000000000000000000000000000000000000000000000001b
:0d11d400000000000000000000000000000e
:2011e1000000000000000000000000000000000000000000000000000000000000000000ee
:201201000000000000000000000000000000000000000000000000000000000000000000cd
:201221000000000000000000000000000000000000000000000000000000000000000000ad
:0d12410000000000000000000000000000a0
:20124e00000000000000000000000000000000000000000000000000000000000000000080
:20126e00000000000000000000000000000000000000000000000000000000000000000060
:20128e00000000000000000000000000000000000000000000000000000000000000000040
:0d12ae000000000000000000000000000033
:2012bb00000000000000000000000000000000000000000000000000000000000000000013
:2012db000000000000000000000000000000000000000000000000000000000000000000f3
:2012fb000000000000000000000000000000000000000000000000000000000000000000d3
:0d131b0000000000000000000000000000c5
:201328000000000000000000000000000000000000000000000000000000000000000000a5
:20134800000000000000000000000000000000000000000070000000000000000000000015
:20136800000000000000000000000000000000000000000000000000000000000000000065
:0d1388000000000000000000000000000058
:20139500000000000000000000000000000000000000000000000000000000000000000038
:2013b5000000000000000000000000000000000000000000400000000000000000000000d8
:2013d5000000000000000000000000000000000000000000000000000000000000000000f8
:0d13f50000000000000000000000000000eb
:201402000000000000000000000000000000000000000000000000000000000000000000ca
:201422000000000000000000000000000000000000040000000000000000000000000000a6
:2014420000000000000000000000000000000000000000000000000000000000000000008a
:0d146200000000000000000000000000007d
:20146f0000000000000000000000000000000000000000000000000000000000000000005d
:20148f00000000000000000000000000000000000004000000000000000000000000000039
:2014af0000000000000000000000000000000000000000000000000000000000000000001d
:0d14cf000000000000000000000000000010
:2014dc000000000000000000000000000000000000000000000000000000000000000000f0
:2014fc000000000000000000000000000000000000000000000000000000000000000000d0
:20151c000000000000000000000000000000000000000000000000000000000000000000af
:0d153c0000000000000000000000000000a2
:20154900000000000000000000000000000000000000000000000000000000000000000082
:20156900000000000000000000000000000000000000100000000000000000000000000052
:20158900000000000000000000000000000000000000000000000000000000000000000042
:0d15a9000000000000000000000000000035
:2015b600000000000000000000000000000000000000000000000000000000000000000015
:2015d60000000000000000000000000000000000000e0000000000000000000000000000e7
:2015f6000000000000000000000000000000000000000000000000000000000000000000d5
:0d16160000000000000000000000000000c7
:201623000000000000000000000000000000000000000000000000000000000000000000a7
:20164300000000000000000000000000000000000000000000000000000000000000000087
:20166300000000000000000000000000000000000000000000000000000000000000000067
:0d168300000000000000000000000000005a
:2016900000000000000000000000000000000000000000000000000000000000000000003a
:2016b00000000000000000000000000000000000000000000000000000000000000000001a
:2016d0000000000000000000000000000000000000000000000000000000000000000000fa
:0d16f00000000000000000000000000000ed
:2016fd000000000000000000000000000000000000000000000000000000000000000000cd
:20171d000000000000000000000000000000000000000000000000000000000000000000ac
:20173d0000000000000000000000000000000000000000000000000000000000000000008c
:0d175d00000000000000000000000000007f
:20176a0000000000000000000000000000000000000000000000000000000000000000005f
:20178a0000000000000000000000000000000000000000000000000000000000000000003f
:2017aa0000000000000000000000000000000000000000000000000000000000000000001f
:0d17ca000000000000000000000000000012
:2017d7000000000000000000000000000000000000000000000000000000000000000000f2
:2017f7000000000000000000000000000000000000000000000000000000000000000000d2
:201817000000000000000000000000000000000000000000000000000000000000000000b1
:0d18370000000000000000a0000000000004
:20184400000000000000000000000000000000000000000000000000000000000000000084
:20186400000000000000000000000000000000000000000000e00400000000000000000080
:20188400000000000000000000000000000000000000000000000000000000000000000044
:0d18a4000000000000000000000000000037
:2018b100000000000000000000000000000000000000000000000000000000000000000017
:2018d1000000000000000000000000000000000000000000002000000000000000000000d7
:2018f1000000000000000000000000000000000000000000000000000000000000000000d7
:0d19110000000000000000000000000000c9
:20191e000000000000000000000000000000000000000000000000000000000000000000a9
:20193e00000000000000000000000000000000000000000020000000000000000000000069
:20195e00000000000000000000000000000000000000000000000000000000000000000069
:0d197e00000000000000000000000000005c
:20198b0000000000000000000000000000000000000000000000000000000000000000003c
:2019ab000000000000000000000000000000000000000004400000000000000000000000d8
:2019cb000000000000000000000000000000000000000000000000000000000000000000fc
:0d19eb0000000000000000000000000000ef
:2019f8000000000000000000000000000000000000000000000000000000000000000000cf
:201a18000000000000000000000000000000000000000000000000000000000000000000ae
:201a380000000000000000000000000000000000000000000000000000000000000000008e
:0d1a58000000000000000000000000000081
:201a6500000000000000000000000000000000000000000000000000000000000000000061
:201a8500000000000000000000000000000000000000000000000000000000000000000041
:201aa500000000000000000000000000000000000000000000000000000000000000000021
:0d1ac5000000000000000000000000000014
:201ad2000000000000000000000000000000000000000000000000000000000000000000f4
:201af20000000000000000000000000000000000000c0000000000000000000000000000c8
:201b12000000000000000000000000000000000000000000000000000000000000000000b3
:0d1b320000000000000000000000000000a6
:201b3f00000000000000000000000000000000000000000000000000000000000000000086
:201b5f00000000000000000000000000000000000004000000000000000000000000000062
:201b7f00000000000000000000000000000000000000000000000000000000000000000046
:0d1b9f000000000000000000000000000039
:201bac00000000000000000000000000000000000000000000000000000000000000000019
:201bcc00000000000000000000000000000000000000100c000000000000000000000000dd
:201bec000000000000000000000000000000000000000000000000000000000000000000d9
:0d1c0c0000000000000000000000000000cb
:201c19000002000000000000000000000000000000000000000000000000000000000000a9
:201c390000000000000000000000000000000000000010000000000100000000000000007a
:201c590000000000000000000000000000000000000000000000000000000000000000006b
:0d1c7900000000000000000000000000005e
:201c860000000000000000000000000000000000000000000000000000000000000000003e
:201ca60000000000000000000000000000000000000e1000000000030000000000000000fd
:201cc6000000000000000000000000000000000000000000000000000000000000000000fe
:0d1ce60000000000000000000000000000f1
:201cf3000000000000000000000000000000000000000000000000000000000000000000d1
:201d13000000000000000000000000000000000000001000000000000000000000000000a0
:201d3300000000000000000000000000000000000000000000000000000000000000000090
:0d1d53000000000000000000000000000083
:201d600000280000000000000000000000000000000000000000000000000000000000003b
:201d80000000000000000000000000000000000000041000780000000000000000000000b7
:201da000000000000000000000000000000000000000000000000000000000000000000023
:0d1dc0000000000000000000000000000016
:201dcd000040000000000000000000000000000000000000000000000000000000000000b6
:201ded0000000000000000000000000000000000000c100000000002800000000000000038
:201e0d000000000000000000000000000000000000000000000000000000000000000000b5
:0d1e2d0000000000000000000000000000a8
:201e3a00000000000000000000000000000000000000000000000000000000000000000088
:201e5a00000000000000000000000000000000000000100000000000000000000000000058
:201e7a00000000000000000000000000000000000000000000000000000000000000000048
:0d1e9a00000000000000000000000000003b
:201ea70000000000000000000000000000000000000000000000000000000000000000001b
:201ec7000000000000000000000000000000000000001000000000000000000000000000eb
:201ee7000000000000000000000000000000000000000000000000000000000000000000db
:0d1f070000000000000000000000000000cd
:201f14000000000000000000000000000000000000000000000000000000000000000000ad
:201f340000000000000000000000000000000000000000000040100000000000000000003d
:201f540000000000000000000000000000000000000000000000000000000000000000006d
:0d1f74000000000000000000000000000060
:201f8100000000000000000000000000000000000000000000000000000000000000000040
:201fa100000000000000000000000000000000000000000000000000000000000000000020
:201fc100000000000000000000000000000000000000000000000000000000000000000000
:0d1fe10000000000000000000000000000f3
:201fee0048000000000000000000000000000000000000000000000000000000000000008b
:20200e00000000000000000000000000000000000000002000000000000000000000000092
:20202e00000000000000000000000000000000000000000000000000000000000000000092
:0d204e000000000000001000000000000075
:20205b0008000000000000000000000000000000000000000000000000000000000000005d
:20207b00000000000000000000000000000000000000001c00000000000000000000000029
:20209b00000000000000000000000000000000000000000000000000000000000000000025
:0d20bb000000000000000000000000000018
:2020c8000000000000000000000000000000000000000000000000000000000000000000f8
:2020e8000000000000000000000000000000000000000000000000000000000000000000d8
:202108000000000000000000000000000000000000000000000000000000000000000000b7
:0d21280000000000000000000000000000aa
:2021350080000000000000000000000000000000000000000000000000000000000000000a
:202155000000000000000000000000000000000000000080000000000000000000000000ea
:2021750000000000000000000000000000000000000000000000000000000000000000004a
:0d219500000000000000000000000000003d
:2021a2004000000000000000000000000000000000000000000000000000000000000000dd
:2021c20000000000000000000000000000000000000c0000000000000000000000000000f1
:2021e2000000000000000000000000000800000000000000000000000000000000000000d5
:0d22020000000000000000000000000000cf
:20220f000000000000000000000000000000000000000000000000000000000000000000af
:20222f0000000000000000000000000000000000000400000000000000000000000000008b
:20224f0000000000000000000000000010000000000000000000000000000000000000005f
:0d226f000000000000000000000000000062
:20227c00000000000000000000000000000000000000000000000000000000000000000042
:20229c000000000000000000000000000000000000000000380000000000000000000000ea
:2022bc00000000000000000000000000000000000000000000000000000000000000000002
:0d22dc0000000000000000000000000000f5
:2022e9000000000000000000000000000000000000000000000000000000000000000000d5
:20230900000000000000000000000000000000000000100040000000000000000000000064
:20232900000000000000000000000000000000000000000000000000000000000000000094
:0d2349000000000000000000000000000087
:20235600000000000000000000000000000000000000000000000000000000000000000067
:2023760000000000000000000000000000000000000e000000000000000000000000000039
:20239600000000000000000000000000000000000000000000000000000000000000000027
:0d23b600000000000000000000000000001a
:2023c3001800000000000000000000000000000000000000000000000000000000100000d2
:2023e3000000000000000000000000000000000000000000000000000000000000000000da
:202403000000000000000000000000000000000000000000000000000000000000000000b9
:0d24230000000000000000000000000000ac
:2024300000000000000000000000000000000000000000000000000000000000000000008c
:2024500000000000000000000000000000000000000000000000000000000000000000006c
:2024700000000000000000000000000000000000000000000000000000000000000000004c
:0d249000000000000000000000000000003f
:20249d0000000000000000000000000000000000000000000000000000000000000000001f
:2024bd000000000000000000000000000000000000000000000000000000000000000000ff
:2024dd000000000000000000000000000000000000000000000000000000000000000000df
:0d24fd0000000000000000000000000000d2
:20250a000000000000000000000000000000000000000000000000000000000000000000b1
:20252a00000000000000000000000000000000000000000000000000000000000000000091
:20254a0000000000000000000000000400000000000000000000000000000000000000006d
:0d256a000000000000000000000000000064
:20257700000000000000000000000000000000000000000000000000000000000000000044
:20259700000000000000000000000000000000000000000000000000000000000000000024
:2025b700000000000000000000000002000000000000000000000000000000000000000002
:0d25d70000000000000000000000000000f7
:2025e4000000000000000000000000000000000000000000000000000000000000000000d7
:20260400000000000000000000000000000000000000000000400000000000000000000076
:20262400000000000000000000000000000000000000000000000000000000000000000096
:0d2644000000000000000000000000000089
:20265100000000000000000000000000000000000000000000000000000000000000000069
:202671000000000000000000000000000000000000000000002080000000000000000000a9
:20269100000000000000000000000000000000000000000000000000000000000000000029
:0d26b100000000000000000000000000001c
:2026be000000000000000000000000000000000000000000000000060000000000000000f6
:2026de000000000000000000000000000000000000000100000000000000000000000000db
:2026fe000000000000000000000000100000000000000000000000000000000000000000ac
:0d271e0000000000000000000000000000ae
:20272b0000000000000000000000000000000000000000000000000000000000000000008e
:20274b0000000000000000000000000000000000000000a4000000000000000000000000ca
:20276b00000000000000000000000000080000000000000000000000000000000000000046
:0d278b000000000000000000000000000041
:20279800000000000000000000000000000000000000000000000000000000000000000021
:2027b800000000000000000000000000000000000000000000000000000000000000000001
:2027d8000000000000000000000000001400000000000000000000000000000000000000cd
:0d27f80000000000000000000000000000d4
:202805000000000000000000000000000000000000000000000000000000000000000000b3
:20282500000000000000000000000000000000000000000000000000000000000000000093
:20284500000000000000000000000000000000000000000000000000000000000000000073
:0d2865000000000000000000000000000066
:20287200000000000000000000000000000000000000000000000000000000000000000046
:2028920000000000000000000000000000000000000c00000000000000000000000000001a
:2028b200000000000000000000000000000000000000000000000000000000000000000006
:0d28d20000000000000000000000000000f9
:2028df000000000000000000000000000000000000000000000000000000000000000000d9
:2028ff000000000000000000000000000000000000040000000000000000000000000000b5
:20291f00000000000000000000000000000000000000000000000000000000000000000098
:0d293f00000000000000000000000000008b
:20294c0040000000000000000000000000000000000000000000000000000000000000002b
:20296c000000000000000000000000000000000000001000000000004000000000000000fb
:20298c0000000000000000000000000000000000000000000000000000000000000000002b
:0d29ac00000000000000000000000000001e
:2029b9000000000000000000000000000000000000000000000000000000000000000000fe
:2029d9000000000000000000000000000000000000001000000000002000000000000000ae
:2029f9000000000000000000000000000000000000000000000000000000000000000000be
:0d2a190000000000000000000000000000b0
:202a2600000000000000000000000000000000000000000000000000000000000000000090
:202a460000000000000000000000000000000000000e101c00000000000000000000000036
:202a6600000000000000000000000000000000000000000000000000000000000000000050
:0d2a86000000000000000000000000000043
:202a93008000000000000000000000000000000000000000000000000000000000000000a3
:202ab3000000000000000000000000000000000000001026000000000000000000000000cd
:202ad3000000000000000000000000000000000000000000000000000000000000000000e3
:0d2af30000000000000000000000000000d6
:202b00004c0000000000000000000000000000000000000000000000000000000000000069
:202b200000000000000000000000000000000000000c100000000000000000000000000079
:202b4000000000000000000000000010040000000000000000000000000000000000000061
:0d2b60000000000000000000000000000068
:202b6d000c000000000000000000000000000000000000000000000000000000000000003c
:202b8d0000000000000000000000000000000000000c10000000000000000000000000000c
:202bad00000000000000000000000000000000000000000000000000000000000000000008
:0d2bcd0000000000000000000000000000fb
:202bda000001000000000000000000000000000000000000000000000000000000000000da
:202bfa000000000000000000000000000000000000001000000000000000000000000000ab
:202c1a00000000000000000000000000080000000000000000000000000000000000000092
:0d2c3a00000000000000000000000000008d
:202c470000000000000000000000000000000000000000000000000000000000000000006d
:202c670000000000000000000000000000000000000010000000000000000000000000003d
:202c870000000000000000000000000010000000000000000000000000000000000000001d
:0d2ca7000000000000000000000000000020
:202cb400000000000000000000000000000000000000000000000000000000000000000000
:202cd400000000000000000000000000000000000000000000601000000000000000000070
:202cf4000000000000000000000000000000000000000000000000000000000000000000c0
:0d2d140000000000000000000000000000b2
:202d2100000000000000000000000000000000000000000000000000000000000000000092
:202d4100000000000000000000000000000000000000000000000000000000000000000072
:202d6100000000000000000000000000000000000000000000000000000000000000000052
:0d2d81000000000000000000000000000045
:202d8e00000000000000000000000000000000000000000000000000000000000000000025
:202dae00000000000000000000000000000000000000000000000000000000000000000005
:202dce000000000000000000000000000000000000000000000000000000000000000000e5
:0d2dee0000000000000000000000000000d8
:202dfb000000000000000000000000000000000000000000000000000000000000000000b8
:202e1b00000000000000000000000000000000000000000000000002800000000000000015
:202e3b00000000000000000000000000000000000000000000000000000000000000000077
:0d2e5b00000000000000000000000000006a
:202e680000000000000000000000000000000000000000000000000000000000000000004a
:202e88000000000000000000000000000000000000000000700000000000000000000000ba
:202ea80000000000000000000000000000000000000000000000000000000000000000000a
:0d2ec80000000000000000000000000000fd
:202ed5000000000000000000000000000000000000000000000000000000000000000000dd
:202ef5000000000000000000000000000000000000000000000000000000000000000000bd
:202f150000000000000000000000000000000000000000000000000000000000000000009c
:0d2f3500000000000000000000000000008f
:202f4200003800000000000000000000000000000300000000000000000000000000000034
:202f620000000000000000000000000000000000000400000000000000000000000000004b
:202f820000000000000000000000000000000000000000000000000000000000000000002f
:0d2fa2000000000000000000000000000022
:202faf00000000000000000000000000000000000000000000000000000000000000000002
:202fcf000000000000000000000000000000000000040000000000000000000000000000de
:202fef000000000000000000000000000000000000000000000000000000000000000000c2
:0d300f0000000000000000000000000000b4
:20301c00000000000000000000000000000000000000000000000000000000000000000094
:20303c00000000000000000000000000000000000000000000000000000000000000000074
:20305c00000000000000000000000000000000000000000000000000000000000000000054
:0d307c000000000000000000000000000047
:20308900000000000000000000000000000000000000000000000000000000000000000027
:2030a9000000000000000000000000000000000000001000000000000000000000000000f7
:2030c9000000000000000000000000000000000000000000000000000000000000000000e7
:0d30e90000000000000000000000000000da
:2030f6000000000000000000000000000000000000000000000000000000000000000000ba
:2031160000000000000000000000000000000000000e00000000000000000000000000008b
:20313600000000000000000000000000000000000000000000000000000000000000000079
:0d3156000000000000000a00000000000062
:2031630000000000000000000000000000000000000000000000000000000000000000004c
:2031830000000000000000000000000000000000000000000000000000000000000000002c
:2031a30000000000000000000000000000000000000000000000000000000000000000000c
:0d31c30000000000000000000000000000ff
:2031d0000000000000000000000000000000000000000000000000000000000000000000df
:2031f0000000000000000000000000000000000000000000000000000000000000000000bf
:2032100000000000000000000000000000000000000000000000000000000000000000009e
:0d3230000000000000000000000000000091
:20323d00000000000000000000000000000000000000000000000000000000000000000071
:20325d00000000000000000000000000000000000000000000000000000000000000000051
:20327d00000000000000000000000000000000000000000000000000000000000000000031
:0d329d000000000000000000000000000024
:2032aa00000000000000000000000000000000000000000000000000000000000000000004
:2032ca000000000000000000000000000000000000000040000000000000000000000000a4
:2032ea000000000000000000000000000000000000000000000000000000000000000000c4
:0d330a0000000000000000000000000000b6
:20331700000000000000000000000000000000000000000000000000000000000000000096
:20333700000000000000000000000000000000000000000000000000000000000000000076
:20335700000000000000000000000000000000000000000000000000000000000000000056
:0d3377000000000000000000000000000049
:20338400000000000000000000000000000000000000000000000000000000000000000029
:2033a400000000000000000000000000000000000000000001e00400000000000000000024
:2033c4000000000000000000000000000000000000000000000000000000000000000000e9
:0d33e40000000000000000000000000000dc
:2033f1000000000000000000000000000000000000000000000000000000000000000000bc
:2034110000000000000000000000000000000000000000000020000000000000000000007b
:2034310000000000000000000000000000000000000000000000000000000000000000007b
:0d345100000000000000000000000000006e
:20345e0000000000000000000000000000000000000000000000000000000000000000004e
:20347e0000000000000000000000000000000000000000000000000000000000000000002e
:20349e0000000000000000000000000000000000000000000000000000000000000000000e
:0d34be000000000000000000000000000001
:2034cb000000000000000000000000000000000000000000000000000000000000000000e1
:2034eb000000000000000000000000000000000000000004000000000000000000000000bd
:20350b000000000000000000000000000000000000000000000000000000000000000000a0
:0d352b000000000000000000000000000093
:20353800000000000000000000000000000000000000000000000000000000000000000073
:20355800000000000000000000000000000000000000000000000000000000000000000053
:20357800000000000000000000000000000000000000000000000000000000000000000033
:0d3598000000000000000000000000000026
:2035a500000000000000000000000000000000000000000000000000000000000000000006
:2035c5000000000000000000000000000000000000000000000000000000000000000000e6
:2035e5000000000000000000000000000000000000000000000000000000000000000000c6
:0d36050000000000000000000000000000b8
:20361200000000000000000000000000000000000000000000000000000000000000000098
:2036320000000000000000000000000000000000000c00000000000000000000000000006c
:20365200000000000000000000000000000000000000000000000000000000000000000058
:0d367200000000000000000000000000004b
:20367f0000000000000000000000000000000000000000000000000000000000000000002b
:20369f000000000000000000000000000000000000040000240000000000000000000000e3
:2036bf000000000000000000000000000000000000000000000000000000000000000000eb
:0d36df0000000000000000000000000000de
:2036ec000000000000000000000000000000000000000000000000000000000000000000be
:20370c00000000000000000000000000000000000000100c0400000000000000000000007d
:20372c0000000000000000000000000000000000000000000000000000000000000000007d
:0d374c000000000000000000000000000070
:20375900000000000000000000000000000000000000000000000000000000000000000050
:203779000000000000000000000000000000000000001000380000010000000000000000e7
:20379900000000000000000000000000000000000000000000000000000000000000000010
:0d37b9000000000000000000000000000003
:2037c6000000000000000000000000000000000000000000000000000000000000000000e3
:2037e60000000000000000000000000000000000000e1000000000030000000000000000a2
:203806000000000000000000000000000000000000000000000000000000000000000000a2
:0d3826000000000000000000000000000095
:20383300000000000000000000000000000000000000000000000000000000000000000075
:20385300000000000000000000000000000000000000100000000000000000000000000045
:20387300000000000000000000000000000000000000000000000000000000000000000035
:0d3893000000000000000000000000000028
:2038a000000000000000000000000000000000000000000000000000000000000000000008
:2038c0000000000000000000000000000000000000043000000000000000000000000000b4
:2038e0000000000000000000000000000000000000000000000000000000000000000000c8
:0d39000000000000000000000000000000ba
:20390d0000000000000000000000000000000000000000000000000000000000000000009a
:20392d00000000000000000000000000000000000004100000000001000000000000000065
:20394d0000000000000000000000000000000000000000000000000000000000000000005a
:0d396d00000000000000000000000000004d
:20397a0000000000000000000000000000000000000000000000000000000000000000002d
:20399a000000000000000000000000000000000000001000000000000000000000000000fd
:2039ba000000000000000000000000000000000000000000000000000000000000000000ed
:0d39da0000000000000000000000000000e0
:2039e7000000000000000000000000000000000000000000000000000000000000000000c0
:203a070000000000000000000000000000000000000010000000000000000000000000008f
:203a270000000000000000000000001000000000000000000000000000000000000000006f
:0d3a47000000000000000000000000000072
:203a5400000000000000000000000000000000000000000000000000000000000000000052
:203a74000000000000000000000000000000000000000000004000000000000000000000f2
:203a9400000000000000000000000000000000000000000000000000000000000000000012
:0d3ab4000000000000000000000000000005
:203ac1000000000000000000000000000000000000000000000000000000000000000000e5
:203ae1000000000000000000000000000000000000000000000020000000000000000000a5
:203b01000000000000000000000000000000000000000000000000000000000000000000a4
:0d3b21000000000000000000000000000097
:203b2e00000000000000000000000000000000000000000000000000000000000000000077
:203b4e00000000000000000000000000000000000000002000000000000000000000000037
:203b6e00000000000000000000000000000000000000000000000000000000000000000037
:0d3b8e00000000000000100000000000001a
:203b9b0000000000000000000000000000000000000000000000000000000000000000000a
:203bbb00000000000000000000000000000000000000001c000000000000000000000000ce
:203bdb000000000000000000000000000000000000000000000000000000000000000000ca
:0d3bfb0000000000000000000000000000bd
:203c080000000000000000000000000000000000000000000000000000000000000000009c
:203c280000000000000000000000000000000000000000000000000000000000000000007c
:203c480000000000000000000000000010000000000000000000000000000000000000004c
:0d3c6800000000000000000000000000004f
:203c750000000000000000000000000000000000000000000000000000000000000000002f
:203c950000000000000000000000000000000000000000000000000000000000000000000f
:203cb5000000000000000000000000000800000000000000000000000000000000000000e7
:0d3cd50000000000000000000000000000e2
:203ce2000000000000000000000000000000000000000000000000000000000000000000c2
:203d020000000000000000000000000000000000000c000000000000000000000000000095
:203d2200000000000000000000000000c000000000000000000000000000000000000000c1
:0d3d42000000000000000000000000000074
:203d4f00000000000000000000000000000000000000000000000000000000000000000054
:203d6f00000000000000000000000000000000000004100000000000000000000000000020
:203d8f00000000000000000000000000000000000000000000000000000000000000000014
:0d3daf000000000000000000000000000007
:203dbc000000000000000000000000000000000000000000000000000000000000000000e7
:203ddc000000000000000000000000000000000000000000000000000000000000000000c7
:203dfc000000000000000000000000000000000000000000000000000000000000000000a7
:0d3e1c000000000000000000000000000099
:203e2900000000000000000000000000000000000000000000000000000000000000000079
:203e4900000000000000000000000000000000000000100000000000000000000000000049
:203e6900000000000000000000000000000000000000000000000000000000000000000039
:0d3e8900000000000000000000000000002c
:203e960000000000000000000000000000000000000000000000000000000000000000000c
:203eb60000000000000000000000000000000000000e0000380000000000000000000000a6
:203ed6000000000000000000000000000000000000000000000000000000000000000000cc
:0d3ef60000000000000000000000000000bf
:203f030000000000000000000000000000000000000000000000000000000000000000009e
:203f2300000000000000000000000000000000000000060040000000000000000000000038
:203f430000000000000000000000000000000000000000000000000000000000000000005e
:0d3f63000000000000000000000000000051
:203f7000000000000000000000000000000000000000000000000000000000000000000031
:203f9000000000000000000000000000000000000000000000000000000000000000000011
:203fb00000000000000000000000000a0000000000000000000000000000000000000000e7
:0d3fd00000000000000000000000000000e4
:203fdd000000000000000000000000000000000000000000000000000000000000000000c4
:203ffd000000000000000000000000000000000000000000000000000000000000000000a4
:20401d00000000000000000000000000000000000000000000000000000000000000000083
:0d403d000000000000000000000000000076
:20404a00000000000000000000000000000000000000000000000000000000000000000056
:20406a00000000000000000000000000000000000000000000000000000000000000000036
:20408a00000000000000000000000000000000000000000000000000000000000000000016
:0d40aa000000000000000000000000000009
:2040b7000000000000000000000000000000000000000000000000000000000000000000e9
:2040d7000000000000000000000000000000000000000000000000000000000000000000c9
:2040f700000000000000000000000000600000000000000000000000000000000000000049
:0d411700000000000000000000000000009b
:2041240000000000000000000000000000000000000000000000000000000000000000007b
:204144000000000000000000000000000000000000000000006000000000000000000000fb
:2041640000000000000000000000000000000000000000000000000000000000000000003b
:0d418400000000000000000000000000002e
:2041910000000000000000000000000000000000000000000000000000000000000000000e
:2041b10000000000000000000000000000000000000000000020800400000000000010003a
:2041d10000000000004000000000000000000000000000000000000000000000000000008e
:0d41f10000000000000000000000000000c1
:2041fe00000000000000000000000000000000000000400000000000000000000000000061
:20421e0000000000000000000000000000000000000000400000000400000000000010002c
:20423e00000000000040000000000000c00000000000000000000000000000000000000060
:0d425e000000000000000000000000000053
:20426b000000000000000000000000000000000000000000000000100000000000004000e3
:20428b000000000000000000000000000000000000000024000000000040000000000000af
:2042ab000000000000000000000000000800000000000000000000000000000000000000eb
:0d42cb0040000000000001000000000000a5
:2042d8000000000000000000000000000000000000000000000000000000000000040000c2
:2042f8000000000000000000000000000000000000000000000000000000000000000000a6
:20431800000000000000000000000000000000000000000000000000000000000000000085
:0d4338000000000000000000000000000078
:20434500000000000000000000000000000000000000000000000000000000000000000058
:20436500000000000000000000000000000000000000000000000000000000000000000038
:20438500000000000000000000000000000000000000000000000000000000000000000018
:0d43a500000000000000000000000000000b
:2043b2000000000000000000000000000000000000000000000000000000000000000000eb
:2043d20000000000000000000000000000000000000c0000000000000000000000000000bf
:2043f2000000000000000000000000000000000000000000000000000000000000000000ab
:0d441200000000000000000000000000009d
:20441f0000000000000000000000000000000000000000000000001000000000000040002d
:20443f00000000000000000000000000000000000004100000000004000000000000100035
:20445f000000000000400000000000010000000000000000000000000010000000000000ec
:0d447f0040000000000001000000000000ef
:20448c00000000000000000000000000000000000000000000000000000000000000000010
:2044ac000000000000000000000000000000000000001000000000000000000000000000e0
:2044cc000000000000000000000000000000000000000000000000000000000000000000d0
:0d44ec0000000000000000000000000000c3
:2044f9000000000000000000000000000000000000000000000000000000000000000000a3
:20451900000000000000000000000000000000000000100000000000000000000000000072
:20453900000000000000000000000000000000000000000000000000000000000000000062
:0d4559000000000000000000000000000055
:20456600000000000000000000000000000000000000000000000000000000000000000035
:2045860000000000000000000000000000000000000e101c000000000000000000000000db
:2045a6000000000000000000000000000000000000000000000000000000000000000000f5
:0d45c60000000000000000000000000000e8
:2045d3000000000000000000000000000000000000000000000000000000000000000000c8
:2045f300000000000000000000000000000000000000102600000000000000000000000072
:20461300000000000000000000000000000000000000000000000000000000000000000087
:0d463300000000000000000000000000007a
:2046400000000000000000000000000000000000000000000000000000000000000000005a
:204660000000000000000000000000000000000000041000380000000000000000000000ee
:20468000000000000000000000000000040000000000000000000000000000000000000016
:0d46a000000000000000000000000000000d
:2046ad000000000000000000000000000000000000000000000000000000000000000000ed
:2046cd0000000000000000000000000000000000000c100040000000000000000000000071
:2046ed000000000000000000000000000000000000000000000000000000000000000000ad
:0d470d00000000000000000000000000009f
:20471a0000000000000000000000000000000000000000000000000000000000000000007f
:20473a0000000000000000000000000000000000000010000000000000000000000000004f
:20475a00000000000000000000000004080000000000000000000000000000000000000033
:0d477a000000000000000000000000000032
:20478700000000000000000000000000000000000000000000000000000000000000000012
:2047a7000000000000000000000000000000000000001000000000000000000000000000e2
:2047c7000000000000000000000000021000000000000000000000000000000000000000c0
:0d47e70000000000000000000000000000c5
:2047f4000000000000000000000000000000000000000000000000000000000000000000a5
:20481400000000000000000000000000000000000000000000601000000000000000000014
:20483400000000000000000000000000000000000000000000000000000000000000000064
:0d4854000000000000000000000000000057
:20486100000000000000000000000000000000000000000000000000000000000000000037
:20488100000000000000000000000000000000000000000000000000000000000000000017
:2048a1000000000000000000000000000000000000000000000000000000000000000000f7
:0d48c10000000000000000000000000000ea
:2048ce000000000000000000000000000000000000000000000000000000000000000000ca
:2048ee000000000000000000000000000000000000000000000000000000000000000000aa
:20490e00000000000000000000000000000000000000000000000000000000000000000089
:0d492e00000000000000000000000000007c
:20493b0000000000000000000000000000000000000000000000000000000000000000005c
:20495b000000000000000000000000000000000000000000000000028000000000000000ba
:20497b0000000000000000000000000000000000000000000000000000000000000000001c
:0d499b00000000000000000000000000000f
:2049a8000000000000000000000000000000000000000000000000000000000000000000ef
:2049c8000000000000000000000000000000000000000000000000000000000000000000cf
:2049e8000000000000000000000000000000000000000000000000000000000000000000af
:0d4a080000000000000000000000000000a1
:204a1500000000000000000000000000000000000000000000000000000000000000000081
:204a3500000000000000000000000000000000000000000000000000000000000000000061
:204a5500000000000000000000000000000000000000000000000000000000000000000041
:0d4a75000000000000000000000000000034
:204a8200000000000000000000000000000000000000000000000000000000000000000014
:204aa2000000000000000000000000000000000000040000000000000000000000000000f0
:204ac2000000000000000000000000000000000000000000000000000000000000000000d4
:0d4ae20000000000000000000000000000c7
:204aef000000000000000000000000000000000000000000000000000000000000000000a7
:204b0f00000000000000000000000000000000000004000000000002800000000000000000
:204b2f00000000000000000000000000000000000000000000000000000000000000000066
:0d4b4f000000000000000000000000000059
:204b5c00000000000000000000000000000000000000000000000000000000000000000039
:204b7c00000000000000000000000000000000000000000000000000000000000000001efb
:204b9c0001dc05c0000000006bc1000000000000000000000000000000000000000000002b
:0d4bbc00000000283d000000000000000087
:204bc9000002000000000000000000000000000000000000000000000000000000000000ca
:204be90000000000000000000000000000000000000090000000000000000000000000021a
:204c0900325cf5080000000043c004000000000000000000000000000000000000000000f9
:0d4c2900000000003c000000000000000042
:204c360000000002000000000000000000000000000000000000000000000000000000005c
:204c560000000000000000000000000000000000000e00000000000000000000000e000022
:204c760001c805c0b80000000000000000000ecfa0000040000000000000000000000038e3
:0d4c960000000033e90000000000000000f5
:204ca3000000000500000000000000000000000000000000000000000000000000000000ec
:204cc300000000000000000000000000000000000000060000000000000000000004003c8b
:204ce3002440f508000000000000000000003d0050040000000000000000000000000000bf
:0d4d030000000503d40000000000000000c7
:204d1000000000000000000000000000000000000000000000000000000000000000000083
:204d3000000000000000000000000000000000000000000000000000000000000000020061
:204d5000656805e01000000000000000000000000000000000000000000000000000000081
:0d4d70000000000000000000000000000036
:204d7d00000000000000000000000000000000000000000000000000000000000000000016
:204d9d000000000000000000000000000000000000000000000000000000000000000000f6
:204dbd003e40f5006000000000000000000000000000000000000000000000000000000003
:0d4ddd0000100000000000000000000000b9
:204dea00007800000000000000000000000000000000000000000000000000000000000031
:204e0a00000000000000000000000000000000000000000000000000500000000000002018
:204e2a00014805e0800000100000000000000000000000500000000000200000000000003a
:0d4e4a00000000000000100000000000004b
:204e570000000000000000000000000000000000000000000000000000000000000000003b
:204e770000000000000000000000000000000000000000003c000000200000000000003c83
:204e97000060f501400000a00000000000000000000000200000000000080000000000009d
:0d4eb70000000000000010000000000000de
:204ec4000000000000000000000000000000000000000000000000000000000000000000ce
:204ee4000000000000000000000000000000000000000400016004008000000000000000c5
:204f040001e8f08100000000000000000000400000000000000000000000000000000000f3
:0d4f24000080000000000000000000000000
:204f3100000000000000000000000000000000000000000000000000000000000000000060
:204f5100000000000000000000000000000000000000000000200000000000000000003ce4
:204f710000000f00000000000000000000038000000000000000000000000000000000008e
:0d4f91000010000000000000000000000003
:204f9e004800000000000000000000000000000000000000000000000000000000000000ab
:204fbe000000000000000000000000000000000000000000000000000000000000000000d3
:204fde003868f080400000000000000400000000000000000000000000000000000000005f
:0d4ffe000000003be9000000000000000082
:20500b000c0000000000000000000000000000000000000000000000000000000000000079
:20502b000000000000000000000000000000000000000004000000038000000000000000de
:20504b0040000f00000000000000000203c000000000000000000000000000000000000031
:0d506b0000000503d400000000000000005c
:20507800000000000000000000000000000000000000000000000000000000000004000014
:205098000000000000000000000000000000000000000000000000000000000000000226d0
:2050b8000148f08000000000000000000000400000000000000000000000000000000000df
:0d50d80000180000000000000000000000b3
:2050e50080000000000000000000000000000000000000000000000000000000000000002b
:20510500000000000000000000000000000000000000000000000000000000000000000486
:2051250000200f2000000000000000000003c0000000004000000000000000000000000018
:0d514500000000000000000000000000005d
:205152004000000000000000000000000000000000000000000000000000000000000000fd
:2051720000000000000000000000000000000000000c0000000000000000000000040020ed
:205192000068f0801000000000000000000000000000000000000000000000000000000015
:0d51b20000000000000000000000000000f0
:2051bf000000000000000000000000000000000000000000000000000000000000000000d0
:2051df00000000000000000000000000000000000004000000000000000000000000002c80
:2051ff0000200f0040000000000000000000000000001020000000000000000000000000f1
:0d521f000000000000000000000000000082
:20522c00000000000000000000000000000000000000000000000000000000000000000062
:20524c000000000000000000000000000000000000001000040000000000000000000e0020
:20526c0000e8f0800010018000000000000021e552000000008723800000000000000000b7
:0d528c000000000000000000000000000015
:205299000000000000000000000000000000000000000000000000000000000000000000f5
:2052b90000000000000000000000000000000000000010003c000002000000000000000087
:2052d90000200f0440000000000000000002fd0aa0000000001393400000000000000000b3
:0d52f90000000000000000000000000000a8
:20530600000000000000000000000000000000000000000000000000000000000000000087
:2053260000000000000000000000000000000000000e10040000000000000000000e4000f7
:2053460001c855503800000000000000020000000000000f00fbadc08e001e020afa400036
:0d536600000000000000000000000000003a
:2053730000000000000000000000000000000000000000000000000000000000000000001a
:20539300000000000000000000000000000000000000100e000000030f00000000008c003e
:2053b30000005511000000000000000001c000000000000b001408400000020050f50040c5
:0d53d30000000000000000000000000000cd
:2053e0000000000000000000000000000000000000000000000000000000000000000000ad
:205400000000000000000000000000000000000000041000000000000000d7be80040080df
:20542000000000001000000b23e88000000000000000000000000000000000600000000066
:0d544000000000000000000000000000005f
:20544d0000000000000000000000000000000000000000000000000000000000000000003f
:20546d00000000000000000000000000000000000004100000000002800fdc028008010013
:20548d000000000020005005c01404000000000000000000000000000000000000000000b2
:0d54ad0000000000000000000000000000f2
:2054ba000000000000000000000000000000000000000000000000000000000000000000d2
:2054da00000000000000000000000000000000000000100000000000000a0695400001407c
:2054fa00000000000001180073c18000020000000000000000000000000006021afa400067
:0d551a000000000000000000000000000084
:20552700000000000000000000000000000000000000000000000000000000000000000064
:205547000000000000000000000000000000000000001e00000000028010742a80000080f6
:2055670000000000000200b003c0040002c0000000000000000000000000020040f50000b2
:0d5587000000000000000000000000000017
:205594000000000000000000000000000000000000000000000000000000000000000000f7
:2055b40000000000000000000000000000000000000000000060400000003fa54080000093
:2055d40000000000000001e96fa000000042acccc0000000007b82800000000000000000c7
:0d55f400000000000000200000000000008a
:20560100000000000000000000000000000000000000000000000000000000000000000089
:205621000000000000000000000000000000000000000000000000000000f01588000000dc
:20564100000000000000000beb300000082405e5c0000000000002800000000000000000cb
:0d566100000000000000000000000000003c
:20566e0000000000000000000000000000000000000000000000000000000000000000001c
:20568e00000000000000000000000000000000000000000000000000578000000000000025
:2056ae0070000000002098180295840000003e8590300007000000000020000000000000d7
:0d56ce00380000000000000800000000008f
:2056db000000000000000000000000000000000000000000000000000000000000000000af
:2056fb0000000000000000000000000000000000000000000000000020000000000000006f
:20571b00400000000000988f01680000000015056000000000000000000000000000000024
:0d573b000000000000000010000000000051
:20574800000000000000000000000000000000000000000000000000000000000000000041
:20576800000000000000000000000000000000000000000000000000201e000000000006dd
:20578800000000000000000073c1800001e0000ff18c00091c0000000000000000000000bb
:0d57a80000000000000000000000000000f4
:2057b5000000000000000000000000000000000000000000000000000000000000000000d4
:2057d5000000000000000000000000000000000000000000000000000900000000000001aa
:2057f50000000000000000b003c000008000000ff000000f80000000000000000000000013
:0d5815000000000000000000000000000086
:20582200000000000000000000000000000000000000000000000000000000000004000062
:20584200000000000000000000000000000000000004000000000000000b1fa800048000ec
:2058620000000000100200b3f880000001e2400000000009000000000000000000000002bb
:0d58820000000000000000c0000000000059
:20588f000000000000000000000000000000000000000000000000000000000000040000f5
:2058af00000000000000000000000000000000000004000000000000090f04280010410040
:2058cf000000000000040195fc0000008027c00000000007000000000002000000000001b2
:0d58ef0000000000000000000000000000ac
:2058fc0000000000000000000000000000000000000000000000000000000000000000008c
:20591c00000000000000000000000000000000000000000000000000000000000000041453
:20593c00005f3e000000d80063c10020a0c06de530000000001a96402000000000000000a0
:0d595c00000000000000000000000000003e
:2059690000000000000000000000000000000000000000000000000000000000000000001e
:20598900000000000000000000000000000000000000100000000000000a00000000005490
:2059a90001db14000000b00043c00000e2620ca3a00003000d566a40000000000000000098
:0d59c90000000000000000000000000000d1
:2059d6000000000000000000000000000000000000000000000000000000000000000000b1
:2059f60000000000000000000000000000000000000e0000000003820100033c1c2e000074
:205a16000040a540380000edb028000000000e8300200005801b03c0000000380000000002
:0d5a3600000000000000000800000000005b
:205a4300000000000000000000000000000000000000000000000000000000000000000043
:205a63000000000000000000000000000000000000000e00000000000080003c0010000049
:205a83000000a5000000000d803c000000000703f00002050037434010000040000000008a
:0d5aa30000000000000000100000000000e6
:205ab0000000000000000000000000000000000000000000000000000000000000000000d6
:205ad0000000000000000000000000000000000000010080040001000180000000040000ab
:205af0000000a5401000580132f40800a0c696e0f0000005010382c080000003def50000ad
:0d5b10000000000000000000000000000088
:205b1d00000000000000000000000000000000000000000000000000000000000000000068
:205b3d0000000000000000000000000000000000000101003800020000c900000008001c1f
:205b5d0000405a002000000101fc000000200400001000000a9001c04000000360a000009e
:0d5b7d00000000000000000000000000001b
:205b8a000000000000000000000000000000000000000000000000000000000000000000fb
:205baa000000000000000000000000000000000000000000000000002000fa8ec000014032
:205bca0060000000003819afea908800000035e3f0200080000000000000003aeef5000094
:0d5bea0000000000000000000000000000ae
:205bf70000000000000000000000000000000000000000000000000000000000000000008e
:205c17000000000000000000000000000009000000000e0000000003400072f740000080ea
:205c370040000000000050a5816c041042402c00301000000c0000000000004240a00000fb
:0d5c5700020000000000000000000000003e
:205c6400000000000000000000000000000000000000000000000000000000000000000020
:205c840000000000000000000000000007013690004000800140000029807b8b8080000082
:205ca4000000000002809805f800000000e23ceaf00000139d069540000140000000000005
:0d5cc40000000000000000000000000000d3
:205cd1000000000000000000000000000000000000000000000000000000000000000000b3
:205cf100000000000000000000000000008d7740000001000020200017009c1d00008014aa
:205d11000000000000001807ea00000020200e0ff00000209db42a80000080000000000081
:0d5d31000000000000000000000000000065
:205d3e00000000000000000000000000000000000000000000000000000000000000000045
:205d5e00000000000000000000000000000000000000000000000000000000000000000025
:205d7e0004ecaf01000000006b14080003e6dcbca00008001ff3a54080000000000000003e
:0d5d9e0000000000000000000000000000f8
:205dab000000000000000000000000000000000000000000000000000000000000000000d8
:205dcb00000000000000000000000000000000000000002400000003800000000000000011
:205deb002020af00000100004328000001e3edc5500000000fb415800000040000000000fb
:0d5e0b00000000000000000000000000008a
:205e180000000000000000000000000000000000000000000000000000000000000000006a
:205e38000000000000000000000000000100000000000000000000000000361540000006b8
:205e5800000af060c000180063c1000041c024c00000000f1e76be8000001c0400000000ee
:0d5e7800000000000000000000000000001d
:205e85000000000000000000000000000000000000000000000000000000000000000000fd
:205ea500000000000000000000000000008000000000000000000000000a001540000000fe
:205ec5000000f0290000080043c000000362cc00f004000b10b402800000023800000000e9
:0d5ee50000040000000000000000000000ac
:205ef200000000000000000000000000000000000000000000000000000000000000000090
:205f120000000000000000000000000000000000000ca000000001400701033c14440000e3
:205f32000400a540100001913eb80000b1628fe6f010682800f7330080000000000000000c
:0d5f52000000000000000000000000000042
:205f5f00000000000000000000000000000000000000000000000000000000000000000022
:205f7f000000000000000000000000038000000000040e00000000400f08003c007000006a
:205f9f0029405a00000000813d7c00000b441d8250004051007c17000000bc0000000000c7
:0d5fbf0000000000000000000000000000d5
:205fcc000000000000000000000000000000000000000000000000000000000000000000b5
:205fec00000000000000000000000000000000000000100000000000050012be800000949c
:20600c0064da3f00000000b5a4248000094044e330000000005eba00000000000000000042
:0d602c000000000000000000000000000067
:20603900000000000000000000000000000000000000000000000000000000000000000047
:2060590000000000000000000000000000000000000010000000000003005401400001007e
:2060790076daf320000000a965a404000002b5fcc0100000003bc5c0000000280000000083
:0d60990018000000000000000200000000e0
:2060a6000000000000000000000000000000000000000000000000000000000000000000da
:2060c60000000000000000000000002000000000000e101c00000000010b9b4ec000001c8f
:2060e600046847000101d8e167440000000036e0200000000056b8808e0020055850004022
:0d610600000000000000e0000000000000ac
:2061130000000000000000000000000000000000000000000000000000000000000000006c
:20613300000000000000000000000013800000000000102600000002808dbffb8000060232
:20615300247f5b00002850b0a344000000002cafe00000070008388000003c37d005004015
:0d61730000000000000000e000000000003f
:206180000000000000000000000000000000000000000000000000000000000000000000ff
:2061a00000000000000000000000000000000000000c1000000000000d00d3b44080401c13
:2061c00003ca902200009005a4244002036681ee202028001800000000001c2e0cfa4000b9
:0d61e00000000000000000000000000000b2
:2061ed00000000000000000000000000000000000000000000000000000000000000000092
:20620d00000000000000000000000000000000000004100000000000018bd411c0002014f8
:20622d000360f009000098e9665804000943a50d1010100b000000000000003850f50000fc
:0d624d000000000000000000000000000044
:20625a00000000000000000000000000000000000000000000000000000000000000000024
:20627a0000000000000000000000000000000000000010000000000000199320c0810040a7
:20629a0038fef1020080d1fdf154080001e2b7e7b02000018037bc0000002001496e000083
:0d62ba000000000000000008001e8a000027
:2062c7000000000000000000000000000000000000000000000000000000000000000000b7
:2062e7000000000000000000000000000000000000001000000000000009d030c00101803c
:206307003a604f000100b8d301c4000010241f0ff00000070e577400400e3c037e1c0100e2
:0d632700000000000000001000030a0080cc
:20633400000000000000000000000000000000000000000000000000000000000000000049
:20635400000000000000000000000000000000000000000000601000080012954040003456
:2063740005e83300001200a06154000000038dc0f00000080e5fa580800000241aaf5000eb
:0d63940000000000000000000000000000fc
:2063a1000000000000000000000000000000000000000000000000000000000000000000dc
:2063c1000000000000000000000000000000000000000000380000000f0804154000002ee6
:2063e10021fc6c000005010942a8000001441eac3000200f0008258040000022c05f00007e
:0d640100000000000000000000000000008e
:20640e0000000000000000000000000000000000000000000000000000000000000000006e
:20642e0000000000000000000000000000000000000000000000000000083b870080a00064
:20644e0002ce7300000818056a10000001429c8f0000000f809b238000000e000000000003
:0d646e0000000000000000000000ef05002d
:20647b00000000000000000000000000000000000000000000000000000000000000000001
:20649b00000000000000000000000000000000000000000000000002890070304040002412
:2064bb003bc94c000000580b2b78000000242d00f00000090bd36c80000002000000000055
:0d64db0000000000000000c000010f0000e4
:2064e800000000000000000000000000000000000000000000000000000000000000000094
:2065080000000000000000000000000000000000000000000000000007011e17c000000e68
:2065280003f84a000000000d6be80000004755dcc00020280e7fb30000001c00eef50100ee
:0d65480000000000000000000780000000bf
:20655500000000000000000000000000000000000000000000000000000000000000000026
:20657500000000000000000000000000000000000000000000000000090a0817c010000202
:2065950020ca5a000000000dc028000000021dac9000105b0036ccc00000243dc0a0000064
:0d65b50000000000000000000400000000d5
:2065c2000000000000000000000000000000000000000000000000000000000000000000b9
:2065e200000000000000000000000000000000000004000000000000000080198040003c00
:2066020002cc6900420000002398080000e6decf000000000ebf35000000000000000000a7
:0d66220000000000000000e0020000000089
