:02000000ff00ff
:080002004c6174746963650030
:17000a00694345637562653220323032302e31322e32373934330071
:16002100506172743a2069434534304858384b2d43423133320018
:1b003700446174653a204d617920333020323032322030383a33363a30300081
:0200520000ffad
:040054007eaa997e69
:02005800510055
:02005a0001059e
:03005c00920020ef
:03005f00620367d2
:0300620072011018
:0300650082000016
:02006800110085
:02006a00010192
:20006c00000000000000000000000000000000000000000000000000000000000000000074
:20008c00000000000000000000000000000000000000000000000000000000000000000054
:2000ac0000000000000000000000000800000000000000000000000000000000000000002c
:0d00cc000000000000000000000000000027
:2000d900000000000000000000000000000000000000000000000000000000000000000007
:2000f9000000000000000000000000000000000000000000000000000000000000000000e7
:200119000000000000000000000000000000000000000000000000000000000000000000c6
:0d01390000000000000000000000000000b9
:20014600000000000000000000000000000000000000000000000000000000000000000099
:20016600000000000000000000000000000000000000000000000000000000000000000079
:20018600000000000000000000000004000000000000000000000000000000000000000055
:0d01a6000000000000000400000000000048
:2001b30000000000000000000000000000000000000000000000000000000000000000002c
:2001d30000000000000000000000000000000000000000000000000000000000000000000c
:2001f3000000000000000000000000000000000000000000000000000000000000000000ec
:0d02130000000000000000000000000000de
:200220000000000000000000000000000000000000000000000000000000000000000000be
:2002400000000000000000000000000000000000000000000000000000000000000000009e
:20026000000000000000000000000008000000000000000000000000000000000000000076
:0d0280000000000000000000000000000071
:20028d00000000000000000000000000000000000000000000000000000000000000000051
:2002ad00000000000000000000000000000000000000000000000000000000000000000031
:2002cd00000000000000000000000000000000000000000000000000000000000000000011
:0d02ed000000000000000000000000000004
:2002fa000000000000000000000000000000000000000000000000000000000000000000e4
:20031a000000000000000000000000000000000000000000000000000000000000000000c3
:20033a000000000000000000000000000000000000000000000000000000000000000000a3
:0d035a000000000000000000000000000096
:20036700000000000000000000000000000000000000000000000000000000000000000076
:20038700000000000000000000000000000000000000000000000000000000000000000056
:2003a700000000000000000000000000000000000000000000000000000000000000000036
:0d03c7000000000000000000000000000029
:2003d400000000000000000000000000000000000000000000000000000000000000000009
:2003f4000000000000000000000000000000000000000000000000000000000000000000e9
:200414000000000000000000000000000000000000000000000000000000000000000000c8
:0d04340000000800000000000010000000a3
:2004410000000000000000000000000000000000000000000000000000000000000000009b
:2004610000000000000000000000000000000000000000000000000000000000000000007b
:2004810000000000000000000000000000000000000000000000000000000000000000005b
:0d04a100000000000000000000000000004e
:2004ae0000000000000000000000000000000000000000000000000000000000000000002e
:2004ce0000000000000000000000000000000000000000000000000000000000000000000e
:2004ee000000000000000000000000000000000000000000000000000000000000000000ee
:0d050e0000000000000000000000000000e0
:20051b000000000000000000000000000000000000000000000000000000000000000000c0
:20053b000000000000000000000000000000000000000000000000000000000000000000a0
:20055b0000000000000000000000000000000000000000000000000000000000000000027e
:0d057b000000000000000000000000000073
:20058800000000000000000000000000000000000000000000000000000000000000000053
:2005a800000000000000000000000000000000000000000000000000000000000000000033
:2005c800000000000000000000000000000000000000000000000000000000000000000013
:0d05e8000000000000000000000000000006
:2005f5000000000000000000000000000000000000000000000000000000000000000000e6
:200615000000000000000000000000000000000000000000000000000000000000000000c5
:200635000000000000000000000000000000000000000000000000000000000000000001a4
:0d0655000000000000000000000000000098
:20066200000000000000000000000000000000000000000000000000000000000000000078
:20068200000000000000000000000000000000000000000000000000000000000000000058
:2006a200000000000000000000000000000010000000000000000000000000000000000028
:0d06c200000000000000000000100000001b
:2006cf0000000000000000000000000000000000000000000000000000000000000000000b
:2006ef000000000000000000000000000000000000000000000000000000000000000000eb
:20070f000000000000000000000000000000000000000000000000000000000000000002c8
:0d072f0000000000000000000000000000bd
:20073c0000000000000000000000000000000000000000000000000000000000000000009d
:20075c0000000000000000000000000000000000000000000000000000000000000000007d
:20077c0000000000000000000000000000000000000000000000000000000000000000005d
:20169000000000000000000000000000000000000000000000000000000000000004000036
:2016b00000000000000000000000000000000000000000000000000000000000000000001a
:2016d0000000000000000000000000000000000000000000000000000000000000000000fa
:0d16f00000000000000000000000000000ed
:2016fd000000000000000000000000000000000000000000000000000000000000000000cd
:20171d000000000000000000000000000000000000000000000000000000000000000000ac
:20173d0000000000000000000000000000000000000000000000000000000000000000008c
:0d175d00000000000000000000000000007f
:20176a0000000000000000000000000000000000000000000000000000000000000000005f
:20178a0000000000000000000000000000000000000100000000000000000000000000003e
:2017aa0000000000000000000000000000000000000000000000000000000000000000001f
:0d17ca000000000000000000000000000012
:2017d7000000000000000000000000000000000000000000000000000000000000000000f2
:2017f7000000000000000000000000000000000000010000000000000000000000000000d1
:201817000000000000000000000000000000000000000000000000000000000000000000b1
:0d18370000000000000000000000000000a4
:20184400000000000000000000000000000000000000000000000000000000000000000084
:20186400000000000000000000000000000000000000000000000000000000000000000064
:201c19000002000000000000000000000000000000000000000000000000000000000000a9
:201c390000000000000000000000000000000000000000000000000000000000000000008b
:201c590000000000000000000000000000000000000000000000000000000000000000006b
:0d1c7900000000000000000000000000005e
:201c860000000000000000000000000000000000000000000000000000000000000000003e
:201fee0044000000000000000000000000000000000000000000000000000000000000008f
:20200e00000000000000000000000040000000000000000000000000000000000000000072
:20202e00000000000000000000000000000000000000000000000000000000000000000092
:0d204e000000000000000000000000000085
:20205b000c3000000000000000000000000000000000000000000000000000000000000029
:20207b00000000000000000000000040000000000000000000000000000000000000000005
:20209b00000000000000000000000000000000000000000000000000000000000000000025
:0d20bb000000000000000000000000000018
:2020c8000000000000000000000000000000000000000000000000000000000000000000f8
:2020e8000000000000000000000000000000000000000000000000000000000000000000d8
:202108000000000000000000000000000000000000000000000000000000000000000000b7
:0d21280000000000000000000000000000aa
:2021350080000000000000000000000000000000000000000000000000000000000000000a
:2021550000000000000000000000000000000000000000000000000000000000000000006a
:2021750000000000000000000000000000000000000000000000000000000000000000004a
:0d219500000000000000000000000000003d
:2021a2004000000000000000000000000000000000000000000000000000000000000000dd
:2021c200000000000000000000000000000000000000a0000000000000000000000000005d
:2021e2000000000000000000000000000000000000000000000000000000000000000000dd
:0d22020000000000000000000000000000cf
:20220f000000000000000000000000000000000000000000000000000000000000000000af
:20222f0000000000000000000000000000000000000040000000000000400000000000000f
:20224f0000000000000000000000000000000000000000000000000000000000000000006f
:0d226f000000000000000000000000000062
:20227c00000000000000000000000000000000000000000000000000000000000000000042
:20229c00000000000000000000000000000000000000000020000000000000000000000002
:2022bc00000000000000000000000000000000000000000000000000000000000000000002
:0d22dc0000000000000000000000000000f5
:2022e9000000000000000000000000000000000000000000000000000000000000000000d5
:20230900000000000000000000000000000000000000100002c000000000000000000000e2
:20232900000000000000000000000000000000000000000000000000000000000000000094
:0d2349000000000000000000000000000087
:20235600000000000000000000000000000000000000000000000000000000000000000067
:2023760000000000000000000000000000000000000e000000000000000000000000000039
:20239600000000000000000000000000000000000000000000000000000000000000000027
:0d23b600000000000000000000000000001a
:2023c3000000000000000000000000000000000000000000000000000000000000000000fa
:2023e300000000000000000000000000000000000000002402400002000000000000000072
:202403000000000000000000000000000000000000000000000000000000000000000000b9
:0d24230000000000000000000000000000ac
:2024300000000000000000000000000000000000000000000000000000000000000000008c
:2024500000000000000000000000000000000000000000000200000000000000000000006a
:2024700000000000000000000000000000000000000000000000000000000000000000004c
:0d249000000000000000000000000000003f
:20249d0000000000000000000000000000000000000000000000000000000000000000001f
:2024bd00000000000000000000000000000000000000000002c0000000000000000000003d
:2024dd000000000000000000000000000000000000000000000000000000000000000000df
:0d24fd0000000000000000000000000000d2
:20250a000000000000000000000000000000000000000000000000000000000000000000b1
:20252a0000000000000000000000000000000000000000000200000000000000000040004f
:20254a00000000000000000000000000000000000000000000000000000000000000000071
:0d256a000000000000000000000000000064
:20257700000000000000000000000000000000000000000000000000000000000000000044
:20259700000000000000000000000000000000000000000002c00000000000000000200042
:2025b700000000000000000000000000000000000000000000000000000000000000000004
:0d25d70000000000000000000000000000f7
:2025e4000000000000000000000000000000000000000000000000000000000000000000d7
:2026040000000000000000000000000000000000000000043c000000000000000000000076
:20262400000000000000000000000000000000000000000000000000000000000000000096
:0d2644000000000000000000000000000089
:20265100000000000000000000000000000000000000000000000000000000000000000069
:2026710000000000000000000000000000000000000000267bc000000000000000000000e8
:20269100000000000000000000000000000000000000000000000000000000000000000029
:0d26b100000000000000000000000000001c
:2026be000000000000000000000000000000000000000000000000000000000000000000fc
:2026de000000000000000000000000000000000000000000280000000000000000000000b4
:2026fe000000000000000000000000000000000000000000000000000000000000000000bc
:0d271e0000000000000000000000000000ae
:20272b0000000000000000000000000000000000000000000000000000000000000000008e
:20274b0000000000000000000000000000000000000000002ac00000000000000000000084
:20276b0000000000000000000000000000000000000000000000000000000000000000004e
:0d278b000000000000000000000000000041
:20279800000000000000000000000000000000000000000000000000000000000000000021
:2027b8000000000000000000000000000000000000000000200000000000000000000000e1
:2027d8000000000000000000000000000000000000000000000000000000000000000000e1
:0d27f80000000000000000000000000000d4
:202805000000000000000000000000000000000000000000000000000000000000000000b3
:20282500000000000000100000000000000000000000000040c00000000000000000000083
:20284500000000000000000000000000000000000000000000000000000000000000000073
:0d2865000000000000000000000000000066
:20287200000000000000000000000000000000000000000000000000000000000000000046
:202892000000000000000000000000000000000000040000000000000000000000000e0014
:2028b200000000000000000000000000000000000000000000000000000000000000000006
:0d28d20000000000000000000000000000f9
:2028df000000000000000000000000000000000000000000000000000000000000000000d9
:2028ff00000000000000000000000000000000000004000000c000000000000000000000f5
:20291f00000000000000000000000000000000000000000000000000000000000000000098
:0d293f00000000000000000000000000008b
:20294c0040000000000000000000000000000000000000000000000000000000000000002b
:20296c00000000000000000000000000000000000000000c0200000000000000000000003d
:20298c0000000000000000000000000000000000000000000000000000000000000000002b
:0d29ac00000000000000000000000000001e
:2029b9000000000000000000000000000000000000000000000000000000000000000000fe
:2029d90000000000000000000000000000000000000000003b400000000000000000000063
:2029f9000000000000000000000000000000000000000000000000000000000000000000be
:0d2a190000000000000000000000000000b0
:202a260000040000000000000000000000000000000000000000000000000000000000008c
:202a460000000000000000000000000000000000000e00160000000000000000000000004c
:202a660000000000000200000000000000000000000000000000000000000000000000004e
:0d2a86000000000000000000000000000043
:202a930080340000000000000000000000000000000000000000000000000000000000006f
:202ab30000000000000000000000000000000000000000023fc00000000000000000000002
:202ad3000000000000010000000000000000000000000000000000000000000000000000e2
:0d2af30000000000000000000000000000d6
:202b0000400000000000000000000000000000000000000000000000000000000000000075
:202b200000000000000000000000000000000000000400000200000000000000000000008f
:202b4000000000000000000000000000000000000000000000000000000000000000000075
:0d2b60000000000000000000000000000068
:202b6d000c000000000000000000000000000000000000000000000000000000000000003c
:202b8d000000000000000000000000000000000000040000024000000009000000000000d9
:202bad00000000000000000000000000000000000000000000000000000000000000000008
:0d2bcd0000000000000000000000000000fb
:202bda000001000000000000000000000000000000000000000000000000000000000000da
:202bfa0000000000000000000000000000000000000000047a00000000000000000000003d
:202c1a0000000000000000000000000000000000000000000000000000000000000000009a
:0d2c3a00000000000000000000000000008d
:202c470000000000000000000000000000000000000000000000000000000000000000006d
:202c670000000000000000000000000000000000000000020040000000000000000000000b
:202c870000000000000000000000000000000000000000000000000000000000000000002d
:0d2ca7000000000000000000000000000020
:202cb400000000000000000000000000000000000000000000000000000000000000000000
:202cd400000000000000000000000000000000000000000e02c02400000e000000000000de
:202cf4000000000000000000000000000000000000000000000000000000000000000000c0
:0d2d140000000000000000000000000000b2
:202d2100000000000000000000000000000000000000000000000000000000000000000092
:202d4100000000000000000000000000000000000000000200c000000000000000000000b0
:202d6100000000000000000000000000000000000000000000000000000000000000000052
:0d2d81000000000000000000000000000045
:202d8e00000000000000000000000000000000000000000000000000000000000000000025
:202dae00000000000000000000000000000000000000000077c000000000000000000000ce
:202dce000000000000000000000000040000000000000000000000000000000000000000e1
:0d2dee0000000000000010000000000000c8
:202dfb000000000000000000000000000000000000000000000000000000000000000000b8
:202e1b00000000000000000000000000000000000000002436c04000090000000000020032
:202e3b0000000000000000000000000a00000000000000000000000000000000000000006d
:0d2e5b00000000000000000000000000006a
:202e680000000000000000000000000000000000000000000000000000000000000000004a
:202e8800000000000000000000000000000000000000000c03c03000000032814000000038
:202ea80000000000000000000000000000000000000000000000000000000000000000000a
:0d2ec80000000000000000000000000000fd
:202ed5000000000000000000000000000000000000000000000000000000000000000000dd
:202ef500000000000000000000000000000000000000000c2540000000000c0140000000ff
:202f150000000000000000000000000000000000000000000000000000000000000000009c
:0d2f3500000000000000000000000000008f
:202f420000000000000000000000000000000000000000000000000c000000000000000063
:202f620000000000000000000000000000000000000c000400e00400000007014000000013
:202f820000000000000000000000000000000000000000000000000000000000000000002f
:0d2fa2000000000000000000000000000022
:202faf00000000000000000000000000000000000000000000000000000000000000000002
:202fcf0000000000000000000000000000000000000c0002006000000000b0028000000042
:202fef000000000000000000000000000000000000000000000000000000000000000000c2
:0d300f0004000000000000000000000000b0
:20301c00000000000000000000000000000000000000000000000000000000000000000094
:20303c00000000000000000000000000000000000000000002000000000000000000000072
:20305c00000000000000000000000000000000000000000000000000000000000000000054
:0d307c000000000000000000000000000047
:20308900000000000000000000000000000000000000000000000000000000000000000027
:2030a900000000000000000000000000000000000000103c25c000000000000000000000d6
:2030c9000000000000000000000000000000000000000000000000000000000000000000e7
:0d30e90000000000000000000000000000da
:2030f6000000000000000000000000000000000000000000000000000000000000000000ba
:2031160000000000000000000000000000000000000e0000000000030000ffc700200000a2
:20313600000000000000000000000004000000000000000000000000000000000000000075
:0d315600000000000000000000000000006c
:2031630000000000000000000000000000000000000000000000000000000000000000004c
:20318300000000000000000000000000000000000000000001c000000000f7b5400000007f
:2031a30000000000000000000000000a000000000000000000000000000000000000000002
:0d31c30000000000000000000000000000ff
:2031d0000000000000000000000000000000000000000000000000000000000000000000df
:2031f000000000000000000000000000000000000000002000000028000000000000000077
:2032100000000000000000000000000000000000000000000000000000000000000000009e
:0d3230000000000000000000000000000091
:20323d00000000000000000000000000000000000000000000000000000000000000000071
:20325d00000000000000000000000000000000000000001c02400001804000000000000032
:20327d00000000000000000000000000000000000000000000000000000000000000000031
:0d329d000000000000000000000000000024
:2032aa00000000000000000000000000000000000000000000000000000000000000000004
:2032ca0000000000000000000000000000000000000000006a0000000000ffc6c0400000b5
:2032ea00000000000000000000000000e000000000000000000000000000000000000000e4
:0d330a0000000000000000000000000000b6
:20331700000000000000000000000000000000000000000000000000000000000000000096
:20333700000000000000000000000000000000000000003c41c00000000bf7ab000000008c
:20335700000000000000000000000000000000000000000000000000000000000000000056
:0d3377000000000000000000000000000049
:20338400000000000000000000000000000000000000000000000000000000000000000029
:2033a400000000000000000000000000000000000000000c7ac00000000cb6a80000000059
:2033c4000000000000000000000000000000000000000000000000000000000000000000e9
:0d33e40000000000000000000000000000dc
:2033f1000000000000000000000000000000000000000000000000000000000000000000bc
:20341100000000000000000000000000000000000000044242c008000010bc0282000000fb
:2034310000000000000000000000000000000000000000000000000000000000000000007b
:0d345100000000000000000000000000006e
:20345e0000000000000000000000000000000000000000000000000000000000000000004e
:20347e000000000000000000000000000000000000000020040000100000000000000000fa
:20349e0000000000000000000000000000000000000000000000000000000000000000000e
:0d34be000000000000000000000000000001
:2034cb000000000000000000000000000000000000000000000000000000000000000000e1
:2034eb00000000000000000000000000000000000000003c3eca0028000e00000000000047
:20350b000000000000000000000000000000000000000000000000000000000000000000a0
:0d352b000000000000000000000000000093
:20353800000000000000000000000000000000000000000000000000000000000001000072
:2035580000000000000000000000000000000000000000000600002000000000000000002d
:20357800000000000000000000000000000000000000000000000000000000000000000033
:0d3598000000000000000000000000000026
:2035a500000000000000000000000000000000000000000000000000000000000000000006
:2035c500000000000000000000000000000000000000002c3348000000000000000000003f
:2035e5000000000000000000000000000000000000000000000000000000000000000000c6
:0d36050000000000000000000000000000b8
:20361200000000000000000000000000000000000000000000000000000000000000000098
:2036320000000000000000000000000000000000000c002c0200000029990000000000007c
:20365200000000000000000000000000000000000000000000000000000000000000000058
:0d367200000000000000000000000000004b
:20367f0000000000000000000000000000000000000000000000000000000000000000002b
:20369f00000000000000000000000000000000000004001e014f00005999000000000000a7
:2036bf000000000000000000000000000000000000000000000000000000000000000000eb
:0d36df0000000000000000000000000000de
:2036ec000000000000000000000000000000000000000000000000000000000000000000be
:20370c00000000000000000000000000000000000000500022000000050a0000000001001b
:20372c00000000000000d18126000000000000000000000000000000000000000000000005
:0d374c000000000000000000000000000070
:20375900000000000000000000000000000000000000000000000000000000000000000050
:20377900000000000000000000000000000000000000300062c000000790000000000080c7
:2037990000000000000018037bd400000000000000000000000000000000000000000000a6
:0d37b9000000000000000000000000000003
:2037c6000000000000000000000000000000000000000000000000000000000000000000e3
:2037e60000000000000000000000000000000000000e101c200000200780d6940020000038
:2038060000000000000000e00000000000003ecc00000000000000000e00000000000000aa
:0d38260000000763d4000000000000000057
:20383300000000000000000000000000000000000000000000000000000000000000000075
:203853000000000000000000000000000000000000001024434000100000142a80000000d0
:20387300000000000000019000000000000014d3f0000000000000000000000000000000cd
:0d38930000100003d404000000000000003d
:2038a000000000000000000000000000000000000000000000000000000000000000000008
:2038c0000000000000000000000000000000000000040c0438000000078000000000000015
:2038e0000000000000000008795400000000000000000000000000000c00000000000000e7
:0d39000000000000000000000000000000ba
:20390d0000000000000000000000000000000000000000000000000000000000000000009a
:20392d0000000000000000000000000000000000000c00267a40000000800000000000000e
:20394d00000000000000000742a80000000000000000000000000000040000000000000065
:0d396d00000000000000000000000000004d
:20397a00000000000000000000000000000000000000000000000000000000000000000429
:20399a00000000000000000000000000000000000000000002000010000e000000000c00e1
:2039ba00000000000000000be1ec0804000000000000038000000000000080001cf04010aa
:0d39da0000000000000000000000000000e0
:2039e7000000000000000000000000000000000000000000000000000000000000000000c0
:203a070000000000000000000000000000000000000000000040002000000000000000003f
:203a270000000000000000b9c3b400020240000000000000000000000001000000f000001a
:0d3a47000000000000000000000000000072
:203a5400000000000000000000000000000000000000000000000000000000000000000052
:203a74000000000000000000000000000000000000000000026040200780000000000000e9
:203a940000000000000058006a98080000028000000000000000000000000000000000002e
:0d3ab4000000000000000000000000000005
:203ac1000000000000000000000000000000000000000000000000000000000000000000e5
:203ae1000000000000000000000000000000000000000200306000000080000000000000b3
:203b01000000000000009003416400000140000000000000000000000010002400000000f7
:0d3b21004000000000000000000000000057
:203b2e00000000000000000000000000000000000000000000000000000000000000000077
:203b4e00000000000000000000000000000000000000001e740100002000172840400e00d7
:203b6e00000000000000000138cc0800000000000000000000000000000000280000000002
:0d3b8e0038000000000000000000000000f2
:203b9b0000000000000000000000000000000000000000000000000000000000000000000a
:203bbb0000000000000000000000000000000000000000027a4c0000490092140000000033
:203bdb00000000000000f09f030c0000000000000000000000000000000014000000000018
:0d3bfb0000000000000000000000000000bd
:203c080000000000000000000000000000000000000000000000000000000000000000009c
:203c2800000000000000000000000000000000000000000000000000070133e1000000015f
:203c480000000000000050b000000000000000000000000000000000000000001cf0400010
:0d3c6800001000000000000000000000003f
:203c750000000000000000000000000000000000000000000000000000000000000000002f
:203c9500000000000000000000000000000000000000000002ca0000000f77bb40000000c2
:203cb50000000000000000e0000000000000000000000000000000000000000010f000000f
:0d3cd50000080000000000000000000000da
:203ce2000000000000000000000000000000000000000000000000000000000000000000c2
:203d020000000000000000000000000000000000000c00040001000003400000000000004d
:203d22000000000000001007777c000001c000000000038000000000040c00000000000023
:0d3d42000000000000000000000000000074
:203d4f00000000000000000000000000000000000000000000000000000000000000000054
:203d6f0000000000000000000000000000000000000c1002014d00000080000000000c003c
:203d8f00000000000000d0a3b80804000020000000000000000000000010000000000000ad
:0d3daf000000000000000000000000000007
:203dbc000000000000000000000000000000000000000000000000000000000000010000e6
:203ddc00000000000000000000000000000000000000010404000000000176d38020001cb8
:203dfc0068ef700000000005bd8c000001c285ef00000000001b36c0000000016e5e00007d
:0d3e1c0000000d7c1780000006c0000000b3
:203e29000000000000000000000000000000000000000000000000000000000000028000f7
:203e4900000000000000000000000000000000000000108c39c00000000d9a178000040280
:203e690001dcf0000000000775b0000000243700f000000000bab64000000001fb2f00001a
:0d3e890000000177d400000002800000005e
:203e960000000000000000000000000000000000000000000000000000000000000000000c
:203eb60000000000000400000000000000000000000e00006a00000308000294000e0006bb
:203ed600046a78020000000763880804054057a0002000000e72c6800e0a00001cf0403828
:0d3ef60000000d2017401400000000000027
:203f030000000000000000000000000000000000000000000000000000000000000000009e
:203f2300000000000008000000000000000000000000000041c0000003007428000001765f
:203f43003950e1000000d0b0c388000a0823450cc00000000007c6800000000010f0000096
:0d3f630000900503d40408000000000000d9
:203f7000000000000000000000000000000000000000000000000000000000000000000031
:203f9000000000000000000000000000000000000000000002000000479e000000008000aa
:203fb0006658840a00000005f25c0800000380000000000f987e82800c0000280ef060000e
:0d3fd00000999d2017000003600000000014
:203fdd000000000000000000000000000000000000000000000000000000000000000000c4
:203ffd00000000000000000000000000000000000000402400c00000200000000000003c24
:20401d003ae02100000000bfc3a40000000400000000000110dc03c00c00002c00f0000046
:0d403d0000f08183d4440001400000000029
:20404a00000000000000000000000000000000000000000000000000000000000000000056
:20406a00000000000000000000000000000000000000000400000040480052d00230000056
:20408a0001dec5000000001bfbc0000c61629d8fa000100001fabf40800006000000000071
:0d40aa0000000d2017400000000000000085
:2040b7000000000000000000000000000000000000000000000000000000000000000000e9
:2040d7000000000000000000000000000000000000000002004000400f007b604240001cbf
:2040f700007a5300000090b5003c000c00241f00a000280009902f400000002c0000000010
:0d41170000900583d460000000000000004f
:2041240000000000000000000000000000000000000000000000000000000000000000007b
:20414400000000000000000000000000000000000000004073c04000400076c70400000027
:2041640068dc5500000078083658000011402de690000001807ab000c0001403fa5a0100c9
:0d41840000000723c20000000014880000a6
:2041910000000000000000000000000000000000000000000000000000000000000000000e
:2041b100000000000000000000000000000000000000040001400000a0009a164000003cdd
:2041d100403055000000180f35a400000002a4e0600000000af00fc00010002970050000ac
:0d41f100400000003c00000000159c000094
:2041fe000000000000000000000000000000000000000000000000000100000000000000a0
:20421e00000000000000000000000000000000000000002e00000000001e16468040001602
:20423e00386d0460000001bb38cc00000003bec5a020000000000000004000041cf04100c0
:0d425e0000001723c2000000000000000057
:20426b00000000000000000000000000000000000000000000000000000000000000000033
:20428b00000000000000000000000000000000000000001c014d00000000fa8dc000003c26
:2042ab00276a7a20000010af6f300000e1402d0a700000000000000000b0002810f00000ca
:0d42cb004000f0003c000100000000000079
:2042d8000000000000000000000000000000000000000000000000000000000000000000c6
:2042f800000000000000000000000000000000000000400c000000282000000000000014fe
:204318006c000000000054ada9200000a1e7bd86601000058a000000000006241ef041000c
:0d4338000050a7a3c200000000000000001c
:20434500000000000000000000000000000000000000000000000000000000000000000058
:2043650000000000000000000000000000000000000020260248002001080000000000007f
:20438500280000000000009bfc48000004400cd330000000000000000000142000f0090091
:0d43a50000d900003c0000000000000000f6
:2043b2000000000000000000000000000000000000000000000000000000000000000000eb
:2043d20000000000000000000000000000000000000c001e0201000000000000000000019d
:2043f2006800000000005897e0e00800e24055e96020000dc072dfc00440a004da3b0010c1
:0d44120000001723c20000000000000000a1
:20441f0000000000000000000000000000000000000000000000000000000000000000007d
:20443f0000000000000000000000000000000000000c100c00c90004000000000000100058
:20445f0000000000004000a300b0000101420209600000050a07dfc000b15420ebee080040
:0d447f0040d0f0803c0001880000000000eb
:20448c00000000000000000000000000000000000000000000000000000000000000000010
:2044ac00000000000000000000000000000000000001100020000008501833fb40010004dc
:2044cc00044cc020000001a00000000000005e142000000800f2e3c0000000001af0700056
:0d44ec0000001523c20000006057db000433
:2044f9000000000000000000000000000000000000000000000000000000000000000000a3
:204519000000000000000000000000000000000000011004404000110000739200010034a2
:2045390035c8300000000100000000042003be8240000009001ed4000000000000f0100092
:0d4559000000d0803c100000028dcf00005b
:20456600000000000000000000000000000000000000000000000000000000000000000035
:2045860000000000000000000000000000000000000e1000700000030700ff2c4080002072
:2045a600604e12000038701bb8cc000000006ee34020028f0012b8808e0000601af05038e2
:0d45c600000007215500e000022d81c0001b
:2045d3000000000000000000000000000000000000000000000000000000000000000000c8
:2045f300000000000000000000000000000000000000100043c000000080b8360000002403
:2046130000c884000000089de7300000c3c3cc02c0100007800438804000004000f0110097
:0d46330000000001544000000315e0c0002d
:2046400000000000000000000000000000000000000000000000000000000000000000005a
:2046600000000000000000000000000000000000000c000000000000050a16a100800040a8
:20468000007c690200000007317c000200603ea69020000599fe9a408c00000018f040102f
:0d46a0000080102bc1000001c03fc0a00031
:2046ad000000000000000000000000000000000000000000000000000000000000000000ed
:2046cd00000000000000000000000000000000000004000003c000010080d8048200000027
:2046ed0002e0aa0000000007814000100002e700000000a00e5002400400000010f000100c
:0d470d0000108003c0400000003f000000cd
:20471a0000000000000000000000000000000000000000000000000000000000000000007f
:20473a00000000000000000000000000000000000000000002000000000af6f880000000e5
:20475a000408300200005813b078080002602fa8d0a000550b1eb6800040260600a5600098
:0d477a000000000000000000600e8c3020e8
:20478700000000000000000000000000000000000000000000000000000000000000000012
:2047a700000000000000000000000000000000000000000000c000000d101722c00000001c
:2047c70038103001000008908078000002429c07210003a589d7c60000002626405a00000d
:0d47e7000000000000000001400704101059
:2047f4000000000000000000000000000000000000000000000000000000000000000000a5
:20481400000000000000000000000000000000000001000006e00000459c00000000000eae
:204834006eda33000000d00f68cc000000003fa33020001700069540000000001af0410265
:0d4854008000000000000002472d8f0220b0
:20486100000000000000000000000000000000000000000000000000000000000000000037
:20488100000000000000000000000000000000000001000037e02001a50000000000000039
:2048a1003c7fcc000000700bff3000000000250cc08000208b742a800000002010f031003b
:0d48c1000000000000000003e4170f1000cd
:2048ce000000000000000000000000000000000000000000000000000000000000000000ca
:2048ee00000000000000000000000000000000000000003c3e000010058e00000000002667
:20490e002a4ef0000130000bb8cc000003402ef990000020005303c0000000000000000031
:0d492e00000000000000000007ce8c348067
:20493b0000000000000000000000000000000000000000000000000000000000000000005c
:20495b00000000000000000000000000000000000000001c2fc90008050000000000002cef
:20497b007ac00f000000009de730000001400ca27000001000342a80008000000000000052
:0d499b000000000000000001c7c7f410106c
:2049a8000000000000000000000000000000000000000000000000000000000000000000ef
:2049c80000000000000000000000000000000000000000007a0100000700be2540200014f6
:2049e800785e3300000059a7367000000163dee020200005df1b9a408000000200a560003e
:0d4a0800001800000000c003e04de5440070
:204a1500000000000000000000000000000000000000000000000000000000000000000081
:204a350000000000000000000000000000000000000000007acc00000180d39940004002ac
:204a550041c8cc01000000a7a64c00008006a5008200020d0af003c040000001405a00007e
:0d4a75000000000000000001c215eb000071
:204a8200000000000000000000000000000000000000000000000000000000000000000014
:204aa20000000000000000000000000000000000000c00247e010053a70a3281400000202e
:204ac20000fcf0000000000b6be80010020000a6a0200058000000000400000000000010a6
:0d4ae200020000000000000003c000000002
:204aef000000000000000000000000000000000000000000000000000000000000000000a7
:204b0f0000000000000000000000000000000000000c003c7dc900085000b0140040001c80
:204b2f0000600f000000000100140110c1c3f409508000210000000000200000000000003f
:0d4b4f001000000000000000020000000047
:204b5c00000000000000000000000000000000000000000000000000000000000000000039
:204b7c00000000000000000000000000000000000000004002000028000893a6400000141a
:204b9c0000d90f000000009fbbfc00000002add3300000018012d700000006040000000095
:0d4bbc000000032c20000000060000000097
:204bc9000002000000000000000000000000000000000000000000000000000000000000ca
:204be900800000000000000000000000000000000000100001c0000109101f2200000a02f4
:204c09002ffe9600000000e182a80000000017fcc00000008052254000000224000000008d
:0d4c2900000007f000010000000000000086
:204c360000000000000000000000000000000000000000000000000000000000000000005e
:204c560000000000000000000000000000000000000e001c020000032000172640800000f2
:204c76002c0c55000122508000000014020007a100000008000000000000000148a00000ef
:0d4c9600001800000000e0000040000000d9
:204ca3000000000000000000000000000000000000000000000000000000000000000000f1
:204cc30000000000000000000000000000000000000000023d4000004900d42c40040000c5
:204ce3007b50aa000084d1000000000202400cb040800009000000000000000030a000004e
:0d4d030030080000000000014380000000a7
:204d1000003000000000000000000000000000000000000000000000000000000000000053
:204d3000000000000000000000000000000000000001a00400000000481e53884280015664
:204d500001d83302000001800000000000606eeff080000d00000000000014296a81020050
:0d4d700000018000000000a1c00000000054
:204d7d00000000000000000000000000000000000000000000000000000000000000000016
:204d9d0000000000000000000000000000000000000100be014000002109d81200000000e2
:204dbd002550cc000000d10000000000002244af60000009000000000000140140c1000030
:0d4ddd000001a000000000402000000000c8
:204dea000000000000000000000000000000000000000000000000000000000000000000a9
:204e0a00000000001000000000000000000000000000002006000000018a5ea540800006fe
:204e2a0001fa3d020000008f303c00000142bda5a0001008007adbc000000000ea3802009d
:0d4e4a0000500da8000010696006a0570080
:204e570000000000000000000000000000000000000000000000000000000000000000003b
:204e7700000000001000000000000000000000000000001c2dc000030010782a4000002ce1
:204e97002c603800000001037b84000011c43f00f0002809005abf00000014016018010058
:0d4eb700000801428084100420260fa00096
:204ec4000000000000000000000000000000000000000000000000000000000000000000ce
:204ee400000000000000000000000000000000000000000c72c00040401fbf8cc080000046
:204f04002f6e5a020000001028cc080803e765a330200000000000000000000040420a00b2
:0d4f240000018000000000000000000000ff
:204f3100000000000000000000000000000000000000000000000000000000000000000060
:204f5100000000000000000000000000000000000000080043c080402f1d7433000000344e
:204f710032503300000000d000cc000011436e0cc0000000000000000000000000420100fe
:0d4f91000001000000000000000000000012
:204f9e004800000000000000000000000000000000000000000000000000000000000000ab
:204fbe00000000000400000000000000000000000000002002000000010833bc0000400075
:204fde0002cacc000000f00fabc000046363c000000000000087a7001000000400000000e5
:0d4ffe000080000000000000000000000026
:20500b0008000000000000000000000000000000000000000000000000000000000000007d
:20502b00000000000200000000000000000000000000003c034a0000009ad803c000200085
:20504b00026e330000005007c03c000202c20000000000000077db00000000200000000017
:0d506b0000900000000000000000000000a8
:20507800000000000000000000000000000000000000000000000000000000000003000114
:20509800e00000000000000000000000000000000000000e000100000980b73c000000008d
:2050b800701aaa000000b8096330080000470ee09000000000000000000000005a08000021
:0d50d80000180000000000020000000000b1
:2050e50080000000000000000000000000000000000000000000000000000000000000012a
:20510500000000000000000000000000000000000000000001c90000050fbc03c000001419
:205125006fd055080000b80d82b0000020700edf9000000008000000000000024b00000075
:0d5145000008000000000003c00000000092
:205152004000000000000000000000000000000000000000000000000000000000000000fd
:205172000723e820000000000000000000000000000c016c7a000000038117264020003e99
:205192002a4d3300000000a97330080000072ef04000002008000000000000000000000072
:0d51b20010000000000040000017933408ba
:2051bf000000000000000000000000000000000000000000000000000000000000000000d0
:2051df0000c3e8000000000000000000000000000004009c004d00000088d68cc00000145a
:2051ff00036ecc00000010e98168200000026cf00000005100000000008000000000000022
:0d521f000000000000004003c01de2b200ce
:20522c00000000000000000000000000000000000000000000000000000000000000000062
:20524c00000000000000000000000000000000000000100006000000000a079e0000003449
:20526c0003faaa00000000af7c88000000060185000000000000000000000000000000003c
:0d528c0000818d70f00000000000000000a7
:205299000000000000000000000000000000000000000000000000000000000000000000f5
:2052b90000000000000000000000000000000000000010003bc00000001877ed0000002628
:2052d9002dc9880000100105b8cc00000247a40a00000000000000000000000000000000a6
:0d52f9000010cba4b0000000000000000079
:20530600000000000000000000000000000000000000000000000000000000000000000087
:2053260000000000000000000000000000000000000e100400000000251c5e258080000081
:2053460002ce990200300001e9400010004717eff12000000e0000000e00002000000038a0
:0d536600000010000000000803800000009f
:2053730000000000000000000000000000000000000000000000000000000000000000001a
:20539300000000000000000000000000000000000000102627400000509b0c2580000000c1
:2053b30003f033000000d0000140001000243e07f00000000000000000000000000000003a
:0d53d3000000a0000000000000000000002d
:2053e0000000000000000000000000000000000000000000000000000000000000000000ad
:205400000000000000000000000000000000000000040004020000001000b23c0080000004
:20542000017efd000000500000000000014047a1a00000000000000000000c60000000006b
:0d54400000000bef40000000000000000025
:20544d0000000000000000000000000000000000000000000000000000000000000000003f
:20546d00000000000000000000000000000000000004002e3a40000000007c1d00000034a6
:20548d0003fd10000000080000000004000347905000000000000000000000400000000079
:0d54ad0000008b7fc0000000000000000028
:2054ba000000000000000000000000000000000000000000000000000000000000000000d2
:2054da00000000000000000000000000000000000000000006000000038e96c9c0000000fc
:2054fa00605a330201005009eb8480000042c0000000000000000000000000000000000058
:0d551a00000011320d080400000000000028
:20552700000000000000000000000000000000000000000000000000000000000000000064
:2055470000000000000000000000000000000000000000003740000000809a264000003419
:205567002fd0cc00008008073d68000000034000000008000000000000004000000000009a
:0d5587000000a941000002000380000000a8
:205594000000000000000000000000000000000000000000000000000000000000000000f7
:2055b400000000000000000000000000000000000000000426c04000479a833b808000000e
:2055d400005e5a000000000f7ed00000000000000000000000761540400000000000000097
:0d55f40000000000000000000007aa0000f9
:20560100000000000000000000000000000000000000000000000000000000000000000089
:2056210000000000000000000000000000000000000000026c600000000a5037404000008a
:205641002bc0aa0000005005a3c000000000000000000000000415400000000000000000a3
:0d5661000000b0000000000000030a000877
:20566e0000000000000000000000000000000000000000000000000000000000000000001c
:20568e000000000000000000000000000000000000000001720000005000839540000000e1
:2056ae00065ef30200000001ebe8000000000000000000000000000000000060000000004f
:0d56ce00001801f76d000000000000000052
:2056db000000000000000000000000000000000000000000000000000000000000000000af
:2056fb000000000000000000000000000000000000000000404a00010000f42a8000000066
:20571b0029e0eb0000000009028000000000000000000000000000000000000000000000ef
:0d573b0000008df16c8200000000000000f5
:20574800000000000000000000000000000000000000000000000000000000000000000041
:20576800000000000000000000000000000000000000000000000000070e7e6640000000e8
:205788002b5e0103000018077bc808000000400000000000000000000c000001f80a0000bb
:0d57a80000000000000000000000000000f4
:2057b5000000000000000000000000000000000000000000000000000000000000000000d4
:2057d500000000000000000000000000000000000000080002ca00000090b6a20000008078
:2057f5002ac04208000000b783cc0000000200000000000d0000000000000001700f0000cb
:0d5815000000000000000000000000000086
:20582200000000000000000000000000000000000000000000000000000000000000000066
:2058420000000000000000000000004000000000000c0004780100280181f3b30080001499
:20586200065e3302010050032954000081c016a1d000000000000000000000034a00420065
:0d5882000001e000000000a0000000000098
:20588f000000000000000000000000000000000000000000000000000000000000000000f9
:2058af0000000000000000000000004000000000000c000200cd0010050af81980000014fa
:2058cf0021e0cc000280d800015400000020349120000000000000000000012ad00300003a
:0d58ef0000000000000000000000000000ac
:2058fc0000000000000000000000000000000000000000000000000000000000000000008c
:20591c00000000000000000000000000000000000000002478000000000057b74000010080
:20593c0006ef0100000000c70002000002001cc054000007800000000000042060008000cf
:0d595c000059a1f0280000020040000000ea
:2059690000000000000000000000000000000000000000000000000000000000000000001e
:20598900000000000000000000000000000000000000121c21c000122f0c93ffc000000050
:2059a90022cf800000000000b00000000040060fa014000000000000000000002000020092
:0d59c9000050a0c028000001c380000000b5
:2059d6000000000000000000000000000000000000000000000000000000000000000000b1
:2059f60000000000000000000000000000000000000e000002000000000000000000000081
:205a160001fc050038008007201720e000000000000000000000000001001e29c9f0803cbb
:0d5a36000058a122c100e00202249c2408b7
:205a4300000000000000000000000000000000000000000000000000000000000000000043
:205a63000000000000000000000000000000000000000e0c01c001000f0f00000000000029
:205a830001f0a0010000700903d460000000000000000000000000000100020008f00004c2
:0d5aa3000001036100000000401da802107a
:205ab0000000000000000000000000000000000000000000000000000000000000000000d6
:205ad00000000000000000000000000000000000000000000200008020005e800000000036
:205af00002ef9e0840000185a017800000001cc554080000001328001000006068f0800042
:0d5b10000080a1ba81000400000000000028
:205b1d00000000000000000000000000000000000000000000000000000000000000000068
:205b3d000000000000000000000000000000000000004000004000024f0f9415400000007f
:205b5d0002cf7c000000000f03d44400600002055000000000042804400000400bf000004f
:0d5b7d00001009612000020000000000007f
:205b8a000000000000000000000000000000000000000000000000000000000000000000fb
:205baa000000000000000000000000000000000000008004000000000819b69c4080002004
:205bca00020e1e02000098152017c00000000000000038000000000000001e0169f08000b7
:0d5bea0000801922410000020000000000b0
:205bf70000000000000000000000000000000000000000000000000000000000000000008e
:205c17000000000000000000000000000000000000004026004000000719f413400000045c
:205c370000d02d000000f08983d42400000000000000180000000000000002000df0000045
:0d5c57000050a57700000003c00000000011
:205c6400000000000000000000000000000000000000000000000000000000000000000020
:205c8400000000000000000000000000000000000001010071c000000801069540000000e9
:205ca40002ef780000008007a017800200400000000000200a0000000000006cc9f08000a8
:0d5cc400001985fa81000020003d800400d9
:205cd1000000000000000000000000000000000000000000000000000000000000000000b3
:205cf100000000000000000000000000000000000001080042400800010a902a82000000b9
:205d110002cf4b088000500f03d42504000000000000001010000000000000282af000000d
:0d5d3100000009a120000004000500f000a2
:205d3e00000000000000000000000000000000000000000000000000000000000000000045
:205d5e0000000000000000000000000000000000000000007601000000001e3fc00000365b
:205d7e0005dc870200000005a017800008000000000000000000000000000068c9f08000b6
:0d5d9e000001872c20000000000000000024
:205dab000000000000000000000000000000000000000000000000000000000000000000d8
:205dcb000000000000000000000000000000000000000000314d00038000782a8000001481
:205deb00282087000000000903d425001240000000000000000000000000002028f000003a
:0d5e0b0000010ff800000000000000000082
:205e180000000000000000000000000000000000000000000000000000000000000000006a
:205e3800000000000000000000000000000000000000000c00010000401a7aa6400000166d
:205e58006d7d9900000018f5a017840000004000000000000000000000001601e9f08000af
:0d5e780000019b290028c400003d8000842b
:205e85000000000000000000000000000000000000000000000000000000000000000000fd
:205ea50000000000000000000000000000000000000000e4004d00020100b622000000953c
:205ec5002a4c8800000001af83d40000000200000000130000000000000000000af00000a9
:0d5ee50000008f0000000003400500511078
:205ef200000000000000000000000000000000000000000000000000000000000000000090
:205f1200000000000000000000000000000000000005002000000000080100000000000041
:205f32006bdc330010008187a01784c200000000000000000000000000002000e8c60000f2
:0d5f520000818922c18000020000000000d3
:205f5f00000000000000000000000000000000000000000000000000000000000000000022
:205f7f0000000000000000000000000000000000000d003402c900000548000000000000a9
:205f9f0000cfcc011000100983d400400000000000000000000000000000140069cc00003d
:0d5fbf000010ff6500000002c0000000009f
:205fcc0000000000000000000000000000000000000000000000000016000000000000009f
:205fec000000000000000000000000000000000000001000000000000781000000020000fb
:20600c00645b9908000000052155800002006fe0a00000000000000000001e00000000000a
:0d602c00000000283d0000000040000000c2
:20603900000000000000000000000000000000000000000000000000020000000000000045
:20605900000000000000000000000000000000000000100030c0000200080000000000001d
:20607900666fb100000000800154140001424d000000000000000000000002000000000006
:0d609900010000003c00080003c0000000f2
:2060a60000000000000000000000000000000000000000000000008000000000000000005a
:2060c60000000000000000000000000000000000000e5000720003a8200ed600d400000661
:2060e6000579fa08380000000000000000000cea00000280000000000e001e000000003806
:0d610600000000000000ea0003800000001f
:2061130000000000000000000000000000000000000000000000004000000000000000002c
:20613300000000000000000000000000000000000000900041c000001d00f314c0000002d5
:2061530025f81e0000000000000000000000020a00000000000000000000000000000000e5
:0d61730000000000000004c0440000000017
:206180000000000000000000000000000000000000000000000000000000000000000000ff
:2061a00000000000000000000000000000000000000c000000000000078e971098000000ff
:2061c000000000001000800000000000026034c80020000000000000004000000000000170
:0d61e0000081c00000000000000000000071
:2061ed000000000000000000000000000000000000000000000000003c0000000000000056
:20620d0000000000000000000000000000000000000c000002400000a01012744400008029
:20622d00000000001000f000000000000042970c000000000000000000200000000000004c
:0d624d0080100000000000000000000000b4
:20625a00000000000000000000000000000000000000000000000000000000000000000024
:20627a00000000000000000000000000000000000000002002000000101800000002004078
:20629a0060000000000078000000000001c005e801200280000000000000000000000000bb
:0d62ba00008000000000c000002180a0084e
:2062c7000000000000000000000000000000000000000000000000000000000000000000b7
:2062e700000000000000000000000000000000000000003403c00000200000000000009ce4
:206307004000000000000800000000000000150a019000000000000000000000000000007e
:0d63270000b0a00000000000000c005200bb
:20633400000000000000000000000000000000000000000000000000000000000000000049
:20635400000000000000000000000000000000000000000432c04000018000000000000072
:206374000000000000000000000000000006400000000000000000000000000000000000c3
:0d63940000000000000020000000000000dc
:2063a1000000000000000000000000000000000000000000000000000000000000000000dc
:2063c100000000000000000000000000000000000000002643e00010000000000000000063
:2063e100000000000000000000000000000640000000000000000000000000000000000056
:0d640100000000000000000000000000008e
:20640e0000000000000000000000000000000000000000000000000000000000000000006e
:20642e00000000000000000000000000000000000000002002000021830eda8140000000df
:20644e00000000000030000000000000026005cf50000000000000000000800000000004f4
:0d646e0000000000000000004025c05000ac
:20647b00000000000000000000000000000000000000000000000000000000000000000001
:20649b000000000000e0000000000000000000000000003c354c00138010bc0000000000e5
:2064bb000000000000000000000000000262430f50100000000000000000000000000004a7
:0d64db00000000000000000160260000002d
:2064e80000000000000000000000000000000000000000000000000000004aa0008000002a
:2065080000000000000000000000000000000000000000007601000810007631408000205d
:206528000000000000000000000000000060000000000000000000000000000058fa410060
:0d6548000000000000000000002fe52534d9
:20655500000000000000000000000000000000000000000000000000000000a00000000086
:2065750000000000000000000000000000000000000000007ecc002005000431400000140e
:206595000000000000000000000000000020000000000000000000000000000000fa0000cc
:0d65b50000000000000000000005001000c4
:2065c2000000000000000000000000000000000000000000000000000000000000000000b9
:2065e20000000000000000000000000000000000000c80247c0100000001000f10800000cc
:20660200280000001000000000000000000655aa000000000000000000000000000000102b
:0d66220000018fadd100000000400000001d
:20662f0000000000000000000000000000000000000000000000000000000000000000004b
:20664f0000000000000000000000000000000000000c402c37c90028000b000f0000000071
:20666f000000000030000000000000000006740000000050000000000000010000000020f0
:0d668f0000010dead4200000020000000010
:20669c000000000000000000000000000000000000000000000000000000000000040000da
:2066bc0010000000000000000000000000000000000000167200000019817e94d0000000aa
:2066dc0002fe0560000058100000000201c00000000000000000000000000000000000000e
:0d66fc00000007e014000003e2c4fa1700dc
:20670900000000000000000000000000000000000000000000000000000000000000000070
:20672900b00000000000000000000000000000000000108271c0000221087200c40000007c
:2067490001e00000000050c00000000000000000000000000000000000000000000000003f
:0d67690000000040140000014346fe2080a7
:2067760000000000000000000000000000000000000000000000000000020ea00000000053
:2067960000000000000000000000000010000000000e0000380003800001bb90940e00001c
:2067b60003ec00403800180ba5680000000280000000000000000000010000000000003871
:0d67d60000008d3a850ce00002000000007c
:2067e3000000000000000000000000000000000000000000000000000000c0500100000085
:20680300000000000000000000000000200000000000000041c0000000085a22c000000010
:2068230001cc21000000000de89400000000000000000000000000000100000000000000dd
:0d6843000000058388810003c400000000f0
:20685000000000000000000000000000000000000000000000000000000000000000000028
:20687000000000000000000000000000000000000002001e0600004050005694d004000094
:206890007800000000008185ebfc000003438000000040000000000000000000000000007d
:0d68b0000001800000000001601ca5000038
:2068bd000000000000000000000000000000000000000000000000000000000000000000bb
:2068dd0000000000000000000000000000000000000000003f4000000f0e7a40c40c000075
:2068fd00400000000000310182a8000002c00000000000000000000000000000000000001d
:0d691d000091c0000000000343c005010010
:20692a0000000000000000000000000000000000400000000000000000000000000000000d
:20694a00000000000000000000000000000000000000000020000000080000000000000005
:20696a00000000000000000fa810000020003ca080000000000000000000000000000000ca
:0d698a000080000000000000631790200056
:206997000000000000000000000000000000000040000000000000000000000000000000a0
:2069b700000000000000000000000000000000000000000443400000010a0000000000002e
:2069d70000000000000070e16008000000002580008000000000000000a000000000000022
:0d69f700001000000000000006c6900080a7
:206a0400000000000000000000000000000000000000000000000000000000000000000072
:206a24000000000000000000000000000000000000010000004040001001d68280000026c2
:206a440000000000000000113b14880000000000000000000000000000000000000000004a
:0d6a6400007803280000240000000000005e
:206a7100000000000000000000000000000000000000000000000000000000000000000005
:206a9100000000000400000000000000000000000001480002400000000b940000000004b3
:206ab1000000000000000080431400040000000000000000000000000000000000000000ea
:0d6ad10000008f02800000000000000000a7
:206ade000000000000000000000000000000000000000000000000000e000000000000008a
:206afe000000000000000000000000001000000000000160020100000998bb899880000007
:206b1e00600000000000001000f10c00800000000000000000000000014000000000000425
:0d6b3e0000000000000004800005ba1410e3
:206b4b00000000000000000000000000000000000000000000000000020000000000000028
:206b6b0000000000000000000000000020000000000000bc014900000d0c300680002000f5
:206b8b0040000000000000a000f0000200000000000028000000000001800000000000046b
:0d6bab0000900000000008000024bd121042
:206bb8000000000000000000000000000000000000000000000000001e000000000000009f
:206bd800003a8040000000000000000000000000000000207800000007005682900000009c
:206bf8000000000000000015ebe8000000e004aa10000000000000000000000000000030c7
:0d6c18000019c02c200400020015e7a000a8
:206c250000000000000000000000000000000000000000000000000000000000000100004e
:206c4500994140000000000000000000000000000000003403ca000200000402800000018b
:206c650000000000000000e1a4780000002014e810000000000000000000000000000000e6
:0d6c850000000b70102000004026a340808e
:206c9200000000000000000000100000000000000000000000000000400000000000000092
:206cb20000000000000010000000000000000000000c0016040100500040b3d090000016d2
:206cd2000000000000007003202c08040000000000000200000000000000000000000000d5
:0d6cf20000000000000000020317900100e8
:206cff000000000000000000001000000000000000000000000000008000000000000000e5
:206d1f00000000000a000000000000000000000000040142324f007803005b62c800017c05
:206d3f000000000000000805c1c0000800000000000000000000000000000000000000009e
:0d6d5f0000f000000000000144069040809c
:206d6c00060000000000000000000000000000000000000000000000000000000000000001
:206d8c000000000000000000000000000000000000001000000000000000000000020006cf
:206dac000000000000000000000000000000000000001000000000000000000000000000b7
:0d6dcc0030500974400000020006e0a100f4
:206dd900000200000000000000000000000000000000000000000000000000000000000098
:206df900000000000000000000000000000000000000100400c000000000000000000002a4
:206e1900000000000000000000000000000000000000200000000000000000000000000039
:0d6e390000580b2400000001400100a004df
:206e460000000000000000000000000000000000000000000000000a000000000000000022
:206e660000000000000000000000000000000000000e1004020000000000000000000000e8
:206e860000ecff1000000000000000000000000000000000000000000e00000000000038ab
:0d6ea600000010000000e00362800000000a
:206eb3000000000000000000000000000000000000000000000000000000000000000000bf
:206ed300000000000000000000000000000000000000100225400000000000000000000028
:206ef300004cbf000000000000000000000000000000000000000000000000000000000074
:0d6f13000000d0000000000244000000005b
:206f2000000000000000000000000000000000000000000000000000000000000000000051
:206f400000000000000000000000000000000000000400007e0000000000000000000000af
:206f60000000000000000000000000000000000000000000000000000000200000000000f1
:0d6f80000800000000000001e01cea150000
:206f8d000000000000000000001000000000000000000000000000000000000000000000d4
:206fad0000000000000000000000000000000000000c00003e40000020000000000000001a
:206fcd0000000000000000000000000000000000000000000000000000003c000000000068
:0d6fed000090000000000000202d8d100419
:206ffa0000020000000000000000000000000000000000000000010000001ca00080000038
:20701a000000000000000000000000000000000000000020260000400000000000000000d0
:20703a00000000000005000000000000200000000000000000000000000000000000000011
:0d705a00001800000000000200000000000f
:207067000000000000000000000000000000000000000000000001000001d05000000000e7
:20708700000000000000000000000000000000000000002c774000400000000000000000c6
:2070a70000000000000000000000000000000000000000000000000000001c0000000000ad
:0d70c700000000000000000040000000007c
:2070d40040000000000000000000000000000000000000000000000000000000000000005c
:2070f400000000000000000000000000010037280000000420c040000000000000020004f2
:20711400000000000000000000000000000000000000000000000000000000015afa4100c5
:0d71340000000974000000000016ee540079
:2071410000000000000000000000000000000000000000000000000000000000000000002e
:20716100000000000000000000000000008004280400000474600000000000000000000482
:207181000000000000000000000000000000000000000000000000000000000000fa0000f4
:0d71a1000000093480000000036cac020007
:2071ae000000000000000000000000000000000000000000000000000000000000000000c1
:2071ce00000000000000070000000000001c00000000001c02000000000000000000000060
:2071ee00000000000028000000000000000000000000000000000000000000000000000059
:0d720e000010116a85480000060000000015
:20721b0000000000000000000000000000000000000000000000000000380000000000001b
:20723b000000000000000000000000000010000000000000004c0000000000000000003c9b
:20725b000000000000180000000000000000000000000000000000000000000000000000fb
:0d727b000000d503440100004000000000a9
:207288000000000000000000000000000000000000000000000000002000000000000000c6
:2072a8000000000000000021ca0100000000000000000000000100000000000000000000d9
:2072c8000000000000000000000000000000000000000000000000000000000000000004a2
:0d72e800000000000000000a007fe0000030
:2072f5008000000000000000000000000000000000000000000000000c00000000000000ed
:20731500000000000000001d05000000000000000000008002cb00000000000000000000e9
:20733500000000000000000000000000000000000000000000000000000000000000000434
:0d7355000000000000000016420d00500076
:20736200000000000000000000000000000000000000000000000000000000000004000007
:2073820000000000000040000000000000000000000d000400010000000000000000000099
:2073a2000000000000000000000000000000000000000000000000000000000000000000cb
:0d73c2000200000000000008c03f98140009
:2073cf0000000000000000000000000000000000000000000000000000000000000400009a
:2073ef0000000000000020000000000000000000000d0002034c0000000000000000000000
:20740f0000000000000000000000000010000000000000000000000000000000000000004d
:0d742f000100000000000002422c94308695
:02743c0000004e
:02743e0011013a
:02744000010148
:2074420000000000000000000000000000000000200000000000000000000000000000000a
:2074620000000000000000000000000000000000000000000000000000000000000000000a
:207482000000000000000000000000000000000000000000000000000000000000000000ea
:0d74a20000000000000004000000000000d9
:2074af000000000000000000000000000000000000000000000000000000000000000000bd
:2074cf0000000000000000000000000000000000000000000000000000000000000000009d
:2074ef0000000000000000000000000000000000000000000000000000000000000000007d
:0d750f00000000000000000000000000006f
:20751c0000000000000000000000000000000000100000000000000000000000000000003f
:20753c0000000000000000000000000000000000000000000000000000000000000000002f
:20755c000000000000000000000000000000000000001000000000000040000000000000bf
:0d757c0000000000000004000000000000fe
:207589000000000000000000000000000000000000000000000000000000000000000000e2
:2075a9000000000000000000000000000000000000000000000000000000000000000000c2
:2075c9000000000000000000000000000000000000000000000000000000000000000000a2
:0d75e9000000000000000000000000000095
:2075f600000000000000000000000000000000002000e00000000000000000000000000075
:20761600000000000000000000000000000000000000000000000000000000000000000054
:20763600000000000000000000000000000000000000000000000000000000000000000034
:0d765600000000000000080000009000008f
:207663000000000000000000000000000000000000002000400000000000000000000000a7
:207683000000000000000000000000000000000000000000000000000000000000000000e7
:2076a3000000000000000000000000000000000000000000000000000000001000000000b7
:0d76c30000000000000000000000d00000ea
:2076d00000000000000000000000000000000000000000000000000000000000000000009a
:2076f00000000000000000000000000000000000000000000000000000000000000000007a
:207710000000000000000000000000000000000000003000000000000080000000000000a9
:0d773000000000000000000000000000004c
:20773d0000000000000000000000000000000000000000000000000000000000000000002c
:20775d0000000000000000000000000000000000000000000000000000000000000000000c
:20777d000000000000000000000000000000000000000000000000000000000000000000ec
:0d779d0000000000000000000000000000df
:2077aa0000000000000000000000000020000000000000800000000000000000000000001f
:2077ca00080000000000000000000000000000000000000000000000000000000000000097
:2077ea0000000000000000000000000000000000000000000040000000000001000000003e
:0d780a0000000000000000008000000000f1
:20781700000000000000000000000000000000000000000000000000000000000000000c45
:20783700000000000000000000000000000000000000000000000000000000000000000031
:20785700000000000000000000000000000000000000000000000000000000000000000011
:0d78770000000000000000005000000000b4
:207884000000000000000000000000d00010000000000000c0000000000000000000000044
:2078a400000c000000000000000000000000000000000000000000000000000000000000b8
:2078c4000000000000000000000000000000000000000000000000000000000000000000a4
:0d78e400000000000000000008000000008f
:2078f1000000000000000000000800000010000020000000800000000000000000020000bd
:20791100000400000000000000000000000000000000000000000000000000000000000052
:20793100000000000000000000000000000000000000000000000000000000000000000036
:0d795100000000000000000038000c0000e5
:20795e00000000000000000000000000000000000000000000000000000000000000000009
:20797e000000000000000000000000000000000000000000000000000000000000000000e9
:20799e000000000000000000000000000000000000000000000000000000000000000000c9
:0d79be0000000000000000001800000000a4
:2079cb00000000000000000000040000000000001000000000000000000000000001000087
:2079eb0000000000000000000000000000000000000000000000000000000000000000007c
:207a0b0000000000000000000000000000000000000000000000000000000000000000005b
:0d7a2b000000000000000000080000000046
:207a38000000000000000000000000000000000000002040000000000000000000000000ce
:207a580000000000000000000000000000000000000000000000000000000000000000000e
:207a78000000000000000000000000000000000000000000004000000000000100000000ad
:0d7a980000000000000000000010000000d1
:207aa500000000000000000000080000000000002000e000000000000000000000020000b7
:207ac500001800000000000000000000000000000000000000000000000000000000000089
:207ae500000000000000000000000000000000000000000000000000000000000000000081
:0d7b05000000000000000000000000000073
:207b1200000000000000000000000000000000000000000000000000000000000000000053
:207b3200000000000000000000000000000000000000000000000000000000000000000033
:207b52000000000000000000000000000000000000000000000000000020000000000000f3
:0d7b72000000000000000000000000000006
:207b7f000000000000000000000000000000000000000000000000000000000000000000e6
:207b9f000000000000000000000000000000000000000000000000000000000000000000c6
:207bbf00000000000000000000000000000000000000000000000000004000000000000066
:0d7bdf000000000000000000000000000099
