:02000000ff00ff
:080002004c6174746963650030
:17000a00694345637562653220323032302e31322e32373934330071
:16002100506172743a2069434534304858384b2d43423133320018
:1b003700446174653a204d617920313020323032322032303a32333a3031008c
:0200520000ffad
:040054007eaa997e69
:02005800510055
:02005a0001059e
:03005c00920020ef
:03005f00620367d2
:0300620072011018
:0300650082000016
:02006800110085
:02006a00010192
:20006c00000000000000000000000000000000000000000000000000000000000000000074
:20008c00000000000000000000000000000000000000000000000000000000000000000054
:2000ac0000000000000000000000000800000000000000000000000000000000000000002c
:0d00cc000000000000000000000000000027
:2000d900000000000000000000000000000000000000000000000000000000000000000007
:2000f9000000000000000000000000000000000000000000000000000000000000000000e7
:200119000000000000000000000000000000000000000000000000000000000000000000c6
:0d01390000000000000000000000000000b9
:20014600000000000000000000000000000000000000000000000000000000000000000099
:20016600000000000000000000000000000000000000000000000000000000000000000079
:20018600000000000000000000000004000000000000000000000000000000000000000055
:0d01a6000000000000000400000000000048
:2001b30000000000000000000000000000000000000000000000000000000000000000002c
:2001d30000000000000000000000000000000000000000000000000000000000000000000c
:2001f3000000000000000000000000000000000000000000000000000000000000000000ec
:0d02130000160000000000000000000000c8
:200220000000000000000000000000000000000000000000000000000000000000000000be
:2002400000000000000000000000000000000000000000000000000000000000000000009e
:20026000000000000000000000000008000000100000000000000000000000000000000066
:0d0280000000000000000000000000000071
:20028d00000000000000000000000000000000000000000000000000000000000000000051
:2002ad00000000000000000000000000000000000000000000000000000000000000000031
:2002cd00000000000000000000000000000000100000000000000000000000000000000001
:0d02ed000000000000000000000000000004
:2002fa000000000000000000000000000000000000000000000000000000000000000000e4
:20031a000000000000000000000000000000000000000000000000000000000000000000c3
:20033a000000000000000000000000000000000000000000000000000000000000000000a3
:0d035a000000000000000000000000000096
:20036700000000000000000000000000000000000000000000000000000000000000000076
:20038700000000000000000000000000000000000000000000000000000000000000000056
:2003a700000000000000000000000000000000000000000000000000000000000000000036
:0d03c7000000000000000000000000000029
:2003d400000000000000000000000000000000000000000000000000000000000000000009
:2003f4000000000000000000000000000000000000000000000000000000000000000000e9
:200414000000000000000000000000000000000000000000000000000000000000000000c8
:0d04340000000800000000000010000000a3
:2004410000000000000000000000000000000000000000000000000000000000000000009b
:2004610000000000000000000000000000000000000000000000000000000000000000007b
:2004810000000000000000000000000000000000000000000000000000000000000000005b
:0d04a100000000000000000000000000004e
:2004ae0000000000000000000000000000000000000000000000000000000000000000002e
:2004ce0000000000000000000000000000000000000000000000000000000000000000000e
:2004ee000000000000000000000000000000000000000000000000000000000000000000ee
:0d050e0000000004000000000000000000dc
:20051b000000000000000000000000000000000000000000000000000000000000000000c0
:20053b000000000000000000000000000000000000000000000000000000000000000000a0
:20055b00000000000000000000000000003800000000000000000000000000000000000246
:0d057b000000000c00000000000000000067
:20058800000000000000000000000000000000000000000000000000000000000000000053
:2005a800000000000000000000000000000000000000000000000000000000000000000033
:2005c800000000000000000000000000000000000000000000000000000000000000000013
:0d05e8000000000000000000000000000006
:2005f5000000000000000000000000000000000000000000000000000000000000000000e6
:200615000000000000000000000000000000000000000000000000000000000000000000c5
:20063500000000000000000000000000000000100000000000000000000000000000000194
:0d0655000000000000000000000000000098
:20066200000000000000000000000000000000000000000000000000000000000000000078
:20068200000000000000000000000000000000000000000000000000000000000000000058
:2006a200000000000000000000000000000010000000000000000000000000000000000028
:0d06c200000000000000000000100000001b
:2006cf0000000000000000000000000000000000000000000000000000000000000000000b
:2006ef000000000000000000000000000000000000000000000000000000000000000000eb
:20070f000000000000000000000000000000000000000000000000000000000000000002c8
:0d072f0000000000000000000000000000bd
:20073c0000000000000000000000000000000000000000000000000000000000000000009d
:20075c000000000000000000000000000000000000000000000000800000000000000000fd
:20077c0000000000000000000000000000000000000000000000000000000000000000005d
:0d079c000000000000000000000000000050
:2007a900000000000000000000000000000000000000000000000000000000000000000030
:2007c900000000000000000000000000000000000000000000000000000000000000000010
:2007e9000000000000000000000000000000000000000000000000000000000000000000f0
:0d08090000000000000000000000000000e2
:200816000000000000000000000000000000000000000000000000000000000000000000c2
:200836000000000000000000000000000000000000000000000000000000000000000000a2
:20085600000000000000000000000000000000000000000000000000000000000000000082
:0d0876000000000000000000000000000075
:20088300000000000000000000000000000000000000000000000000000000000000000055
:2008a300000000000000000000000000000000000000000000000000000000000000000035
:2008c300000000000000000000000000000000000000000000000000000000000000000015
:0d08e3000000000000000000000000000008
:2008f0000000000000000000000000000000000000000000000000000000000000040000e4
:200910000000000000000000000000000000000000000000000000000000000000000000c7
:200930000000000000000000000000000400000000000000000000000000000000000000a3
:0d095000000000000000000000000000009a
:20095d0000000000000000000000000000000000000000000000000000000000000000007a
:20097d0000000000000000000000000000000000000000000000000000000000000000005a
:20099d00000000000000000000000000080000000000000000000000000000000000000032
:0d09bd00000000000000000000000000002d
:2009ca0000000000000000000000000000000000000000000000000000000000000000000d
:2009ea000000000000000000000000000000000000000000000000000000000000000000ed
:200a0a000000000000000000000000000000000000000000000000000000000000000000cc
:2018f100000000000000000000000000600000000000000000000000000000000000000077
:0d19110000000000000000000000000000c9
:20191e000000000000000000000000000000000000000000000000000000000000000000a9
:20193e00000000000000000000000000000000000000000000000000000000000000000089
:20195e00000000000000000000000000000000000000000000000000000000000000000069
:0d197e00000000000000000000000000005c
:20198b0000000000000000000000000000000000000000000000000000000000000000003c
:2019ab0000000000000000000000000000000000000000000000000000000000000000001c
:2019cb000000000000000000000000000000000000000000000000000000000000000000fc
:0d19eb0000000000000000000000000000ef
:2019f8000000000000000000000000000000000000000000000000000000000000000000cf
:201a18000000000000000000000000000000000000000000000000000000000000000000ae
:201a380000000000000000000000000000000000000000000000000000000000000000008e
:0d1a58000000000000000000000000000081
:201a6500000000000000000000000000000000000000000000000000000000000000000061
:201a8500000000000000000000000000000000000000000000000000000000000000000041
:201aa500000000000000000000000000000000000000000000000000000000000000000021
:0d1ac5000000000000000000000000000014
:201ad2000000000000000000000000000000000000000000000000000000000000000000f4
:201af2000000000000000000000000000000000000000000000000000000000000000000d4
:201b12000000000000000000000000000000000000000000000000000000000000000000b3
:0d1b320000000000000000000000000000a6
:201b3f00000000000000000000000000000000000000000000000000000000000000000086
:201b5f00000000000000000000000000000000000000000000000000000000000000000066
:201b7f00000000000000000000000000000000000000000000000000000000000000000046
:0d1b9f000000000000000000000000000039
:201bac00000000000000000000000000000000000000000000000000000000000000000019
:201bcc000000000000000000000000000000000000000000000000000000000000000000f9
:201bec000000000000000000000000000000000000000000000000000000000000000000d9
:0d1c0c0000000000000000000000000000cb
:201c19000002000000000000000000000000000000000000000000000000000000000000a9
:201c390000000000000000000000000000000000000000000000000000000000000000008b
:201c590000000000000000000000000000000000000000000000000000000000000000006b
:0d1c7900000000000000000000000000005e
:201c860000000000000000000000000000000000000000000000000000000000000000003e
:201fee004c0000000000000000000000000000000000000000000000000000000000000087
:20200e000000000000000000000000000000000000000000000000000000000000000000b2
:20202e00000000000000000000000000000000000000000000000000000000000000000092
:0d204e000000000000000000000000000085
:20205b0008000000000000000000000000000000000000000000000000000000000000005d
:20207b00000000000000000000000000000000000000000000000000000000000000000045
:20209b00000000000000000000000000000000000000000000000000000000000000000025
:0d20bb000000000000000000000000000018
:2020c8000004000000000000000000000000000000000000000000000000000000000000f4
:2020e8000000000000000000000000000000000000000000000000000000000000000000d8
:202108000000000000000000000000000000000000000000000000000000000000000000b7
:0d21280000000000000000000000000000aa
:20213500803c000000000000000000000000000000000000000000000000000000000000ce
:2021550000000000000000000000000000000000000000000000000000000000000000006a
:2021750000000000000000000000000000000000000000000000000000000000000000004a
:0d219500000000000000000000000000003d
:2021a2004000000000000000000000000000000000000000000000000000000000010000dc
:2021c2000000000000000000000000000000000000000000000000000000000000000000fd
:2021e2000000000000000000000000000000000000000000000000000000000000000000dd
:0d22020000000000000000000000000000cf
:20220f000000008000000000000000000000000000000000000000000000000000008000af
:20222f0000000000000000000000000000000000000000000000000000000000000000008f
:20224f0000000000000000000000000000000000000000000000000000000000000000006f
:0d226f000000000000000000000000000062
:20227c00000000000000000000000000000000000000000000000000000000000000000042
:20294c0040000000000000000000000000000000000000000000000000000000000000002b
:20296c0000000000000000000000000000000000000000000000000000000000000000004b
:20298c0000000000000000000000000000000000000000000000000000000000000000002b
:0d29ac00000000000000000000000000001e
:2029b9000000000000000000000000000000000000000000000000000000000000000000fe
:2029d9000000000000000000000000000000000000000000000000000000000000000000de
:2029f9000000000000000000000000000000000000000000000000000000000000000000be
:0d2a190000000000000000000000000000b0
:202a2600000000000000000000000000000000000000000000000000000000000000000090
:202a4600000000000000000000000000000000000000000000000000000000000000000070
:202a6600000000000000000000000000000000000000000000000000000000000000000050
:0d2a86000000000000000000000000000043
:202a93008000000000000000000000000000000000000000000000000000000000000000a3
:202ab300000000000000000000000000000000000000000000000000000000000000000003
:202ad3000000000000000000000000000000000000000000000000000000000000000000e3
:0d2af30000000000000000000000000000d6
:202b0000440000000000000000000000000000000000000000000000000000000000000071
:202b2000000000000000000000000000000000000000000000000000000000000000000095
:202b4000000000000000000000000000000000000000000000000000000000000000000075
:0d2b60000000000000000000000000000068
:202b6d000c000000000000000000000000000000000000000000000000000000000000003c
:202b8d00000000000000000000000000000000000000000000000000000000000000000028
:202bad00000000000000000000000000000000000000000000000000000000000000000008
:0d2bcd0000000000000000000000000000fb
:202bda000001000000000000000000000000000000000000000000000000000000010000d9
:202bfa000000000000000000000000000000000000000000000000000000000000000000bb
:202c1a0000000000000000000000000000000000000000000000000000000000000000009a
:0d2c3a00000000000000000000000000008d
:202c47000000000000000000000000000000000000000000000000000000000000028000eb
:202c670000000000000000000000000000000000000000000000000000000000000000004d
:202c870000000000000000000000000000000000000000000000000000000000000000002d
:0d2ca7000000000000000000000000000020
:202cb400000000000000000000000000000000000000000000000000000000000000000000
:202cd4000000000000000000000000000000000000000000000000000000000000000000e0
:202cf4000000000000000000000000000000000000000000000000000000000000000000c0
:0d2d140000000000000000000000000000b2
:202d2100000000000000000000000000000000000000000000000000000000000000000092
:202d4100000000000000000000000000000000000000000000000000000000000000000072
:202d6100000000000000000000000000000000000000000000000000000000000000000052
:0d2d81000000000000000000000000000045
:202d8e000078010000000000000000000000000000000000000000000000000000000000ac
:202dae00000000000000000000000000000000000000000000000000000000000000000005
:202dce000000000000000000000000000000000000000000000000000000000000000000e5
:0d2dee0000000000000000000000000000d8
:202dfb00004002000000000000000000000000000000000000000000000000000000000076
:202e1b00000000000000000000000000000000000000000000000000000000000000000097
:202e3b00000000000000000000000000001000000000000000000000000000000000000067
:0d2e5b00000000000000000000000000006a
:202e680000000000000000000000000000000000000000000000000000000000000000004a
:202e880000000000000000000000000000000000000000000000000000000000000000002a
:202ea80000000000000000000000000000000000000000000000000000000000000000000a
:2033f1000000000000000000000000000000000000000000000000000000000000000004b8
:2034110000000000000000000000000000000000000000000000000000000000000000009b
:2034310000000000000000000000000000000000000000000000000000000000000000007b
:0d345100000000000000000000000000006e
:20345e0000000000000000000000000000000000000000000000000000000000000000004e
:2041910000000000000000000000000000000000000000000000000000000000000000040a
:2041b1000000000000000000000000000000000000000000000000000000000000000000ee
:2041d1000000000000000000000000000000000000000000000000000000000000000000ce
:0d41f10000000000000000000000000000c1
:2041fe000000000000000000000000000000000000000000000000000000000000000000a1
:20421e00000000000000000000000000000000000000000000000000000000000000000080
:20423e00000000000000000000000000000000000000000000000000000000000000000060
:0d425e000000000000000000000000000053
:20426b00000000000000000000000000000000000000000000000000000000000000000033
:20428b0000000000000000000000000000000000000000000000000400000000000000000f
:2042ab000000000000000000000000000000000000000000000000000000000000000000f3
:0d42cb0000000000000000000000000000e6
:2042d8000000000000000000000000000000000000000000000000000000000000000000c6
:2042f8000000000000000000000000000000000000000000000000000000000000000000a6
:20431800000000000000000000000000000000000000000000000000000000000000000085
:0d4338000000000000000000000000000078
:20434500000000000000000000000000000000000000000000000000000000000000000058
:20436500000000000000000000000000000000000000000000000000000000000000000038
:20438500000000000000000000000000000000000000000000000000000000000000000018
:0d43a500000000000000000000000000000b
:2043b2000000000000000000000000000000000000000000000000000000000000000000eb
:2043d2000000000000000000000000000000000000000000000000000000000000000000cb
:2043f2000000000000000000000000000000000000000000000000000000000000000000ab
:0d441200000000000000000000000000009d
:20441f0000000000000000000000000000000000000000000000000000000000000000007d
:20443f00000000000000000000000000000000000000000000000004000000000000000059
:20445f0000000000000000000000000000000000000000000000000000000000000000003d
:0d447f000000000000000000000000000030
:20448c00000000000000000000000000000000000000000000000000000000000000000010
:2044ac000000000000000000000000000000000000000000000000000000000000000000f0
:204b5c00003000000000000000000000000000000000000000000000000000000000000009
:204b7c00000000000000000000000000000000000000000000000000000000000000000019
:204b9c000000000000000000000000000000000000000000000000000000000000000000f9
:0d4bbc0000000000000000000000000000ec
:204bc90000420000000000000000000000000000000000000000000000000000000000008a
:204be9000000000000000000000000000000000000000000000000000000000000000000ac
:204c090000000000000000000000000000000000000000000000000000000000000000008b
:0d4c2900000000000000000000000000007e
:204c360000000000000000000000000000000000000000000000000000000000000000005e
:204f9e004000000000000000000000000000000000000000000001000000000000000000b2
:204fbe000000000000000000000000000000000000000000000000000000000000000000d3
:204fde000000000000000000000000000000000000000000000000000000000000000000b3
:0d4ffe0000000000000000000000000000a6
:20500b0008000000000000000000000000000000000000000000000000000000000000007d
:20502b00000000000000000000000000000000000000000000000000000000000000000065
:20504b00000000000000000000000000000000000000000000000000000000000000000045
:0d506b000000000000000000000000000038
:20507800000000000000000000000000000000000000000000000000000000000000000018
:205098000000000000000000000000000000000000000000000000000000000000000000f8
:2050b8000000000000000000000000000000000000000000000000000000000000000000d8
:0d50d80000000000000000000000000000cb
:2050e50080000000000000000000000000000000000000000000000000000000000000002b
:2051050000000000000000000000000000000000000000000000000000000000000000008a
:2051250000000000000000000000000000000000000000000000000000000000000000006a
:0d514500000000000000000000000000005d
:205152004000000000000000000000000000000000000000000000000000000000000000fd
:2051720000000000000000000000000000000000000000000000000000000000000000001d
:205192000000000000000000000000000000000000000000000000000000000000000000fd
:0d51b20000000000000000000000000000f0
:2051bf000000000000000000000000000000000000000000000000000000000000000000d0
:2058fc00000000000000000000000000000000000000000000000000000000000004000088
:20591c0000000000000000000000000000000000000000000000000000000000000000006b
:20593c0000000000000000000000000000000000000000000000000000000000000000004b
:0d595c00000000000000000000000000003e
:2059690000000000000000000000000000000000000000000000000000000000000000001e
:206a040000000000000000000000000000000000000000000000000000000000000400006e
:206a2400000000000000000000000000000000000000000000000000000000000000000052
:206a4400000000000000000000000000000000000000000000000000000000000000000032
:0d6a64000000000000000000000000000025
:206a7100000000000000000000000000000000000000000000000000000000000004000001
:206a91000000000000000000000000000000000000000000000000000000000000000000e5
:206ab1000000000000000000000000000000000000000000000000000000000000000000c5
:0d6ad10000000000000000000000000000b8
:206ade00000000000000000000000000000000000000000000000000000000000000000098
:206afe00000000000000000000000000000000000000000000000000000000000000000078
:206b1e00000000000000000000000000000000000000000000000000000000000000000057
:0d6b3e00000000000000000000000000004a
:206b4b0000000000000000000000000000000000000000000000000000000000000000002a
:206b6b0000000000000000000000000000000000000000000000000000000000000000000a
:206b8b000000000000000000000000000000000000000000000000000000000000000000ea
:0d6bab0000000000000000000000000000dd
:206bb8000000000000000000000000000000000000000000000000000000000000000000bd
:206bd80000000000000000000000000000000000000000000000000000000000000000009d
:206bf80000000000000000000000000000000000000000000000000000000000000000007d
:0d6c1800000000000000000000000000006f
:206c250000000000000000000000000000000000000000000000000000000000000000004f
:206c450000000000000000000000000000000000000000000000000000000000000000002f
:206c650000000000000000000000000000000000000000000000000000000000000000000f
:0d6c85000000000000000000000000000002
:206c92000000000000000000000000000000000000000000000000000000000000000000e2
:206cb2000000000000000000000000000000000000000000000000000000000000000000c2
:206cd2000000000000000000000000000000000000000000000000000000000000000000a2
:0d6cf2000000000000000000000000000095
:206cff00000000000000000000000000000000000000000000000000000000000000000075
:206d1f00000000000000000000000000000000000000000000000000000000000000000054
:206d3f00000000000000000000000000000000000000000000000000000000000000000034
:0d6d5f000000000000000000000000000027
:206d6c00000000000000000000000000000000000000000000000000000000000000000007
:206d8c000000000000000000000000000000000000000000000000000000000000000000e7
:206dac0000000000000058000000000000000000000000000000000000000000000000006f
:0d6dcc0000000000000000000000000000ba
:206dd900000200000000000000000000000000000000000000000000000000000000000098
:206df90000000000000000000000000000000000000000000000000000000000000000007a
:206e1900200000000000000000000000000000000000000000000000000000000000000039
:0d6e3900000000000000000000000000004c
:206e460000000000000000000000000000000000000000000000000000000000000000002c
:206e6600000000000000000000000000000000000000000000000380001e0000000000006b
:206e86007bfbcf008000000000000004000000000000000000000000000000000000000023
:0d6ea60000000000000000000000000000df
:206eb3000000000000000000000000000000000000000000000000000000000000000000bf
:206ed30000000000000000000000000000000000000000000000000000100000000000345b
:206ef30042daef00000000000000000a00000000000000000000000000000000000000006a
:0d6f13000000000000000000000000000071
:206f2000000000000000000000000000000000000000000000000000000000000000000051
:206f400000000000000000000000000000000000000000000000030000000000000000002e
:206f60000200db02000000017abc00000000000000000000000000000000000000000000fb
:0d6f80000000000000000000000000000004
:206f8d000000000000000000000000000000000000000000000000000000000000000000e4
:206fad000000000010000000000000000000000000000000000001000000000000000000b3
:206fcd000040e7000000000002bc01000000000000000000000000000000000000000000be
:0d6fed000000000000000000000000000097
:206ffa00000200000000000000000000000000000000000000000000000000000000000075
:20701a00000000000000000000000000000000000000000000000000000000000000002036
:20703a002be8250200000000000000000000000000000000000000000000000000000000fc
:0d705a000000000000000000000000000029
:20706700000000000000000000000000000000000000000000000000000000000000000009
:207087000000000000000000000000000000000000000000000000000000000000000014d5
:2070a7004270da00000000000000000000000000000000000000000000000000000000003d
:0d70c70000000000000000000000000000bc
:2070d40000000000000000000000000000000000000000000000000000000000000000009c
:2070f4000000000000000000000000000000000000000000000000000000063c10400000ea
:2071140001dca102800000000000001000000000000000000000000000000000000000004b
:0d713400000000000000000000000000004e
:207141008000000000000000000000000000000000000000000000000000000000000000ae
:20716100000000000000000000000000000000000000000000000000000e043c0000003c84
:2071810000e0e000000000000000000000000000000000000000000000000000000000002e
:0d71a10000000000000000000000000000e1
:2071ae000000000000000000000000000000000000000000000000000000000000000000c1
:2071ce00000000000000000000000000000000000000000000000000000000000000001c85
:2071ee00280000000000000000000000000000000000000000000000000000000000000059
:0d720e000000000000000000000000000073
:20721b00000000000000000000000000000000000000000000000000000000000000000053
:20723b00000000000000000000000000000000000000000000000000000000000000000033
:20725b00000000000000000000000000000000000000000000000000000000000000000013
:0d727b000000000000000000000000000006
:207288000000000000000000000000000000000000000000000000000000000000000000e6
:2072a8000000000000000000000000000000000000000000000000010000000000000000c5
:2072c8000400000000000000000000000000000000000000000000000000000000000000a2
:0d72e8000000000000000000000000000099
:2072f5008000000000000000000000000000000000000000000000000000000000000000f9
:20731500000000000000000000000000000000000000000000000000000000000000000058
:20733500340000000000000000000000000000000000000000000000000000000000000004
:0d735500000000000000000000000000002b
:2073620000000000000000000000000000000000000000000000000000000000000000000b
:207382000000000000000000000000000000000000000000000001000000000000000014d6
:2073a200700000000000000000000000c0000000000000000000000000000000000000009b
:0d73c20000000000000000000000000000be
:2073cf0000000000000000000000000000000000000000000000000000000000000000009e
:2073ef0000000000000000000000000000000000000000000000020000000000000000007c
:20740f00400000000000d0000000000000000000000000000000000000000000000000004d
:0d742f00000000000000000000000000024e
:02743c0000004e
:02743e0011013a
:02744000010148
:2074420000000000000000000000000000000000200000000000000000000000000000000a
:2074620000000000000000000000000000000000000000000000000000000000000000000a
:207482000000000000000000000000000000000000000000000000000000000000000000ea
:0d74a20000000000000004000000000000d9
:2074af000000000000000000000000000000000000000000000000000000000000000000bd
:2074cf0000000000000000000000000000000000000000000000000000000000000000009d
:2074ef0000000000000000000000000000000000000000000000000000000000000000007d
:0d750f00000000000000000000000000006f
:20751c0000000000000000000000000000000000100000000000000000000000000000003f
:20753c0000000000000000000000000000000000000000000000000000000000000000002f
:20755c0000000000000000000000000000000000000010000000000000400000018000003e
:0d757c0000000000000004000000100000ee
:207589000000000000000000000000000000000000000000000000000000000000000000e2
:2075a9000000000000000000000000000000000000000000000000000000000000000000c2
:2075c9000000000000000000000000000000000000000000000000000000000000000000a2
:0d75e9000000000000000000000000000095
:2075f600000000000000000000000000000000002000000040000000000000000000000015
:20761600000000000000000000000000000000000000000000000000000000000000000054
:20763600000000000000000000000000000000000000000000000000000000000000000034
:0d76560000000000000008003000400000af
:207663000000000000000000000000000000000000000000c0000000000000000000000047
:207683000000000000000000000000000000000000000000000000000000000000000000e7
:2076a3000000000000000000000000000000000000000000000000000000000000000000c7
:0d76c30000000000000000000000f00000ca
:2076d00000000000000000000000000000000000000000000000000000000000000000009a
:2076f00000000000000000000000000000000000000000000000000000000000000000007a
:207710000000000000000000000000000000000000001000000000000080000000000000c9
:0d773000000000000000000030000000001c
:20773d0000000000000000000000000000000000000000000000000000000000000000002c
:20775d0000000000000000000000000000000000000000000000000000000000000000000c
:20777d000000000000000000000000000000000000000000000000000000000000000000ec
:0d779d00000000000000000080000000005f
:2077aa00000000000000000000000000200000000001e0800000000000000000000000201e
:2077ca00080000000000000000000000000000000000000000000000000000000000000097
:2077ea0000000000000000000000000000000000000000000040000000000001000000003e
:0d780a000000000000000000000000000071
:2078170000000000000000000000000000000000000000000000000000000000000000341d
:20783700000000000000000000000000000000000000000000000000000000000000000031
:20785700000000000000000000000000000000000000000000000000000000000000000011
:0d7877000000000000000000000000000004
:20788400000000000000000000000030001000000003400040000000000000000000000021
:2078a400000c000000000000000000000000000000000000000000000000000000000000b8
:2078c4000000000000000000000000000000000000000000000000000000000000000000a4
:0d78e400000000000000000000000800008f
:2078f10000000000000000000008008000100000200000004000000000000000000200007d
:20791100000400000000000000000000000000000000000000000000000000000000000052
:20793100000000000000000000000000000000000000000000000000000000000000000036
:0d7951000000000000000000000004000025
:20795e00000000000000000000000000000000000000000000000000000000000000000009
:20797e000000000000000000000000000000000000000000000000000000000000000000e9
:20799e000000000000000000000000000000000000000000000000000000000000000000c9
:0d79be000000000000000000580000000064
:2079cb00000000000000000000040000000000001000000000000000000000000001000087
:2079eb0000000000000000000000000000000000000000000000000000000000000000007c
:207a0b0000000000000000000000000000000000000000000000000000000000000000005b
:0d7a2b00000000000000000000000000004e
:207a38000000000000000000000000000000000000000040000000000000000000000000ee
:207a580000000000000000000000000000000000000000000000000000000000000000000e
:207a78000000000000000000000000000000000000000000004000000000000100000000ad
:0d7a980000000000000000000010000000d1
:207aa500000000000000000000080000000000002000000000000000000006000002000091
:207ac500000000000000000020000000000000000000000000000000000000000000000081
:207ae500000000000000000000000000000000000000000000000000000000000000000081
:0d7b05000000000000000000000000000073
:207b1200000000000000000000000000000000000000000000000000000000000000000053
:207b3200000000000000000000000000000000000000000000000000000000000000000033
:207b5200000000000000000000000000000000000000000000000000000000000000000013
:0d7b72000000000000000000000000000006
:207b7f000000000000000000000000000000000000000000000000000100000000000000e5
:207b9f000000000000000000000000000000000000000000000000000000000000000000c6
:207bbf000000000000000000000000000000000000000000000000000000000000000000a6
:0d7bdf000000000000000000000000000099
:207bec00000000000000000000000000000000000000000000000000000000000000000079
:207c0c00000000000000000000000000000000000000000000000000000000000000000058
:207c2c00000000000400000000000000000000000000000000000000000000000000000034
:0d7c4c00000000000000000000000000002b
:207c590000000000000000000000000000000000000000000000000000000000000000000b
:207c79000000000000000000000000000000000000000000000000000000000000000000eb
:207c99000000000004000000000000000000000000000000000000000000000000000000c7
:0d7cb90000000000000000000000000000be
:207cc60000000000000000000000000000000000000000000000000000000000000000009e
:207ce60000000000000000000000000000000000000000000000000000000000000000007e
:207d060000000000000000000000000000000000000040000000000000000000000000001d
:0d7d26000000000000000000000000000050
:207d3300000000000000000000000000000000000000000000000000000000000000000030
:207d5300000000000000000000000000000000000000000000000000000000000000000010
:207d73000000000000000000000000000000000000000000000000000000000000000000f0
:0d7d930000000000000008000000000000db
:207da0000000000000000000000000000000000000000000000000000000000000000000c3
:207dc0000000000000000000000000000000000000000000000000000000000000000000a3
:207de000000000000000000000000000000000000000000000000000000000000000000083
:0d7e00000000000000000000000000000075
:207e0d00000000000000000000000000000000000000000000000000000000000000000055
:207e2d00000000000000000000000000000000000000000000000000000000000000000035
:207e4d00000000000000000000000000000000000000000000000000000000000000000015
:0d7e6d000000000000000000000000000008
:207e7a000000000000000000000000000000000000000000000000000000000000000000e8
:207e9a000000000000000000000000000000000000000000000000000000000000000000c8
:207eba000000000000000000000000000000000000000000000000000000000000000000a8
:0d7eda00000000000000000000000000009b
:207ee70000000000000000000000000000000000000000000000000000000000000000007b
:207f070000000000000000000000000000000000000000000000000000000000000000005a
:207f270000000000000000000000000000000000000000000000000000000000000000003a
:0d7f4700000000000000000000000000002d
:207f540000000000000000000000000000000000000000000000000000000000000000000d
:207f74000000000000000000000000000000000000000000000000000000000000000000ed
:207f9400000000000400000000000000000000000000400000000000000000000000000089
:0d7fb40000000000000000000000000000c0
:207fc1000000000000000000000000000000000000000000000000000000000000000000a0
:207fe100000000000000000000000000000000000000000000000000000000000000000080
:2080010000000000040000000000000000000000000040000000000000000000000000001b
:0d8021000000000000000000000000000052
:20802e00000000000000000000000000000000000020000000000000000000000000000012
:20804e00000000000000000000000000000000000000000000000000000000000000000012
:20806e000000000000000000000000000000000000000000000000000000000000000000f2
:0d808e0000000000000000000000000000e5
:20809b000000000000000000000000000000000000100000000000000000000000000000b5
:2080bb000000000000000000000000000000000000000000000000000000000000000000a5
:2080db00000000000000000000000000000000000000000000000000000000000000000085
:0d80fb000000000000000000000000000078
:20810800000000000000000000000000000000000000000000000000000000000000000057
:0d8617000000000000000000100000000046
:20862400000000000000000000000000000000000000000000000000000000000000000036
:20864400000000000000000000000000000000000000000000000000000000000000000016
:208664000000000000000000000000000000000000000000000000000000000000000000f6
:0d86840000000000000000000000000000e9
:208691000000000000000000000000000000000000000000000000000000000000000000c9
:2086b1000000000000000000000000000000000000000000000000000000000000000000a9
:2086d100000000000000000000000000000000000000000000000000000000000000000089
:0d86f100000000000000000000000000007c
:2086fe0000000000000000000000000000000000000000000000000000000000000000005c
:20871e000000000000600000000000000000000000000000000000000000000000000000db
:20873e0000000000000000000000000000000000000000000000000000000000000000001b
:0d875e00000000000000000000000000000e
:20876b000000000000000000000000000000000000000000000000000000000000000000ee
:20878b000000000000000000000000000000000000000000000000000000000000000000ce
:208b13000000000000000000000000000000000000000000000000000080000000000000c2
:0d8b33000000000000000000000000000035
:208b4000000000000000000000000000000000000000000000000000000000000000000015
:208b60000000000000000000000000000000000000000000000000000000000000000000f5
:208b80000000000000000000000000000000000000000000000000000000000000000000d5
:0d8ba00000000000000000000000000000c8
:208bad000000000000000000000000000000000000000000000000000000000000000000a8
:208bcd00000000000000000000000000000000000000000000000000000000000000000088
:208bed00000000000000000000000000000000000000000000000000000000000000000068
:0d8c0d00000000000000000000000000005a
:208c1a0000000000000000000000000000000000000000000000000000000000000000003a
:208c3a0000000000000000000000000000000000000000000000000000000000000000001a
:208c5a000000000000000000000000000000000000000000000000000000000000000000fa
:0d8c7a0000000000000000000000000000ed
:208c87000001000000000000000000000000000000000000000000000000000000000000cc
:208ca7000000000000000000000000000000000000000000000000000000000000000000ad
:208cc70000000000000000000000000000000000000000000000000000000000000000008d
:0d8ce7000000000000000000000000000080
:208cf400082800000000000000000000000000000000000000000000000000000000000030
:208d140000000000000000000000000000000000000000000000000000000000000000003f
:208d340000000000000000000000000000000000000000000000000000000000000000001f
:0d8d54000000000000000000000000000012
:208d61004804000000000000000000000000000000000000000000000000000000000000a6
:208d81000000000000000000000000000000000000000000000000000000000000000000d2
:208da1000000000000000000000000000000000000000000000000000000000000000000b2
:0d8dc10000000000000000000000000000a5
:208dce00800000000000000000000000000000000000000000000000000000000000000005
:208dee00000000000000000000000000000000000000000000000000000000000000000065
:208e0e00000000000000000000000000000000000000000000000000000000000000000044
:0d8e2e000000000000000000000000000037
:208e3b00000000000000000000000000000000000000000000000000000000000000000017
:208e5b000000000000000000000000000000000000000000000000000000000000000000f7
:208e7b000000000000000000000000000000000000000000000000000000000000000000d7
:0d8e9b0000000000000000000000000000ca
:208ea8000000000000000000000000000000000000000000000000000000000000000000aa
:208ec80000000000000000000000000000000000000000000000000000000000000000008a
:208ee80000000000000000000000000000000000000000000000000000000000000000006a
:0d8f0800000000000000000000000000005c
:208f15004000000000000000000000000000000000000000000000000000000000000000fc
:208f350000000000000000000000000000000000000000000000000000000000000000001c
:208f55000000000000000000000000000000000000000000000000000000000000000000fc
:0d8f750000000000000000000000000000ef
:208f82000000000000000000000000000000000000000000000000000000000000000000cf
:208fa2000000000000000000000000000000000000000000000000000000000000000000af
:208fc20000000000000000000000000000000000000000000000000000000000000000008f
:0d8fe2000000000000000000000000000082
:208fef00000000000000000000000000000000000000000000000000000000000000000062
:20900f00000000000020000000000000000000000000000000000000000000000000000021
:20902f00000000000000000000000000000000000000000000000000000000000000000021
:0d904f000000000000000000000000000014
:20905c000000000000000000000000000000000000000000000000000000000000000000f4
:20907c000000000000000000000000000000000000000000000000000000000000000000d4
:20909c000000000000000000000000000000000000000000000000000000000000000004b0
:0d90bc0000000000000000000000000000a7
:2090c900000000000000000000000000000000000000000000000000000000000000000087
:2090e900000000000000000000000000000000000000000000000000000000000000000067
:20910900000000000000000000000000000000000000000000000000000000000000000442
:0d9129000000000000000000000000000039
:20913600000000000000000000000000000000000000000000000000000000000000000019
:209156000000000000000000000000000000000000000000000000000000000000000000f9
:209176000000000000000000000000000000000000000000000000000000000000000000d9
:0d91960000000000000000000000000000cc
:2091a3000000000000000000000000000000000000000000000000000000000000000000ac
:2091c30000000000000000000000000000000000000000000000000000000000000000008c
:2091e30000000000000000000000000000000000000000000000000000000000000000006c
:0d920300000000000000000000000000005e
:2092100000000000000000000000000000000000000000000000000000000000000000003e
:2092300000000000000000000000000000000000000000000000000000000000000000001e
:209250000000000000000000000000000000000000000000000000000000000000000000fe
:0d92700000000000000000000000000000f1
:20927d000000000000000000000000000000000000000000000000000000000000000000d1
:20929d000000000000000000000000000000000000000000000000000000000000000000b1
:2092bd00000000000000000000000000000000000000000000000000000000000000000091
:0d92dd000000000000000000000000000084
:2092ea0000000000000000000000e000000000000000000000000000000000000000000084
:20930a00000000000000000000000000000000000000000000000000000000000000000043
:20932a00000000000000000000000000000000000000000000000000000000000000000023
:0d934a000000000000000000000000000016
:209357000000000000000000000000000000000000000000000000000000000000000000f6
:209377000000000000000000000000000000000000000000000000000000000000000000d6
:209397000000000000000000000000000000000000000000000000000000010000000000b5
:0d93b70000000000000000000000000000a9
:2093c400000000000000000000000000000000000000000000000000000000000000000089
:2093e400000000000000000000000000000000000000000000000000000000000000000069
:20940400000000000000000000000000000000000000000000000000000000000000000048
:0d942400000000000000000000000000003b
:2094310000000000000000000000000000000000000000000000000000000000000000001b
:209451000000000000000000000000000000000000000000000000000000000000000000fb
:209471000000000000000000000000000000000000000000000000000000000000000000db
:0d94910000000000000000000000000000ce
:20949e000000000000000000000000000000000000000000000000040000000000000000aa
:2094be0000000000000000000000000000000000000000000000000000000000000000008e
:2094de0000000000000000000000000000000000000000000000000000000000000000006e
:0d94fe00000000000000040000000000005d
:20950b00000000000000000000000000000000000000000000000000000000000000000040
:20952b00000000000000000000000000000000000000000000000000000000000000000020
:20954b00000000000000000000000000000000000000000000000000000000000000000000
:0d956b0000000000000002000000000000f1
:209578000000000000000000000000000000000000000000000000000000000000000000d3
:209598000000000000000000000000000000000000000000000000000000000000000000b3
:2095b800000000000000000000000000000000000000000000000000000000000000000093
:0d95d8000000000000000000000000000086
:2095e500000000000000000000000000000000000000000000000000000000000000000066
:20960500000000000000000000000000000000000000000000000000000000000000000045
:20962500000000000000000000000000000000000000000000000000000000000000000025
:0d9645000000000000000000000000000018
:209652000000000000000000000000000000000000000000000000000000000000000000f8
:209672000000000000000000000000000000000000000000000000000000000000000000d8
:209692000000000000000000000000000000000000000000000000000000000000000000b8
:0d96b20000000000000000000000000000ab
:2096bf0000000000000000000000000000000000000000000000000000000000000000008b
:2096df0000000000000000000000000000000000000000000000000000000000000000006b
:2096ff0000000000000000000000000000000000000000000000000000000000000000004b
:0d971f00000000000000000000000000003d
:20972c0000000000000000000000000000000000000000000000000000000000000000001d
:20974c000000000000000000000000000000000000000000000000000000000000000000fd
:20976c000000000000000000000000000000000000000000000000000000000000000004d9
:0d978c0000000000000000000000000000d0
:209799000000000000000000000000000000000000000000000000000000000000000000b0
:2097b900000000000000000000000000000000000000000000000000000000000000000090
:2097d90000000000000000000000000000000000000000000000000000000000000000046c
:0d97f9000000000000000000000000000063
:20980600000000000000000000000000000000000000000000000000000000000000000042
:20982600000000000000000000000000000000000000000000000000000000000000000022
:20984600000000000000000000000000000000000000000000000000000000000000000002
:0d9d820000040000000000000000000000d0
:209d8f000000000000000000000000000000000000000000000000000000000000000000b4
:209daf00000000000000000000000000000000000000000000000000000000000000000094
:209dcf00000000000000000000000000000000000000000000000000000000000000000074
:0d9def000000000000000000000000000067
:209dfc00000000000000000000000000000000000000000000000000000000000000000047
:209e1c00000000000000000000000000000000000000000000000000000000000000000026
:209e3c00000000000000000000000000000000000000000000000000000000000000000006
:0d9e5c0000000000000000000000000000f9
:209e69000000000000000000000000000000000000000000000000000000000000000000d9
:209e89000000000000000000000000000000000000000000000000000000000000000000b9
:209ea900000000000000000000000000000000000000000000000000000000000000000099
:0d9ec900000000000000000000000000008c
:209ed60000000000000000000000000000000000000000000000000000000000000000006c
:209ef60000000000000000000000000000000000000000000000000000000000000000004c
:209f160000000000000000000000000000000000000000000000000000000000000000002b
:0d9f3600000000000000000000000000001e
:209f43000000000000000000000000000000000000000000000000000000000000000000fe
:209f63000000000000000000000000000000000000000000000000000000000000000000de
:209f83000000000000000000000000000000000000000000000000000000000000000000be
:0d9fa30000000000000000000000000000b1
:209fb000000000000000000000000000000000000000000000000000000000000000000091
:209fd000000000000000000000000000000000000000000000000000000000000000000071
:209ff000000000000000000000000000000000000000000000000000000000000000000051
:0da010000000000000000000000000000043
:20a01d00000000000000000000000000000000000000000000000000000000000000000023
:20a03d00000000000000000000000000000000000000000000000000000000000000000003
:20a05d000000000000000000000000000000000000000000000000000000000000000000e3
:0da07d0000000000000000000000000000d6
:20a08a000000000000000000000000000000000000000000000000000000000000000000b6
:20a0aa00000000000000000000000000000000000000000000000000000000000000000096
:20a0ca00000000000000000000000000000000000000000000000000000000000000000076
:0da0ea000000000000000000000000000069
:20a0f700000100000000000000000000000000000000000000000000000000000000000048
:20a11700000000000014000000000000000000000000000000000000000000000000000014
:20a13700000000000000000000000000000000000000000000000000000000000000000008
:0da1570000000000000000000000000000fb
:20a164000800000000000000000000000000000000000000000000000000000000000000d3
:20a184000000000000000000000000000000000000000000000000000000000000000000bb
:20a1a40000000000000000000000000000000000000000000000000000000000000000009b
:0da1c400000000000000000000000000008e
:20a1d10040000000000000000000000000000000000000000000000000000000000000002e
:20a1f10000000000000000000000000000000000000000000000000000000000000000004e
:20a211000000000000000000000000000000000000004000000000000000000000000000ed
:0da231000000000000000000000000000020
:20a23e00800000000000000000000000000000000000000000000000000000000000000080
:20a25e000000000000000000000000000000000000000000000000000000000000000000e0
:20a27e000000000000000000000000000000000000000000000000000000000000000000c0
:0da29e0000000000000000000000000000b3
:20a2ab00000000000000000000000000000000000000000000000000000000000000000093
:20a2cb00000000000000000000000000000000000000000000000000000000000000000073
:20a2eb00000000000000000000000000000000000000000000000000000000000000000053
:0da30b000000000000000000000000000045
:20a318000028000000000000000000000000000000000000000000000000000000000000fd
:20a33800000000000000000000000000000000000000000000000000000000000000000005
:20a358000000000000000000000000000000000000000000000000000000000000000000e5
:0da3780000000000000000000000000000d8
:20a38500400400000000000000000000000000000000000000000000000000000000000074
:20a3a500000000000000000000000000000000000000000000000000000000000000000098
:20a3c500000000000000000000000000000000000000000000000000000000000000000078
:0da3e500000000000000000000000000006b
:20a3f20000000000000000000000000000000000000000000000000000000000000000004b
:0da827000000000000001000000000000014
:20a83400000000000000000000000000000000000000000000000000000000000000000004
:20a854000000000000000000000000000000000000000000000000000000000000000000e4
:20a874000000000000000000000000000000000000000000000000000000000000000004c0
:0da8940000000000000000000000000000b7
:20a8a100000000000000000000000000000000000000000000000000000000000000000097
:20a8c100000000000000000000000000000000000000000000000000000000000000000077
:20a8e100000000000000000000000000000000000000000000000000000000000000000453
:0da901000000000000000000000000000049
:20a90e00000000000000000000000000000000000000000000000000000000000000000029
:20a92e00000000000000000000000000000000000000000000000000000000000000000009
:20a94e000000000000000000000000000000000000000000000000000000000000000000e9
:0da96e0000000000000000000000000000dc
:20a97b000000000000000000000000000000000000000000000000000000000000000000bc
:20a99b0000000000000000000000000000000000000000000000000000000000000000009c
:20a9bb0000000000000000000000000000000000000000000000000000000000000000007c
:0da9db00000000000000000000000000006f
:20a9e80000000000000000000000000000000000000000000000000000000000000000004f
:20aa080000000000000000000000000000000000000000000000000000000000000000002e
:20aa280000000000000000000000000000000000000000000000000000000000000000000e
:0daa48000000000000000000000000000001
:20aa55000000000000000000000000000000000000000000000000000000000000000000e1
:20aa75000000000000000000000000000000000000000000000000000000000000000000c1
:20aa95000000000000000000000000000000000000000000000000000000000000000000a1
:0daab5000000000000000000000000000094
:20aac200000000000000000000000000000000000000000000000000000000000000000074
:20aae200000000000000000000000000000000000000000000000000000000000000000054
:20ab0200000000000000000000000000000000000000000000000000000000000000000033
:0dab22000000000000000500000000000021
:20ab2f00000000000000000000000000000000000000000000000000000000000000000006
:20ab4f000000000000000000000000100000000000000000000000000000000000000000d6
:20ab6f000000000000000000000000000000000000000000000000000000000000000000c6
:0dab8f00000000000000c8000000000000f1
:20ab9c00000000000000000000000000000000000000000000000000000000000000000099
:20abbc00000000000000000000000000000000000000000000000000000000000000000079
:20abdc00000000000000000000000000000000000000000000000000000000000000000059
:0dabfc00000000000000010000000000004b
:20ac090000000000000000000000000000000000000000000000000000000000000000002b
:20ac290000000000000000000000000000000000000000000000000000000000000000000b
:20ac49000000000000000000000000000000000000000000000000000000000000000000eb
:0dac690000000000000000000000000000de
:20ac76000000000000000000000000000000000000000000000000000000000000000000be
:20ac960000000000000000000000000000000000000000000000000000000000000000009e
:20acb60000000000000000000000000000000000000000000000000000000000000000007e
:0dacd6000000000000000000000000000071
:20ace300000000000000000000000000000000000000000000000000000000000000000051
:20ad0300000000000000000000000000000000000000000000000000000000000000000030
:20ad2300000000000000000000000000000000000000000000000000000000000000000010
:0dad43000000000000000000000000000003
:20ad50000000000000000000000000000000000000000000000000000000000000000000e3
:20ad70000000000000000000000000000000000000000000000000000000000000000000c3
:20ad90000000000000000000000000000000000000000000000000000000000000000000a3
:0dadb0000000000000000000000000000096
:20adbd000000000000000000000000000000000000000000000000000000000000000078fe
:20addd00000000000000000000000000000000000000000000000000000000000000000056
:20adfd00000000000000000000000000000000000000000000000000000000000000000036
:0dae1d000000000000000000000000000028
:20ae2a00000000000000000000000000000000000000000000000000000000000000000008
:20ae4a0003029400000000000000000000000000000000000000000000000000000000004f
:20ae6a000000000000000000000000000000000000000000000000000000000000000000c8
:0dae8a0000000000000000000000000000bb
:20ae970000010000000000000000000000000000000000000000000000000000000000009a
:20aeb70000016802000400000000000000000000000000000000000000000000000000000c
:20aed70000000000000000000000000000000000000000000000000000000000000000005b
:0daef700000000000000000000000000004e
:20af04000834000000000000000000000000000000000000000000000000000000000000f1
:20af240000000000000000000000000000000000000000000000000000000000000000000d
:20af44000000000000000000000000000000000000000000000000000000000000000000ed
:0daf6400000000000000000023800000003d
:20af7100480400000000000000000000000000000000000000000000000000000000000074
:20af91000000000000000000000000000000000000000000000000000000000000000000a0
:20afb100000000000000000000000000000000000000000000000000000000000000000080
:0dafd1000000000000000001600000000012
:20afde008000000000000000000000000000000000000000000000040000000000000000cf
:20affe00000000000000000000000000000000000000000000000000000000000000000033
:20b01e00000000000000000000000000000000000000000000000000000000000000000012
:0db03e000000000000000000000000000005
:20b04b00000000000000000000000000000000000080000000000000000000000000000065
:20b06b000000000000000000000000000000000000000000000000000000000000000000c5
:20b08b000000000000000000000000000000000000000000000000000000000000000000a5
:0db0ab00000000000000e0000000000000b8
:20b0b800000000000000000000000000000000000000000000000000000000000000000078
:20b0d800000000000000000000000000000000000000000000000000000000000000000058
:20b0f800000000000000000000000000000000000000000000000000000000000000000038
:0db11800000000000000000040168de04027
:20b125004200000000000000000000000000000000000000000000000000000000000000c8
:20b145000000000000000000000000000000000000000000000000000000000000000000ea
:20b165000000000000000000000000000000000000000000000000000000000000000000ca
:0db18500000000000000000200148b7404a4
:20b1920000000000000000000000000000000000000000000000001000000000000040004d
:20b1b200000000000100000000000004000000000000010000000004000000000000100063
:20b1d2000000000010400000000000010000000000000400000000000010000000000000f8
:0db1f20040000000000041000002000000cd
:20b1ff00000000000000000000000000000000000000000000000000000000000000000030
:20b21f0000000000000000000000000000000000000000000000000000000000000000000f
:20b23f000000000010000000000000000800000000000000000000000000000000000000d7
:0db25f00000000000000c000e00600080034
:20b26c001800000000000000000000000000000000000000000000000000000000000000aa
:20b28c00000000000100003c0a500004000000000000000000000004000000000000000003
:20b2ac00000000000000000000000000000000000000000000000000000000000000000082
:0db2cc0000000000000000004000900000a5
:20b2d900000000000000000000000000000000000000000000000000000000000000000055
:20b2f900000000000000078005a010000000000000000000000000000000000000000000f9
:20b3190000000000000031c000000000000000000000000000000000000000000000000023
:0db33900000000000000000260001008008d
:20b346000000000000000000000000000000000008000000000000000000000000000000df
:20b3660000000000000000000000000c0000000000000000000000040000000000001000a7
:20b38600000000000040000000000001000000000000400000000000000000000000000026
:0db3a6000000000000000002400200000056
:20b3b30000000000000000000000000000000000000000000000000000000000000000007a
:20b3d30000000000000000000000000000000000000000000000000000000000000000005a
:20b3f30000000000000001c0000000004000000000004000000000000000000000000000f9
:0db413000000000000000000e0060008003e
:20b4200000000000000000000000000000000000000000000000000000000000000000000c
:20b440000000000000000000000000100000000000000000000000000000000000000000dc
:20b4600000000000000000f0000000000000000000000000000000000000000000000000dc
:0db4800000000000000000000000e9600076
:20b48d0000000000000000000000000000000000000000000000000000000000000000009f
:20b4ad0000000000000000000000000000000000000000000000000000000000000000007f
:20b4cd0000000000000000100000000000000000000000000000000000000000000000004f
:0db4ed0000000000000000000016996c0037
:20b4fa00000000000000000000000000000000000000000000000000000000000000000032
:20b51a00000000000000000000000000000000000000000000000000000000000000000011
:20b53a000000000000000000000000000000000000000000000000000100000000000000f0
:0db55a0000000000000000004002c9600079
:20b567000000000000000000000000000000000000000000000000000000000000000000c4
:20b587000000000000000000000000000000000000020000000000000000000000000000a2
:20b5a700000000000000000000000000000000000000000000000000010000000000000083
:0db5c70000000000000000020014996c005c
:20b5d400000000000000000000000000000000000000000000000000000000000000000057
:20b5f400000000000000000000000000000000000000000000000000000000000000000037
:20b61400000000001000000000000000000000000000000000000000000000000000000006
:0db6340000000000000000000202e96000bc
:20b641000000000000000000000000000000000000000000000000000000000000000000e9
:20b661000000000000000000000000000000000000000000000000000000000000000000c9
:20b68100000000003000000000000000000000000000000000000000000000000000000079
:0db6a10000000000000000000654996c003d
:20b6ae0000000000000000000000000000000000000000000000000000000000000000007c
:20b6ce0000000000000000000000000000000000000000000000000000000000000000005c
:20b6ee00000000000000b1000000000000000000000000000000000000000000000000008b
:0db70e00000000000000000002c0c9600043
:20b71b0000000000000000000000000000000000000000000000000000000000000000000e
:20b73b000000000000000000000000000000000000000000000000000000000000000000ee
:20b75b0000000000380081c000000000000000000000000000000000000001000000000054
:0db77b00000000000000e000005c996c0080
:20b788000000000000000000000000000000000000000000000000000000000000000000a1
:20b7a800000000000000000000000000000000000000000000000000000000000000000081
:20b7c800000000000000000ffbcc000000000000000000000000000000000000000000008b
:0db7e80000000000000000000000e96040cb
:20b7f500000000000000000000000000000000000000000000000000000000000000000034
:20b81500000000000000000000000000000000000000000000000000000000000000000013
:20b835000000000000000003e39d020000000000000000000000000000000000000000006e
:0db855000000000000000000001c996c00c5
:20b862000000000000000000000000000000000000000000000000000000000000000000c6
:20b88200000000000000000000000000000000000000000000000000000c327300000000f5
:20b8a2002f60960010009000000000000000000000000000000000000000000000000000c1
:0db8c20000000000000040004000d96000c0
:20b8cf00000000000000000000000000000000000000000000000000000000000000000059
:20b8ef00000000000000000000000000000000000000000000000000001af24cc0400000e1
:20b90f00064e9602300080e00000000000000000000000000000000000000000000000009c
:0db92f00000000000000c002000c996c0038
:20b93c000000000000000000000000000000000000000000000000000000000000000000eb
:20b95c00000000000000000000000000000000000000000000000000591b083c00400026ad
:20b97c0000dd550000000090000000000000000000000000000000000000000000000000e9
:0db99c0000000000000000004002c9600033
:20b9a90000000000000000000000000000000000000000000000000000000000000000007e
:20b9c90000000000000000000000000000000000000000000000000023897a03e00000262f
:20b9e900004ab201000001f000000000000000000000000000000000000000000000000050
:0dba090000000000000000020016896c0023
:20ba1600000000000000000000000000000000000000000000000000000000000000000010
:20ba36000000000000000000000000000000000000000000000000000080023c0000002c06
:20ba56000000cc080000980000000000000000000000000000000000000000000000000064
:0dba76000000000000000001c00089600019
:20ba83000000000000000000000000000000000000000000000000000000000000000000a3
:20baa3000000000000000000000000000000000000000000000000000780527c200000a06e
:20bac300001ccc020000180000000000000000000000000000000000000000000000000061
:0dbae3000000000000000002060c996c003d
:20baf000000000000000000000000000000000000000000000000000000000000000000036
:20bb1000000000000000000000000000000000000000000000000000000003da4040002494
:20bb3000637b2d000000909001540000000000000000000000000000000000000000000075
:0dbb50000000000000000001c000c96000fe
:20bb5d000000000000000000000000000000000000000000000000000000000000000000c8
:20bb7d000000000000100000000000000000000000000000000000000000721a600000208c
:20bb9d0069edcb0000008007e155400000000000000000000000000000000000000000006a
:0dbbbd000000000000000000601e896c0008
:20bbca0000000000000000000000000000000000000000000000000000000000000000005b
:20bbea0000000000000000000000000000000000000000000000000005090bda4400000004
:20bc0a002a703301000000a0000000000000000000000000000000000000000000000000ac
:0dbc2a000000000000000000020099600012
:20bc37000000000000000000000000000000000000000000000000000000000000000000ed
:20bc57000000000000000000000000000000000000000000000000000001721a60000014cc
:20bc77003a68cc02000000100000000000000000000000000000000000000000000000002d
:0dbc97000000000000000000004c896c005f
:20bca400000000000000000000000000000000000000000000000000000000000000000080
:20bcc400000000000000000000000000000000000000000000000000008a021a4400000472
:20bce4002ac0e20010000003bd5c0000000000000000000000000000000000000000000048
:0dbd040000000000000000080202c96000fd
:20bd1100000000000000000000000000000000000000000000000000000000000000000012
:20bd3100000000000000000000000000000000000000000000000000018a5a5a6000003c17
:20bd5100700ad1023000000772a140000000000000000000000000000100000000000000fa
:0dbd710000000000000000000054896c007c
:20bd7e000000000000000000000000000000000000000000000000000000000000000000a5
:20bd9e0000000000000000000000000000000000000000000000000007000ada404000001a
:20bdbe002b40f0000000000dc03c0000000000000000000000000000000000000000000001
:0dbdde0000000000000000000000c960002f
:20bdeb00000000000000000000000000000000000000000000000000000000000000000038
:20be0b00000000000000000000000000000000000000000000000000050a521a600000003c
:20be2b00296c5f00380070097bc10200000000000000000000000000000000000000000014
:0dbe4b00000000000000e000600c896c00a9
:20be58000000000000000000000000000000000000000000000000000000000000000000ca
:20be780000000000008000000000000000000000000000000000000000000bc0000000005f
:20be9800256a7c00000000a0000000000000000000000000000000000000000000000000df
:0dbeb80000000000000000000000c6600057
:20bec50000000000000000000000000000000000000000000000000000000000000000005d
:20bee500000000000000000000000000000000000000000000000000000058402000001c69
:20bf0500054f73000000000000000000000000000000000000000000000000000000000055
:0dbf25000000000000000000061c066c007b
:20bf320000000000009000000000000000000000000000000000000000000000000000005f
:20bf520000000000000002000000000009000000000000000000000045003a0f4400a00052
:20bf720001d0aa00002000800000000000000c05a00100100e0000000c0002000000003086
:0dbf920000000000000000000000000000a2
:20bf9f00400000000010000000000000000000000000000000000000000000000000000032
:20bfbf000000000000000000000000000000000000000000000000002d887e9fc000400090
:20bfdf00000e550000005810000000004000000a54010000000000000c001e00000000307e
:0dbfff0000380000000000000000000000fd
:20c00c00800000000000000000000000000000000000000000000000000000000000000094
:20c02c00000000000000030000000000000030140000000000000000000a502580000004aa
:20c04c004240b900000000c7433000000800010f0000000000000000000004000000000043
:0dc06c0000000000000000000000000000c7
:20c079000000000000000000000000000000000000000000000000000000000000000000a7
:20c099000000000000000040000000004000faabc0000000000000000581831a40c0002c53
:20c0b90079ca89020000001d20cc0800140001cf0500000008000000000000300000000067
:0dc0d900000000000000000000000000005a
:20c0e600080000000000000000000000000000000000000000000000000000000000000032
:20c106000000000000000280000000000900d6fc0001000000000000050f302a8000403459
:20c1260002d0b7000028008fec30000000002700f000000000000000000000000000000086
:0dc1460001000000000010c000000000001b
:20c15300440000000000000000000000000000000000000000000000000000000000000088
:20c1730000000000000000400000000000009a03c0010000000000028d0083954000202ed9
:20c1930000580002000001c3e1680000000604af000000000e00000000000000000000005e
:0dc1b300000000000000100000000000006f
:20c1c00000240000000000000000000000000000000000000000010000000000000000003a
:20c1e000000000000000036d8df000280000102a800000000000000005103e4cc000000011
:20c200004340cc000080f08b42a8000000200000000000000e0000000000000000f0088044
:0dc220000000000000000000000000000011
:20c22d000004000000000000000000000000000000000000000001000000000000000000ec
:20c24d000000000000000016fff010100000069540000000000000000d9cb6f3000000047b
:20c26d003ad833020000800071540000004000000000000000000000000e00000ef0408019
:0dc28d0000000000000000000000000000a4
:20c29a0000000000000000000000000000000000000000000000000000000000000000087c
:20c2ba00900000000002427cf0f000000f0e000000000000000000000099d3a64000a0061f
:20c2da0077500f00010050f000000008000000000000000000000000000000000000000025
:0dc2fa00000000000000000800000000002f
:20c307000000000000000000000000000000000000000000000000000000000000000018fe
:20c32700100000000002002681700000080100000000000000000000051f805980004064a3
:20c34700256a5a00008018a0000000000000000000000000000000000000000000000000b5
:0dc3670000000000000000140000000000b5
:20c374000000000000000000000000000000000000000000000000000000000000000000a9
:20c3940001c3f4000000000299600000070d00000000014000000000000014330000011425
:20c3b400246933000000f0ad80fc0000000400000001000000fe48800c00000000000010a9
:0dc3d400001000000000000000000000004c
:20c3e10000000000000000000000000000000000000000000000000000000000000000003c
:20c4010005e3fc0800000016896800000001000000000080000000000000fe8cc08000a03d
