:02000000ff00ff
:080002004c6174746963650030
:17000a00694345637562653220323032302e31322e32373934330071
:16002100506172743a2069434534304858384b2d43423133320018
:1a003700446174653a204a756e203120323032322030393a35343a333700a3
:0200510000ffae
:040053007eaa997e6a
:02005700510056
:0200590001059f
:03005b00920020f0
:03005e00620367d3
:0300610072011019
:0300640082000017
:02006700110086
:02006900010193
:20006b00000000000000000000000000000000000000000000000000000000000000000075
:20008b00000000000000000000000000000000000000000000000000000000000000000055
:2000ab0000000000000000000000000800000000000000000000000000000000000000002d
:0d00cb000000000000000000000000000028
:2000d800000000000000000000000000000000000000000000000000000000000000000008
:2000f8000000000000000000000000000000000000000000000000000000000000000000e8
:200118000000000000000000000000000000000000000000000000000000000000000000c7
:0d01380000000000000000000000000000ba
:2001450000000000000000000000000000000000000000000000000000000000000000009a
:2001650000000000000000000000000000000000000000000000000000000000000000007a
:20018500000000000000000000000004000000000000000000000000000000000000000056
:0d01a5000000000000000400000000000049
:2001b20000000000000000000000000000000000000000000000000000000000000000002d
:2001d20000000000000000000000000000000000000000000000000000000000000000000d
:2001f2000000000000000000000000000000000000000000000000000000000000000000ed
:0d02120000000000000000000000000000df
:20021f000000000000000000000000000000000000000000000000000000000000000000bf
:20023f0000000000000000000000000000000000000000000000000000000000000000009f
:20025f00000000000000000000000008000000000000000000000000000000000000000077
:0d027f000000000000000000000000000072
:20028c00000000000000000000000000000000000000000000000000000000000000000052
:2002ac00000000000000000000000000000000000000000000000000000000000000000032
:2002cc00000000000000000000000000000000000000000000000000000000000000000012
:0d02ec000000000000000000000000000005
:2002f9000000000000000000000000000000000000000000000000000000000000000000e5
:200319000000000000000000000000000000000000000000000000000000000000000000c4
:200339000000000000000000000000000000000000000000000000000000000000000000a4
:0d0359000000000000000000000000000097
:20036600000000000000000000000000000000000000000000000000000000000000000077
:20038600000000000000000000000000000000000000000000000000000000000000000057
:2003a600000000000000000000000000000000000000000000000000000000000000000037
:0d03c600000000000000000000000000002a
:2003d30000000000000000000000000000000000000000000000000000000000000000000a
:2003f3000000000000000000000000000000000000000000000000000000000000000000ea
:200413000000000000000000000000000000000000000000000000000000000000000000c9
:0d04330000000800000000000010000000a4
:2004400000000000000000000000000000000000000000000000000000000000000000009c
:2004600000000000000000000000000000000000000000000000000000000000000000007c
:2004800000000000000000000000000000000000000000000000000000000000000000005c
:0d04a000000000000000000000000000004f
:2004ad0000000000000000000000000000000000000000000000000000000000000000002f
:2004cd0000000000000000000000000000000000000000000000000000000000000000000f
:2004ed000000000000000000000000000000000000000000000000000000000000000000ef
:0d050d0000000000000000000000000000e1
:20051a000000000000000000000000000000000000000000000000000000000000000000c1
:20053a000000000000000000000000000000000000000000000000000000000000000000a1
:20055a0000000000000000000000000000000000000000000000000000000000000000027f
:0d057a000000000000000000000000000074
:20058700000000000000000000000000000000000000000000000000000000000000000054
:2005a700000000000000000000000000000000000000000000000000000000000000000034
:2005c700000000000000000000000000000000000000000000000000000000000000000014
:0d05e7000000000000000000000000000007
:2005f4000000000000000000000000000000000000000000000000000000000000000000e7
:200614000000000000000000000000000000000000000000000000000000000000000000c6
:200634000000000000000000000000000000000000000000000000000000000000000001a5
:0d0654000000000000000000000000000099
:20066100000000000000000000000000000000000000000000000000000000000000000079
:20068100000000000000000000000000000000000000000000000000000000000000000059
:2006a100000000000000000000000000000010000000000000000000000000000000000029
:0d06c100000000000000000000100000001c
:2006ce0000000000000000000000000000000000000000000000000000000000000000000c
:2006ee000000000000000000000000000000000000000000000000000000000000000000ec
:20070e000000000000000000000000000000000000000000000000000000000000000002c9
:0d072e0000000000000000000000000000be
:20073b0000000000000000000000000000000000000000000000000000000000000000009e
:20075b0000000000000000000000000000000000000000000000000000000000000000007e
:20077b0000000000000000000000000000000000000000000000000000000000000000005e
:201c18000002000000000000000000000000000000000000000000000000000000000000aa
:201c380000000000000000000000000000000000000000000000000000000000000000008c
:201c580000000000000000000000000000000000000000000000000000000000000000006c
:0d1c7800000000000000000000000000005f
:201c850000000000000000000000000000000000000000000000000000000000000000003f
:201fed004c0000000000000000000000000000000000000000000000000000000000000088
:20200d000000000000000000000000000000000000000000000000000000000000000000b3
:20202d00000000000000000000000000000000000000000000000000000000000000000093
:0d204d000000000000000000000000000086
:20205a000c000000000000000000000000000000000000000000000000000000000000005a
:20207a00000000000000000000000000000000000000000000000000000000000000000046
:20209a00000000000000000000000000000000000000000000000000000000000000000026
:0d20ba000000000000000000000000000019
:2020c7000000000000000000000000000000000000000000000000000000000000000000f9
:2020e7000000000000000000000000000000000000000000000000000000000000000000d9
:202107000000000000000000000000000000000000000000000000000000000000000000b8
:0d21270000000000000000000000000000ab
:2021340080000000000000000000000000000000000000000000000000000000000000000b
:2021540000000000000000000000000000000000000000000000000000000000000000006b
:2021740000000000000000000000000000000000000000000000000000000000000000004b
:0d219400000000000000000000000000003e
:2021a1004000000000000000000000000000000000200000000000000000000000000000be
:2021c1000000000000000000000000000000000000000000000000000000000000000000fe
:2021e1000000000000000000000000000000000000000000000000000000000000000000de
:0d22010000000000000000000000000000d0
:20220e00003800000000000000000000000000000050000000000000000000000000000028
:20222e00000000000000000000000000000000000000000000000000000000000000000090
:20224e00000000000000000000000000000000000000000000000000000000000000000070
:0d226e000000000000000000000000000063
:20227b00000000000000000000000000000000000000000000000000000000000000000043
:20229b00000000000000000000000000000000000000000000000000000000000000000023
:2022bb00000000000000000000000000000000000000000000000000000000000000000003
:0d22db0000000000000000000000000000f6
:2022e8000000000000000000000000000000000000000000000000000000000000000000d6
:202308000000000000000000000000000000000000000000000000000000000000000000b5
:20232800000000000000000000000000000000000000000000000000000000000000000095
:0d2348000000000000000000000000000088
:20235500000000000000000000000000000000000000000000000000000000000000000068
:20237500000000000000000000000000000000000000000000000000000000000000000048
:20239500000000000000000000000000000000000000000000000000000000000000000028
:0d23b500000000000000000000000000001b
:2023c2000000000000000000000000000000000000000000000000000000000000000000fb
:2023e2000000000000000000000000000000000000000000000000000000000000000000db
:202402000000000000000000000000000000000000000000000000000000000000000000ba
:0d24220000000000000000000000000000ad
:20242f0000000000000000000000000000000000000000000000000000000000000000008d
:20244f0000000000000000000000004000000000000000000000000000000000000000002d
:20246f0000000000000000000000000000000000000000000000000001000000000000004c
:0d248f000000000000000000000000000040
:20249c00000000000000000000000000000000000000000000000000000000000000000020
:2024bc00000000000000000000000000000000000000000000000000000000000000000000
:2024dc000000000000000000000000000000000000000000000000000000000000000000e0
:0d24fc0000000000000000000000000000d3
:202509000000000000000000000000000000000000000000000000000000000000000000b2
:20252900000000000000000000000000000000000000000000000000000000000000000092
:20254900000000000000000000000000000000000000000000000000000000000000000072
:0d2569000000000000000000000000000065
:20257600000000000000000000000000000000000000000000000000000000000000000045
:20259600000000000000000000000000000000000000000000000000000000000000000025
:2025b600000000000000000000000000000000000000000000000000000000000000000005
:0d25d60000000000000000000000000000f8
:2025e3000000000000000000000000000000000000000000000000000000000000000000d8
:202603000000000000000000000000000000000000000000000000000000000000000000b7
:20262300000000000000000000000000000000000000000000000000000000000000000097
:0d264300000000000000000000000000008a
:2026500000000000000000000000000000000000000000000000000000000000000000006a
:2026700000000000000000000000000000000000000000000000000000000000000000004a
:2026900000000000000000000000000000000000000000000000000000000000000000002a
:0d26b000000000000000000000000000001d
:2026bd000000000000000000000000000000000000000000000000000000000000000000fd
:2026dd000000000000000000000000000000000000000000000000000000000000000000dd
:2026fd000000000000000000000000000000000000000000000000000000000000000000bd
:0d271d0000000000000000000000000000af
:20272a0000000000000000000000000000000000000000000000000000000000000000008f
:20274a0000000000000000000000000000000000000000000000000000000000000000006f
:20276a0000000000000000000000000000000000000000000000000000000000000000004f
:0d278a000000000000000000000000000042
:20279700000000000000000000000000000000000000000000000000000000000000000022
:2027b700000000000000000000000000000000000000000000000000000000000000000002
:2027d7000000000000000000000000000000000000004000000000000000000000000000a2
:0d27f70000000000000000000000000000d5
:202804000000000000000000000000000000000000000000000000000000000000000000b4
:20282400000000000000000000000000000000000000000000000000000000000000000094
:20284400000000000000000000000000000000000000000000000000000000000000000074
:0d2864000000000000000000000000000067
:20287100000000000000000000000000000000000000000000000000000000000000000047
:20289100000000000000000000000000000000000000000000000000000000000000000027
:2028b100000000000000000000000000000000000000000000000000000000000000000007
:0d28d10000000000000000000000000000fa
:2028de000000000000000000000000000000000000000000000000000000000000000000da
:2028fe000000000000000000000000000000000000000000000000000000000000000000ba
:20291e00000000000000000000000000000000000000000000000000000000000000000099
:0d293e00000000000000000000000000008c
:20294b0040000000000000000000000000000000000000000000000000000000000000002c
:20296b0000000000000000000000000000000000000000000000000000000000000000004c
:20298b0000000000000000000000000000000000000000000000000000000000000000002c
:0d29ab00000000000000000000000000001f
:2029b8000000000000000000000000000000000000000000000000000000000000000000ff
:2029d8000000000000000000000000000000000000000000000000000000000000000000df
:2029f8000000000000000000000000000000000000000000000000000000000000000000bf
:0d2a180000000000000000000000000000b1
:202a2500000000000000000000000000000000000000000000000000000000000000000091
:202a4500000000000000000000000000000000000000000000000000000000000000000071
:202a6500000000000000000000000000000000000000000000000000000000000000000051
:0d2a85000000000000000000000000000044
:202a92008000000000000000000000000000000000000000000000000000000000000000a4
:202ab200000000000000000000000000000000000000000000000000000000000000000004
:202ad2000000000000000000000000000000000000000000000000000000000000000000e4
:0d2af20000000000000000000000000000d7
:202aff00440000000000000000000000000000000000000000000000000000000000000073
:202b1f00000000000000000000000000000000000000000000000000000000000000000096
:202b3f00000000000000000000000000000000000000000000000000000000000000000076
:0d2b5f000000000000001000000000000059
:202b6c000c000000000000000000000000000000000000000000000000000000000000003d
:202b8c00000000000000000000000000000000000000000000000000000000000000000029
:202bac00000000000000000000000000000000000000000000000000000000000000000009
:0d2bcc0000000000000000000000000000fc
:202bd9000001000000000000000000000000000000000000000000000000000000000000db
:202bf9000000000000000000000000000000000000000000000000000000000000000000bc
:202c190000000000000000000000000000000000000000000000000000000000000000009b
:0d2c3900000000000000000000000000008e
:202c460000000000000000000000000000000000000000000000000000000000000000006e
:202c660000000000000000000000000000000000000000000000000000000000000000004e
:202c860000000000000000000000000000000000000000000000000000000000000000002e
:0d2ca6000000000000000000000000000021
:202cb300000000000000000000000000000000000000000000000000000000000000000001
:202cd3000000000000000000000000000000000000000000000000000000000000000000e1
:202cf3000000000000000000000000000000000000000000000000000000000000000000c1
:0d2d130000000000000000000000000000b3
:202d2000000000000000000000000000000000000000000000000000000000000000000093
:202d4000000000000000000000000000000000000000000000000000000000000000000073
:202d6000000000000000000000000000000000000000000000000000000000000000000053
:0d2d80000000000000000000000000000046
:202d8d000068000000000000000000000000000000000000000000000000000000000000be
:202dad00000000000000000000000000000000000000000000000000000000000000000006
:202dcd000000000000000000000000000000000000000000000000000000000000000000e6
:0d2ded0000000000000000000000000000d9
:202dfa000000000000000000000000000000000000000000000000000000000000000000b9
:20320f0000000000000000000000000000000000000040000000000000000000000000005f
:0d322f000000000000000000000000000092
:20323c00000000000000000000000000000000000000400000000000000000000000000032
:20325c00000000000000000000000000000000000000000000000000000000000000000052
:20327c00000000000000000000000000000000000000000000000000000000000000000032
:0d329c000000000000000000000000000025
:2032a900000000000000000000000000000000000000000000000000000000000000000005
:2032c9000000000000000000000000000000000000000000000000000000000000000000e5
:2032e9000000000000000000000000000000000000000000000000000000000000000000c5
:0d33090000000000000000000000000000b7
:20331600000000000000000000000000000000000000000000000000000000000000000097
:20333600000000000000000000000000000000000000000000000000000000000000000077
:20335600000000000000000000000000000000000000000000000000000000000000000057
:0d337600000000000000000000000000004a
:2033830000000000000000000000000000000000000000000000000000000000000000002a
:2033a30000000000000000000000000000000000000000000000000000000000000000000a
:2033c3000000000000000000000000000000000000000000000000000000000000000000ea
:0d33e30000000000000000000000000000dd
:2033f0000000000000000000000000000000000000000000000000000000000000000000bd
:2034100000000000000000000000000000000000000000000000000000000000000000009c
:2034300000000000000000000000000000000000000000000000000000000000000000007c
:0d345000000000000000000000000000006f
:20345d0000000000000000000000000000000000000000000000000000000000000000004f
:20347d0000000000000000000000000000000000000000000000000000000000000000002f
:20349d0000000000000000000000000000000000000000000000000000000000000000000f
:0d34bd000000000000000000000000000002
:2034ca000000000000000000000000000000000000000000000000000000000000000000e2
:2034ea000000000000000000000000000000000000000000000000000000000000000000c2
:20350a000000000000000000000000000000000000000000000000000000000000000000a1
:0d352a000000000000000000000000000094
:20353700000000000000000000000000000000000000000000000000000000000000000074
:20355700000000000000000000000000000000000000000000000000000000000000000054
:203577000000000000000000000000000000000000004000000000000100000000000000f3
:0d3597000000000000000000000000000027
:2035a400000000000000000000000000000000000000000000000000000000000000000007
:2035c4000000000000000000000000000000000000000000000000000000000000000000e7
:2035e4000000000000000000000000000000000000000000000000000000000000000000c7
:2039790000000000000000000000000000000000000000000000020000000000000000002c
:2039990000000000000000000000000000000000000000000000000000000000000000000e
:2039b9000000000000000000000000000000000000000000000000000000000000000000ee
:0d39d90000000000000000000000000000e1
:2039e6000000000000000000000000000000000000000000000000000000000000000000c1
:203a06000000000000000000000000000000000000000000000000000000000000000000a0
:203a2600000000000000000000000000000000000000000000000000000000000000000080
:0d3a46000000000000000000000000000073
:203a5300000000000000000000000000000000000000000000000000000000000000000053
:203a7300000000000000000000000000000000000000000000000000000000000000000033
:203a9300000000000000000000000000000000000000000000000000000000000000000013
:0d3ab3000000000000000000000000000006
:203ac0000000000000000000000000000000000000000000000000000000000000000000e6
:203ae0000000000000000000000000000000000000000000000000000000000000000000c6
:203b00000000000000000000000000000000000000000000000000000000000000000000a5
:0d3b20000000000000000000000000000098
:203b2d00000000000000000000000000000000000000000000000000000000000000000078
:203b4d00000000000000000000000000000000000000000000000040000000000000000018
:203b6d00000000000000000000000000000000000000000000000000000000000000000038
:0d3b8d00000000000000000000000000002b
:203b9a00000000000000000000000000000000000800000000000000000000000000000003
:203bba000000000000000000000000000000000000000000000000000000000000000000eb
:203bda000000000000000000000000000000000000000000000000000000000000000000cb
:0d3bfa0000000000000000000000000000be
:203c070000000000000000000000000000000000000000000000000000000000000000009d
:203c270000000000000000000000000000000000000000000000000000000000000000007d
:203c470000000000000000000000000000000000000000000000000000000000000000005d
:0d3c67000000000000000000000000000050
:203c7400180000000000000000000000000000000000000000000000000000000000000018
:203c9400000000000000000000000000000000000000000000000000000000000000000010
:203cb4000000000000000000000000000000000000000000000000000000000000000000f0
:0d3cd40000000000000000000000000000e3
:203ce1000000000000000000000000000000000000000000000000000000000000000000c3
:203d01000000000000000000000000000000000000000000000000000000000000000000a2
:203d2100000000000000000000000000000000000000000000000000000000000000000082
:0d3d41000000000000000000000000000075
:203d4e00000000000000000000000000000000000000000000000000000000000000000055
:203d6e00000000000000000000000000000000000000000000000000000000000000000035
:203d8e00000000000000000000000000000000000000000000000000000000000000000015
:0d3dae000000000000000000000000000008
:203dbb000000000000000000000000000000000000000000000000000000000000000000e8
:203ddb000000000000000000000000000000000000000000000000000000000000000000c8
:203dfb000000000000000000000000000000000000000000000000000000000000000000a8
:0d3e1b00000000000000000000000000009a
:203e280000000000000000000000000000000000000000000000000000000000000000007a
:203e480000000000000000000000000000000000000000000000000000000000000000005a
:203e680000000000000000000000000000000000000000000000000000000000000000003a
:0d3e8800000000000000000000000000002d
:203e950000000000000000000000000000000000000000000000000000000000000000000d
:203eb5000000000000000000000000000000000000000000000000000000000000000000ed
:203ed5000000000000000000000000000000000000000000000000000000000000000000cd
:0d3ef50000000000000000000000000000c0
:203f020000000000000000000000000000000000000000000000000000000000000000009f
:203f220000000000000000000000000000000000000000000000000000000000000000007f
:203f420000000000000000000000000000000000000000000000000000000000000000005f
:0d3f62000000000000000000000000000052
:203f6f00000000000000000000000000000000000000000000000000000000000000000032
:203f8f000000000000000000000000400000000000000000000000000000000000000000d2
:203faf000000000000000000000000000000000000000000000000000000000000000000f2
:0d3fcf0000000000000000000000000000e5
:203fdc000000000000000000000000000000000000000000000000000000000000000000c5
:203ffc000000000000000000000000000000000000000000000000000000000000000000a5
:20401c00000000000000000000000000000000000000000000000000000000000000000084
:0d403c000000000000000000000000000077
:20404900000000000000000000000000000000000000000000000000000000000000000057
:20406900000000000000000000000000000000000000000000000000000000000000000037
:20408900000000000000000000000000000000000000000000000000000000000000000017
:0d40a900000000000000000000000000000a
:2040b6000000000000000000000000000000000000000000000000000000000000000000ea
:2040d6000000000000000000000000000000000000000000000000000000000000000000ca
:2040f6000000000000000000000000000000000000000000000000000000000000000000aa
:0d411600000000000000000000000000009c
:2041230000000000000000000000000000000000000000000000000000000000000000007c
:2041430000000000000000000000000000000000000000000000000000000000000000005c
:2041630000000000000000000000000000000000000000000000000000000000000000003c
:0d418300000000000000000000000000002f
:2041900000000000000000000000000000000000000000000000000000000000000000000f
:2041b0000000000000000000000000000000000000000000000000000000000000000000ef
:2041d0000000000000000000000000000000000000000000000000000000000000000000cf
:0d41f00000000000000000000000000000c2
:2041fd000000000000000000000000000000000000000000000000000000000000000000a2
:20421d00000000000000000000000000000000000000000000000000000000000000000081
:20423d00000000000000000000000000000000000000000000000000000000000000000061
:0d425d000000000000000000000000000054
:20426a00000000000000000000000000000000000000000000000000000000000000000034
:20428a00000000000000000000000000000000000000000000000000000000000000000014
:2042aa000000000000000000000000000000000000000400000000000000000000000000f0
:0d42ca0040000000000000000000000000a7
:2042d7000000000000000000000000000000000000000000000000000000000000000000c7
:2042f7000000000000000000000000000000000000000000000000000000000000000000a7
:20431700000000000000000000000000000000000000000000000000000000000000000086
:0d4337000000000000000000000000000079
:20434400000000000000000000000000000000000000000000000000000000000000000059
:20436400000000000000000000000000000000000000000000000000000000000000000039
:20438400000000000000000000000000000000000000000000000000000000000000000019
:0d43a400000000000000000000000000000c
:2043b1000000000000000000000000000000000000000000000000000000000000000000ec
:2043d1000000000000000000000000000000000000000000000000000000000000000000cc
:2043f1000000000000000000000000000000000000000000000000000000000000000000ac
:0d441100000000000000000000000000009e
:20441e0000000000000000000000000000000000000000000000000000000000000000007e
:20443e0000000000000000000000000000000000000000000000000000000000000010004e
:20445e00000000000000000000000001000000000000040000000000001000000000000029
:0d447e000000000000000000000000000031
:20448b00000000000000000000000000000000000000000000000000000000000000000011
:2044ab000000000000000000000000000000000000000000000000000000000000000000f1
:2044cb000000000000000000000000000000000000000000000000000000000000000000d1
:0d44eb0000000000000000000000000000c4
:2044f8000000000000000000000000000000000000000000000000000000000000000000a4
:20451800000000000000000000000000000000000000000000000000000000000000000083
:20453800000000000000000000000000000000000000000000000000000000000000000063
:0d4558000000000000000000000000000056
:20456500000000000000000000000000000000000000000000000000000000000000000036
:20458500000000000000000000000000000000000000000000000000000000000000000016
:2045a5000000000000000000000000000000000000000000000000000000000000000000f6
:0d45c50000000000000000000000000000e9
:2045d2000000000000000000000000000000000000000000000000000000000000000000c9
:2045f2000000000000000000000000000000000000000000000000000000000000000000a9
:20461200000000000000000000000000000000000000000000000000000000000000000088
:0d463200000000000000000000000000007b
:20463f0000000000000000000000000000000000000000000000000000000000000000005b
:20465f0000000000000000000000000000000000000000000000000000000000000000003b
:20467f0000000000000000000000000000000000000000000000000000000000000000001b
:0d469f00000000000000000000000000000e
:2046ac000000000000000000000000000000000000000000000000000000000000000000ee
:2046cc000000000000000000000000000000000000000000000000000000000000000000ce
:2046ec000000000000000000000000000000000000000000000000000000000000000000ae
:0d470c0000000000000000000000000000a0
:20471900000000000000000000000000000000000000000000000000000000000000000080
:2047390000000000000000000000000000000000000000000000000000000000000100005f
:20475900000000000000000000000000000000000000000000000000000000000000000040
:0d4779000000000000000000000000000033
:20478600000000000000000000000000000000000000000000000000000000000000000013
:2047a6000000000000000000000000000000000000000000000000000000000000010000f2
:2047c6000000000000000000000000000000000000000000000000000000000000000000d3
:0d47e60000000000000000000000000000c6
:2047f3000000000000000000000000000000000000000000000000000000000000000000a6
:20481300000000000000000000000000000000000000000000000000000000000000000085
:204bc8000002000000000000000000000000000000000000000000000000000000000000cb
:204be8000000000000000000000000000000000000000000000000000000000000000000ad
:204c080000000000000000000000000000000000000000000000000000000000000000008c
:0d4c2800000000000000000000000000007f
:204c350000000000000000000000000000000000000000000000000000000000000000005f
:204c550000000000000000000000000000000000000000000000000000000000000000003f
:204c750000000000000000000000000000000000000000000000000000000000000000001f
:0d4c95000000000000000000000000000012
:204ca2000000000000000000000000000000000000000000000000000000000000000000f2
:204cc2000000000000000000000000000000000000000000000000000000000000000000d2
:204ce2000000000000000000000000000000000000000000000000000000000000000000b2
:0d4d020000000000000000000000000000a4
:204d0f0000680000000000000000000000000000000000000000000000000000000000001c
:204d2f00000000000000000000000000000000000000000000000000000000000000000064
:204d4f00000000000000000000000000000000000000000000000000000000000000000044
:0d4d6f000000000000000000000000000037
:204d7c00000000000000000000000000000000000000000000000000000000000000000017
:204d9c000000000000000000000000000000000000000000000000000000000000000000f7
:204dbc000000000000000000000000000000000000000000000000000000000000000000d7
:0d4ddc0000000000000000000000000000ca
:204de9000000000000000000000000000000000000000000000000000000000000000000aa
:204e0900000000000000000000000000000000000000000000000000000000000000000089
:204e2900000000000000000000000000000000000000000000000000000000000000000069
:0d4e4900000000000000100000000000004c
:204e560000000000000000000000000000000000000000000000000000000000000000003c
:204e760000000000000000000000000000000000000000000000000000000000000000001c
:204e96000000000000000000000000000000000000000000000000000000000000000000fc
:0d4eb60000000000000010000000000000df
:204ec30000000000000000000000000000000000400000000000000000000000000000008f
:204ee3000000000000000000000000000000000000000000000000000000000000000000af
:204f030000000000000000000000000000000000000000000000000000000000000000008e
:0d4f23000000000000000000000000000081
:204f3000000000000000000000000000000000004000000000000000000000000000000021
:204f5000000000000000000000000000000000000000000000000000000000000000000041
:204f7000000000000000000000000000000000000000000000000000000000000000000021
:0d4f90000000000000000000000000000014
:204f9d004800000000000000000000000000000000000000000000000000000000000000ac
:204fbd000000000000000000000000000000000000000000000000000000000000000000d4
:204fdd000000000000000000000000000000000000000000000000000000000000000004b0
:0d4ffd0000000000000000000000000000a7
:20500a0008000000000000000000000000000000000000000000000000000000000000007e
:20502a00000000000000000000000000000000000000000000000000000000000000000066
:20504a00000000000000000000000000000000000000000000000000000000000000000046
:0d506a000000000000000000000000000039
:20507700000000000000000000000000000000000000000000000000000000000000000019
:205097000000000000000000000000000000000000000000000000000000000000000000f9
:2050b7000000000000000000000000000000000000000000000000000000000000000000d9
:0d50d70000000000000000000000000000cc
:2050e40080000000000000000000000000000000000000000000000000000000000000002c
:2051040000000000000000000000000000000000000000000000000000000000000000008b
:2051240000000000000000000000000000000000000000000000000000000000000000006b
:0d514400000000000000000000000000005e
:205151004000000000000000000000000000000000000000000000000000000000000000fe
:2051710000000000000000000000000000000000000000000000000000000000000000001e
:205191000000000000000000000000000000000000000000000000000000000000000000fe
:0d51b10000000000000000000000000000f1
:2051be000000000000000000000000000000000000000000000000000000000000000000d1
:2051de000000000000000000000000000000000000000000000000000000000000000000b1
:2051fe00000000000000000000000000000000000000000000000000000000000000000091
:0d521e000000000000000000000000000083
:20522b00000000000000000000000000000000000000000000000000000000000000000063
:20524b00000000000000000000000000000000000000000000000000000000000000000043
:20526b00000000000000000000000000000000000000000000000000000000000000000023
:0d528b000000000000000000000000000016
:205298000000000000000000000000000000000000000000000000000000000000000000f6
:2052b8000000000000000000000000000000000000000000000000000000000000000000d6
:2052d8000000000000000000000000000000000000000000000000000000000000000000b6
:0d52f80000000000000000000000000000a9
:20530500000000000000000000000000000000000000000000000000000000000000000088
:20532500000000000000000000000000000000000000000000000000000000000000000068
:20534500000000000000000000000000000000000000000000000000000000000000000048
:0d536500000000000000000000000000003b
:2053720000000000000000000000000000000000000000000000000000000000000000001b
:205392000000000000000000000000000000000000000000000000000000000000000000fb
:2053b2000000000000000000000000000000000000000000000000000000000000000000db
:0d53d20000000000000000000000000000ce
:2053df000000000000000000000000000000000000000000000000000000000000000000ae
:2053ff0000000000000000000000000000000000000000000000000000000000000000008e
:20541f0000000000000000000000000000000000000040000000000001000000000000002c
:0d543f000000000000000000000000000060
:20544c00000000000000000000000000000000000000000000000000000000000000000040
:20546c00000000000000000000000000000000000000000000000000000000000000000020
:20548c00000000000000000000000000000000000000000000000000000000000000000000
:2058fb0000000000000000000000000000000000000000000000004000000000000000004d
:20591b0000000000000000000000000000000000000000000000000000000000000000006c
:20593b0000000000000000000000000000000000000000000000000000000000000000004c
:0d595b00000000000000000000000000003f
:2059680000000000000000000000000000000000000000000000000000000000000000001f
:205988000000000000000000000000000000000000000000000000000000000000000000ff
:2059a8000000000000000000000000000000000000000000000000000000000000000000df
:0d59c80000000000000000000000000000d2
:2059d5000000000000000000000000000000000000000000000000000000000000000000b2
:2059f500000000000000000000000000000000000000000000000000000000000000000092
:205a1500000000000000000000000000000000000000000000000000000000000000000071
:0d5a35000000000000000000000000000064
:205a4200000000000000000000000000000000000000000000000000000000000000000044
:205a6200000000000000000000000000000000000000000000000000000000000000000024
:205a8200000000000000000000000000000000000000000000000000000000000000000004
:0d5aa20000000000000000000000000000f7
:205aaf000000000000000000000000000000000000000000000000000000000000000000d7
:205acf000000000000000000000000000000000000000000000000000000000000000000b7
:205aef00000000000000000000000000000000000000000000000000000000000000000097
:0d5b0f000000000000000000000000000089
:205b1c00000000000000000000000000000000000000000000000000000000000000000069
:205b3c00000000000000000000000000000000000000000000000000000000000000000049
:205b5c00000000000000000000000000000000000000000000000000000000000000000029
:0d5b7c00000000000000000000000000001c
:205b89000000000000000000000000000000000000000000000000000000000000000000fc
:205ba9000000000000000000000000000000000000000100000000000000000000000000db
:205bc9000000000000000000000000000000000000000000000000000000000000000000bc
:0d5be90000000000000000000000000000af
:205bf60000000000000000000000000000000000000000000000000000000000000000008f
:205c160000000000000000000000000000000000000000000000000000000000000000006e
:205c360000000000000000000000000000000000000000000000000000000000000000004e
:0d5c56000000000000000000000000000041
:205c6300000000000000000000000000000000000000000000000000000000000000000021
:205c8300000000000000000000000000000000000000000000000000000000000000000001
:205ca3000000000000000000000000000000000000000000000000000000000000000000e1
:0d5cc30000000000000000000000000000d4
:205cd0000000000000000000000000000000000000000000000000000000000000000000b4
:205cf000000000000000000000000000000000000000000000000000000000000000000094
:205d1000000000000000000000000000000000000000000000000000000000000000000073
:0d5d30000000000000000000000000000066
:205d3d00000000000000000000000000000000000000000000000000000000000000000046
:205d5d00000000000000000000000000000000000000000000000000000000000000000026
:205d7d00000000000000000000000000000000000000000000000000000000000000000006
:0d5d9d0000000000000000000000000000f9
:205daa000000000000000000000000000000000000000000000000000000000000000000d9
:205dca000000000000000000000000000000000000000000000000000000000000000000b9
:205dea00000000000000000000000000000000000000000000000000000000000000000099
:0d5e0a00000000000000000000000000008b
:205e170000000000000000000000000000000000000000000000000000000000000000006b
:205e370000000000000000000000000000000000000000000000000000000000000000004b
:205e57000000000000000000000000000000000000004000000000000000000000000000eb
:0d5e7700000000000000000000000000001e
:205e84000000000000000000000000000000000000000000000000000000000000000000fe
:205ea4000000000000000000000000000000000000000000000000000000000000000000de
:205ec4000000000000000000000000000000000000000000000000000000000000000000be
:0d5ee40000000000000000000000000000b1
:205ef100000000000000000000000000000000000000000000000000000000000000000091
:205f1100000000000000000000000000000000000000000000000000000000000000000070
:205f3100000000000000000000000000000000000000000000000000000000000000000050
:0d5f51000000000000000000000000000043
:205f5e00000000000000000000000000000000000000000000000000000000000000000023
:205f7e00000000000000000000000000000000000000000000000000000000000000000003
:205f9e000000000000000000000000000000000000000000000000000000000000000000e3
:0d5fbe0000000000000000000000000000d6
:205fcb000000000000000000000000000000000000000000000000000000000000000000b6
:205feb00000000000000000000000000000000000000000000000000000000000000000096
:20600b00000000000000000000000000000000000000000000000000000000000000000075
:0d602b000000000000000000000000000068
:20603800000000000000000000000000000000000000000000000000000000000000000048
:20605800000000000000000000000000000000000000000000000000000000000000000028
:20607800000000000000000000000000000000000000000000000000000000000000000008
:0d60980000000000000000000000000000fb
:2060a5000000000000000000000000000000000000000000000000000000000000000000db
:2060c5000000000000000000000000000000000000000000000000000000000000000000bb
:2060e50000000000000000000000000000000000000000000000000000000000000000009b
:0d610500000000000000000000000000008d
:2061120010000000000000000000000000000000000000000000000000000000000000005d
:2061320000000000000000000000000000000000000000000000000000000000000000004d
:2061520000000000000000000000000000000000000000000000000000000000000000002d
:0d6172000000000000000000000000000020
:20617f00000000000000000000000000000000000000000000000000000000000000000000
:20619f000000000000000000000000000000000000000000000000000000000000000000e0
:2061bf00000000000000000000000000000000000000400000000000000000000000000080
:0d61df0000000000000000000000000000b3
:2061ec00000000000000000000000000000000000000000000000000000000000000000093
:20620c00000000000000000000000000000000000000000000000000000000000000000072
:20622c00000000000000000000000000000000000000000000000000000000000000000052
:0d624c000000000000000000000000000045
:20625900000000000000000000000000000000000000000000000000000000000000000025
:206279000000000000000000000000000000000000010000000000400000000000000000c4
:206299000000000000000000000000000000000000000000000000000000000000000000e5
:0d62b90000000000000000000000000000d8
:2062c6000000000000000000000000000000000000000000000000000000000000000000b8
:2062e600000000000000000000000000000000000001000000000040000000000000000057
:20630600000000000000000000000000000000000000000000000000000000000000000077
:0d632600000000000000000000000000006a
:2063330000000000000000000000000000000000000000000000000000000000000000004a
:2063530000000000000000000000000000000000000000000000000000000000000000002a
:2066db00000000000000000000000000000600000000000000000000000000000000000099
:0d66fb000000000000000000000000000092
:20670800000000000000000000000000000000000000000000000000000000000000000071
:20672800000000000000000000000000000000000000004000000000000c00000000000005
:20674800000000000000000000000000100000000000000000000000000000000000000021
:0d6768000000000000000000000000000024
:20677500000000000000000000000000000000000000000000000000000000000000000004
:206795000000000000000000000000000000000000000000000000000000000000000000e4
:2067b5000000000000000000000000e0000000000003800000000000000000000000000061
:0d67d50000000000000010000000000000a7
:2067e200000000000000000000000000000000000000000000000000000000000000000097
:20680200000000000000000000000000000000000000000000000000000000000000000076
:20682200000000000000000000000000000000000000000000000000000000000000000056
:0d6842000010000000001000000000000029
:20684f00000000000000000000000000000000000000000000000000000000000000000029
:20686f00000000000000000000000000000000000000000000000000000e000000000000fb
:20688f000000000000000000000000000000000000000000000000000000000000000000e9
:0d68af0000000000000000080000000000d4
:2068bc000000000000000000000000000000000000000000000000000000000000000000bc
:2068dc0000000000000000000000000000000000000000000000000000100000000000008c
:2068fc0000000000000000000000000000000000000000000000000000000000000000007c
:0d691c00000000000000000400000000006a
:2069290000000000000000000000000000000000000000000000010000000000000000004d
:2069490000000000000000000000000000000000000000000000000000000000000000002e
:2069690000000000000500000000000000002ec47600000000000000000000000000003071
:0d6989000000000000000000000000000001
:206996000000000000000000000000000000000000000000000001000000000000000000e0
:2069b6000000000000000000000000000000000000000000000000000000000000000000c1
:2069d60000000000000200000000000000003e981100000d000000000000000000000000ab
:0d69f6000000000000000000000000000094
:206a0300000000000000000000000000000000000000000000000000000000000000000073
:206a2300000000000000000000000000000000000000000000000000000000000000000053
:206a4300000000000000000000000000020000000000000000000000000000000000000031
:0d6a63000000000000000000000000000026
:206a7000000000000000000000000000000000000000000000000000000000000000000006
:206a90000000000000000000000000000000000000000000000000000000000000000000e6
:206ab00000000000000000000000000000c0000000000009000000000000000000000000fd
:0d6ad00000000000000000000000000000b9
:206add00000000000000000000000000000000000000000000000000000000000000000099
:206afd000000000000000000000000000000000000000000000000000000522800200000df
:206b1d00000000000028000000000000000000000000400180bb51d2000000000000000091
:0d6b3d0000000063c0020000000000000026
:206b4a0000000000000000000000000000000000000000000000000000000000000000002b
:206b6a0000000000000000000000000300000000000000000000000000000c2800000000d4
:206b8a0000000000000000000000000000038000000000000e5b108000000000000000006f
:0d6baa0000000003c000000000000000001b
:206bb7000000000000000000000000000000000000000000000000000000000000000000be
:206bd70000000000000000000000000000000000000100000000000000000000000000009d
:206bf70000000000000000000000000000000000000000000000000000000000000000007e
:0d6c17000000000000000000000000000070
:206c2400000000000000000000000000000000000000000000000000000000000000000050
:206c4400000000000000000000000000000000000000000000000000000000000000000030
:206c6400000000000000000000000000000000000000000000000000000000000000000010
:0d6c84000000000000000000000000000003
:206c91000000040000000000000000000000000000000000000000000000000000000000df
:206cb1000000000000000000000000000000000000000000000000000000000000000000c3
:206cd1000000000000010000000000000000000000000000000000000000000000000000a2
:0d6cf1000000000000000000000000000096
:206cfe00000004000000000000000000000000000000000000000000000000000000000072
:206d1e00000000000000000000000000000000000000000000000000000000000000000055
:206d3e000000000000020000000000000002400000000000000000000000000000000000f1
:0d6d5e000000000000000000000000000028
:206d6b00060000000000000000000000000000000000000000000000000000000000000002
:206d8b00000000000000000000000000800000000000000000000000000000000000001e4a
:206dab00784ea0000000000bf16c0200034004aa000000080a760600000000000000000079
:0d6dcb0002000000000000000000000000b9
:206dd800000200000000000000000000000000000000000000000000000000000000000099
:206df80000000000000000000000000000000000000000000000000000000000000000007b
:206e18004000a0100000000fbeac00000060010a0000000f10d60fc00000000000000000c2
:0d6e3800010000000000000000000000004c
:206e450006000000000000000000000000000000000000000000000800000000000000001f
:206e650000000000000000000000000000000000000000000000000000000000000e0000ff
:206e850000dca00000007000000000e01402b6a8002380000e3b94108e000004180f400024
:0d6ea50000000000000000000000000000e0
:206eb2000000000000000000000000000000000000000000000000000000000000000000c0
:206ed200000000000000000000000000000f00000000000000000000000000000000000091
:206ef2000000a001000000000000000008041d0c0000000100902e040000803c100f00000c
:0d6f12000000000000000002400000000030
:206f1f00000000000000000000000000000000000000000000000000000000000000000052
:206f3f00000000000000000000000000000083a80001008000000000000000000000000086
:206f5f000000000004000000000000000002bd88012400000c000000000000000000000096
:0d6f7f000000000000000000030000000002
:206f8c000000000000000000001000000000000000000000000000000000000000000000d5
:206fac00000000000000000000000000000094140400000000000000000000000000000019
:206fcc000000000000000000000000001006dd0a00040000000000000000000000000000a4
:0d6fec000000000000000000000000000098
:206ff900000200000000000000000000000000000000000000000000000000000000000076
:20701900000000000000000000000000000100000000000000000000000000000001002035
:20703900000000000000000000000000006000000003000000b600042040000000000000ba
:0d705900000000000000000000000000002a
:2070660000000000000000000000000000000000000000000000000000000000000000000a
:20708600000000000000000000000000000f000000000000000000000000000000010004d6
:2070a600000000000000000000000000034000000000000000f8014840a000000000000066
:0d70c60000000000000000000000000000bd
:2070d30040000000000000000000000000000000000000000000000000000000000000005d
:2070f300000000000000000000000000000000000000040000000010000000000002000067
:207113000008f0400000000000000000000001f71400000000761400000006000000000088
:0d713300000000000000000000000000004f
:2071400000000000000000000000000000000000000000000000000000000000000000002f
:207160000000000000000000000000000000000000000000000000000000000000000034db
:207180000010f000000000000000000000003cab220000000ed415400000000000000000af
:0d71a00000000000000000000000000000e2
:2071ad0000000000000000000000000000000000000000000000000a0000000000000000b8
:2071cd00000000000000000000000000000000000000000000000000000000000000002082
:2071ed0003dc50000000d18000000000000016e55600000001929380000000040000000007
:0d720d00000000000000000000158a50087d
:20721a00000000000000000000000000000000000000000000000000000000000000000054
:20723a00000000000000000000000000000000000000000000000000000000000000001c18
:20725a003bd0000002805000000000000040010550000005089797800000002000000000c6
:0d727a000000000000000000003e00500079
:207287000000000000000000000000000000000000000000000000000000000000000000e7
:2072a700000000000000000000000000000076a80040000000000000000000000000001c4d
:2072c700001a0f00000080b762800020000680000000000980978110800000020cfa400442
:0d72e700000000000000200000000000007a
:2072f4008000000000000000000000000000000000000000000000000000000000000000fa
:20731400000000000000000000000000000e0c2800000000000000000000000000000024f3
:2073340000000f00400050f08280200001c000000000000b00b817840000000240f5000032
:0d735400000000000000000002000000002a
:2073610000000000000000000000000000000000000000000000000000000000000000000c
:2073810000000000000000000000000000000000000000800000000000000000000000006c
:2073a10000000000000059a3fc7000c002e024bc1000000000000000000000007cfa4040dc
:0d73c10000000000000000000000000000bf
:2073ce0000000000000000000000000000000000000000000000000000000000000000009f
:2073ee000000000000000000000000000000000000000040000000000000000000000140fe
:20740e00340000000000500738f0004000601dac000010050c0000000000000030fa0000f7
:0d742e00000000000000000000000000024f
:02743b0000004f
:02743d0011013b
:02743f00010149
:207441000000000000000000000000580000000020000000000000000000000000000000b3
:2074610000000000000000000000000000000000000000000000000000000000000000000b
:20748100000000000000000000000000000000000000100000000000004005800000000016
:0d74a100000000000000040080000000005a
:2074ae000000000000000000000000080000000000000000000000000000000000000000b6
:2074ce0000000000000000000000000000000000000000000000000000000000000000009e
:2074ee0000000000000000000000000000000000000000000000000000000000000000007e
:0d750e000000000000000000b000000000c0
:20751b00000000000000000000000000000000001002c0000000000000000000000000007e
:20753b00000000000000000000000000000000000000000000000000000000000000000030
:20755b0000000000000000000000000000000000000010000000000000400d0000000000b3
:0d757b000000000000000400d80000000027
:207588000000000000000000000000000000000000000000000000000000000000000000e3
:2075a8000000000000000000000000000000000000000000000000000000000000000000c3
:2075c80000000000000000000000000000000000000000000000000000000800000000009b
:0d75e8000000001000000000500000000036
:2075f5000000000000000000000000000000000020000000c0000000000000000000000096
:20761500000000000000000000000000000000000000000000000000000000000000000055
:20763500000000000000000000000000000000000000200164014000008000000f000000e0
:0d76550000000000000008000000f0000030
:207662000000000000000000000000000000000000000000400000000000000000000000c8
:207682000000000000000000000000000000000000000000000000000000000000000000e8
:2076a200000000000000000000000000000000000000000000034000000000000d00000078
:0d76c200000000000000000000007000004b
:2076cf0000000000000000000000000000000000000000000000000000000000000000009b
:2076ef0000000000000000000000000000000000000000000000000000000000000000007b
:20770f000000000000000000000000000000000000002000010000000040000000000000f9
:0d772f00000000000000000000000000004d
:20773c0000000000000000000000000000000000000000000000000000000000000000002d
:20775c0000000000000000000000000000000000000000000000000000000000000000000d
:20777c000000000000000000000000000000000000002000000000000000001000000000bd
:0d779c0000000000000000000000000000e0
:2077a900000000000000000000000000200000000000008000000000000000000000000020
:2077c900080000000000000000000000000000000000000000000000000000000000000098
:2077e900000000000000000000000000000000180000000000400000000000010000000027
:0d7809000000000000000000000000000072
:20781600000000000000000000000000000000000000000000000000000000000000000052
:20783600000000000000000000000000000000000000000000000000000000000000000032
:20785600000000000000000000000000000000000000000000000000000000000000000012
:0d7876000000000000000000000000000005
:20788300000000000000000000000000003000000000000040000000000000000000002c49
:2078a3000004000000000000000000000000000000000000000000000000000000000000c1
:2078c3000000000000000000000000000000000000000000000000000000000000000000a5
:0d78e300000000000000000000000c00008c
:2078f00000000000000000000008000000300000200000000000000000000000000200001e
:20791000000400000000000000000000000000000000000000000000000000000000000053
:207930000000000000000000000000000000000000000000e0000000000000000000000057
:0d7950000000000000000000000004000026
:20795d0000000000000000000000000000000000000000000000000000000000000000000a
:20797d000000000000000000000000000000000000000000000000000000000000000000ea
:20799d000000000000000000000000000000000000000000000000000000000000000000ca
:0d79bd0000000000000000000000000000bd
:2079ca00000000000000000000040000000000001000000000000000000000000001000088
:2079ea0000000000000000000000000000000000000000000000000000000000000000007d
:207a0a0000000000000000000000000000000000000000000000000000000000000000005c
:0d7a2a00000000000000000000000000004f
:207a37000000000000000000000000000000000000034040000000000000000000000000ac
:207a570000000000000000000000000000000000000000000000000000000000000000000f
:207a77000002000000000000000000000000000000000000004000000000000100000000ac
:0d7a970000000006000000000010000000cc
:207aa400000000000000000000080000000000002000000000000000000006000002000092
:207ac400000000000000000000000000000000800000000000000000000000000000000022
:207ae40000000000000000000000000000000000000000000000000000000000060000007c
:0d7b04000000000000000000000000000074
:207b1100000000000000000000000000000000000000000000000000000000000000000054
:207b3100000000000000000000000000000000000004001e38cf000000000000000000000b
:207b5100000000000000000000000000000000000000000000000000000000000000000014
:0d7b71000000000000000000000000000007
:207b7e000000000000000000000000000000000000000000000000000000000000000000e7
:207b9e00000000000000000000000000000000000004003c00000000000000000000000087
:207bbe000000000000000000000000000000000000000000000000000000000000000000a7
:0d7bde00000000000000000000000000009a
:207beb0000000000000000000000000000000000000000000000000000000000000000007a
:207c0b00000000000000000000000000000000000000002c65cf00000000000000000000f9
:207c2b00000000000000000000000000000000000000000000000000000000000000000039
:0d7c4b00000000000000000000000000002c
:207c580000000000000000000000000000000000000000000000000000000000000000000c
:207c78000000000000000000000000000000000000000000220000000000000000000000ca
:207c98000000000000000000000000000000000000000000000000000000000000000000cc
:0d7cb80000000000000000000000000000bf
:207cc50000000000000000000000000000000000000000000000000000000000000000009f
:207ce500000000000000000000000000000000000000003c41cf0000000000000000000033
:207d050000000000000000000000000000000000000000000000000000000000000000005e
:0d7d25000000000000000000000000000051
:207d3200000000000000000000000000000000000000000000000000000000000000000031
:207d520000000000000000000000000000000000000000003a0100000000000000000200d4
:207d72000000000000000000000000000000000000000000000000000000000000000000f1
:0d7d920000000000000000000000000000e4
:207d9f000000000000000000000000000000000000000000000000000000000000000000c4
:207dbf00000000000000000000000000000000000000002630c0200000000000000000006e
:207ddf00000000000000000000000000000000000000000000000000000000000000000084
:0d7dff000000000000000000000000000077
:207e0c00000000000000000000000000000000000000000000000000000000000000000056
:207e2c00000000000000000000000000000000000000000407c0000000000000000000006b
:207e4c00000000000000000000000000000000000000000000000000000000000000000016
:0d7e6c000000000000000000000000000009
:207e79000000000000000000000000000000000000000000000000000000000000000000e9
:207e9900000000000000000000000000000000000000000232c000000000000000000000d5
:207eb9000000000000000000000000000000000000000000000000000000000000000000a9
:0d7ed900000000000000000000000000009c
:207ee60000000000000000000000000000000000000000000000000000000000000000007c
:207f06000000000000000000000000000000000000000004060000000000000000000280cf
:207f260000000000000000000000000000000000000000000000000000000000000000003b
:0d7f4600000000000000000000000000002e
:207f530000000000000000000000000000000000000000000000000000000000000000000e
:207f7300000000000000000000000000000000000004000000c0000000000000000000002a
:207f93000000000000000000000000100000000000000000000000000000000000000000be
:0d7fb30000000000000000000000000000c1
:207fc0000000000000000000000000000000000000000000000000000000000000000000a1
:207fe00000000000000000000000000000000000000c000000000000000000000000000075
:20800000000000000000000000000000000000000000000000000000000000000000000060
:0d8020000000000000000000000000000053
:20802d00000000000000000000000000000000000000000000000000000000000000000033
:20804d00000000000000000000000000000000000000102c03400000000000000000000094
:20806d000000000000000000000000000000000000000000000000000000000000000000f3
:0d808d0000000000000000000000000000e6
:20809a000000000000000000000000000000000000000000000000000000000000000000c6
:2080ba0000000000000000000000000000000000000e102002000001000000000000000065
:2080da00000000000000000000000000000000000000000000000000000000000000000086
:0d80fa000000000000000000000000000079
:20810700000000000000000000000000000000000000000000000000000000000000000058
:208127000000000000000000000000000000000000001000014000000000000000000000e7
:20814700000000000000000000000000000000000000000000000000000000000000000414
:0d8167000004000000000000000000000007
:208174000000000000000000000000000000000000000000000000000000000000000000eb
:208194000000000000000000000000000000000000001000020000000000000000000000b9
:2081b4000000000000000000000000000000000000000000000000000000000000000004a7
:0d81d400000000000000000000000000009e
:2081e10000000000000000000000000000000000000000000000000000000000000000007e
:2082010000000000000000000000000000000000000c000000c80000000000000000000089
:2082210000000000000000000000000000000000000000000000000000000000000000003d
:0d8241000000000000000000000000000030
:20824e00000000000000000000000000000000000000000000000000000000000000000010
:20826e000000000000000000000000000000000000040040000100000000000000000000ab
:20828e000000000000000000000000000000000000000000000000000000000000000000d0
:0d82ae0000000000000000000000000000c3
:2082bb000000000000000000000000000000000000000000000000000000000000000000a3
:2082db00000000000000000000000000000000000000001c034a000000000000000000001a
:2082fb00000000000000000000000000000000000000000000000000000000000000000063
:0d831b000000000000000000000000000055
:20832800000000000000000000000000000000000000000000000000000000000000000035
:20834800000000000000000000000000000000000000003c000000000000000000000000d9
:208368000000000000000000000000000000000000000000000000000000000000000000f5
:0d83880000000000000000000000000000e8
:208395000000000000000000000000000000000000000000000000000000000000000000c8
:2083b50000000000000000000000000000000000000000002dcd00010000000000000000ad
:2083d500000000000000000000000000000000000000000000000000000000000000000088
:0d83f500000000000000000000000000007b
:2084020000000000000000000000000000000000000000000000000000000000000000005a
:2084220000000000000000000000000000000000000000007400002800000000000000801e
:2084420000000000000000000000000000000000000000000000000000000000000000001a
:0d846200000000000000000000000000000d
:20846f000000000000000000000000000000000000000000000000000000000000000000ed
:20848f00000000000000000000000000000000000000000242402000000000000000000029
:2084af000000000000000000000000000000000000000000000000000000000000000000ad
:0d84cf0000000000000000000000000000a0
:2084dc00000000000000000000000000000000000000000000000000000000000000000080
:2084fc00000000000000000000000000000000000000001c224000000000000000000000e2
:20851c0000000000000000000000000000000000000000000000000000000000000000003f
:0d853c000000000000000000000000000032
:208549000000000000000000000000000000000040000000000000000000000000000000d2
:20856900000000000000000000000000000000000000000002c00000000000000000000030
:208589000000000000000000000000000000000000000000000000000000000000000000d2
:0d85a90000000000000000000000000000c5
:2085b600000000000000000000000000000000004000000000000000000000000004000061
:2085d600000000000000000000000000000000000000000f02000000000000000000000074
:2085f600000000000000000000000000000000000000000000000000000000000000000065
:0d8616000000000000000000000000000057
:20862300000000000000000000000000000000000000000000000000000000000000000037
:20864300000000000000000000000000000000000000000e01c00000000000000000000147
:208663000000000000000000000000000000000000000000000000000000000000000000f7
:0d86830000000000000000000000000000ea
:208690000000000000000000000000000000000000000000000000000000000000000000ca
:2086b000000000000000000000000000000000000000002420000000000000000000000066
:2086d00000000000000000000000000000000000000040000000000000000000000000004a
:0d86f000000000000000000000000000007d
:2086fd0000000000000000000000000000000000000000000000000000000000000000005d
:20871d000000000000000000000000010000000000000002254000000000000000000000d4
:20873d00000000000000000000000000000000000000000000000000000000000000000418
:0d875d00000000000000000000000000000f
:20876a000000000000000000000000000000000000000000000000000000000000000000ef
:20878a0000000000000000000000000000000000000e0004000000000000000000000c00b1
:2087aa000000000000000000000000000000000000000000000000000000000000000000af
:0d87ca0000000000000000000000000000a2
:2087d700000000000000000000000000000000000000000000000000000000000000000082
:2087f700000000000000000000000000000000000000100202c0000000000000000000008e
:20881700000000000000000000000010000000000000000000000000000000000000000031
:0d8837000000000000000000000000000034
:20884400000000000000000000000000000000000000000000000000000000000000000014
:208864000000000000000000000000000000000000000004020000000000000000000000ee
:208884000000000000000000000000000000000000000000000000000000000000000000d4
:0d88a40000000000000000000000000000c7
:2088b1000000000000000000000000000000000000000000000000000000000000000000a7
:2088d10000000000000000000000000000000000000c001c01cf000000000000000000008f
:2088f100000000000000000000000000000000000000000000000000000000000000000067
:0d8911000000000000000000000000000059
:20891e00000000000000000000000000000000000000000000000000000000000000000039
:20893e00000000000000000000000000000000000004003e2200002800000000000000008d
:20895e000000000000000000000000000000000000000000000000000000000000000000f9
:0d897e0000000000000000000000000000ec
:20898b000000000000000000000000000000000000000000000000000000000000000000cc
:2089ab00000000000000000000000000000000000000002e20cf000000000000000000008f
:2089cb0000000000000000000000000000000000000000000000000000020000000000008a
:0d89eb00000000000000000000000000007f
:2089f80000000000000000000000000000000000000000000000000000000000000000005f
:208a1800000000000000000000000000000000000000001c00010000000000000000000021
:208a38000000000000000000000000000000000000002800000000000000000000000000f6
:0d8a58000000000000000000000000000011
:208a65000000000000000000000000000000000000000000000000000000000000000000f1
:208a85000000000000000000000000000000000000000002404b0000000000000000000044
:208aa5000000000000000000000000000000000000000000000000000000000000000000b1
:0d8ac500000000000000080000000000009c
:208ad200000000000000000000000000000000000000000000000000000000000000000084
:208af200000000000000000000000000000000000000001c38010000d00000000000060039
:208b1200000000000000000000000000000000000000000000000000000000000000000043
:0d8b32000000000000000000000000000036
:208b3f00000000000000000000000000000000000000000000000000000000000000000016
:208b5f00000000000000000000000000000000000000003c3de00800000000000000000095
:208b7f000000000000000000000000000000000000000000000014000000000000000000c2
:0d8b9f0000000000000000000000000000c9
:208bac000000000000000000000000000000000000000000000000000000000000000000a9
:208bcc00000000000000000000000000000000000000000004e000000000000000000000a5
:208bec0000000000000000000000000000000000000000000056940040000000000000003f
:0d8c0c00000000000000000000000000005b
:208c190000000000000000000000000000000000000000000000000000000000000000003b
:208c3900000000000000000000000000000000000000060038c000002000000000000040bd
:208c59000000000000000000000000000000000000000003000000000000000000000000f8
:0d8c790000000000000004000000000000ea
:208c86000001000000000000000000000000000000000000000000000000000000000000cd
:208ca600000000000000000000000000000000000000001c02000000400000000000000050
:208cc600000000000000000000000000000000000000000000000000000800000000000086
:0d8ce6000000000000000800000000000079
:208cf300082800000000000000000000000000000000000000000000000000000000000031
:208d1300000000000000000000000000000000000004000001c0000000000000000000007b
:208d33000000000000000000000000040000000000004001000000000100000000000000da
:0d8d53000000000000000000000000000013
:208d60004804000000000000000000000000000000000000000000000000000000000000a7
:208d80000000000000000000000000000000000000040000020000000000000000000000cd
:208da00000000000000000000000000200000000000040000000000001014000000000002f
:0d8dc00000000000000000000000000000a6
:208dcd00800000000000000000000000000000000000000000000000000000000000000006
:208ded00000000000000000000000000000000000000108001c00000000000000000800095
:208e0d00000000000000000000000000140000000000000000000000000000000000000031
:0d8e2d000000000000000000000000000038
:208e3a00000000000000000000000000000000000000000000000000000000000000000018
:208e5a0000000000000000000000000000000000000e104000000011000000000000040085
:208e7a000000000000000000000000000000000000000000000000000000000000000000d8
:0d8e9a0000000000000000000000000000cb
:208ea7000000000000000000000000000000000000000000000000000000000000000000ab
:208ec70000000000000000000000000000000000000010003ec0000000000000000000007d
:208ee70000000000000000000000000000000000000000000000000000004000000000002b
:0d8f0700000000000000000000000000005d
:208f14004000000000000000000000000000000000000000000000000000000000000000fd
:208f3400000000000000000000000000000000000000100400000000000000000000000009
:208f54000000000000000000000000000000000000000000000000000000000000000008f5
:0d8f740000000000000000000000000000f0
:208f81000000000000000000000000000000000000000000000000000000000000000000d0
:208fa10000000000000000000000000000000000000400003fcb0002800000000000000020
:208fc100000000000000000000000000000000000000000000000000000000000000000090
:0d8fe1000000000000000000000000000083
:208fee00000000000000000000000000000000000000000000000000000000000000000063
:20900e0000000000000000000000000000000000000400000200000010000000000000002c
:20902e00000000000000000000000000000000000000000000000000000200000000000020
:0d904e000000000000000000000000000015
:20905b000000000000000000000000000000000000000000000000000000000000000000f5
:20907b00000000000000000000000000000000000000000c634d0000000000000000000019
