:02000000ff00ff
:080002004c6174746963650030
:17000a00694345637562653220323032302e31322e32373934330071
:16002100506172743a2069434534304858384b2d43423133320018
:1b003700446174653a204d617920323720323032322030393a31333a3530007a
:0200520000ffad
:040054007eaa997e69
:02005800510055
:02005a0001059e
:03005c00920020ef
:03005f00620367d2
:0300620072011018
:0300650082000016
:02006800110085
:02006a00010192
:20006c00000000000000000000000000000000000000000000000000000000000000000074
:20008c00000000000000000000000000000000000000000000000000000000000000000054
:2000ac0000000000000000000000000800000000000000000000000000000000000000002c
:0d00cc000000000000000000000000000027
:2000d900000000000000000000000000000000000000000000000000000000000000000007
:2000f9000000000000000000000000000000000000000000000000000000000000000000e7
:200119000000000000000000000000000000000000000000000000000000000000000000c6
:0d01390000000000000000000000000000b9
:20014600000000000000000000000000000000000000000000000000000000000000000099
:20016600000000000000000000000000000000000000000000000000000000000000000079
:20018600000000000000000000000004000000000000000000000000000000000000000055
:0d01a6000000000000000400000000000048
:2001b30000000000000000000000000000000000000000000000000000000000000000002c
:2001d30000000000000000000000000000000000000000000000000000000000000000000c
:2001f3000000000000000000000000000000000000000000000000000000000000000000ec
:0d02130000000000000000000000000000de
:200220000000000000000000000000000000000000000000000000000000000000000000be
:2002400000000000000000000000000000000000000000000000000000000000000000009e
:20026000000000000000000000000008000000000000000000000000000000000000000076
:0d0280000000000000000000000000000071
:20028d00000000000000000000000000000000000000000000000000000000000000000051
:2002ad00000000000000000000000000000000000000000000000000000000000000000031
:2002cd00000000000000000000000000000000000000000000000000000000000000000011
:0d02ed000000000000000000000000000004
:2002fa000000000000000000000000000000000000000000000000000000000000000000e4
:20031a000000000000000000000000000000000000000000000000000000000000000000c3
:20033a000000000000000000000000000000000000000000000000000000000000000000a3
:0d035a000000000000000000000000000096
:20036700000000000000000000000000000000000000000000000000000000000000000076
:20038700000000000000000000000000000000000000000000000000000000000000000056
:2003a700000000000000000000000000000000000000000000000000000000000000000036
:0d03c7000000000000000000000000000029
:2003d400000000000000000000000000000000000000000000000000000000000000000009
:2003f4000000000000000000000000000000000000000000000000000000000000000000e9
:200414000000000000000000000000000000000000000000000000000000000000000000c8
:0d04340000000800000000000010000000a3
:2004410000000000000000000000000000000000000000000000000000000000000000009b
:2004610000000000000000000000000000000000000000000000000000000000000000007b
:2004810000000000000000000000000000000000000000000000000000000000000000005b
:0d04a100000000000000000000000000004e
:2004ae0000000000000000000000000000000000000000000000000000000000000000002e
:2004ce0000000000000000000000000000000000000000000000000000000000000000000e
:2004ee000000000000000000000000000000000000000000000000000000000000000000ee
:0d050e0000000000000000000000000000e0
:20051b000000000000000000000000000000000000000000000000000000000000000000c0
:20053b000000000000000000000000000000000000000000000000000000000000000000a0
:20055b0000000000000000000000000000000000000000000000000000000000000000027e
:0d057b000000000000000000000000000073
:20058800000000000000000000000000000000000000000000000000000000000000000053
:2005a800000000000000000000000000000000000000000000000000000000000000000033
:2005c800000000000000000000000000000000000000000000000000000000000000000013
:0d05e8000000000000000000000000000006
:2005f5000000000000000000000000000000000000000000000000000000000000000000e6
:200615000000000000000000000000000000000000000000000000000000000000000000c5
:200635000000000000000000000000000000000000000000000000000000000000000001a4
:0d0655000000000000000000000000000098
:20066200000000000000000000000000000000000000000000000000000000000000000078
:20068200000000000000000000000000000000000000000000000000000000000000000058
:2006a200000000000000000000000000000010000000000000000000000000000000000028
:0d06c20000000000000000000010200000fb
:2006cf0000000000000000000000000000000000000000000000000000000000000000000b
:2006ef000000000000000000000000000000000000000000000000000000000000000000eb
:20070f000000000000000000000000000000000000000000000000000000000000000002c8
:0d072f0000000000000000000000000000bd
:20073c0000000000000000000000000000000000000000000000000000000000000000009d
:20075c0000000000000000000000000000000000000000000000000000000000000000007d
:20077c0000000000000000000000000000000000000000000000000000000000000000005d
:0d18370000000000000000a0000000000004
:20184400000000000000000000000000000000000000000000000000000000000000000084
:20186400000000000000000000000000000000000000000000000000000000000000000064
:20188400000000000000000000000000000000000000000000000000000000000000000044
:0d18a4000000000000000000000000000037
:2018b100000000000000000000000000000000000000000000000000000000000000000017
:2018d1000000000000000000000000000000000000000000000000000000000000000000f7
:2018f1000000000000000000000000000000000000000000000000000000000000000000d7
:0d19110000000000000000000000000000c9
:20191e000000000000000000000000000000000000000000000000000000000000000000a9
:20193e00000000000000000000000000000000000000000000000000000000000000000089
:20195e00000000000000000000000000000000000000000000000000000000000000000069
:0d197e00000000000000000000000000005c
:20198b0000000000000000000000000000000000000000000000000000000000000000003c
:2019ab0000000000000000000000000000000000000000000000000000000000000000001c
:2019cb000000000000000000000000000000000000000000000000000000000000000000fc
:0d19eb0000000000000000000000000000ef
:2019f8000000000000000000000000000000000000000000000000000000000000000000cf
:201a18000000000000000000000000000000000000000000000000000000000000000000ae
:201a380000000000000000000000000000000000000000000000000000000000000000008e
:0d1a58000000000000000000000000000081
:201a6500000000000000000000000000000000000000000000000000000000000000000061
:201a8500000000000000000000000000000000000000000000000000000000000000000041
:201aa500000000000000000000000000000000000000000000000000000000000000000021
:0d1ac5000000000000000000000000000014
:201ad2000000000000000000000000000000000000000000000000000000000000000000f4
:201af2000000000000000000000000000000000000000000000000000000000000000000d4
:201b12000000000000000000000000000000000000000000000000000000000000000000b3
:0d1b320000000000000000000000000000a6
:201b3f00000000000000000000000000000000000000000000000000000000000000000086
:201b5f00000000000000000000000000000000000000000000000000000000000000000066
:201b7f00000000000000000000000000000000000000000000000000000000000000000046
:0d1b9f000000000000000000000000000039
:201bac000078000000000000000000000000000000000000000000000000000000000000a1
:201bcc000000000000000000000000000000000000000000000000000000000000000000f9
:201bec000000000000000000000000000000000000000000000000000000000000000000d9
:0d1c0c0000000000000000000000000000cb
:201c19000002000000000000000000000000000000000000000000000000000000000000a9
:201c390000000000000000000000000000000000000000000000000000000000000000008b
:201c590000000000000000000000000000000000000000000000000000000000000000006b
:0d1c7900000000000000000000000000005e
:201c860000000000000000000000000000000000000000000000000000000000000000003e
:201fee00400000000000000000000000000000000000000000000000000000000000000093
:20200e000000000000000000000000000000000000000000000000000000000000000000b2
:20202e00000000000000000000000000000000000000000000000000000000000000000092
:0d204e000000000000000000000000000085
:20205b0008000000000000000000000000000000000000000000000000000000000000005d
:20207b00000000000000000000000000000000000000000000000000000000000000000045
:20209b00000000000000000000000000000000000000000000000000000000000000000025
:0d20bb000000000000000000000000000018
:2020c8000000000000000000000000000000000000000000000000000000000000000000f8
:2020e8000000000000000000000000000000000000000000000000000000000000000000d8
:202108000000000000000000000000000000000000000000000000000000000000000000b7
:0d21280000000000000000000000000000aa
:2021350080000000000000000000000000000000000000000000000000000000000000000a
:2021550000000000000000000000000000000000000000000000000000000000000000006a
:2021750000000000000000000000000000000000000000000000000000000000000000004a
:0d219500000000000000000000000000003d
:2021a2004000000000000000000000000000000000000000000000000000000000000000dd
:2021c2000000000004000000000000000000000000000000000000000000000000000000f9
:2021e2000000000000000000000000000000000000000000000000000000000000000000dd
:0d22020000000000000000000000000000cf
:20220f000000000000000000000200000000000000000000000000000000000000000000ad
:20222f0000000000020000000000000000000000000000000000000000000000000000008d
:20224f0000000000000000000000000000000000000000000000000000000000000000006f
:0d226f000000000000000000000000000062
:20227c00000000000000000000000000000000000000000000000000000000000000000042
:20229c00000000000000000000000000000000000000000000000000000000000000000022
:20294c0040000000000000000000000000000000000000000000000000000000000000002b
:20296c0000000000000000000000000000000000000000000000000000000000000000004b
:20298c0000000000000000000000000000000000000000000000000000000000000000002b
:0d29ac00000000000000000000000000001e
:2029b9000000000000000000000000000000000000000000000000000000000000000000fe
:2029d9000000000000000000000000000000000000000000000000000000000000000000de
:2029f9000000000000000000000000000000000000000000000000000000000000000000be
:0d2a190000000000000000000000000000b0
:202a2600000000000000000000000000000000000000000000000000000000000000000090
:202a4600000000000000000000000040000000000000000000000000000000000000000030
:202a6600000000000000000000000000000000000000000000000000000000000000000050
:0d2a86000000000000000000000000000043
:202a93008000000000000000000000000000000000000000000000000000000000000000a3
:202ab300000000000000000000000000000000000000000000000000000000000000000003
:202ad3000000000000000000000000000000000000000000000000000000000000000000e3
:0d2af30000000000000000000000000000d6
:202b0000440000000000000000000000000000000000000000000000000000000000000071
:202b2000000000000000000000000000000000000000000000000000000000000000000095
:202b4000000000000000000000000000000000000000000000000000000000000000000075
:0d2b60000000000000000000000000000068
:202b6d000c000000000000000000000000000000000000000000000000000000000000003c
:202b8d00000000000000000000000000000000000000000000000000000000000000000028
:202bad00000000000000000000000000000000000000000000000000000000000000000008
:0d2bcd0000000000000000000000000000fb
:202bda000001000000000000000000000000000000000000000000000000000000000000da
:202bfa000000000000000000000000000000000000000000000000000000000000000000bb
:202c1a0000000000000000000000000000000000000000000000000000000000000000009a
:0d2c3a00000000000000000000000000008d
:202c470000000000000000000000000000000000000000000000000000000000000000006d
:202c670000000000000000000000000000000000000000000000000000000000000000004d
:202c870000000000000000000000000000000000000000000000000000000000000000002d
:0d2ca7000000000000000000000000000020
:202cb400000000000000000000000000000000000000000000000000000000000000000000
:202cd4000000000000000000000000000000000000000000000000000000000000000000e0
:202cf4000000000000000000000000000000000000000000000000000000000000000000c0
:0d2d140000000000000000000000000000b2
:202d2100000000000000000000000000000000000000000000000000000000000000000092
:202d4100000000000000000000000000000000000000000000000000000000000000000072
:202d6100000000000000000000000000000000000000000000000000000000000000000052
:0d2d81000000000000000000000000000045
:202d8e000030000000000000000000000000000000000000000000000000000000000000f5
:202dae00000000000000000000000000000000000000000000000000000000000000000005
:202dce000000000000000000000000000000000000000000000000000000000000000000e5
:0d2dee0000000000000000000000000000d8
:202dfb000000000000000000000000000000000000000000000000000000000000000000b8
:2034110000000000000010000000000000000000000000000000000000000000000000008b
:2034310000000000000000000000000000000000000000000000000000000000000000007b
:0d345100000000000000000000000000006e
:20345e0000000000000000000000000000000000000000000000000000000000000000004e
:20347e0000000000000000000000000000000000000000000000000000000000000000002e
:20349e0000000000000000000000000000000000000000000000000000000000000000000e
:0d34be000000000000000000000000000001
:2034cb000000000000000000000000000000000000000000000000000000000000000000e1
:2034eb000000000000000000000000000000000000000000000000000000000000000000c1
:20350b000000000000000000000000000000000000000000000000000000000000000000a0
:0d352b0000000000000000a00000000000f3
:20353800000000000000000000000000000000000000000000000000000000000000000073
:20355800000000000000000000000000000000000000000000000000000000000000000053
:20357800000000000000000000000000000000000000000000000000000000000000000033
:0d3598000000000000000000000000000026
:20436500000000000000000000000000000000000000000000000000000000000000100028
:204385000000000000400000000000010000000000000400000000000000000000000000d3
:0d43a50040000000000001000000000000ca
:2043b2000000000000000000000000000000000000000000000000000000000000000000eb
:2043d2000000000000000000000000000000000000000000000000000000000000000000cb
:2043f2000000000000000000000000000000000000000000000000000000000000000000ab
:0d441200000000000000000000000000009d
:20441f0000000000000000000000000000000000000000000000000000000000000000007d
:20443f0000000000000000000000000000000000000000000000000000000000000010004d
:20445f000000000000400000000000010000000000000400000000000010000000000000e8
:0d447f0040000000000001000000000000ef
:20448c00000000000000000000000000000000000000000000000000000000000000000010
:2044ac000000000000000000000000000000000000000000000000000000000000000000f0
:2044cc000000000000000000000000000000000000000000000000000000000000000000d0
:0d44ec0000000000000000000000000000c3
:2044f9000000000000000000000000000000000000000000000000000000000000000000a3
:20451900000000000000000000000000000000000000000000000000000000000000000082
:20453900000000000000000000000000000000000000000000000000000000000000000062
:0d4559000000000000000000000000000055
:20456600000000000000000000000000000000000000000000000000000000000000000035
:20458600000000000000000000000000000000000000000000000000000000000000000015
:2045a6000000000000000000000000000000000000000000000000000000000000000000f5
:0d45c60000000000000000000000000000e8
:2045d3000000000000000000000000000000000000000000000000000000000000000000c8
:2045f3000000000000000000000000000000000000000000000000000000000000000000a8
:20461300000000000000000000000000000000000000000000000000000000000000000087
:0d463300000000000000000000000000007a
:2046400000000000000000000000000000000000000000000000000000000000000000005a
:2046600000000000000000000000000000000000000000000000000000000000000000003a
:2046800000000000000000000000000000000000000000000000000000000000000000001a
:0d46a000000000000000000000000000000d
:2046ad000000000000000000000000000000000000000000000000000000000000000000ed
:2046cd000000000000000000000000000000000000000000000000000000000000000000cd
:2046ed000000000000000000000000000000000000000000000000000000000000000000ad
:0d470d00000000000000000000000000009f
:20471a0000000000000000000000000000000000000000000000000000000000000000007f
:20473a0000000000000000000000000000000000000000000000000000000000000100005e
:20475a0000000000000000000000000000000000000000000000000000000000000000003f
:0d477a000000000000000000000000000032
:20478700000000000000000000000000000000000000000000000000000000000000000012
:2047a7000000000000000000000000000000000000000000000000000000000000010000f1
:2047c7000000000000000000000000000000000000000000000000000000000000000000d2
:0d47e70000000000000000000000000000c5
:2047f4000000000000000000000000000000000000000000000000000000000000000000a5
:20481400000000000000000000000000000000000000000000000000000000000000000084
:204bc9000002000000000000000000000000000000000000000000000000000000000000ca
:204be9000000000000000000000000000000000000000000000000000000000000000000ac
:204c090000000000000000000000000000000000000000000000000000000000000000008b
:0d4c2900000000000000000000000000007e
:204c360000000000000000000000000000000000000000000000004000000000000000001e
:204c560000000000000000000000000000000000000000000000000000000000000000003e
:204c760000000000000000000000000000000000000000000000000000000000000000001e
:0d4c96000000000000000000000000000011
:204ca3000000000000000000000000000000000000000000000000200000000000000000d1
:204cc3000000000000000000000000000000000000000000000000000000000000000000d1
:204ce3000000000000000000000000000000000000000000000000000000000000000000b1
:0d4d030000000000000000000000000000a3
:204d1000000000000000000000000000000000000000000000000000000000000000000083
:204d3000000000000000000000000000000000000000000000000000000000000000000063
:204d5000000000000000000000000000000000000000000000000000000000000000000043
:0d4d70000000000000000000000000000036
:204d7d00000000000000000000000000000000000000000000000000000000000000000016
:204d9d000000000000000000000000000000000000000000000000000000000000000000f6
:204dbd000000000000000000000000000000000000000000000000000000000000000000d6
:0d4ddd0000000000000000000000000000c9
:204dea000000000000000000000000000000000000000000000000000000000000000000a9
:204e0a00000000000000000000000000000000000000000000000000000000000000000088
:204e2a00000000000000000000000000000000000000200000000000000000000000000048
:0d4e4a000000000000000a00000000000051
:204e570000000000000000000000000000000000000000000000000000000000000000003b
:204e770000000000000000000000000000000000000000000000000000000000000000001b
:204e97000000000000000000000000000000000000001000000000000000000000000000eb
:0d4eb70000000000000000000000000000ee
:204ec4000004000000000000000000000000000000000000000000000000000000000000ca
:204ee4000000000000000000000000000000000000000000000000000000000000000000ae
:204f040000000000000000000000000000000000000000000000000000000000000000008d
:0d4f24000000000000000000000000000080
:204f3100003000000000000000000000000000000000000000000000000000000000000030
:204f5100000000000000000000000000000000000000000000000000000000000000000040
:204f7100000000000000000000000000000000000000000000000000000000000000000020
:0d4f91000000000000000000000000000013
:204f9e004400000000000000000000000000000000000000000000000000000000000000af
:204fbe000000000000000000000000000000000000000000000000000000000000000000d3
:204fde000000000000000000000000000000000000000000000000000000000000000000b3
:0d4ffe0000000000000000000000000000a6
:20500b0008000000000000000000000000000000000000000000000000000000000000007d
:20502b00000000000000000000000000000000000000000000000000000000000000000065
:20504b00000000000000000000000000000000000000000000000000000000000000000045
:0d506b000000000000000000000000000038
:20507800000000000000000000000000000000000000000000000000000000000000000018
:205098000000000000000000000000000000000000000000000000000000000000000000f8
:2050b8000000000000000000000000000000000000000000000000000000000000000000d8
:0d50d80000000000000000000000000000cb
:2050e50080000000000000000000000000000000000000000000000000000000000000002b
:2051050000000000000000000000000000000000000000000000000000000000000000008a
:2051250000000000000000000000000000000000000000000000000000000000000000006a
:0d514500000000000000000000000000005d
:205152004000000000000000000000000000000000000000000000000000000000000000fd
:2051720000000000000000000000000000000000000000000000000000000000000000001d
:205192000000000000000000000000000000000000000000000000000000000000000000fd
:0d51b20000000000000000000000000000f0
:2051bf000000000000000000000000000000000000000000000000000000000000000000d0
:2051df000000000000000000000000000000000000000000000000000000000000000000b0
:2051ff0000000000000000000000000000000000000000000000000000000100000000008f
:0d521f000000000000000000000000000082
:20522c00000000000000000000000000000000000000000000000000000000000000000062
:20524c00000000000000000000000000000000000000000000000000000000000000000042
:20526c00000000000000000000000000000000000000000000000000000000000000000022
:2060e600000000000000000000000000000000000000000000000000000000000000003862
:0d610600000000000000000000000000008c
:2061130000000000000000000000000000000000000000000000000000000000000000006c
:2061330000000000000000000000000000000000000000000000000000000000000000004c
:2061530000000000000000000000000000000000000000000000000000000000000000002c
:0d617300000000000000000000000000001f
:206180000000000000000000000000000000000000000000000000000000000000000000ff
:2061a0000000000000000000000000000000000000000000000000000000000000000000df
:2061c0000000000000000000000000000000000000000000000000000000000000000000bf
:0d61e00000000000000000000000000000b2
:2061ed00000000000000000000000000000000000000000000000000000000000000000092
:20620d00000000000000000000000000000000000000000000000000000000000000000071
:20622d00000000000000000000000000000000000000000000000000000000000000000051
:0d624d000000000000000000000000000044
:20625a00000000000000000000000000000000000000000000000000000000000000000024
:20627a00000000000000000000000000000000000000000000000000000000000000000004
:20629a000000000000000000000000000000000000000000000000000000000000000000e4
:0d62ba0000000000000000000000000000d7
:2062c7000000000000000000000000000000000000000000000000000000000000000000b7
:2062e700000000000000000000000000000000000000000000000000000000000000000097
:20630700000000000000000000000000000000000000000000000000000000000000000076
:0d6327000000000000000000000000000069
:20633400000000000000000000000000000000000000000000000000000000000000000049
:20635400000000000000000000000000000000000000000000000000000000000000000029
:20637400000000000000000000000000000000000000000000000000000000000000000009
:0d639400000008016900000000000000008a
:2063a1000000000000000000000000000000000000000000000000000000000000000000dc
:2063c1000000000000000000000000000000000000000000000000000000000000000000bc
:2063e10000000000000000000000000000000000000000000000000000000000000000009c
:0d64010000000b02940000000000000000ed
:20640e0000000000000000000000000000000000000000000000000000000000000000006e
:20642e0000000000000000000000000000000000000000000000000000000000000000004e
:20644e0000000000000000000000000000000000000000000000000000000000000000002e
:0d646e000000000000000000000000000021
:20647b00000000000000000000000000000000000000000000000000000000000000000001
:20649b000000000000000000000000000000000000000000000000000000000000000000e1
:2064bb000000000000000000000000000000000000000000000000000000000000000000c1
:0d64db000000800000000000000000000034
:2064e800000000000000000000000000000000000000000000000000000000000000000094
:20650800000000000000000000000000000000000000000000000000000000000000000073
:20652800000000000000000000000000000000000000000000000000000000000000000053
:0d6548000000000000000000000000000046
:20655500000000000000000000000000000000000000000000000000000000000000000026
:20657500000000000000000000000000000000000000000000000000000000000000000006
:206595000000000000000000000000000000000000000000000000000000000000000000e6
:0d65b50000000000000000000000000000d9
:2065c2000000000000000000000000000000000000000000000000000000000000000000b9
:2065e200000000000000000000000000000000000000000000000000000000000000000099
:20660200000000000000000000000000000000000000000000000000000000000000000078
:0d662200000000000000000000000000006b
:20662f0000000000000000000000000000000000000000000000000000000000000000004b
:20664f0000000000000000000000000000000000000000000000000000000000000000002b
:20666f0000000000000000000000000000000000000000000000000000000000000000000b
:0d668f0000000000000000000000000000fe
:20669c000000000000000000000000000000000000000000000000200000000000000000be
:2066bc00000000000000000000000000000000000000000000000000000083a80000000093
:2066dc0000000000000000000000000000000000000000000000000000000001dafa400089
:0d66fc0000000000000000000020ea060081
:20670900000000000000000000000000000000000000000000000000000000000000000070
:20672900000000000000000000000000000000000000000000000000000f341400400000b9
:206749000000000000000000000000000000000000000000000000000000000000fa000036
:0d6769000000000000000000002d05019060
:20677600000000000000000000000000000000000000000000000000000000000000000003
:2067960001bbe880000000000000000000000000000000000000000000001728000e014031
:2067b6000000000038050000000000e00000000000000000000000000e0000000000000098
:0d67d600000000000000e0000000000000d6
:2067e300000000000000000000000000000000000000000000000000000000000000000096
:20680300d083e800000000000000000000000000000000000000000000000828004000804a
:20682300000000000002000000000000000000000000000000000000000000000000000053
:0d6843000000000000000000000000000048
:20685000000000000000000000000000000000000000000000000000000000000000000028
:20687000000000000000000000000000000000000000000000000000000000000004000004
:20689000781cf040300001e0000000c0000000000000000000000000010020000000000032
:0d68b00000000000000000000000000000db
:2068bd000000000000000000000000000000000000000000000000000000000000000000bb
:2068dd0000000000000000000000000000000000000000000000000000000000000c00008f
:2068fd004010f00030000000000000c0000000000000000000000000000004000000000047
:0d691d00000000000000000000000000006d
:20692a0000000000000000000000000000000000000000000000000000000000000000004d
:20694a0000000000000000000000000000000000000000000000000000000000000000002d
:20696a000000000000280000000000000000000000000000000000000000200000000000c5
:0d698a0001000000000000000000000000ff
:206997000000000000000000000000000000000000000000000000000000000000000000e0
:2069b7000000000000000000000000030000000000000000000000000000000000000000bd
:2069d70000000000000000000000000000000000000000000000000000002400000000007c
:0d69f7000200000000000000000000000091
:206a0400000000000000000000000000000000000000000000000000000000000000000072
:206a2400000000001000000000000000000000000000000000000000000000000000000042
:206a440000000000000000000000000000000000000000000000000000000001cafa40002d
:0d6a64000000000000000000000000000025
:206a7100000000000000000000000000000000000000000000000000000000000000000005
:206a91000000000010000000000000000000000000000000000000000000000000000000d5
:206ab1000000000000000000000000000000000000000000000000000000000000fa0000cb
:0d6ad10000000000000000000000000000b8
:206ade00000000000000000000000000000000000000000000000000000000000000000098
:206afe000000000010000000000000000000000000000000000000000000000000008000e8
:206b1e0030000000000000002bc180000000000000001b8000000000000000000000000020
:0d6b3e000200000000000000000000000048
:206b4b0000000000000000000000000000000000000000000000000000000000000000002a
:206b6b000000000010000000000000000000000000000000000000000f00000000004000ab
:206b8b00000000000000000043c00000000000000000300000000000002100000000000096
:0d6bab0001000000000000040200000000d6
:206bb8000000000000000000000000000000000000000000000000000000000000000010ad
:206bd80000000000000000000000000000000000000000000000000000010000000000009c
:206bf800000000000000008000000000000240ef04000000000000000000200000000000a8
:0d6c1800000000000000000000400000002f
:206c250000000000000000000000000000000000000000000000000000000000000000004f
:206c4500000000000000000000000000000000000000000000000000000a00000000000025
:206c65000000000000000000000000000003c10f001000000000000000001c000000000010
:0d6c850000000000000000000340000000bf
:206c92000000000000000000000000000000000000000000000000000000000000000000e2
:206cb20000000000000000000000000000000000000000000000000000000000000c0000b6
:206cd2000000000030010000000000d00000000000000000000000000000000000000000a1
:0d6cf200000000000000c0140000000000c1
:206cff00000000000000000000000000000000000000000000000000000000000000000075
:206d1f00000000000000000000000000000000000000000000000000000000000000000054
:206d3f00000000000002000000000010000000000000000000000000000000000000000022
:0d6d5f000400000000000000000000000023
:206d6c00000000000000000000000000000000000000000000000000000000000000000007
:206d8c000000000000000000000000000000000000000000000000000000000000000000e7
:206dac00001ef0400000000000000000600000000000000000000000000000000000000019
:0d6dcc0000000000000000000000000000ba
:206dd900000200000000000000000000000000000000000000000000000000000000000098
:206df90000000000000000000000000000000000000000000000000000000000000000007a
:206e19000010f0000000000000000000000000000000000000000000000000000000000059
:0d6e3900000000000000000000000000004c
:206e460000000000000000000000000000000000000000000000000000000000000000002c
:206e660000000000000000000000000000000000000000000000000005800000000e000079
:206e860000000000380000007bc100e0a00001cf05038000000000000f01400218fa40b844
:0d6ea60000000000000000000000000000df
:206eb3000000000000000000000000000000000000000000000000000000000000000000bf
:206ed30000000000000000000000000000000000000000000000000000800000000000001f
:206ef300000000000000000003c020000000000f00000000000000000100940140f50000c2
:0d6f13000000000000000000000000000071
:206f2000000000000000000000000000000000000000000000000000000000000000000051
:206f4000000000000000000000000000000000000000000000000000000056a8080c00001f
:206f60000000000030000000000000c000000000000180001e000000000000000000003052
:0d6f8000000000029500000200000000006b
:206f8d000000000000000000000000000000000000000000000000000000000000000000e4
:206fad00000000001060000000000000000000000000000000000000030000280004000025
:206fcd000000000030000000000000c0000000000003000010000000000000000000001091
:0d6fed0000000f0168000003c0000000005c
:206ffa00000200000000000000000000000000000000000000000000000000000000000075
:20701a0000000000000000000000000000000000000000000000000008000000000000004e
:20703a00000000000000000000000000000000000000000000000000000020000000000016
:0d705a000000000000000008000000000021
:20706700000000000000000000000000000000000000000000000000000000000000000009
:207087000000000000000000000000000000000000000000000000000700000000000000e2
:2070a70000000000000000000000000000000000000000000000000000001c0000000000ad
:0d70c70000000000000000000000000000bc
:2070d40000000000000000000000000000000000000000000000000000000000000000009c
:2070f40000000000000000000000000000000000000000000000000000001ea80040000076
:20711400040000000000000000000002000000000000100000073c120200000000000000ee
:0d713400000010000000000000000000003e
:207141008000000000000000000000000000000000000000000000000000000000000000ae
:207161000000000000000000000000000000000000000000000000000000002800000000e6
:20718100380000000000000000000000000000000000300000043c00000000000000000046
:0d71a1000000f000000000000000000000f1
:2071ae000000000000000000000000000000000010000000000000000000000000000000b1
:2071ce000000000000000000000000000000000000000000000000000000000000000000a1
:2071ee0000000000000000000000000800000000000000000c00000000000000000000006d
:0d720e00000000000000040000000000006f
:20721b00000000000000000000000000000000002000000000000000000000000000000033
:20723b000000000000000000000000000000000000000e0000000000000000000000000025
:20725b00000000000000000000000004c2400000000000000000000000000000000000000d
:0d727b000000000000000a000000000000fc
:207288000600000000000000000000000000000000000000000000000000000000000000e0
:2072a8000000000000000000000000000000000000000000000000000000000000000000c6
:2072c8003800a540000000e07bc10400000700000000000000000000000000000000000062
:0d72e8000000c000000000000000a0f10840
:2072f5008000000000000000000000000000000000000000000000000000000000000000f9
:20731500000000000000000000000000000000000000000000000000000000000000000058
:2073350003c05a000000010043c00000000400000000000000000000000000000000000013
:0d7355000001000000000000000000f0003a
:2073620000000000000000000000000000000000000000000000000000000000000000000b
:2073820000000000000000000000000000000000000080000000000000000000000c00005f
:2073a2000400000030001000000000c0600000000003000000000000000000000000003034
:0d73c20000000000000000000000000000be
:2073cf0000000000000000000000000000000000000000000000000001000000000000009d
:2073ef0000000000000000000000000000000000000040000000000000000000000000013d
:20740f0030000000000008e000000000000000000000000000000000000000000000000045
:0d742f00000000000000000000000000024e
:02743c0000004e
:02743e0011013a
:02744000010148
:2074420000000000000000000000000000000000200000000000000000000000000000000a
:2074620000000000000000000000000000000000000000000000000000000000000000000a
:207482000000000000000000000000000000000000000000000000000000000000000000ea
:0d74a20000000000000004000000000000d9
:2074af000000000000000000000000000000000000000000000000000000000000000000bd
:2074cf0000000000000000000000000000000000000000000000000000000000000000009d
:2074ef0000000000000000000000000000000000000000000000000000000000000000007d
:0d750f00000000000000000000000000006f
:20751c0000000000000000000000000000000000100000000000000000000000000000003f
:20753c0000000000000000000000000000000000000000000000000000000000000000002f
:20755c000000000000000000000000000000000000001000000000000040000000000000bf
:0d757c0000000000000004000000000000fe
:207589000000000000000000000000000000000000000000000000000000000000000000e2
:2075a9000000000000000000000000000000000000000000000000000000000000000000c2
:2075c9000000000000000000000000000000000000000000000000000000000000000000a2
:0d75e9000000000000000000000000000095
:2075f6000000000000000000000000000000000020000000800000000000000000000000d5
:20761600000000000000000000000000000000000000000000000000000000000000000054
:20763600000000000000000000000000000000000000000000000000000000000000000034
:0d7656000000000000000800d800600000e7
:207663000000000000000000000000000000000000000000400000000000000000000000c7
:207683000000000000000000000000000000000000000000000000000000000000000000e7
:2076a3000000000000000000000000000000000000000000000000000000000000000000c7
:0d76c3000000000000000000f800f00000d2
:2076d000000000000000000000000000000000000003c000000000000000000000000000d7
:2076f00000000000000000000000000000000000000000000000000000000000000000007a
:207710000000000000000000000000000000000000002000050000000040001000000000e4
:0d773000000000000000000000000000004c
:20773d000000000000000000000000300000000000000000000000000000000000000000fc
:20775d0000000000000000000000000000000000000000000000000000000000000000000c
:20777d000000000000000000000000000000000000000000000000000000001000000000dc
:0d779d0000000000000000000000000000df
:2077aa000000000000000000000000002000000000000080000000000000000000000020ff
:2077ca00080000000000000000000000000000000000000000000000000000000000000097
:2077ea0000000000000000000000000000000000000000000040000000000001000000003e
:0d780a000000000000000000000000000071
:2078170000000000000000000000000000000000000000000000000000000000000000341d
:20783700000000000000000000000000000000000000000000000000000000000000000031
:20785700000000000000000000000000000000000000000000000000000000000000000011
:0d78770000000000000000000000180000ec
:207884000000000000000000000000000010000000000000c0000000000000000000000014
:2078a400000c000000000000000000000000000000000000000000000000000000000000b8
:2078c4000000000000000000000000000000000000000000000000000000000000000000a4
:0d78e4000000000000000000000004000093
:2078f10000000000000000000008000000200000200000000000000000000000000200002d
:20791100000400000000000000000000000000000000000000000000000000000000000052
:20793100000000000000000000000000000000000000000000000000000000000000000036
:0d79510000000000000000003800040000ed
:20795e00000000000000000000000000000000000002000000000000000000000000000007
:20797e000000000000000000000000000000000000000000000000000000000000000000e9
:20799e000000000000000000000000000000000000000000000000000000000000000000c9
:0d79be0000000000000000000000000000bc
:2079cb00000000000000000000040000000000001001c000000000000000000000010000c6
:2079eb0000000000000000000000000000000000000000000000000000000000000000007c
:207a0b0000000000000000000000000000000000000000000000000000000000000000005b
:0d7a2b00000000000000000000000000004e
:207a38000000000000000000000000000000000000000040000000000000000000000000ee
:207a580000000000000000000000000000000000000000000000000000000000000000000e
:207a78000000000000000000000000000000000000000000004000000000000100000000ad
:0d7a980000000000000000000010000000d1
:207aa500000000000000000000080000000000002000000000000000000000000002000097
:207ac5000000000000000000000000000000000000000000000000000000000000000000a1
:207ae500000000000000000000000000000000000000000000000000000000000000000081
:0d7b05000000000000000000000000000073
:207b1200000000000000000000000000000000000000000000000000000000000000000053
:207b3200000000000000000000000000000000000000000000000000000000000000000033
:207b5200000000000000000000000000000000000000000000000000000000000000000013
:0d7b72000000000000000000000000000006
:207b7f000000000000000000000000000000000000000000000000000000000000000000e6
:207b9f000000000000000000000000000000000000000000000000000000000000000000c6
:207bbf000000000000000000000000000000000000000000000000000000000000000000a6
:0d7bdf000000000000000000000000000099
:207bec00000000000000000000000000000000000000000000000000000000000000000079
:207c0c00000000000000000000000000000000000000000000000000000000000000000058
:207c2c00000000000000000000000000000000000000000000000000000000000000000038
:0d7c4c00000000000000000000000000002b
:207c590000000000000000000000000000000000000000000000000000000000000000000b
:207c79000000000000000000000000000000000000000000000000000000000000000000eb
:207c99000000000000000000000000000000000000000000000000000000000000000000cb
:0d7cb90000000000000000000000000000be
:207cc60000000000000000000000000000000000000000000000000000000000000000009e
:207ce60000000000000000000000000000000000000000000000000000000000000000007e
:207d060000000000000000000000000000000000000000000000000000000000000000005d
:0d7d260000000000000000c0000000000090
:207d3300000000000000000000000000000000000000000000000000000000000000000030
:207d5300000000000000000000000000000000000000000000000000000000000000000010
:207d73000000000000000000000000000000000000000000000000000000000000000000f0
:0d7d930000000000000000000000000000e3
:2081e2000000000000000000000000000000000003800000000000000000000000000000fa
:208202000000000000000000000000000000000000000000000000000000bebe00000000e0
:2082220000000000000000000000000000000000000000000000000000000000000000003c
:0d824200000000000000000000000000002f
:20824f0000000000000000000000000000000000000000000000000000000000000000000f
:20826f000000000000000000000000000000000000000000000000000000777804000000fc
:20828f000000000000000000000000000000000000000000000000000000000000000000cf
:0d82af0000000000000000000000000000c2
:2082bc000000000000000000000000000000000000000000000000000000000000000000a2
:2082dc00000000000000000000000000000000000000000000000000001000000000000072
:2082fc00000000000000000000000000000000000000000000000000000000000000000062
:0d831c000000000000001000000000000044
:20832900000000000000000000000000000000000000000000000000000000000000000034
:2083490000000000000000000000000000000000000000000000000000080000000000000c
:208369000000000000000000000000000000000000000000000000000000000000000000f4
:0d83890000000000000010000000000000d7
:208396000000000000000000000000000000000000000000000000000000000000000000c7
:2083b600000000000000000000000000000000000000000000000040000c0000000000005b
:2083d600000000000400000000000000000000000000000000000000000000000000000083
:0d83f600000000000000000000000000007a
:20840300000000000000000000000000000000000000000000000000000000000000000059
:208423000000000000000000000000000000000000000000000000400000000000000000f9
:20844300000000000000000000000000000000000000000000000000000000000000000019
:0d846300000000000000000000000000000c
:208470000000000000000000000000000000000000000000000000000000000000000000ec
:208490000000000000000000000000000000000000000000000000000000000000000000cc
:2084b0000000000000000000000000000000000000000000000000000000000000000000ac
:0d84d000000000000000000000000000009f
:2084dd0000000000000000000000000000000000000000000000000000000000000000007f
:2084fd00000000000000000000000000000000000000000000000000001c00000000000043
:20851d0000000000000000000000000000000000000000000000000000000000000000003e
:0d853d000000000000000000000000000031
:20854a00000000000000000000000000000000000000000000000000000000000000000011
:20856a000000000000000000000000000000000000000000000000000100000000000000f0
:20858a000000000000000000000000000000000000000000000000000000000000000000d1
:0d85aa0000000000000000000000000000c4
:2085b7000000000000000000000000000000000000000000000002000000000000000000a2
:2085d700000000000000000000000000000000000000000000000000000000000000000084
:2085f700000000000000000000000000000000000000000000000000000000000000000064
:0d8617000000000000000000000000000056
:20862400000000000000000000000000000000000000000000000000000000000000000036
:20864400000000000000000000000000000000000000000000000000000000000000000016
:208664000000000000000000000000000000000000000000000000000000000000000006f0
:0d8684008000000000000000000000000069
:208691000000000000000000000000000000000000000000000000000000000000000000c9
:2086b1000000000000000000000000000000000000000000000000000000000000000000a9
:2086d100000000000000000000000000000000000000000000000000000000000000000584
:0d86f100000000000000000000000000007c
:2086fe00000000000000000000000000000000001000000000000400000000000000000048
:20871e0000000000000000000000000000000000000000000000000000000000000000003b
:20873e0000000000000000000000000000000000000000000000000000000000000000001b
:0d875e00000000000000000000000000000e
:20876b000000000000000000000000000000000028000000000000000000000000000000c6
:20878b000000000000000000000000000000000000000000000000000000000000000000ce
:2087ab000000000000000000000000000000000000000000000000000000000000000000ae
:0d87cb0000000000000000000000000000a1
:2087d800000000000000000000000000000000000000000000000000000000000000000081
:2087f800000000000000000000000000000000000000000000000000000000000000000061
:20881800000000000000000000000000000000000000000000000000000000000000000040
:0d8838000000000000000000000000000033
:20884500000000000000000000000000000000000000000000000000000000000000000013
:208865000000000000000000000000000000000000000000000000000000000000000000f3
:208885000000000000000000000000000000000000000000000000000000000000000000d3
:0d88a50000000000000000000000000000c6
:2088b2000000000000000000000000000000000000000000000000000000000000000000a6
:2088d20000000000000000000000000000000000000c000203c08000000000000000000035
:2088f200000000000000000000000000040000000000000000000000000000000000000062
:0d8912000010000000000000000000000048
:20891f000070000000000000000000000000000000000000000000000000000000000000c8
:20893f0000000000000000000000000000000000000c000e0060040000000000000000009a
:20895f000000000000000000000000000000000000000000000000000000000000000030c8
:0d897f0000000000000000000000000000eb
:20898c000000000000000000000000000000000000000000000000000000000000000000cb
:2089ac000000000000000000000000280000000000000002616020000000000000000000a0
:2089cc0000000000000000000000000000000000000000000000000000400000000000004b
:0d89ec00000000000000000000000000007e
:2089f90000000000000000000000000000000000000000000000000000000000000000005e
:208a1900000000000000000000000010000000000000001e6b600400000000000000000040
:208a390000000000000000000000000000000000000000000000000000000000000000001d
:0d8a59000000000000000000000000000010
:208a66000000000000000000000000000000000000000000000000000000000000000000f0
:208a86000000000000000000000000000000000000000000006010400000000000004000e0
:208aa600000000000000000000000010000000000000400000000000000000000000000060
:0d8ac60000000000000000000000000000a3
:208ad30000000000000000000000000000000000000000000000000400000000000000007f
:208af300000000000000000000000000000000000000000002601040000000000000a00011
:208b1300000000000000000000000000200000000000000000000000000000000000000022
:0d8b33000000000000000000000000000035
:208b4000000000000000000000000000000000000000000000000000000000000000000015
:208b6000000000000000000000000000000000000000000001c01000000000000000000024
:208b80000000000000000000000000000000000000000000000000000000000000000000d5
:0d8ba00000000000000000000000000000c8
:208bad000000000000000000000000000000000000000000000000000000000000000000a8
:208bcd000000000000000000000000004000000000000000004010000000000000000000f8
:208bed00000000000000000000000000000000000000000000000000000000000000000068
:0d8c0d00000000000000000000000000005a
:208c1a0000000000000000000000000000000000000000000000000000000000000000003a
:208c3a00000000000000000000000000000000000000000075400000000000000000000065
:208c5a000000000000000000000000000000000000000000000000000000000000000000fa
:0d8c7a0000000000000000000000000000ed
:208c87000001000000000000000000000000000000000000000000000000000000000000cc
:208ca700000000000000000000000000000000000000000438000000000000000000000071
:208cc70000000000000000000000000000000000000000000000000000000000000000008d
:0d8ce7000000000000000000000000000080
:208cf4000c0000000000000000000000000000000000000000000000000000000000000054
:208d140000000000000000000000000000000000000c00043fc00000000000000000000030
:208d340000000000000000000000000000000000000002800000000000000000000000009d
:0d8d540000000003c0a0100000000000009f
:208d61004c00000000000000000000000000000000000000000000000000000000000000a6
:208d8100000000000000000000000000000000000004000078000000000000000000000056
:208da1000000000000000000000000000000000000000000000000000000000000000000b2
:0d8dc1000000007bc18210000000000000d7
:208dce00800000000000000000000000000000000000000000000000000000000000000005
:208dee00000000004000000000000000000000000000003c2f40000000000000000000007a
:208e0e000000000000000000000000000400000000000000000000000080000000000000c0
:0d8e2e000000000000000000000000000037
:208e3b00000000000000000000000000000000000000000000000000000000000000000017
:208e5b0000000000000000000000000000000000000e003c040000000000000000000000a9
:208e7b0000000000000000000000000000000000000000000000000000400000000000385f
:0d8e9b000000000000000a000000000000c0
:208ea8000000000000000000000000000000000000000000000000000000000000000000aa
:208ec800000000000000000000000000000000000000000203400000000000000001000044
:208ee80000000000000000000000000000000000000000000000000000400000000000002a
:0d8f0800000000000000000000000000005c
:208f15004000000000000000000000000000000000000000000000000000000000000000fc
:208f3500000000000000000000000000000000000000000c0200000000000000000000000e
:208f55000000000000000000000000000000000000000000000000000020000000000000dc
:0d8f750000000000000000000000000000ef
:208f82000000000000000000000000000000000000000000000000000000000000000000cf
:208fa200000000000000000000000000000000000004000003400000000000000000000068
:208fc20000000000000000000000000004000000000000000000000000000000000000008b
:0d8fe2000000000000000000000000000082
:208fef00000000000000000000000000000000000000000000000000000000000000000062
:20900f0000000000000000000000000000000000000400000000000000000000000000003d
:20902f0000000000000000000000000400000000000000000000000000000000000000001d
:0d904f000000000000000000000000000014
:20905c000000000000000000000000000000000000000000000000000000000000000000f4
:20907c0000000000000000000000000000000000000000160140000100000000000000007c
:20909c000000000000000000000000000000000000000000000000000000000000000000b4
:0d90bc0000000000000000000000000000a7
:2090c900000000000000000000000000000000000000000000000000000000000000000087
:2090e900000000000000000000000000000000000000003e00000000000000000000000029
:20910900000000000000000000000000000000000000000000000000000000000000000046
:0d9129000000000000000000000000000039
:20913600000000000000000000000000000000000000000000000000000000000000000019
:209156000000000000000000000000000000000000000000004000000000000000000000b9
:209176000000000000000000000000000000000000000000000000000000000000000000d9
:0d91960000000000000000000000000000cc
:2091a3000000000000000000000000000000000000000000000000000000000000000000ac
:2091c30000000000000000000000000000000000000000000200000000000000000000008a
:2091e30000000000000000000000000000000000000000000000000000000000000000006c
:0d920300000000000000000000000000005e
:2092100000000000000000000000000000000000000000000000000000000000000000003e
:209230000000000000000000000000000000000000000000004000000000000000000000de
:209250000000000000000000000000000000000000000000000000000000000000000000fe
:0d92700000000000000000000000000000f1
:20927d000000000000000000000000000000000000000000000000000000000000000000d1
:20929d00000000000000000000000000000000000000000000000000100c00000000000095
:2092bd00000000000000000000000000000000000000000000000000000000000000000091
:0d92dd000000000000000000000000000084
:2092ea00000000000000000000000000000000000000000000000000000000000000000064
:20930a00000000000000000000000000000000000000000001c000100f0000000000000063
:20932a00000000000000000000000000000000000000000000000000000000000000000023
:0d934a000000000000000000000000000016
:209357000000000000000000000000000000000000000000000000000000000000000000f6
:20937700000000000000000000000000000000000000000000000008880000000000000046
:209397000000000000020000000000000000000000000000000000000000000000000000b4
:0d93b7000000000000000014000000000095
:2093c400000000000000000000000000000000000000000000000000000000000000000089
:2093e400000000000000000000000000000000000000000021c00000000000000000000088
:20940400000000000000000000000000000000000000010000000000000400000000000043
:0d942400000000000000000000000000003b
:2094310000000000000000000000000000000000000000000000000000000000000000001b
:20945100000000000000000000000000000000000000a00420000000000000000000000037
:209471000000000000000000000000000000000000000000000000000000000000000000db
:0d94910000000000000000001000000000be
:20949e000000000000000000000000000000000000000000000000000000000000000000ae
:2094be00000000000000000000000000004000000000000e024000000000000000000000fe
:2094de0000000000000000000000000000000000000000000000000000000000000000006e
:0d94fe000000000000000000000000000061
:20950b00000000000000000000000000000000000000000000000000000000000000000040
:20952b0000000000000000000000000000000000000e80270000000000000000000000006b
:20954b000000000000000000000000000010000000000000000000000000000000000000f0
:0d956b0000000000000000000000000000f3
:209578000000000000000000000000000000000000000000000000000000000000000000d3
:20959800000000000000000000000000000000000000163c034000000000040140000000d9
:2095b800000000000000000000000000000000000000000000000000000000000000000093
:0d95d8000000000000000000000000000086
:2095e500000000000000000000000000000000000000000000000000000000000000000066
:2096050000000000000000000000000000000000000000207800000000005b014000000011
:20962500000000000000000000000000000000000000000000000000000000000000000025
:0d9645000000000000000000000000000018
:209652000000000000000000000000000000000000000000000000000000000000000000f8
:20967200000000000000000000000000000000000004003c024a002000000000000000002c
:209692000000000000000000000000080000000000000000000000000000000000000000b0
:0d96b20000000000000000000000000000ab
:2096bf0000000000000000000000000000000000000000000000000000000000000000008b
:2096df00000000000000000000000000000000000004002000000010070000000000000030
:2096ff0000000000000000000000000000000000000000000000000000000000000000004b
:0d971f00000000000000000000000000003d
:20972c0000000000000000000000000000000000000000000000000000000000000000001d
:20974c000000000000000000000000000000000000000024034c000000000000000000008a
:20976c000000000004000000000000000000000000000000000000000000000000000000d9
:0d978c0000000000000000000000000000d0
:209799000000000000000000000000000000000000000000000000000000000000000000b0
:2097b900000000000000000000000000000000000000000003e1400000000000000000006c
:2097d90000000000040000000000000000000000000000000000000000000000000000006c
:0d97f9000000000000000000000000000063
:20980600000000000000000000000000000000000000000000000000000000000000000042
:209826000000000000000000000000000000000000000026244000000f0004014000000044
:20984600000000000000000000000000000000000000000000000000000000000000000002
:0d98660000000000000000000000000000f5
:209873000000000000000000000000000000000000000000000000000000000000000000d5
:2098930000000000000000000000000000000000000000047000000000001a814000000066
:2098b300000000000000000000000000000000000000100000000000000000000000000085
:0d98d3000000000000000000000000000088
:2098e000000000000000000000000000000000000000000000000000000000000000000068
:20990000000000000000000000000000000000000000000001400000000000000000000006
:20992000000000000000000000000000000000000000000000000000000000000000000027
:0d994000000000000000000000000000001a
:20994d000000000000000000000000000000000000000000000000000000000000000000fa
:20996d000000000000000000000000000000000000000000020000000000000000000000d8
:20998d000000000000000000000000000000000000000000000000000200000000000000b8
:0d99ad0000000000000000000000000000ad
:2099ba0000000000000000000000000000000000000000000000000000000000000000008d
:2099da00000000000000000000000000000000000000000001c00000000900014200000060
:2099fa00000000000000000000000008000000000000000000000000000000000000000045
:0d9a1a00000000000000000000000000003f
:209a270000000000000000000000000000000000000000000000000000000000000000001f
:209a4700000000000000000000000000000000000000100e7000000000001f014000000011
:209a67000000000000080000000000000000000000000000000000000000000000000000d7
:0d9a870000000000000000000000000000d2
:209a94000000000000000000000000000000000000000000000000000000000000000000b2
:209ab40000000000000000000000000000000000000c001c42e0040000407414000000007c
:209ad400000000000000000000000000000000000000000000000000000000000000000072
:0d9af4000000000000000000000000000065
:209b0100000000000000000000000000000000000000000000000000000000000000000044
:209b210000000000000000000000000000000000000410003ae00000001c86a800000000ac
:209b4100000000000000000000000000000000000000000000000000000000000000000004
:0d9b610000000000000000000000000000f7
:209b6e000000000000000000000000000000000000000000000000000000000000000000d7
:209b8e00000000000000000000000000000000000000001c00c000000f00000000000000cc
:209bae00000000000000000000000000000000000000000000000000000000000000000097
:0d9bce00000000000000400000000000004a
:209bdb0000000000000000000000000000000000000000000000000000000000000000006a
:209bfb0000000000000000000000000000000000000e100002000000080000000000000022
:209c1b00000000000000000000000000000000000000000000000000000000000000000029
:0d9c3b00000000000000000000000000001c
:209c48000000000000000000000000000000000000000000000000000000000000000000fc
:209c6800000000000000000000000000000000000000000262400000000000000000000038
:209c88000000000000000000000000000000000000000000000000000000000000000000bc
:0d9ca80000000000000000000000000000af
:209cb50000000000000000000000000000000000000000000000000000000000000000008f
:209cd500000000000000000000000000000000000000100e700000000000000000000000e1
:209cf50000000000000000000000000000000000000000000000000000000000000000044b
:0d9d15000000000000000000000000000041
:209d2200000000000000000000000000000000000000000000000000000000000000000021
:209d4200800000000000000000000000000000000004001c41cb0000000000000000000055
:209d62000000000000010000000000000000000000000000000000000000000000000000e0
:0d9d820000000000000004000000000000d0
:209d8f000000000000000000000000000000000000000000000000000000000000000000b4
:209daf0000000000000000000000000000000000000c0020720100000000000000000000f5
:209dcf000000000000000000000000000000000000000080000000000000000000000000f4
:0d9def000000000000000a0000000000005d
:209dfc00000000000000000000000000000000000000000000000000000000000000000047
:209e1c00000000000000000000000000000000000000000c6be9080000003014000000007a
:209e3c00000000000000000000000000000000000000000000000000000000000000000006
:0d9e5c0000000000000000000000000000f9
:209e69000000000000000000000000000000000000000000000000000000000000000000d9
:209e8900000000000000000000000000000000000000000021c10000000086280200000027
:209ea900000000000000000000000000000000000000000000000000000000000000000099
:0d9ec900000000000000000000000000008c
:209ed60000400000000000000000000000000000000000000000000000000000000000002c
:209ef600000000000000000000000000000000000000008c01c00002a1000000000000005c
:209f160000000000000000000000000010000000000000000000000000000000000000001b
:0d9f3600000000000000000400000000001a
:209f4300006800000000000000000000000000000000000000000000000000000000000096
:209f630000000000000000000000000000000000000001200000000050000000000000006d
:209f83000000000000000000000000000000000000000000000000000000000000000000be
:0d9fa30000000000000000000000000000b1
:209fb000000000000000000000000000000000000000000000000000000000000000000091
:209fd0000000000000000000000000000000000000000000414000000000000000000000f0
:209ff000000000000000000000000000000000000000000000000000000000000000000051
:0da010000000000000000000000000000043
:20a01d00000000000000000000000000000000000000000000000000000000000000000023
:20a03d000000000000000000000000000000000000000000380000000000000000000000cb
:20a05d000000000000000000000000000000000000000000000000000000000000000000e3
:0da07d0000000000000000000000000000d6
:20a08a000000000000000000000000000000000000000000000000000000000000000000b6
:20a0aa0000000000000000000000000000000000000000022e400000000000000000060020
:20a0ca0000000000000000000000000003400100f000000000000000000000000000000042
:0da0ea000000000000000000000000000069
:20a0f700000100000000000000000000000000000000000000000000000000000000000048
:20a117000000000000000000000000000000000000000004040000281000000000004000a8
:20a13700000000000000000000000000020000a0f100000000000000000000000000000075
:0da15700000000000000006000000000009b
:20a164000c00000000000000000000000000000000000000000000000000000000000000cf
:20a18400000000000000000000000000000000000000001c03e008000000000000000000b4
:20a1a4000000000000000000000000008000000000004000000000000000000000000000db
:0da1c400000000000000000000000000008e
:20a1d10044000000000000000000000000000000000000000000000000000000000000002a
:20a1f100000000000000000000000000000000000000002e02c0000000000000000000005e
:20a2110000000000000000000000000000c3800000004000000000000100000000000000a9
:0da23100050000000000000000000000001b
:20a23e00800000000000000000000000000000000000000000000000000000000000000080
:20a25e000f029400000000000000000000000000000000003d40001280000000000000002c
:20a27e000000000000000000000000000000140500000000000000000000000000000000a7
:0da29e0000000000000000000000000000b3
:20a2ab00000000000000000000000000000000000000000000000000000000000000000093
:20a2cb0008016802000000000000000000000000000e000004000009850000000000000060
:20a2eb00000000000000000000000000001020aa0004002000000000000000000000000055
:0da30b000000000000000000000000000045
:20a31800000000000000000000000000000000000000000000000000000000000000000025
:20a338000000000000000000000000000000000000001000014000000000000000010000b3
:20a358000000000000000000000000000000000000000000000000000000000000000000e5
:0da3780000000000000000000000000000d8
:20a38500400000000000000000000000000000000000000000000000000000000000000078
:20a3a500000000000000000000000000000000000000000072000000000000000001000025
:20a3c500000000000000000000000000000000000000000000000000010000000000000077
:0da3e500000000000000000000000000006b
:20a3f20000000000000000000000000000000000000000000000000000000000000000004b
:20a4120000000000000000000000000000000000000c00020000000000000000000000001c
:20a4320000000000000000000000000000000000000000000000000000000000000000000a
:0da4520000000000000000000000000000fd
:20a45f000000000000000000000000000000000000000000000000000000000000000000dd
:20a47f0000000000000000000000000000000000000c000e00000040000000000000000063
:20a49f0000000000000000000000000a000000000000000000000000000000000000000093
:0da4bf000000000000000000000000000090
:20a4cc00000000000000000000000000000000000000000000000000000000000000000070
:20a4ec00000000000000000000000000000000000000003c40000000008000000000000c48
:20a50c0000000000000030000000000000000db81210000000000000000000000000000414
:0da52c000000000000000000000000000022
:20a53900000000000000000000000000000000000000000000000000000000000000000002
:20a559000000000000000000000000000000000000000400386040000700000000000000ff
:20a5790000000000000080000000000000000ed4001000000000000000000000000000044c
:0da599000000000000002000000000000095
:20a5a60000000000000000000000000000000000000000000000000e000000000000000087
:20a5c6000000000000000000000000000000000000000e000000001000009228c00040029b
:20a5e60000000000000000a0c1400100002000000000000000000000000000000000000093
:0da606000000000000000000000000000047
:20a61300000000000000000000000000000000000000000000000000000000000000000027
:20a63300000000000000000000000000000000000000000000000028070ef2c0d820201ee2
:20a6530000000000000000117140000801600000000000800000000000000000000000003c
:0da6730000000000000000000000000000da
:20a680000000000000000000000000000000000000000000000000000000000000000000ba
:20a6a000000000000000000000000000800000000000000000000000000000000000001cfe
:20a6c000380000000002000b0140000000c400000000000000000000000000000000000030
:0da6e000000000000000000000000000006d
:20a6ed0000000000000000000000000000000000000000000000000000000000000000004d
:20a70d0000000000000000000000000020000000000000800000000000000000000000206c
:20a72d00040000000001300f301404000006800000000000000000000000000000000000fa
:0da74d0000000000000000000000000000ff
:20a75a000000000000000000000000000000000000000000000000000000000000000000df
:20a77a000000000000000000000000000700000000001000000000002090000000000000f8
:20a79a0000de1f0000000000000000000000000000000000000000000000000000000000a2
:0da7ba000000000000000000000000000092
:20a7c700000000000000000000000000000000000000000000000000000000000000000072
:20a7e700000000000000000000000000000000000000000000000000179e0000000040005d
:20a8070002cc1d080000000000000000000700000000002000000000000000000000000017
:0da827000000000000000000000000000024
:20a83400000000000000000000000000000000000000000000000000000000000000000004
:20a8540000000000000000000000000000009014040c1000000000000000d6898020000021
:20a87400000000000000000141404000000000000000010040000000004000000000000081
:0da8940000000000000000000000000000b7
:20a8a100000000000000000000000000000000000000000000000000000000000000000097
:20a8c100000000000000000000000000000006a8000c000001c004000100bf578000000061
:20a8e10000000000000000086280000000000000000000000000000000214000000000000c
:0da901000000000000000000000000000049
:20a90e00000000000000000000000000000000000000000000000000000000000000000029
:20a92e000000000000000000000000000000000000000000000000100010000000002000c9
:20a94e00000000000000b00000000000000000000000000000000000008040000000000079
:0da96e0000000000000000000000000000dc
:20a97b000000000000000000000000000000000000000000000000000000000000000000bc
:20a99b0000000000000000000000000000000000000e101e000003a0518e000000000000de
:20a9bb0000000000012081e0000000000000000000001000000000000000000000000000ea
:0da9db00000000000000000000000000006f
:20a9e80000000000000000000000000000000000000000000000000000000000000000004f
:20aa0800000000000000000000000000000f0000000000000000000000000000000000001f
:20aa280002ccea00002000a000000000000000000000000000000000000000000000000096
:0daa480030000000000000000000000000d1
:20aa55000000000000000000000000000000000000000000000000000000000000000000e1
