:02000000ff00ff
:080002004c6174746963650030
:17000a00694345637562653220323032302e31322e32373934330071
:16002100506172743a2069434534304858384b2d43423133320018
:1b003700446174653a204d617920333020323032322032323a30343a3439007d
:0200520000ffad
:040054007eaa997e69
:02005800510055
:02005a0001059e
:03005c00920020ef
:03005f00620367d2
:0300620072011018
:0300650082000016
:02006800110085
:02006a00010192
:20006c00000000000000000000000000000000000000000000000000000000000000000074
:20008c00000000000000000000000000000000000000000000000000000000000000000054
:2000ac0000000000000000000000000800000000000000000000000000000000000000002c
:0d00cc000000000000000000000000000027
:2000d900000000000000000000000000000000000000000000000000000000000000000007
:2000f9000000000000000000000000000000000000000000000000000000000000000000e7
:200119000000000000000000000000000000000000000000000000000000000000000000c6
:0d01390000000000000000000000000000b9
:20014600000000000000000000000000000000000000000000000000000000000000000099
:20016600000000000000000000000000000000000000000000000000000000000000000079
:20018600000000000000000000000004000000000000000000000000000000000000000055
:0d01a6000000000000000400000000000048
:2001b30000000000000000000000000000000000000000000000000000000000000000002c
:2001d30000000000000000000000000000000000000000000000000000000000000000000c
:2001f3000000000000000000000000000000000000000000000000000000000000000000ec
:0d02130000000000000000000000000000de
:200220000000000000000000000000000000000000000000000000000000000000000000be
:2002400000000000000000000000000000000000000000000000000000000000000000009e
:20026000000000000000000000000008000000000000000000000000000000000000000076
:0d0280000000000000000000000000000071
:20028d00000000000000000000000000000000000000000000000000000000000000000051
:2002ad00000000000000000000000000000000000000000000000000000000000000000031
:2002cd00000000000000000000000000000000000000000000000000000000000000000011
:0d02ed000000000000000000000000000004
:2002fa000000000000000000000000000000000000000000000000000000000000000000e4
:20031a000000000000000000000000000000000000000000000000000000000000000000c3
:20033a000000000000000000000000000000000000000000000000000000000000000000a3
:0d035a000000000000000000000000000096
:20036700000000000000000000000000000000000000000000000000000000000000000076
:20038700000000000000000000000000000000000000000000000000000000000000000056
:2003a700000000000000000000000000000000000000000000000000000000000000000036
:0d03c7000000000000000000000000000029
:2003d400000000000000000000000000000000000000000000000000000000000000000009
:2003f4000000000000000000000000000000000000000000000000000000000000000000e9
:200414000000000000000000000000000000000000000000000000000000000000000000c8
:0d04340000000800000000000010000000a3
:2004410000000000000000000000000000000000000000000000000000000000000000009b
:2004610000000000000000000000000000000000000000000000000000000000000000007b
:200481000001000000000000000000000000000000000000000000000000000000800000da
:0d04a100000000000000000000000000004e
:2004ae0000000000000000000000000000000000000000000000000000000000000000002e
:2004ce0000000000000000000000000000000000000000000000000000000000000000000e
:2004ee000000000000000000000000000000000000000000000000000000000000000000ee
:0d050e0000000000000000000000000000e0
:20051b000000000000000000000000000000000000000000000000000000000000000000c0
:20053b000000000000000000000000000000000000000000000000000000000000000000a0
:20055b0000000000000000000000000000000000000000000000000000000000000000027e
:0d057b000000000000000000000000000073
:20058800000000000000000000000000000000000000000000000000000000000000000053
:2005a800000000000000000000000000000000000000000000000000000000000000000033
:2005c800000000000000000000000000000000000000000000000000000000000000000013
:0d05e8000000000000000000000000000006
:2005f5000000000000000000000000000000000000000000000000000000000000000000e6
:200615000000000000000000000000000000000000000000000000000000000000000000c5
:200635000000000000000000000000000000000000000000000000000000000000000001a4
:0d0655000000000000000000000000000098
:20066200000000000000000000000000000000000000000000000000000000000000000078
:20068200000000000000000000000000000000000000000000000000000000000000000058
:2006a200000000000000000000000000000010000000000000000000000000000000000028
:0d06c200000000000000000000100000001b
:2006cf0000000000000000000000000000000000000000000000000000000000000000000b
:2006ef000000000000000000000000000000000000000000000000000000000000000000eb
:20070f000000000000000000000000000000000000000000000000000000000000000002c8
:0d072f0000000000000000000000000000bd
:20073c0000000000000000000000000000000000000000000000000000000000000000009d
:20075c0000000000000000000000000000000000000000000000000000000000000000007d
:20077c0000000000000000000000000000000000000000000000000000000000000000005d
:0d079c000000000000000000000000000050
:2007a900000000000000000000000000000000000000000000000000000000000000000030
:2007c900000000000000000000000000000000000000000000000000000000000000000010
:2007e9000000000000000000000000000000000000000000000000000000000000000000f0
:0d08090000000000000000000000000000e2
:200816000000000000000000000000000000000000000000000000000000000000000000c2
:200836000000000000000000000000000000000000000000000000000000000000000000a2
:20085600000000000000000000000000000000000000000000000000000000000000000082
:0d0876000000000000000000000000000075
:20088300000000000000000000000000000000000000000000000000000000000000000055
:2008a300000000000000000000000000000000000000000000000000000000000000000035
:2008c300000000000000000000000000000000000000000000000000000000000000000015
:0d08e3000000000000000000000000000008
:2008f0000000000000000000000000000000000000000000000000000000000000000000e8
:200910000000000000000000000000000000000000000000000000000000000000000000c7
:20093000000000000000000000000010000000000000000000000000000000000000000097
:0d095000000000000000000000000000009a
:20095d0000000000000000000000000000000000000000000000000000000000000000007a
:20097d0000000000000000000000000000000000000000000000000000000000000000005a
:20099d0000000000000000000000000000000000000000000000000000000000000000003a
:20100000000000000000000000000000000000000000400000000000000000000000000090
:0d10200000000000000000000000000000c3
:20102d000000000000000000000000000000000000000000000000000000000000000000a3
:20104d00000000000000000000000000000000000000000000000000000000000000000083
:20106d00000000000000000000000000000000000000000000000000000000000000000063
:0d108d000000000000000000000000000056
:20109a00000000000000000000000000000000000000000000000000000000000000000036
:2010ba00000000000000000000000000000000000000000000000000000000000000000016
:2010da000000000000000000000000000000000000000000000000000000000000000000f6
:0d10fa0000000000000000000000000000e9
:201107000000000000000000000000000000000000000000000000000000000000000000c8
:201127000000000000000000000000000000000000000000000000000000000000000000a8
:20114700000000000000000000000000000000000000000000000000000000000000000088
:0d116700000000000000000000000000007b
:2011740000000000000000000000000000000000000000000000000000000000000000005b
:2011940000000000000000000000000000000000000000000000000000000000000000003b
:2011b40000000000000000000000000000000000000000000000000000000000000000001b
:0d11d400000000000000000000000000000e
:2011e1000000000000000000000000000000000000000000000000000000000000000000ee
:201201000000000000000000000000000000000000000000000000000000000000000000cd
:201221000000000000000000000000000000000000000000000000000000000000000000ad
:0d12410000000000000000000000000000a0
:20124e00000000000000000000000000000000000000000000000000000000000000000080
:20126e00000000000000000000000000000000000000000000000000000000000000000060
:20128e00000000000000000000000000000000000000000000000000000000000000000040
:0d12ae000000000000000000000000000033
:2012bb00000000000000000000000000000000000000000000000000000000000000000013
:2012db000000000000000000000000000000000000000000000000000000000000000000f3
:2012fb000000000000000000000000000000000000000000000000000000000000000000d3
:0d131b0000000000000000000000000000c5
:201328000000000000000000000000000000000000000000000000000000000000000000a5
:20134800000000000000000000000000000000000000000000000000000000000000000085
:20136800000000000000000000000000000000000000000000000000010000000000000064
:0d1388000000000000000000000000000058
:20139500000000000000000000000000000000000000000000000000000000000000000038
:2013b500000000000000000000000000000000000000000000000000000000000000000018
:2013d5000000000000000000000000000000000000000000000000000000000000000000f8
:0d13f50000000000000000000000000000eb
:201402000000000000000000000000000000000000000000000000000000000000000000ca
:201422000000000000000000000000000000000000000000000000000000000000000000aa
:2014420000000000000000000000000000000000000000000000000000000000000000008a
:0d146200000000000000000000000000007d
:20146f0000000000000000000000000000000000000000000000000000000000000000005d
:20148f0000000000000000000000000000000000000000000000000000000000000000003d
:2014af0000000000000000000000000000000000000000000000000000000000000000001d
:0d14cf000000000000000000000000000010
:2014dc000000000000000000000000000000000000000000000000000000000000000000f0
:2014fc000000000000000000000000000000000000000000020000000000000000000000ce
:20151c000000000000000000000000000000000000000000000000000000000000000000af
:0d153c0000000000000000000000000000a2
:20154900000000000000000000000000000000000000000000000000000000000000000082
:20156900000000000000000000000000000000000000100003c0000000000000000000008f
:20158900000000000000000000000000000000000000000000000000000000000000000042
:0d15a9000000000000000000000000000035
:2015b600000000000000000000000000000000000000000000000000000000000000000015
:2015d60000000000000000000000000000000000000e0000000000000000000000000000e7
:2015f6000000000000000000000000000000000000000000000000000000000000000000d5
:0d16160000000000000000000000000000c7
:201623000000000000000000000000000000000000000000000000000000000000000000a7
:20164300000000000000000000000000000000000000000002c000000000000000000000c5
:20166300000000000000000000000000000000000000000000000000000000000000000067
:0d168300000000000000000000000000005a
:2016900000000000000000000000000000000000000000000000000000000000000000003a
:2016b0000000000000000000000000000000000000000000700000000000000000000000aa
:2016d0000000000000000000000000000000000000000000000000000000000000000000fa
:0d16f00000000000000000000000000000ed
:2016fd000000000000000000000000000000000000000000000000000000000000000000cd
:20171d00000000000000000000000000000000000000000043400000000000000000000029
:20173d0000000000000000000000000000000000000000000000000000000000000000008c
:0d175d00000000000000000000000000007f
:20176a0000000000000000000000000000000000000000000000000000000000000000005f
:20178a0000000000000000000000000000000000000000000200000000000000000000003d
:2017aa0000000000000000000000000000000000000000000000000000000000000000001f
:0d17ca000000000000000000000000000012
:2017d7000000000000000000000000000000000000000000000000000000000000000000f2
:2017f700000000000000000000000000000000000000000001c00000000000000000000011
:201817000000000000000000000000000000000000000000000000000000000000000000b1
:0d18370000000000000000000000000000a4
:20184400000000000000000000000000000000000000000000000000000000000000000084
:201864000000000000000000000000000000000000000014700000000000000000000000e0
:20188400000000000000000000000000000000000000000000000000000000000000000044
:0d18a4000000000000000000000000000037
:2018b100000000000000000000000000000000000000000000000000000000000000000017
:2018d10000000000000000000000000000000000000000023bc000000000000000000000fa
:2018f1000000000000000000000000000000000000000000000000000000000000000000d7
:0d19110000000000000000000000000000c9
:20191e000000000000000000000000000000000000000000000000000000000000000000a9
:20193e00000000000000000000000000000000000000000000000000000000000000000089
:20195e00000000000000000000000000000000000000000000000000000000000000000069
:0d197e00000000000000000000000000005c
:20198b0000000000000000000000000000000000000000000000000000000000000000003c
:2019ab00000000000000000000000000000000000000000001c0000000000000000000005b
:2019cb000000000000000000000000000000000000000000000000000000000000000000fc
:0d19eb0000000000000000000000000000ef
:2019f8000000000000000000000000000000000000000000000000000000000000001000bf
:201a1800000000000000000000000000000000000000004028000000000000000000000046
:201a380000000000000000000000000000000000000000000000000000000000000000008e
:0d1a58000000000000000000000000000081
:201a6500000000000000000000000000000000000000000000000000000000000000000061
:201a8500000000000000000000000000000000000000003442c0000000000000000000000b
:201aa500000000000000000000000000000000000000000000000000000000000000000021
:0d1ac5000000000000000000000000000014
:201ad2000000000000000000000000000000000000000000000000000000000000000000f4
:201af20000000000000000000000000000000000000c000e78000000000000000000000042
:201b12000000000000000000000000000000000000000000000000000000000000000000b3
:0d1b320000000000000000000000000000a6
:201b3f00000000000000000000000000000000000000000000000000000000000000000086
:201b5f0000000000000000000000000000000000000c003640c00000000000000000000024
:201b7f00000000000000000000000000000000000000000000000000000000000000000046
:0d1b9f000000000000000000000000000039
:201bac00000000000000000000000000000000000000000000000000000000000000000019
:201bcc00000000000000000000000000000083940000000020000000000000000000a00022
:201bec000000000000000000000000000000000000000000000000000000000000000000d9
:0d1c0c0000000000000000000000000000cb
:201c19000002000000000000000000000000000000000000000000000000000000000000a9
:201c39000000000000000000000000000000f0280000002c404000000000000000000000c7
:201c590000000000000000000000000000000000000000000000000000000000000000006b
:0d1c7900000000000000000000000000005e
:201c860000000000000000000000000000000000000000000000000000000000000000003e
:201ca6000000000000000000000000004000d780c00e0000020000000000000000000000b7
:201cc60000000000000000000000001000000000000000000000000000008000000000006e
:0d1ce60000000000000000000000000000f1
:201cf3000000000000000000000000000000000000000000000000000000000000000000d1
:201d13000000000000000000000000030700bbb00000003c014001000000000000000000bd
:201d330000000000000000000000000000000000000000000000000000014000000000004f
:0d1d53000000000000000000000000000083
:201d6000000000000000000000000000000000000000000000000000000000000000000063
:201d8000000000000000000000000000001e0000000c003e020000000000000000000000d9
:201da000000000000000000000000000000000000000000000000000000000000000000023
:0d1dc0000000000000000000000000000016
:201dcd000000000000000000000000000000000000000000000000000000000000000000f6
:201ded0000000000000000000000000000100000000c003c0140000000000000000000003d
:201e0d000000000000000000000000000000000000000000000000000000000000000000b5
:0d1e2d0000000000000000000000000000a8
:201e3a00000000000000000000000000000000000000000000000000000000000000000088
:201e5a00000000000000000000000000000036014000001e000000000000000000000000d3
:201e7a00000000000002000000000000000000000000000000000000000000000000000046
:0d1e9a000200000000000000000000000039
:201ea70000000000000000000000000000000000000000000000000000000000000000001b
:201ec700000000000000000000000008000e0001400000263d400000000000000000000001
:201ee7000000000000040000000000000000000000000000000000000000000000000000d7
:0d1f070005000000000000000000000000c8
:201f14000000000000000000000000000000000000000000000000000000000000000000ad
:201f3400000000000000000000000000000076a800000000044040000000000000000000eb
:201f540000000000000000000000000000000000000000000000000000000000000000006d
:0d1f74000000000000000000000000000060
:201f8100000000000000000000000000000000000000000000000000000000000000000040
:201fa1000000000008000000000000000b000428000000003ae000000000000000000000c7
:201fc100000000000000000000000000000000000000000000000000000000000000000000
:0d1fe10000000000000000000000000000f3
:201fee004c0000000000000000000000000000000000000000000000000000000000000087
:20200e00000000000000000000000000400e000000000000334030000000000000000000c1
:20202e0000000000000200000000000400000000000010000000000000000000000000007c
:0d204e000000000000001000000000000075
:20205b000c0000000000000000000000000000000000000000000000000000000000000059
:20207b00000000000000000000000000000000000000000002c0000800000000000000007b
:20209b0000000000000100000000000200000000000008000000000000000000000000001a
:0d20bb000000000000000000000000000018
:2020c8000000000000000000000000000000000000000000000000000000000000000000f8
:2020e80000000000000000000000000000000000000000007bc0300000000000000000006d
:202108000000000000000000000000000000000000000000000000000000000000000000b7
:0d21280000000000000000000000000000aa
:2021350080000000000000000000000000000000000000000000000000000000000000000a
:202155000000000000000000000000000b000000000000016460100000000000000000008a
:2021750000000000000000000000000000000000000000000000000000000000000000004a
:0d219500000000000000000000000000003d
:2021a2004004000000000000000000000000000000000000000000000000000000000000d9
:2021c200000000000000000000000000071c5781401c000e23e000000000000000000a008b
:2021e2000000000000000000000000040000000000000000000000000000000000000000d9
:0d22020000000000000000000000000000cf
:20220f00002800000000000000000000000000000000000000000000000000000000000087
:20222f0000000000000000000000002800107c14000c000043608000000000000000000098
:20224f0000000000000000000000000a000000000000000000000000000000000000000065
:0d226f000000000000000000000000000062
:20227c00000000000000000000000000000000000000000000000000000000000000000042
:20229c00000000000000000000000000000000000000001e320000000000000000000000d2
:2022bc00000000000000000000000000000000000000000000000000000000000000000002
:0d22dc0000000000000000000000000000f5
:2022e9000000000000000000000000000000000000000000000000000000000000000000d5
:20230900000000000000000000000000000000000000100000c000000000000000000000e4
:20232900000000000000000000000000000000000000000000000000000000000000000094
:0d2349000000000000000000000000000087
:20235600000000000000000000000000000000000000000000000000000000000000000067
:2023760000000000000000000000000000003f94000e04200000000300000000000000003f
:2023960000000000000000000000000008000000000000000000000000000000000000041b
:0d23b600000000000000000000000000001a
:2023c3000000000000000000000000000000000000000000000000000000000000000000fa
:2023e300000000000000000000000000000004140010003c00400000000000000000000036
:202403000000000000000000000000001400000000000000000000000000000000000004a1
:0d24230000000000000000c00000000000ec
:2024300000000000000000000000000000000000000000000000000000000000000000008c
:20245000000000000000000000000000000000000000200c00000000004000000000000000
:20247000000000000000000000000000000000000000000000000000000000000000000448
:0d249000000000000000000000000000003f
:20249d0000000000000000000000000000000000000000000000000000000000000000001f
:2024bd0000000000000000000000000000000000000040243dc0000000000000000000009e
:2024dd000000000000000000000000000000000000000000000000000000000000000000df
:0d24fd0000000000000000000000000000d2
:20250a000000000000000000000000000000000000000000000000000000000000000000b1
:20252a00000000000000000000000000000000000000001c00000000000000000000000075
:20254a00000000000000000000000000000000000000000000000000000000000000000071
:0d256a000000000000000000000000000064
:20257700000000000000000000000000000000000000000000000000000000000000000044
:20259700000000000000000000000000000000000000000001c00000000000000000000063
:2025b700000000000000000000000000000000000000000000000000000000000000000004
:0d25d70000000000000000000000000000f7
:2025e4000000000000000000000000000000000000000000000000000000000000000000d7
:20260400000000000001c00000000000000000000000000023400000000000000000000092
:20262400000000000000000000000000000000000000000000000000000000000000000096
:0d2644000000000000000000000000000089
:20265100000000000000000000000000000000000000000000000000000000000000000069
:20267100000000000000200000000000000000000000000041600800000000000000000080
:20269100000000000000000000000000000000000000000000000000000000000000000029
:0d26b100000000000000000000000000001c
:2026be000000000000000000000000000000000000000000000000000000000000000000fc
:2026de000000000000000000000000000000000000000020000100000000000000000000bb
:2026fe000000000000000000000000000000000000000000000000000000000000000000bc
:0d271e00000000000000100000000000009e
:20272b0000000000000000000000000000000000000000000000000000000000000000008e
:20274b000000000000024000000000000b0000000000001c024e00000000000000000000b5
:20276b0000000000000000000000000000000000000000000000000000000000000000004e
:0d278b000000000000000000000000000041
:20279800000000000000000000000000000000000000000000000000000000000000000021
:2027b8000000000000000020d46008205000000000004004200000000000000000000000d1
:2027d8000000000000000000000000000000000000004000000000000000000000000000a1
:0d27f80000000000000000000000000000d4
:202805000000000000000000000000000000000000000000000000000000000000000000b3
:20282500000000000000000ce89000000000000000000026014f0000000000000000000099
:20284500000000000000000000000000000000000000000000000000000000000000000073
:0d2865000000000000000000000000000066
:20287200000000000000000000000000000000000000000000000000000000000000000046
:20289200000000000000400000000000000c000000040000000000000000000000000000d6
:2028b200000000000000000000000000000000000000000000000000000000000000000105
:0d28d20000000000000000000000000000f9
:2028df000000000000000000000000000000000000000000000000000000000000000000d9
:2028ff000000000000002000000000000000000000040024014d0000000000000000000023
:20291f00000000000080000000000000000000000000000000000000000000000000000018
:0d293f00800000000000000000000000000b
:20294c0040000000000000000000000000000000000000000000000000000000000000002b
:20296c00000000000000400000000000000000000000121c060000000000000000000000d7
:20298c0000000000000000000000000000000000000000000000000000000000000000002b
:0d29ac00000000000000000000000000001e
:2029b9000000000000000000000000000000000000000000000000000000000000000000fe
:2029d90000000000000000000000000000000000000050022ec0000000000000000020007e
:2029f9000000000000000000000000000000000000000000000000000000000000000000be
:0d2a190000000000000000000000000000b0
:202a2600000000000000000000000000000000000000000000000000000000000000000090
:202a460000000000000000000000000000000000000e90806a0000001000000000000000d8
:202a660000000000000000000000000400000000000000000000000000000000000000004c
:0d2a86000000000000000000000000000043
:202a93008000000000000000000000000000000000000000000000000000000000000000a3
:202ab300000000000000000000000000000000000000503c434000002000000000000000d4
:202ad3000000000000000000000000080000000000000000000000000000000000000000db
:0d2af30000000000000000000000000000d6
:202b000048000000000000000000000000000000000000000000000000000000000000006d
:202b200000000000000000000000000000000000000c0420780000000000000000000000ed
:202b4000000000000000000000000000000000000000000000000000000000000000000075
:0d2b60000000000000000000000000000068
:202b6d00083800000000000000000000000000000000000000000000000000000000000008
:202b8d0000000000000000000000000000000000000c009c424000000000000000000000fe
:202bad00000000000000000000000000000000000000000000000000000000000000000008
:0d2bcd0000000000000000000000000000fb
:202bda000001000000000000000000000000000000000000000000000000000000000000da
:202bfa00000000000000000000000000000000000000005c7e0000000000000000000000e1
:202c1a00000000000100000000000000000000000000100000000000000100000000000088
:0d2c3a00000000000000000000000000008d
:202c470000000000000000000000000000000000000000000000000000000000000000006d
:202c670000000000000000000000000000000000000000827bc00000000000000000000090
:202c8700000000000080000000000000140000000000280000000000000000000000000071
:0d2ca7000000000000000000000000000020
:202cb400000000000000000000000000000000000000000000000000000000000000000000
:202cd4000000000000000000000000000b80fb02800001003a6000204000000000000000dd
:202cf4000000000000000000000000000000000000000000000000000000000000000000c0
:0d2d140000000000000000000000000000b2
:202d2100000000000000000000000000000000000000000000000000000000000000000092
:202d41000000000000024000000000000b00f325c04000400360400000000000000000002a
:202d6100000000000000000000000000000000000000000000000000000000000000000052
:0d2d81000000000000000000000000000045
:202d8e00000000000000000000000000000000000000000000000000000000000000000025
:202dae000000000000000000000000000000000000000000000000005000000000000000b5
:202dce000000000001000000000000000000000000000000000000000000000000000000e4
:0d2dee0000000000000000000000000000d8
:202dfb000000000000000000000000000000000000000000000000000000000000000000b8
:202e1b00000000000000000000000000000000000000000032c8000020000000000000007d
:202e3b000000000000800000000000000000000000000000000000000000000000000000f7
:0d2e5b00000000000000000000000000006a
:202e680000000000000000000000000000000000000000000000000000000000000000004a
:202e8800000000000001e000000000000000000000000000700100000000000000000000d8
:202ea80000000000000000000000000000000000000000000000000000000000000000000a
:0d2ec80000000003fc4400000000000000ba
:202ed5000000000000000000000000000000000000000000000000000000000000000000dd
:202ef50000000000000003c00000000000000000000000006748000000000000000000004b
:202f150000000000000000000000000000000000000000000000000000000000000000009c
:0d2f350000000003fc400000000000000050
:202f420000000000000000000000000000000000100000000000000000000000000000005f
:202f6200000000000000001cc5a01000001e00000004a000000000000000000000000001fb
:202f82000000000000380000000000000000000000000000000000000000000000000000f7
:0d2fa2000000000000000000000000000022
:202faf000000000000000000000000000000000028000000000000000000000000000000da
:202fcf00000000000000003c8b90000001000000000cc00027ca000000400000000000008d
:202fef000000000000000000000000000000000000000000000000000000000000000000c2
:0d300f0000000000000000000000000000b4
:20301c00000000000000000000000000000000000000000000000000000000000000000094
:20303c00000000000000000000000000001e00000000000000000020000000000000000036
:20305c00000000000000000000000000000000000000000000000000000000000000000054
:0d307c000000000000000000000000000047
:20308900000000000000000000000000000000000000000000000000000000000000000027
:2030a900000000000000000000000000001e00000000100001400000000000000000000098
:2030c9000000000000000000000000000000000000000000000000000000000000000000e7
:0d30e90000000000000000000000000000da
:2030f6000000000000000000000000000000000000000000000000000000000000000000ba
:2031160000000000000000000000000000089bb0c20e000000000000000000000000000076
:20313600000000000030000000000000000000000000002000000000000000000000000029
:0d315600000000000000000000000000006c
:20316300000000000000000000000000000000002800000000000000000000000000000024
:203183000000000000000000000000000d10b2658000804000c000000000000000000000f8
:2031a3000000000000000000000000000000000000000050000000000000000000000000bc
:0d31c30000000000000000c000000000003f
:2031d0000000000000000000000000000000000000000000000000000000000000040000db
:2031f0000000000000000000000000000000000000000004000000000000000000000000bb
:2032100000000000000000000000000000000000000000000000000000000000000000009e
:0d3230000000000000000000000000000091
:20323d00000000000000000000000000000000000000000000000000000000000000000071
:20325d00000000000000000000000000000000000000000625c00000000000000000000066
:20327d00000000000000000000000000000000000000000000000000000000000000000031
:0d329d000000000000000000000000000024
:2032aa00000000000000000000000000000000000000000000000000000000000000000004
:2032ca00000000000000000000000001890a93c000000000000000000000000000004000bd
:2032ea0000000000000000000000000000000000000000201a00000000800000000000000a
:0d330a0000000000000000000000000000b6
:2033170018000000000000000000000000000000000000000000000000000000000000007e
:203337000000000000000000000000000d909a9dc000000001c00000000000000000a00081
:203357000000000000000000000000000000000000000050100000000040000000000000b6
:0d3377000000000000000000000000000049
:20338400000000000000000000000000000000000000000000000000000000000000000029
:2033a400000000000400402ee3a010000180b3850080000e3ec004000000000000000000bb
:2033c400000000000000000000000000000000000000000000f73d40000000000000000075
:0d33e40000000000000000000000000000dc
:2033f1000000000000000000000000000000000000000000000000000000000000000000bc
:2034110000000000000022dee9c000000000f435c200000270e00000800000000000000035
:20343100000000000000000000000000000000000000000000d4280000000000000000007f
:0d345100000000000000000000000000006e
:20345e0000000000000000000000000000000000000000000000000000000000000000004e
:20347e00000000000000024fe7c00800001c16c78000001e00010000200000000000000076
:20349e0000000000000000000000000000000000000000000c000000000000000000000002
:0d34be000000000000000000000000000001
:2034cb000000000000000000000000000000000000000000000000000000000000000000e1
:2034eb00000000000000435cf8a0000000103e52c200001e034e0000400000000000000079
:20350b00000000000000000000000000000000000000000010000000000000000000000090
:0d352b00000400000000000000000000008f
:20353800000000000000000000000000000000000000000000000000000000000000000073
:20355800000000000001e03ec3300000039c0000000000042000000040000000000000003e
:20357800000000000000000000000000000000000000000000000000000000000000000033
:0d3598000000000000000000000000000026
:2035a5000000000000000000000000000000000000000000000000000000000000002800de
:2035c500000000000003c3ecdcc08000008b00000000000442cf0000a000000000000000d8
:2035e5000000000000000000000000000000000000000009000000000000000000000000bd
:0d36050000000000000000000000000000b8
:20361200000000000000000000000000000000000000000000000000000000000000000098
:20363200000000000000401df5e0000000185bbc000c400e000100000000000000000000bc
:20365200000000000000000000000000000000000000000000000000000000000000000058
:0d367200000000000000000000000000004b
:20367f0000000000000000000000000000000000000000000000000000000000000000002b
:20369f00000000000001401cd260040000009403c00c0006014c00000000000000000000c2
:2036bf000000000000000000000000000000000000000000000000000000000000000000eb
:0d36df0000040000000000000000000000da
:2036ec0000000000000000000000000040000000000000000000000000000000000000007e
:20370c00a173b8000000060000000000000000000000100038000000000000000000000083
:20372c0000000000000000000000000000000000000000000000000000000000000000007d
:0d374c000000000000000000000000000070
:203759000000000000000000000000038000000000000000000000000000000000000001cc
:20377900bbe444000000000000000000000000000000100002c0000000000000000000007b
:20379900000000000000000000000000000000000000000900000000000000000000000007
:0d37b9000000000000000000000000000003
:2037c600000000000000000000000000400000000000000000000e00000000000000000095
:2037e60015612c08e001600f8960000000000000000e10007a000000000000000000000048
:20380600000000000100000000000000000000000000000000000000000000017d6e0001b4
:0d38260000000000000000c80000000000cd
:20383300000000000000000000000002c000000000000000000000000000000000000000b3
:20385300a0412c000003400cf9a000000000000000001000434000000000000000000000cd
:2038730000000000008000000000000000000000000000000000000000000003ea1c0000ac
:0d3893008000000000000010000000000098
:2038a0000000000000000000000000078000000000000a00000000001e0000000000005009
:2038c000a57878080000002d8c3020000000000000040000780000001000000000000000b6
:2038e00003fe2008000400000000000800000000000000000000000000000000000000048f
:0d39000000000000000000000000000000ba
:20390d000000000000000000000000040000000000001000000000800000000000000009fd
:20392d00b582d0000000000c0030000000000000000c000000c0000100000000000000006a
:20394d0003dc0000000000000000000000000000000000000000000000000000000000007b
:0d396d00000000000000000000000000004d
:20397a000000000000a5b9b0020001e036bcc0000000080000000000000000000000000082
:20399a00000000000000022da425000b031c00000000001e260000000000000000000000a7
:2039ba00000000000100000000000000000000000000000000172942000020280000000022
:0d39da0000000000000000020000000000de
:2039e70000000000010fb58c000000203dc6900000001000000000000000000000000000ac
:203a070000000000000007b79470001000000000000000007bc00000000000000000000092
:203a2700000000000280000000000000000000000000000000f417c000001c4000000000d6
:0d3a47000000000000000002c000000000b0
:203a54000000000001a00000000000000000000000000000000000000000000000000000b1
:203a74000000000000014040000000000000f783c000400072601000000000000000002035
:203a94000000000000000000000000020000000000000000000000000001400000000000cf
:0d3ab400000000000000000003b6cf50002d
:203ac1000000000100000000000000000000000000000000000000000000000000020000e2
:203ae100b000000000002340000000038000b8168000802431600000000000000000000ca0
:203b01000000000000000000000000000000000000000000000000000000000000000000a4
:0d3b21000000000000000000000d0a000080
:203b2e000000000000000000000001601c8a000400000056954000002060000000010000c0
:203b4e00ab2aec000002000000000000000a0000000000200000000000000000000000006a
:203b6e00000000000000000000000000000000000000000000000000000020000000000017
:0d3b8e00000000000000000000000000002a
:203b9b00000000000000000000000000030a00000000000c154000000c000000000280010d
:203bbb000bee20010001c00000000000011f00000000000c024e0000000000000000000093
:203bdb0000000000000000000000000000000000000000000a00000000002400000000009c
:0d3bfb000000000000000001c000000000fc
:203c0800000000003800000000000006a008100000000000000000000000fe554100000012
:203c28000000000000000000000000000000bff48000002002010020000000000000000006
:203c480000000000000000000000000000000000000000000000000000000000000000005c
:0d3c6800000000000000000000000000004f
:203c750000000000088000000000000424f420100000000000000000000170f020000000da
:203c950000000000000002c00000002000083b47800000ac234c0000000000000000000008
:203cb5000000000000000000000000000000000000000000090000000000003c00000000aa
:0d3cd50000000000000000000000000000e2
:203ce200000000000000000000000000000000000000000000000c0000060a555100000000
:203d02000000000000e000000000000000005e92c08c400e00000000000000000000002017
:203d22007000000000300000000000000000000000000000000000000000000000000000e1
:0d3d4200000000000000000800000000006c
:203d4f000000000000000000000000038000000003800000000004100022c0aa000000505e
:203d6f000000000001000000000000000d000812c00c300023cd0000000000000000003ce4
:203d8f007c0000000000000000000000100000000000000000000000000000000000000088
:0d3daf0000000000000000140000000000f3
:203dbc0000000000001000000010000644c6a000000000d7417020000063ec000000000020
:203ddc001f856a000003607d8477000000000703d000805e200000001000000000000000f6
:203dfc0000000000000000000000000060000000000000001ebef440000020000000000017
:0d3e1c00000000000000000807800000000a
:203e29000000000000e000000010000227e1000400000017fd4000003401d0af0000000073
:203e4900ffbc000000014216c810040007000003c0401e0042c000028000000000000000bd
:203e69000000000000000000000000000003c00000000000009ae84040003c000000000038
:0d3e890000008000000000040400000000a4
:203e9600000000000000000000e00800400a5403800801f20170200020000000003800001f
:203eb60001201782e000c0000000038000000000000e001c000000002000000000000000c5
:203ed60000000000000000000000000000000000000000000100000000006020000000004b
:0d3ef60000000000000000000000000000bf
:203f0300000000000000000000000c020c05a000000f0f503d4400000400000000000000ec
:203f23000383d4000000000000000000000000000000001e00400000400000000000000086
:203f430000000000000000000000000000000000000000000b00000000009c7c000000003b
:0d3f63000000000000000000000000000051
:203f7000000000000010000000402000200a5400000f81d2017020002003e8aa200000017a
:203f90009d201702000006ff84240020080000000001014000000000000000000000000024
:203fb000000000000000000000000000000000000000000000ba744000001400000000006f
:0d3fd0000000000000000000000ccf5000b9
:203fdd000000000000f00000008000003c05a000000188183d4600000401d88800000000ea
:203ffd008783d4040000029698b0101001000000000100a401c000000000000000008000db
:20401d000000000000000000000000000000000000000000009f68420000003c00000000fe
:0d403d000000000000000000001d0a00004f
:20404a0000000000801000000000140601cf04000008009a017820014002fe0f0000001934
:20406a009520178200014035cbf00000000000000000000e38000000000000000000000071
:20408a000000000000000000000000100960368d100000001e0000000000000000000000ac
:0d40aa000000000000000001c28da0a02059
:2040b7000000000070e0000000002800010f0004000f00583d4400008002ee96200000004f
:2040d7008383d4000000201fb0400000000b00000000000241c000000000000000000000b2
:2040f70000000000000000000000001010202dd52010000f100000000000340000000000e4
:0d4117000000000000000001643f0bd0001c
:20412400000000000000000000000142ae904000000000723c204000006bec010200001042
:204144000fa017040002002eecc02000081ed68140008200066000000000000000000000f0
:2041640000000000000000000000000010038000000010000000000000001c00caa500000d
:0d4184000001a00000000002e78e90201056
:204191000000004050a000000001400025b0a0040400000003c040100001d04300004000b9
:2041b1000703d4840000402e033008000710740000000c003c40800100000000000000004f
:2041d10000000000000000000000000008040000000000000000000000000200505500001b
:0d41f1000000000000000001477dd000002c
:2041fe0000000045000000000001026041cf040004080e523c28001e206c000000004080ab
:20421e0005a01706000006c4a000000001818734408000007a010003800000000000000059
:20423e0000000000000000000000001000068000000000011900000000002002eaab2200d7
:0d425e0000580000000000004700000000b4
:20426b00000000020000000000000142800f0004000b000003c0000c142800000000003015
:20428b000303d48400000385b4000000070ff0388000000002ce00000000000000001000db
:2042ab0000000000004000000000001000000000000000008d00000000003c024007000091
:0d42cb004008b000000000000600000000e8
:2042d800000000008005e83c0400006000ef0400000980723c2000000002c946000000005e
:2042f8000da017040800000000000000000133a94020020422000000100000000000000061
:2043180000000000040000000000000048000000000000000000000000001e03fa08128084
:0d43380000000bb234800000e396e5d000d9
:2043450000000000500983c000000140000f0004000b080803c010001401fc8d00000000dc
:204365000783d4210000428000000000000e1f2d0000c026034f0000000000000000000065
:204385000000000000000000000000080400000000000000000000000000000260000100a9
:0d43a50040000b6638000000366dc0e000df
:2043b20000000000000330c08440016681ef041100400e3a3c2040003600580b02300591c3
:2043d20095a0170404020055cf00000007003704408400000000000000000000000000004b
:2043f200000000000000000000000010000000000000000580fe0000000000046ef50000b1
:0d441200000000000000000006bfabc2204b
:20441f0000000070000dbbc002011000000f00000400000003c000101401400120104211b3
:20443f009383d4210303c2f700f08804000cf43b800c1024014900000000000000001000c2
:20445f00000000000040000000000011000000000000000080343c000010002b40a00002df
:0d447f00c000000000000100002e064100fa
:20448c0000000000100fb880800001429489d0000000001a3c200000040378db20003000e9
:2044ac000521558200026264a426000000000000000050006e000040000000000000a000c3
:2044cc00000000000000000000000000000000000000100000000000000014780000000034
:0d44ec000011892404000000000000000001
:2044f900000000000809bc00000000203fa7e0000000000003c1000006036c2d000000008a
:20451900000154110000421f88b0000000000000000010006ec000400000000000004000c5
:20453900000000000000000000000000000000000000200000000000000002400000000000
:0d45590000000770000000000000000000de
:2045660000000000501f7f70000001403ec6c02380050032154000000601fd0e00380480d5
:2045860000000000e000e05fa0a400000f800000000e100002000000000000000000000003
:2045a60000000000000080000000000000000000000000000000000000001e00000000381f
:0d45c600200007ba000800000000000000ff
:2045d3000000000008e5e0dc000000001f093000001080081540100002014d5f000000f02b
:2045f300000000000000020200a0000005800000000010000140000000000000000000002e
:20461300000000000000b000000000000000000000000000000000000000000000000000d7
:0d46330000f0078000000000000000000003
:20464000000000000003bac40a000140019c0201000000033c10000000014c1a0231008085
:204660000000000000000066a426000015803310004ca820780000030000000000000000a3
:204680000000000002000000000000040000000000000200000000000000200000000000f2
:0d46a0000801e038cd4800000000000000d7
:2046ad0000000000000bc3900000000280bc0006000000003c0040042402c081207080f064
:2046cd0000000000000002dd98b0000020003ba04004021c24c00000000000000000000065
:2046ed00000000000010000000000008000000000000000900000000000034000000000058
:0d470d0000010040cc04000000000000008e
:20471a00000000005005b814000010029ee81000000000033c10004000665e082002000039
:20473a0000000000000067afa0000000000000000000006e7a0000000000000000000000c1
:20475a000000000000000000603c42000000000000000000007f140000000005dea5000046
:0d477a0000000d716800000000000000004c
:2047870000000000d80040140400080037f01000000000003c0000a08066c80000013000e8
:2047a700000000000000241f00520000000000000000083c43c00000000000000000000016
:2047c7000000000000000000003c000080000000000000000053f442000000367055000092
:0d47e70030000fc280000001c00000000083
:2047f4000000001000000000000000034008102000098000000000002e040000000000005f
:2048140000000000000006bfc0a000000f0e0000000000003f401020000000000000000093
:20483400000000000080000000000000000000000000000000000000000000004afa02009e
:0d48540000f0000000000000000000000067
:204861000000000000a00000000000062c0e7000000109000000000416340000000000008f
:20488100000000000008060e000000008f9b00000000008437600000800000000000000036
:2048a10000000000000000000000000000000000000000000000000000000001c0420000f4
:0d48c10000100000000000000000000000da
:2048ce0000000000588f79400000000001e330000000000000000000207000000000000086
:2048ee00000000000002665fa0a0000000000000000001400400000050000000000020806e
:20490e00000000000000000000000000080000000000000800000000000000000000000079
:0d492e00000010000000000000000000006c
:20493b00000000000101c0140000a00000d3300000000000000000003c6400000000000043
:20495b00000000000a0263c60000800000000000000000002eca000020000000000001402e
:20497b00000000000000000000000000140000000000000500000000000000000000000003
:0d499b00005090000000000000000000002f
:2049a8000000000011c1682008000006c6f0000000000000000000002665ce8100001801de
:2049c800e00000000020002ca25420000f80f368080000000000000000000000000000009b
:2049e80000000000000000000000000000000000000000000100000000011e3b78f50000e7
:0d4a08000070100000000001e2000000003e
:204a15000000010058fb016800000002bdf0800000000000000000802665ef8020000001fa
:204a35000000000000000027019010000f80760808400040264b0020000000000000000073
:204a550000000000000000000000000000000000000000000b00000000000043e0a0000073
:0d4a75000070800000000000240000000020
:204a82000000000010af7bf80a00014281ac502140000000000000015420fe5a02120500d1
:204aa20000000000000266cdf53500000180d31d00848001000000004000000000000101dd
:204ac200000000000138000000000000000000000000000700000000000000700000001014
:0d4ae200005187b095020400003cef500029
:204aef000000000008a303ec00000160050ca00040000000000000008200700800110200ae
:204b0f00000000000001c276d030000000801428000c020027c90001a000000000000000f2
:204b2f00000000000280000000000000000000000000000000000000000000400000001094
:0d4b4f000000e7b394001a0000150a0000f2
:204b5c000000000010897dac020000460c8e200000070000000000000e006d7a0000000079
:204b7c00000000000000000000000000080000000001400000000028000000000000004068
:204b9c0000000000000000000000000000078e9f5008000000000000000000034cf5000029
:0d4bbc0000000000000000140000000000d8
:204bc900000200000009ebf84000002281ae200400050a00000000000202f874010000d0d9
:204be9000000000000000000000000000b000000000110000140000000000000000000004f
:204c090000000000002000000000000200041d8b501000000000000000800003d0a000006a
:0d4c2900000000000000000000000000007e
:204c360000383800981de434000000003400000380098000000000003668000000000080c3
:204c560008628000e0000015c050038000000000000e0000020000000040000000000c0070
:204c760000000000000000000000000002000000000000000000000000000004f80a020014
:0d4c9600300000000000e000000000000001
:204ca3000000000010db2c1c000003402eb24000000100000000000014000000000000f056
:204cc300050140000000000200500400000000000000000001c00000000000000000000074
:204ce30000000000000000000000000001c00000000000000000000000000028f0bd00001b
:0d4d03000000800000000000000000000023
:204d1000000010000001711c0800014645f130010000015795402000007000000000000072
:204d30000d3a84080001478da0140700000156815000008400000000000000000000000054
:204d500000000000000000000000000020000000000000880000000001002000000000007a
:0d4d70000000a00000000014000000000082
:204d7d0000002000000b416c040001464d8c401600000a0815400000046000000000187071
:204d9d000b4280040000042da5b00300000a1c000200010625c00000000000000000000088
:204dbd00000000000000000000000008100000000000000f0000000000003c000000000073
:0d4ddd0000000000000000080000000000c1
:204dea00000000001813b0cc00000002be8ee0002800009a2f4000001401dc5a00000080d8
:204e0a00000000000000004000000000000000000000000000000000000000000000000048
:204e2a0000000000000000000000000000000000000000000c00000000000000000000005c
:0d4e4a000000000000000002e06ce05600d7
:204e57000000000000dfb400000001439fad200010100e16054000000203f005000000b0c5
:204e7700000000000000024000000000000a00000000000001c0000000000000000000000e
:204e97000000000000000000000000000000000000000000000000000000000000000000fb
:0d4eb7000000000000000001c3f60fa00085
:204ec4000000010080b7ba8c0800024697d0000000500006bc1050000067d88b020000005b
:204ee400100000000000e04000000000000000000000001c06c00400400000000000000058
:204f040000000000000000000000000000000000000040000c00000000001e3800000004e7
:0d4f24000078000000000a004057de5590a4
:204f31000000000050a0828c0108004037c80000002000043c0000000065403b0102a8002f
:204f5100e00000000000220000000000000000000000000230c0000020000000000000002c
:204f71000000000002000000000000000000000000000000100000000004004000000004c6
:0d4f91001808000000000403e27cd250006c
:204f9e004000000001b07bc18400020680ec502010000010295040000070eb8000000001a9
:204fbe00893000000002000000000000000000000000000000000000000000000000000018
:204fde0000000000000000000000000000c0000000000000000000000000000000000030c3
:0d4ffe000058dba814000460606eea04880f
:20500b000c00000000d003c083000140010ca0002820000029481000043c5d00000000010e
:20502b00cb42a8800000c00000000000000000000000001c034f0000000000000000000002
:20504b000000000000000000000000000020000000000000000000000000003c00000000e9
:0d506b0038f1a3c000000200020f05f000a4
:2050780000000000000df3c0000000022da000300000000000000040007b4a0802800000ca
:20509800000000000000000000000000000800000000000420000002000000000000a0002a
:2050b80000000000000000000000000001c000000000000000d33d40000e000000000000b9
:0d50d8000000000000000200664cf66418a5
:2050e5008000000050a5c03c000000003600400400000000000000201479d0000000300013
:20510500d00000000000000000000000000000000000000462cf0000000000000000000085
:20512500000000000000000000000000000000000000000000d4280000000000000000006e
:0d5145000000000000000000378dd9c08080
:2051520040001000701b61ac0a000206c6cba03100090007bc1040000e00000000000000b7
:2051720000000000000000000000001000000000000c003c040100002000000000000000a0
:205192000000000000000000000000000000000000000000000000000000003800000000c5
:0d51b20000000be3d00644000000000000e8
:2051bf000000003008a181a00000014204015000000b00003c0000000000000000002000d7
:2051df0000000000000000000000000000000000000c000c3d4f00025000000000000000ba
:2051ff0000000000000000000000000000000000000002000000000000000040000000004e
:0d521f0000000b73c040ca0000000000003a
:20522c0000000000800861540000000016b10000000d015281400000000400000000380001
:20524c000073c120000000000000000001000000000010003c0000000000000000000000a1
:20526c0000000000020000000000000000000000000000000000000000002001d80548409a
:0d528c00008005e18d2000100000000000f2
:2052990000000000100d02a804000003acf40000008788040140000000280000000000000b
:2052b9000003c040000000000000000000800000000010243ac00000000000000000000024
:2052d9000000000000000000000000000000000000000000000000000000040060fa004017
:0d52f900005001330c2000084200000000ae
:205306000000000050b7e2b408e204002da0a20000550a9707408e0000000000003880000a
:2053260000000000004000000000000000000000000e100000000008000000000000000001
:205346000000000000280000000000e00200000000000000000000000e00060000000038f1
:0d536600005000000000e00000000000000a
:205373000000000059dd817c00000802af00f000002500503fc000000000000000010000c9
:205393000000000000000000000000000900000000001000014000000000000000000000a0
:2053b300000000000100000000000000004000000000000000000000000026000000000073
:0d53d30000000000000000000000000000cd
:2053e000000002808193f85c08400006200a54000028019710008400007000000011020020
:20540000000000000000000000000000000000000004002000000000100000000000000058
:205420000000000000000000000000000000000000004080000000000000000000000000ac
:0d54400000000000000000000014c040004b
:20544d0000000000909143a0048001401405a090005b0c541400080000400000002285006f
:20546d00000000000000000000000000000000000004003c0040000100000000000000009e
:20548d000000000000000000000000000000000000001000000000000000000000000000ef
:0d54ad000000000000000000c38690020017
:2054ba0000000000019b6940000002462daaa004000bc083a58090000600000000000000c1
:2054da00000000000000000000000000000000000000003e02000000000000000000000072
:2054fa0000000000000000000000000001c00000000003800000000000000000000000004e
:0d551a000280000000000000001dca5400c7
:20552700000000000199c02801000046af00f000000b80341a4000000000000000000000e3
:20554700000000000000000000000000000000000000001c03c00000000000000000000065
:2055670000000000000500000000000000000000000000000000000000000000000000001f
:0d558700019000000000000000140aa018b0
:2055940000000000001d70340c00000061c560000000001e028000002000000000000000e4
:2055b400000000000000000000000000000000000000801c076020000000000000000000b4
:2055d40000000000000000000000000000003dfc3408000000000000000000000000000042
:0d55f4000080000000000001e00000000049
:205601000000000000a180140000000235da900000000004028020001400000000000000f9
:2056210000000000000000000000000000000000000000262d4000030000000000000000d3
:2056410000000000000000000000000000002d863004000000000000000000000000000062
:0d566100001000000000000000000000002c
:20566e000000003058e9ed280000000286a02030001918f23c00000046040af060000070ab
:20568e00000000000a00000000000000070073828000000074000001800000000000000180
:2056ae000000000000000000000000000010000000000000000000000000000000000000cc
:0d56ce00000000000000006000000000006f
:2056db0000000000008175484000e004170440800021007c03c01000023c10f00940000873
:2056fb000000000000000000000000000080080280000000324c0000000000000000000007
:20571b000000000000000000000000000003800000000000000000000000000000000000eb
:0d573b00000400000000000040000000001d
:205748000000001a000dadf4000000000fa6f01000001e9e83c000000005ddcf0000000014
:20576800000000000000000000000003870e97000080200100010008000000000000000048
:205788000000000000000000000000000200000000000000000000000000000000000000ff
:0d57a8000000000000000001e00000000013
:2057b50000000004000ba7fc040000002f9fc000000000103d400000003cea150000300098
:2057d50000000000000000000000000000d010040020480020cd000000000000000000007b
:2057f50000000000010800000000000002c0000000000000000000000000002400000000a5
:0d5815000000000000000000200000000066
:205822000000020000e9a9280040000284c5000000000086b7c084000000e896021000000e
:2058420000000000081000000000000000000000000c000e00010000000000000000000013
:20586200000000000200000000000040600000000000000000000000040000000000003050
:0d58820000300000000000000000000000e9
:20588f000000000000a36e040000000417000000000500903bc00000000030960000020071
:2058af0000000000000800000000000000000000000c000023cd00000000000000000000d5
:2058cf000000000001200000000000c0000240000000000000000000040000000000003062
:0d58ef00800000000000000000000000002c
:2058fc000000000081857ec800000162cf80d200000b8013c7400000003c000000000000db
:20591c000000000000000000000000000000000000000100380000005000000000000000e2
:20593c0000000000000000000000001000000000000000000000000000000000000000003b
:0d595c00000000000000000000000000003e
:2059690000000000b00fa934020000033ca0500000038ab62bc000000028000000000050ab
:20598900000000000000000000000000000000000000100042c0000280000000000000006a
:2059a9000000000000000000000000000000000000000000000000000000000000000000de
:0d59c90000000000000000000000000000d1
:2059d6000000380000006f300000634020a550000807001650000e0000001ef048000080c9
:2059f60009b47080000000000000000000000000000e0004000000000000000000000000d2
:205a16000000000000000000000000108000000000000000000000000000000000000000e0
:0d5a36000000000000000000000000000063
:205a43000000000000003f30000002c3b50aa000101f0e5730c0000e002400f0188000b0c2
:205a6300036cf0000000000000000000000000000000001e01400000000000000000000065
:205a8300000000000000000000000000000000000000000000000000000000000000000003
:0d5aa30000000000000000000000000000f6
:205ab0000000100000083258080601c38fafe02000001c160040040020600ca0000000582a
:205ad000000000000000000000000000000000000000001e00000000000000000000000098
:205af000000000000000000000000010100000000000000000000000000000000000000076
:0d5b10000000000000000000000000000088
:205b1d000000200000eb41a4040a0000260f700000071e13800008002403c05008000000c6
:205b3d00c000000000e00000000000000000000000000a2c01c000000000000000000000b1
:205b5d00000000000000000000000000e00000000000000000000000000000000000000048
:0d5b7d00000000000000000000000000001b
:205b8a0000000000180071540000034066a08000000019fec14000000c016e5a0000080060
:205baa00100000000000000000000000800000000000001c0000000000000000000000002f
:205bca000000000000000000000000040000000000000000000000000000000000000000b7
:0d5bea0000000000000000000000000000ae
:205bf70000000030100d42a80000406204da501000001b1ec94000000000d0050000000060
:205c1700d00000000000000000000000000000000000002401c000000000000000000000b8
:205c3700000000000000000000000008000000000000000000000000000000000000000045
:0d5c57000000000000000000000000000040
:205c64000000000019edb3ec080002e605a69024000000f3860080000603488b0200000055
:205c840010000000000000000000000000000000000120007a4020000000000000000000f5
:205ca400000000000000000000000000000000000000204000000000000000000000000080
:0d5cc400380000000000000000000000009b
:205cd10000000000000b037c0000e16401069080000008d4020000000002503b0000000062
:205cf100b00000000000000000000000000000000001000060600022000000000000000000
:205d1100000000000000000000000000000000000000102000000000000000000000000042
:0d5d31000000000000000020000000000045
:205d3e000000000080110295440010462da0500010079c939d800000800158980000053855
:205d5e00000000000000000000000000000000000000000400010010000000000000000010
:205d7e00000000000000000000000000000000000000028000000000000000000000000083
:0d5d9e0000000000000000000000000000f8
:205dab0000000100f0a00294030aa8043c000000000090b2efc0000000027ab70000180878
:205dcb000000000000000000000000000000000000000e0202cc000b0000000000000000cf
:205deb00000000000000000000000000000000000000000000000000000000000000000098
:0d5e0b00000000000000000000000000008a
:205e18000000000001eb24fc0000000624dcc0180005810000000000203dee960200000017
:205e3800100000000000000000000000000000000000020420000000000000000000000014
:205e58000000000000000000000000000000000000000000400000000000000000000000ea
:0d5e7800020000000000000000000000001b
:205e850006000000010b73fc000000043e93300000010800000000002c6430960000000018
:205ea500d000000004000000000000000000000000008026014f00012000000000000000f2
:205ec50000000000000000000000000000000000000000004000000000000000000000007d
:0d5ee50005000000000000000000000000ab
:205ef200000010050001029540000007c0a33020080818d203c004001c21e8010200000000
:205f1200012ba000000000000000000000000000000500000201000010000000000040004b
:205f320000000000000000000000000000000000000000200000000000000000000000002f
:0d5f52000000000000000000000000000042
:205f5f00000000121080029424080002410330001015107c3c0000000025f0250000000021
:205f7f000d3cac00000000000000000000000000000d000001480000200000000000a000f7
:205f9f000000000000000000000000000000000000000010000000000000000000000000d2
:0d5fbf0000000000000000000000000000d5
:205fcc000000000001896d700100c0e72180a000000980bbf94000000000eb81000000007c
:205fec001b2abc00000000000000008000000000000010007e000040000000000000014005
:20600c0070000000000000a000000000100000000000400000000000000000000000000014
:0d602c0000000000000000000000ef040074
:2060390000000000010df8d4040000078500501800058a5ec940000000034f8000000000ad
:20605900ad414040000000000000000000000000000010007ac0004000000000000000002f
:206079004000000000000100000000000000000000000000000000000000000000000000c6
:0d609900000000000000000000010f0000ea
:2060a60000000000180728cc080017e73582c00000080bb241000000000000000038040008
:2060c60000000000000000000000000000000000000eb0006a000000000000000000000092
:2060e6000400000038180000000000e40000000000000000000000000e0000000000000450
:0d610600000000000000e0000000000000ac
:206113000000000008bf8330010040e6a4b2400000070d7e528000000000000000000200cf
:206133000000000000140000000000000000000000001e007d4000028000000000000000db
:2061530030000000000000000000000803c00000000000000000000000000000000000042d
:0d617300000000000000000000000000001f
:206180000000003038096c0c000400e2b78a102000004097000010000021daa008400000f5
:2061a000f073d40000000000000000000000000000050a1e0000008000000000000000807b
:2061c00000000000008081e00000000080000000000000000000000002000c000000000050
:0d61e0000000000000000c0800000000009e
:2061ed0000000000d00dfb0000000003a40a4000000000f002800000240020a00000000073
:20620d00c943e8020000000000000000000000000004003e02c00000000000000000014036
:20622d00000000000020f10000000000000000000000000000000000000000000000000040
:0d624d000000000000000a1000000000002a
:20625a0000000000d1d9eb30000002e29fb33000000598f2014080000000000000000000a9
:20627a00a073c1400000000000000000000000000000002e0600008000000000000000003c
:20629a0000000000002000100000000000007f80870000000000000000000000000000002e
:0d62ba0018000000000000000000000000bf
:2062c700000000009895a8cc0000a24024fcc0100000107c060000000400000000000000ae
:2062e7000043c0000000000000000000000000000000061c3fc00000000000000000000073
:206307000000000000000080000000000002b6d000800000000000000000000000000002ec
:0d63270080000000000000000000000000e9
:2063340000000032000fe0840800006024e9100000080d832a800000800000000000001845
:20635400000000000000000000000000000000000000000000601020000000000000400059
:20637400000000000000000000000000040280000000000000000000010000000000000082
:0d63940000000000000000000000000000fc
:2063a10000000004000f8108000000203496e000000b087415400001400000000000003821
:2063c1000000000000000000000000000000000000004804216000000000000000002000cf
:2063e100000000000000000000000000000400000000000000000000010000000000000097
:0d640100000000000000000000000000008e
:20640e0000000000000f6b30000014605580500000039876280040000600000000000001ab
:20642e00f00000000000000000000000000000000000805c00000000100000000000400032
:20644e0000000000000001c538900000000000000000000000000000010000000af0400065
:0d646e0000000000000000a0000000000081
:20647b0000000000000d64cc010008224f0500000100800428000006020000000000000090
:20649b00e000000000000000000000000000000000004002364a0000000000000000203ce3
:2064bb000000000000800105a41000000000000000000000000000000100000000f0200076
:0d64db008000000000000000000000000034
:2064e8000000000038cda3c0000002000e8f000000078913014000000000000000000000a9
:20650800000000000000000000000000000000000000000000010000000000000000000072
:206528000000000000007805f11508000000000000000000000000000000000000000001c7
:0d6548000000000000000000004000000006
:206555000000000008cdc03c000000c01500f0000000093400004000003c0000000038009f
:20657500000000000000000000000000000000000000000000c9000000000000000100003c
:20659500000000000000080dc394000000000000000000000000000000000000000000007a
:0d65b50080000000000000000380000000d6
:2065c2000000028010f000000000064075ca000000230e16154000000068000000010000ad
:2065e20003282800000000000000000000000000000400000201000000000000000000003f
:20660200047d81000000000000000000600200000000000000000000000000000000000014
:0d662200200000000000000000000000004b
:20662f000000000008b000000000a243df0fa000001f10001540000000000000000000009c
:20664f0000402800000000000000000000000000000c0c00274c0000000000000000000038
:20666f002a6f0100000500000000000000000000000000000000000000000000000000006c
:0d668f000200000000000a000000000000f2
:20669c0000000000181fef3000200263dcb3300008001817c100000000000000000000004c
:2066bc0000000000000003800000000000000000000000000000000000000000000001003a
:2066dc00000000000000018000000000000680000000000000000000000000000000000097
:0d66fc000000100000000000000000000081
:206709000000000000dfe17080000263948cc0000000000ec10000000000000000000000ac
:20672900000000000000000000000000000000000000100002c000000000000000000280fc
:20674900000000000020000000000000000000000000000000000000000000000000000010
:0d6769002000f00000000000000000000013
:20677600000000003891e8cc0800034017c330000008003e08408000000000000000000023
:2067960000000000000000000000002000000000000e000c00000002800000000001000026
:2067b600000000003900000000000000000000000000000000000000000000000000003852
:0d67d6000001ad214180e000000000000046
:2067e3000000000091958330000002400d9cc00000050050120400000000000000000000a7
:20680300000000000000038000000010000000000000000000c00000000000000001000021
:20682300000000000200000000000000000000000000000000000000000000000000000053
:0d684300000109c0140000c00000000000aa
:2068500000000000b8156e94000002438580500003080aff39400000000000000000000032
:2068700000000000000000368af00800000000000000000000000000004000000000000010
:20689000000000000000000000000000000280000000000000000000000000000000000066
:0d68b0000001a000000000004000000000fa
:2068bd00000000009095a2900000014014d0400000090c76c9400000000000000000380033
:2068dd0000000000000000250a500000000000000000000001c00000a0400000000000007b
:2068fd0000000000000000000000000000000000000000000000000000000000000000007b
:0d691d00000100000000000020000000004c
:20692a000000000198033200880001c004e3302000059a5b27c080000000edff0080000032
:20694a0000000000000000000000000000000000000000000000000000000000000000002d
:20696a0000000000000000efe99d0000000000000000002000000000010000000000000077
:0d698a000000000000000000003caa569034
:206997000000000290a1808000000040160cc000000000d03d8000000000dcbf0000000063
:2069b700000000000001c00000000000000000000000000025c0000000000000000000001a
:2069d700000000000000000be50c0000000000000000005000000000000000000000000054
:0d69f7000000000000000000000e055090a0
:206a040000000000f8137d70000003c057e5702000000000000000000e00000000010000dc
:206a2400000000000000000000000000000000000000000e7ac00800000000000000000002
:206a4400000000000000000000000000000000000000000000000000000000000000000032
:0d6a64000000000000000000000000000025
:206a71000000000050d9214c000000424c0a8000000f000000000000003800000000800090
:206a9100000000000000000000000000000000000000000026e000000000000000000000df
:206ab1000000000000000000000000000000000000000000000000000006000000000000bf
:0d6ad10000000000000000000000000000b8
:206ade0000000000000971980800000015cf000001801800000000002400000000000000dd
:206afe000000000000000000000000038000000000000024060100000000000000000000ca
:206b1e0000000000000001800000000003c03fc08000000040000000010000000000000053
:0d6b3e00800000000000000040000000008a
:206b4b00000000009089c0cc000000039f00f000000d1000000000003400000000000000a2
:206b6b00000000000000000000000000000000000000000c374c000000000000000000007b
:206b8b0000000000000001000000000003c03e90000c028000000000010d4000000000007c
:0d6bab0000000000000000002000000000bd
:206bb80000000000000d7ccc0000e2603ca330000000000000000000000000000000000017
:206bd800000000000000000000000000000000000000020422000013000000000000000062
:206bf800000000000000000000000000000001c40020000000000000000000000000000098
:0d6c180000000000000000400680000000a9
:206c250000000000000b3330000002402cbcc00000000000000000000000000000000000f7
:206c4500000000000000000000000000000000000000000440cf00200000000000000000fc
