:02000000ff00ff
:080002004c6174746963650030
:17000a00694345637562653220323032302e31322e32373934330071
:16002100506172743a2069434534304858384b2d43423133320018
:1a003700446174653a204a756e203120323032322030303a30383a313800ae
:0200510000ffae
:040053007eaa997e6a
:02005700510056
:0200590001059f
:03005b00920020f0
:03005e00620367d3
:0300610072011019
:0300640082000017
:02006700110086
:02006900010193
:20006b00000000000000000000000000000000000000000000000000000000000000000075
:20008b00000000000000000000000000000000000000000000000000000000000000000055
:2000ab0000000000000000000000000800000000000000000000000000000000000000002d
:0d00cb000000000000000000000000000028
:2000d800000000000000000000000000000000000000000000000000000000000000000008
:2000f8000000000000000000000000000000000000000000000000000000000000000000e8
:200118000000000000000000000000000000000000000000000000000000000000000000c7
:0d01380000000000000000000000000000ba
:2001450000000000000000000000000000000000000000000000000000000000000000009a
:2001650000000000000000000000000000000000000000000000000000000000000000007a
:20018500000000000000000000000004000000000000000000000000000000000000000056
:0d01a5000000000000000400000000000049
:2001b20000000000000000000000000000000000000000000000000000000000000000002d
:2001d20000000000000000000000000000000000000000000000000000000000000000000d
:2001f2000000000000000000000000000000000000000000000000000000000000000000ed
:0d02120000000000000000000000000000df
:20021f000000000000000000000000000000000000000000000000000000000000000000bf
:20023f0000000000000000000000000000000000000000000000000000000000000000009f
:20025f00000000000000000000000008000000000000000000000000000000000000000077
:0d027f000000000000000000000000000072
:20028c00000000000000000000000000000000000000000000000000000000000000000052
:2002ac00000000000000000000000000000000000000000000000000000000000000000032
:2002cc00000000000000000000000000000000000000000000000000000000000000000012
:0d02ec000000000000000000000000000005
:2002f9000000000000000000000000000000000000000000000000000000000000000000e5
:200319000000000000000000000000000000000000000000000000000000000000000000c4
:200339000000000000000000000000000000000000000000000000000000000000000000a4
:0d0359000000000000000000000000000097
:20036600000000000000000000000000000000000000000000000000000000000000000077
:20038600000000000000000000000000000000000000000000000000000000000000000057
:2003a600000000000000000000000000000000000000000000000000000000000000000037
:0d03c600000000000000000000000000002a
:2003d30000000000000000000000000000000000000000000000000000000000000000000a
:2003f3000000000000000000000000000000000000000000000000000000000000000000ea
:200413000000000000000000000000000000000000000000000000000000000000000000c9
:0d04330000000800000000000010000000a4
:2004400000000000000000000000000000000000000000000000000000000000000000009c
:2004600000000000000000000000000000000000000000000000000000000000000000007c
:2004800000000000000000000000000000000000000000000000000000000000000000005c
:0d04a000000000000000000000000000004f
:2004ad0000000000000000000000000000000000000000000000000000000000000000002f
:2004cd0000000000000000000000000000000000000000000000000000000000000000000f
:2004ed000000000000000000000000000000000000000000000000000000000000000000ef
:0d050d0000000000000000000000000000e1
:20051a000000000000000000000000000000000000000000000000000000000000000000c1
:20053a000000000000000000000000000000000000000000000000000000000000000000a1
:20055a0000000000000000000000000000000000000000000000000000000000000000027f
:0d057a000000000000000000000000000074
:20058700000000000000000000000000000000000000000000000000000000000000000054
:2005a700000000000000000000000000000000000000000000000000000000000000000034
:2005c700000000000000000000000000000000000000000000000000000000000000000014
:0d05e7000000000000000000000000000007
:2005f4000000000000000000000000000000000000000000000000000000000000000000e7
:200614000000000000000000000000000000000000000000000000000000000000000000c6
:200634000000000000000000000000000000000000000000000000000000000000000001a5
:0d0654000000000000000000000000000099
:20066100000000000000000000000000000000000000000000000000000000000000000079
:20068100000000000000000000000000000000000000000000000000000000000000000059
:2006a100000000000000000000000000000010000000000000000000000000000000000029
:0d06c100000000000000000000100000001c
:2006ce0000000000000000000000000000000000000000000000000000000000000000000c
:2006ee000000000000000000000000000000000000000000000000000000000000000000ec
:20070e000000000000000000000000000000000000000000000000000000000000000002c9
:0d072e0000000000000000000000000000be
:20073b0000000000000000000000000000000000000000000000000000000000000000009e
:20075b00000000000000000000000000000000000000000004000028000000000000000052
:20077b0000000000000000000000000000000000000000000000000000000000000000005e
:0d079b000000000000000000000000000051
:2007a800000000000000000000000000000000000000000000000000000000000000000031
:2007c80000000000000000000000000000000000000010003d400000000000000000000084
:2007e8000000000000000000000000000000000000000000000000000000000000000000f1
:0d08080000000000000000000000000000e3
:200815000000000000000000000000000000000000000000000000000000000000000000c3
:2008350000000000000000000000000000000000000e000002000000000000000000000093
:20085500000000000000000000000000000000000000000000000000000000000000000083
:0d0875000000000000001000000000000066
:20088200000000000000000000000000000000000000000000000000000000000000000056
:2008a200000000000000000000000000000000000000000003c00000000000000000000073
:2008c200000000000000000000000000000000000000000000000000000000000000000016
:0d08e2000000000000000000000000000009
:2008ef000000000000000000000000000000000000000000000000000000000000000000e9
:20090f000000000000000000000000000000000000000016020000000000000000000000b0
:20092f000000000000000000000000000000000000000000000000000000000000000000a8
:0d094f00000000000000100000000000008b
:20095c0000000000000000000000000000000000000000000000000000000000000000007b
:20097c00000000000000000000000000000000000000000624c00000000000000000000071
:20099c0000000000000000000000000000000000000000000000000000000000000000003b
:0d09bc00000000000000000000000000002e
:2009c90000000000000000000000000000000000000000000000000000000000000000000e
:2009e9000000000000000000000000000000000000010000700000000000000000000c0071
:200a090000000000000000000000000000000000000040000000000000000000000000008d
:0d0a290000000000000000000000000000c0
:200a36000000000000000000000000000000000000000000000000000000000000000000a0
:200a56000000000000000000000000000000000000010024274000000000000000000000f4
:200a7600000000000000000000000000000000000000400000000000000000000000000020
:0d0a96000000000000000000000000000053
:200aa300000000000000000000000000000000000000000000000000000000000000000033
:200ac300000000000000000000000000000000000000001e03e040000000000000000000d2
:200ae3000000000000000000000000000000000000000000000000000000000000000000f3
:0d0b030000000000000000000000000000e5
:200b10000000000000000000000000000000000000000000000000000000000000000000c5
:200b3000000000000000000000000000000000000000062403400000000000000000000038
:200b5000000000000000000000000000000000000000000000000000000000000000000085
:0d0b70000000000000000000000000000078
:200b7d00000000000000000000000000000000000000000000000000000000000000000058
:200b9d00000000000000000000000000000000000000000000010000000000000000000037
:200bbd000000000000280000000000000000000000000000000000000000000000000000f0
:0d0bdd00000000000000000000000000000b
:200bea000000000000000000000000000000000000000000000000000000000000000000eb
:200c0a00000000000000000000000000000000000000003c014b0000000000000000000042
:200c2a000000000000000000000000000000000000000000000000000000000000000000aa
:0d0c4a00000000000000000000000000009d
:200c570000000000000000000000000000000000000000000000000000000000000000007d
:200c770000000000000000000000000000000000000000000000000000000000000000005d
:200c970000000000000000000000000000000000000000000000000000000000000000003d
:0d0cb7000000000000000000000000000030
:200cc400000000000000000000000000000000000000000000000000000000000000000010
:200ce4000000000000000000000000000000000000000000024c00000000000000000000a2
:200d04000000000000000000000000000000000000000000000000000000000000000000cf
:0d0d240000000000000000000000000000c2
:200d31000000000000000000000000000000000000000000000000000000000000000000a2
:200d510000000000000000000000000000000000000c000e06000000000000000000000062
:200d7100000000000000000000000000000000000000000000000000004000000000000022
:0d0d91000200000000000000000000000053
:200d9e00000000000000000000000000000000000000000000000000000000000000000035
:200dbe0000000000000010000000000000000000000c000e394c0000000000000000200046
:200dde000000000000000000000000000000000000000000000000000020000000000000d5
:0d0dfe0004000000000000000000000000e4
:200e0b000000000000000000000000000000000000000000000000000000000000000000c7
:200e2b00000000000000000000000000000000000000100022000000000000000000000075
:200e4b00000000000000000000000000000000000000000000000000000000000000000087
:0d0e6b00000000000000000000000000007a
:200e780000000000000000000000000000000000000000000000000000000000000000005a
:200e9800000000000000000000000000000000000000100042c00000000000000000000028
:200eb80000000000000000000000000000000000000000000000000000000000000000001a
:0d0ed800000000000000000000000000000d
:200ee5000000000000000000000000000000000000000000000000000000000000000000ed
:200f050000000000000000000000000000000000000e10006c000000000000000000000042
:200f25000000000000000000000000000000000000000000000000000000000000000000ac
:0d0f4500000000000000000000000000009f
:200f520000000000000000000000000000000000000000000000000000000000000000007f
:200f720000000000000000000000000000000000000010006dc00000000000000000000022
:200f920000000000000000000000000000000000000000000000000000000000000000003f
:0d0fb2000000000000000000000000000032
:200fbf0000000000000000000000000000000000000000000000000000000000000008000a
:200fdf0000000000000000000000000000000000000c0000020000000000000000000000e4
:200fff000000000000000000000000000000000000000000000000000000000000000000d2
:0d101f0000000000000000000000000000c4
:20102c000000000000000000000000000000000000000000000000000000000000000000a4
:20104c00000000000000000000000000000000000004001c01c000000000000000000000a3
:20106c00000000000000000000000000000000000000000000000000000000000000000064
:0d108c000000000000000000000000000057
:20109900000000000000000000000000000000000000000000000000000000000000000037
:2010b900000000000000000000000000000000000000000000000000000000000000000017
:2010d9000000000000000000000000000000000000000000000000000000000000000000f7
:0d10f90000000000000000000000000000ea
:201106000000000000000000000000000000000000000000000000000000000000000000c9
:20112600000000000000000000000000000000000000000002400000000000000000000067
:20114600000000000000000000000010000000000000000000000000000000000000000079
:0d116600000000000000000000000000007c
:2011730000000000000000000000000000000000000000000000000000000000000000005c
:20119300000000000000000000000000000000000000000005e00000000000000000000057
:2011b30000000000000000000000000000000000000000000000000000000000000000001c
:0d11d300000000000000000000000000000f
:2011e0000000000000000000000000000000000000000000000000000000000000000000ef
:20120000000000000000000000000000000000000000000031e0200000000000000000009d
:201220000000000000000000000000000000000000000000000000000000000000000000ae
:0d12400000000000000000000000000000a1
:20124d00000000000000000000000000000000000000000000000000000000000000000081
:20126d0000000000000000000000000000000000000000202200000000000000000000001f
:20128d00000000000000000000000000000000000000000000000000000000000000000041
:0d12ad000000000000000000000000000034
:2012ba00000000000000000000000000000000000000000000000000000000000000000014
:2012da00000000000000000000000000000000000000000c664a0000000000000000000038
:2012fa000000000000000000000000000000000000000000000000000000000000000000d4
:0d131a0000000000000000000000000000c6
:201327000000000000000000000000000000000000000000000000000000000000000000a6
:20134700000000000000000000000000000000000000001e740100000000000000000000f3
:20136700000000000000000000000000000000000000000000000000000000000000000066
:0d1387000000000000000000000000000059
:20139400000000000000000000000000000000000000000000000000000000000000000039
:2013b400000000000000000000000000000000000000000677c90003800000000000000050
:2013d4000000000000000000000000000000000000000000000000000000000000000000f9
:0d13f40000000000000000000000000000ec
:201401000000000000000000000000000000000000000000000000000000000000000000cb
:2014210000000000000000000000000000000000000c000c00010000000000000000000092
:2014410000000000000000000000000000000000000000000000000000000000000000008b
:0d146100000000000000000000000000007e
:20146e0000000000000000000000000000000000000000000000000000000000000000005e
:20148e00000000000000000000000000000000000004000227cd0001000000000000000043
:2014ae0000000000000000000000000000000000000000000000000000000000000000001e
:0d14ce000000000000000000000000000011
:2014db000000000000000000000000000000000000000000000000000000000000000000f1
:2014fb000000000000000000000000000000000000000000320000805000000000000000cf
:20151b000000000000000000000000000000000000000000000000000000000000000000b0
:0d153b0000000000000000000000000000a3
:20154800000000000000000000000000000000000000000000000000000000000000000083
:20156800000000000000000000000000000000000000100001c00000000000000000000092
:20158800000000000000000000000000000000000000000000000000000000000000000043
:0d15a8000000000000000000000000000036
:2015b500000000000000000000000000000000000000000000000000000000000000000016
:2015d50000000000000000000000000000000000000e0000000000000000000000000000e8
:2015f5000000000000000000000000000000000000000000000000000000000000000004d2
:0d16150000000000000000000000000000c8
:201622000000000000000000000000000000000000000000000000000000000000000000a8
:20164200000000000000000000000000000000000000000001400000000000000000000047
:2016620000000000000000000000000a00000000000000000000000000000000000000005e
:0d168200000000000000000000000000005b
:20168f0000000000000000000000000000000000000000000000000000000000000000003b
:2016af0000000000000000000000000000000000000000007a000000400000000000000061
:2016cf000000000000000000000000000000000000000000000000000000000000000004f7
:0d16ef0000000000000000000000000000ee
:2016fc000000000000000000000000000000000000000000000000000000000000000000ce
:20171c0000000000000000000000000000000000000000bc60c00001a00000000000000030
:20173c0000000000000000000000000000000000000000000000000000000000000000008d
:0d175c000000000000000000000000000080
:20176900000000000000000000000000000000000000000000000000000000000000000060
:20178900000000000000000000000000000000000000000e000000000000000000000e0024
:2017a9000000000000000000000000000000000000004000000000000000000000000000e0
:0d17c90000000000000000e0000000000033
:2017d6000000000000000000000000000000000000000000000000000000000000000000f3
:2017f60000000000000000000000000000000000000000062340000000000000000000006a
:20181600000000000000000000000010000000000000400000000000000000000000000062
:0d18360000000000000000000000000000a5
:20184300000000000000000000000000000000000000000000000000000000000000000085
:20186300000000000000000000000000000000000000000c00c000285040000000000000e1
:20188300000000000000000000000000000000000000000000000000000000000000000045
:0d18a3000000000000000000000000000038
:2018b000000000000000000000000000000000000000000000000000000000000000000018
:2018d000000000000000000000000000000000000000000603c0200000000000000000000f
:2018f0000000000000000000000000000000000000000000000000000000000000000000d8
:0d19100000000000000000000000000000ca
:20191d000000000000000000000000000000000000000000000000000000000000000000aa
:20193d00000000000000000000000000000000000000010000010000000000000000008008
:20195d00000000000100000000000000000000000000000000000000000000000000000069
:0d197d00000000000000000000000000005d
:20198a0000000000000000000000000000000000000000000000000000000000000000003d
:2019aa0000000000000000000000000000000000000000bc024b00000000000000000140d3
:2019ca0000000000008000000000000000000000000000000000000000000000000000007d
:0d19ea0000000000000000000000000000f0
:2019f7000000000000000000000000000000000000000000000000000000000000000000d0
:201a170000000000000000000000000000000000000000207000000000000000000000001f
:201a370000000000000000000000000000000000000000000000000000000000000000008f
:0d1a57000000000000000000000000000082
:201a6400000000000000000000000000000000000000000000000000000000000000000062
:201a8400000000000000000000000000000000000000001c434c0000000000000000000097
:201aa400000000000000000000000000000000000000000000000000000000000000000022
:0d1ac4000000000000000000000000000015
:201ad1000000000000000000000000000000000000000000000000000000000000000000f5
:201af100000000000000000000000000000000000004000c020000000000000000000000c3
:201b11000000000000000000000000000000000000000000000000000000000000000000b4
:0d1b310000000000000000000000000000a7
:201b3e00000000000000000000000000000000000000000000000000000000000000000087
:201b5e0000000000000000000000000000000000000c0002014e000000000000000000000a
:201b7e00000000000000000000000000000000000000000000000000000000000000000047
:0d1b9e00000000000000000000000000003a
:201bab0000000000000000000000000000000000000000000000000000000000000000001a
:201bcb00000000000000000000000000000000000000b01e0200000000000000000000002a
:201beb000000000000000000000000000000000000000000000000000000000000000000da
:0d1c0b0000000000000000000000000000cc
:201c18000002000000000000000000000000000000000000000000000000000000000000aa
:201c380000000000000000000000000000000000000010823ec000000000000000000000fc
:201c580000000000000000000000000000000000000000000000000000000000000000006c
:0d1c7800000000000000000000000000005f
:201c85000030000000000000000000000000000040000000000000000000000000000000cf
:201ca50000000000000000000000000000000000000e10006a000000000000000000000097
:201cc5000000000000000000000000000800000000000000000000000100000000000004f2
:0d1ce50000000000000000000000000000f2
:201cf200004000000000000000000000000000004000000000000000000000000000000052
:201d1200000000000000000000000000000000000000100c42c00000000000000000000093
:201d320000000000000000000000000014000000000000000000000000000000000000007d
:0d1d52000000000000000000000000000084
:201d5f00000000000000000000000000000000000000000000000000000000000000000064
:201d7f0000000000000000000000000000000000000400007c0000000000000000000001c3
:201d9f00000000000000000000000000000000000000000000000000000000000000000024
:0d1dbf000000000000000000000000000017
:201dcc000000000000000000000000000000000000000000000000000000000000000000f7
:201dec00000000000000000000000000000000000004040039c000000000000000000000d6
:201e0c000000000000000000000000000000000000000000000000000000000000000000b6
:0d1e2c0000000000000000000000000000a9
:201e3900000000000000000000000000000000000000000000000000000000000000000089
:201e5900000000000000000000000000000000000000000002000000000000000000000067
:201e79000000000000300000000000000000000000004000000000000000000000000000d9
:0d1e9900000000000000000000000000003c
:201ea60000000000000000000000000000000000000000000000000000000000000000001c
:201ec6000000000000000000000000000000000000000000024000000000000000000000ba
:201ee60000000000000000000000000000000000000040000000000000000000000000009c
:0d1f060000000000000000000000000000ce
:201f13000000000000000000000000000000000000000000000000000000000000000000ae
:201f3300000000000000000000000000000000000000000001e004000000000000000000a9
:201f530000000000000000000000000000000000000000000000000000000000000000006e
:0d1f73000000000000000000000000000061
:201f8000000000000000000000000000000000000000000000000000000000000000000041
:201fa000000000000000000000000000000000000000000026e0000000000000000000001b
:201fc000000000000000000000000000000000000000000000000000000001000000000000
:0d1fe00000000000000000000000000000f4
:201fed00400000000000000000000000000000000000000000000000000000000000000094
:20200d00000000000000000000000000000000000000001c20010000000000000000000076
:20202d00000000000000000000000000000000000000000000000000000000000000000093
:0d204d000000000000000000000000000086
:20205a000c000000000000000000000000000000000000000000000000000000000000005a
:20207a000000000000000000000000000000000000000000604c000000400000000000005a
:20209a00000000000000000000000000000000000000000000000000000000000000000026
:0d20ba000004000000000000000000000015
:2020c7000000000000000000000000000000000000000000000000000000000000000000f9
:2020e700000000000000000000000000000000000000048c00010000000000000000000048
:202107000000000000000000000000000000000000000000000000000000000000000000b8
:0d21270000000000000000000000000000ab
:2021340080000000000000000000000000000000000000000000000000000000000000000b
:202154000000000000000000000000000000000000000886034e000000000000000000008c
:2021740000000000000000000000000000000000000000000000000000000000000000004b
:0d219400000000000000000000000000003e
:2021a1004000000000000000000000000000000000000000000000000000000000000000de
:2021c1000000000000000000000000000000000000040004040000000000000000000000f2
:2021e1000000000000000000000000000000000000000000000000000000000000000000de
:0d22010000000000000000000000000000d0
:20220e000000000000000000000000000000000000000000000000000000000000000000b0
:20222e0000000000000000000000000000000000000400002f4e000000000000000000000f
:20224e00000000000000000000000000000000000000000000000000000000000000000070
:0d226e000000000000000000000000000063
:20227b00000000000000000000000000000000000000000000000000000000000000000043
:20229b000000000000000000000000000000000000000004200000001000000000000000ef
:2022bb00000000000000000000000000000000000000000000000000000000000000000003
:0d22db0000000000000000000000000000f6
:2022e8000000000000000000000000000000000000000000000000000000000000000000d6
:2023080000000000000000000000000000000000000010064140000000000000000000001e
:20232800000000000000000000000000000000000000000000000000000000000000000095
:0d2348000000000000000000000000000088
:20235500000000000000000000000000000000000000000000000000000000000000000068
:2023750000000000000000000000000000000000000e000000000000200000000001000019
:20239500000000000000000000000000000000000000000000000000000000000000000028
:0d23b500000000000000100000000000000b
:2023c2000000000000000000000000000000000000000000000000000000000000000000fb
:2023e200000000000000000000000000000000000000002c0140000050000000000000001e
:202402000000000000000000000000000000000000000000000000000000000000000000ba
:0d24220000000000000000000000000000ad
:20242f0000000000000000000000000000000000000000000000000000000000000000008d
:20244f0000000000000000000000000000000000000000167a00002040000000000100007c
:20246f0000000000000000000000000000000000000000000000000000000000000000004d
:0d248f000000000000001000000000000030
:20249c00000000000000000000000000000000000000000000000000000000000000000020
:2024bc00000000000000000000000000000000000000000e34400001a000000000000000dd
:2024dc000000000000000000000000000000000000000000000000000000000000000000e0
:0d24fc0000000000000000000000000000d3
:202509000000000000000000000000000000000000000000000000000000000000000000b2
:20252900000000000000000000000000000000000000000c02000000000000000000000084
:20254900000000000000000000000000000000000000000000000000000000000000000072
:0d2569000000000000000000000000000065
:20257600000000000000000000000000000000000000000000000000000000000000000045
:202596000000000000000000000000000000000000000002274000000000000000000000bc
:2025b6000000000000000000000000100000000000000000000000000000000000000000f5
:0d25d60000000000000000000000000000f8
:2025e3000000000000000000000000000000000000000000000000000000000000000000d8
:20260300000000000000000000000000000000000000000001e000000000000000000000d6
:20262300000000000000000000000000000000000000000000000000000000000000000097
:0d264300000000000000000000000000008a
:2026500000000000000000000000000000000000000000000000000000000000000000006a
:202670000000000000000000000000000000000000000000034020002000000000000000c7
:2026900000000000000000000000000000000000000000000000000000000000000000002a
:0d26b000000000000000000000000000001d
:2026bd000000000000000000000000000000000000000000000000000000000000000000fd
:2026dd0000000000000000000000000000000000000000007a000000000000000001000062
:2026fd00000000000400000000000000000000000000002000000000000000000000000099
:0d271d0000000000000000000000000000af
:20272a0000000000000000000000000000000000000000000000000000000000000000048b
:20274a00000000000000000000000000000000000000000002c800000000000000000000a5
:20276a0000000000000000000000000000000000000000400000000000000000000000000f
:0d278a000000000000000000000000000042
:20279700000000000000000000000000000000000000000000000000000000000000000022
:2027b700000000000000000000000000000000000000008002000000000000000000000080
:2027d7000000000000000000000000000000000000000000000000000000000000000000e2
:0d27f70000000000000000000000000000d5
:202804000000000000000000000000000000000000000000000000000000000000000000b4
:202824000000000000000000000000000000000000000080014800000000000000000000cb
:20284400000000000000000000000000000000000000000000000000000000000000000074
:0d2864000000000000000000000000000067
:20287100000000000000000000000000000000000000000000000000000000000000000047
:2028910000000000000000000000000000000000000c002e000000000000000000000000ed
:2028b100000000000000000000000000000000000000000000000000000000000000000007
:0d28d10000000000000000000000000000fa
:2028de000000000000000000000000000000000000000000000000000000000000000000da
:2028fe0000000000000000000000000000000000000c0036024b000000000000000000002b
:20291e00000000000000000000000000000000000000000000000000000000000000000099
:0d293e00000000000000000000000000008c
:20294b0040000000000000000000000000000000000000000000000000000000000000002c
:20296b00000000000000000000000000000000000000101e0200000000000000000000001c
:20298b0000000000000000000000000000000000000000000000000000000000000000002c
:0d29ab00000000000000000000000000001f
:2029b8000000000000000000000000000000000000000000000000000000000000000000ff
:2029d800000000000000000000000000000000000000100202c0000000000000000000000b
:2029f8000000000000000000000000000000000000000000000000000000000000000000bf
:0d2a180000000000000000000000000000b1
:202a2500000000000000000000000000000000000000000000000000000000000000000091
:202a450000000000000000000000000000000000000e101c6a0000002000000000000000ad
:202a6500000000000000000000000000000000000000000000000000000000000000000051
:0d2a85000000000000000000000000000044
:202a92008000000000000000000000000000000000000000000000000000000000000000a4
:202ab200000000000000000000000000000000000000100042400000400000000000000032
:202ad2000000000000000000000000000000000000000000000000000000000000000000e4
:0d2af20000000000000000000000000000d7
:202aff0048000000000000000000000000000000000000000000000000000000000000006f
:202b1f0000000000000000000000000000000000000c000002000000000000000000000088
:202b3f00000000000000000000000000000000000000000000000000000000000000000076
:0d2b5f000000000000000000000000000069
:202b6c000c000000000000000000000000000000000000000000000000000000000000003d
:202b8c00000000000000000000000000000000000004000001c00000000000000000000064
:202bac00000000000000000000000000000000000000000000000000000000000000000009
:0d2bcc0000000000000000000000000000fc
:202bd9000001000000000000000000000000000000000000000000000000000000000000db
:202bf9000000000000000000000000000000000000000000020000000000000000000000ba
:202c1900000000000038000000000000000000000000400000000000000000000000000023
:0d2c3900000000000000000000000000008e
:202c4600003c00000000000000000000000000000000000000000000000000000000000032
:202c6600000000000000000000000000000000000000000036c00000000000000000000058
:202c86000000000000000000000000100000000000004000000000000000000000000000de
:0d2ca6000000000000000000000000000021
:202cb300000000000000000000000000000000000000000000000000000000000000000001
:202cd30000000000000000000000000000000000000000000760000000000000000000007a
:202cf3000000000000000000000000000000000000000000000000000000000000000000c1
:0d2d130000000000000000000000000000b3
:202d2000000000000000000000000000000000000000000000000000000000000000000093
:202d4000000000000000000000000000000000000000000033e02000000000000000000040
:202d6000000000000000000000000000000000000000000000000000000000000000000053
:0d2d80000000000000000000000000000046
:202d8d00000000000000000000040000000000000000000000000000000000000000000022
:202dad0000000000000000000000000000000000000000207801004000000000000000002d
:202dcd000000000000000000000000000000000000000000000000000000000000000000e6
:0d2ded0000000000000000001000000000c9
:202dfa000000000000000000000200000000000000000000000000000000000000000000b7
:202e1a00000000000000000000000000000000000000000c244800400000000000000000e0
:202e3a00000000000000000000000000000000000000000000000000000000000000000078
:0d2e5a00000000000000000000000000006b
:202e670000000000000000000000000000000000000000000000000000000000000000004b
:202e87000000000000000000000000000000000000000004740000000000000000010000b2
:202ea70000000000000000000000000000000000000000000000000000000000000000000b
:0d2ec70000000000000000000000000000fe
:202ed4000000000000000000000000000000000000000000000000000000000000000000de
:202ef400000000000000000000000000000000000000000277ce0000000000000000000077
:202f140000000000000000000000000000000000000000000000000000000000000000009d
:0d2f34000000000000000000000000000090
:202f4100000000000000000000000000000000000000000000000000000000000000000070
:202f610000000000000000000000000000000000000c000c78010001000000000000a0001e
:202f8100000000000000000000000000000000000000000000000000000000000000000030
:0d2fa1000000000000000000000000000023
:202fae00000000000000000000000000000000000000000000000000000000000000000003
:202fce00000000000000000000000000000000000004002443ce0002000000000000400068
:202fee000000000000000400000000000000000000000000000000000000000000000000bf
:0d300e0000000000000000000000000000b5
:20301b00000000000000000000000000000000000000000000000000000000000000000095
:20303b00000000000000000000000000000000000001001c22000000100000000000010025
:20305b00000000000000000000000000000000000000000000000000000000000000000055
:0d307b000000000000000000000000000048
:20308800000000000000000000000000000000000000000000000000000000000000000028
:2030a800000000000000000000000000000000000001100241c00010000000000000008064
:2030c800000000000000009000000000000000000000000000000000000000000000000058
:0d30e80000000000000000000000000000db
:2030f5000000000000000000000000000000000000000000000000000000000000000000bb
:2031150000000000000000000000000000000000000e00000000000000000000000000008c
:2031350000000000000000800000000060000000000010000000000000000000000000008a
:0d315500000000000000000000000000006d
:2031620000000000000000000000000000000000000000000000000000000000000000004d
:203182000000000000000000000000000000000000000000004000000000000000000000ed
:2031a200000000000000010000000000000000000000080000000000000000000000000004
:0d31c2000000000000000000000000000000
:2031cf000000000000000000000000000000000000000000000000000000000000000000e0
:2031ef0000000000000000000000000000000000000000007a000003000000000000000043
:20320f000000000000000401f00001000000000000000000000000000000000000000004a5
:0d322f000000000000001000000000000082
:20323c00000000000000000000000000000000000000000000000000000000000000000072
:20325c00000000000000000000000000000000000000000040c00000000000000000000052
:20327c000000000000000009f0100000000000000000000000000000000000000000000029
:0d329c000000000000000000000000000025
:2032a900000000000000000000000000000000000000000000000000000000000000000005
:2032c900000000000000000000000000000000000000000e060000100000000000000e8033
:2032e90002005a108000000000000000000000000000400000000000000000000000000099
:0d33090000000000000000000000000000b7
:20331600000000000000000000000000000000000000000000000000000000000000000097
:2033360000000000000000000000000000000000000000022f4000200000000000000140a5
:2033560001c0a50000000000000000000000000000004000000000000000000000000000b1
:0d337600000000000000000000000000004a
:2033830000000000000000000000000000000000000000000000000000000000000000002a
:2033a300000000000000000000000000000000000001000c78c00828000000000000000095
:2033c300000000000200800000000000000000000000000000000000000000000000000068
:0d33e30000000000000000000000000000dd
:2033f0000000000000000000000000000000000000000000000000000000000000000000bd
:20341000000000000000000000000000000000000001000043c00010200000000000000068
:2034300000000000000030000000000000000000000000000000000000000000000000004c
:0d345000000000000000000000000000006f
:20345d0000000000000000000000000000000000000000000000000000000000000000004f
:20347d00000000000000000000000000000000000000005c040000000000000000000000cf
:20349d0000000000010001c00000000000000000000000200000000000000000000000002d
:0d34bd000000000000000000000000000002
:2034ca000000000000000000000000000000000000000000000000000000000000000000e2
:2034ea00000000000000000000000000000000000000003e3a4d00280000000000000000d5
:20350a000000000000800000000000000000000000000040000000000000000000000000e1
:0d352a000000000000000000000000000094
:20353700000000000000000000000000000000000000000000000000000000000004000070
:203557000000000000001000000000000000000000000000700100000000000000000000d3
:20357700000000000000000000000000000000000000000000000000000000000000000034
:0d3597000000000000000000000000000027
:2035a400000000000000000000000000000000000000000000000000000000000000000007
:2035c4000000000000000000000000000000000000000000434d0002000000000000040051
:2035e4000000000000000000000000000000000000000000000000000000000000000000c7
:0d36040000000000000000000000000000b9
:20361100000000000000000000000000000000004000000000000000000000000000000059
:20363100000000000000000000000000000000000004000c06010000200000000000000042
:203651000000000000000000000000000000000000000b80000000000000000000000000ce
:0d367100000000000000004000000000000c
:20367e000000000000000000000000000000000040000000000000000000000000000000ec
:20369e0000000000000000000000000000000000000c00003fcc0000100000000000001cc9
:2036be000000000000000000000000000000000000000000000000000000000000000000ec
:0d36de0000000000000000000000000000df
:2036eb000000000000000000000000000000000000000000000000000000000000000000bf
:20370b00000000000000000000000000000000000000b0000000008000000000000000006e
:20372b0000000000000000000000000000000000000000000000000000000000000000007e
:0d374b000000000000000000000000000071
:20375800000000000000000000000000000000000000000000000000000000000000000051
:2037780000000000000000000000000000000000000010803fc00000000000000000200082
:20379800000000000000000000000000000000000000000000000000000000000000000011
:0d37b8000000000000000000000000000004
:2037c5000000000000000000000000000000000000000000000000000000000000000000e4
:2037e50000000000000000000000000000000000000e10006a00000000000000000000003c
:2038050000000000000000000000000008000000000000000000000000000000000000009b
:0d3825000000000000000000000000000096
:20383200000000000000000000000000000000000000000000000000000000000000000076
:20385200000000000000000000000000000000000000103c7ec000000000000000000000cc
:20387200000000000000000000000000140000000000000000000000000000000000000022
:0d3892000000000000000000000000000029
:20389f00000000000000000000000000000000000000000000000000000000000000000009
:2038bf000000000000000000000000000000000000040400020000000000000000000000df
:2038df000000000000000000000000000000000000000000000000000000000000000000c9
:0d38ff0000000000000000000000000000bc
:20390c0000000000000000000000000000000000000000000000000000000000000000009b
:20392c00000000000000000000000000000000000004080026c00000000000000000000089
:20394c0000000000000000000000000000000000000000000000000000000000000000005b
:0d396c00000000000000000000000000004e
:2039790000000000000000000000000000000000000000000000000000000000000000002e
:203999000000000000000000000000000000000000000020000000000000000000000000ee
:2039b9000000000000000000000000000000000000000000000000000001000000000000ed
:0d39d90000000000000000000000000000e1
:2039e6000000000000000000000000000000000000000000000000000000000000000000c1
:203a0600000000000000000000000000000000000000003c03400000000000000000000021
:203a2600000000000000000000000000000000000000000000000000000000000000000080
:0d3a46000000000000000000000000000073
:203a5300000000000000000000000000000000000000000000000000000000000000000053
:203a7300000000000000000000000000000000000000000001e00000004000000000000012
:203a9300000000000000000000000000000000000000000000000000000000000000000013
:0d3ab3000000000000000000000000000006
:203ac0000000000000000000000000000000000000000000000000000000000000000000e6
:203ae000000000000000000000000000000000000000000026e04000000000000000000080
:203b00000000000000000000000000000000000000000000000000000000000000000000a5
:0d3b20000000000000000000000000000098
:203b2d00000000000000000000000000000000000000000000000000000000000000000078
:203b4d00000000000000000000000000000000000000001c22010000000000000000000019
:203b6d00000000000000000000000004000000000000000000000000000000000000000034
:0d3b8d00000000000000000000000000002b
:203b9a0000000000000000000000000000000000000000000000000000000000000000000b
:203bba000000000000000000000000000000000000000000794c0000000000000000000026
:203bda0000000000000000000000000a0000000000000000000000000000000000000000c1
:0d3bfa0000000000000000000000000000be
:203c070000000000000000000000000000000000000000000000000000000000000000009d
:203c2700000000000000000000000000000000000000010422000000000000000000000056
:203c470000000000000000000000000000000000000000000000000000000000000000005d
:0d3c67000000000000000000000000000050
:203c7400000000000000000000000000000000000000000000000000000000000000000030
:203c94000000000000000000000000000000000000000200024e00000000000000000000be
:203cb4000000000000000000000000000000000000000000000000000000000000000000f0
:0d3cd40000000000000000000000000000e3
:203ce1000000000000000000000000000000000000000000000000000000000000000000c3
:203d010000000000000000000000000000000000000400000201000000000000000000009b
:203d2100000000000000000000000000000000000000000000000000000000000000000082
:0d3d41000000000000000000000000000075
:203d4e00000000000000000000000000000000000000000000000000000000000000000055
:203d6e000000000000000000000000000000000000041004364e0000000000000000000099
:203d8e00000000000200000000000000000000000000000000000000000000000000000013
:0d3dae000000000000000000000000000008
:203dbb000000000000000000000000000000000000000000000000000000000000000000e8
:203ddb000000000000000000000000000000000000000000000000000000000000010000c7
:203dfb00000000000080000000000000000000000000000000de29400000000000000000e1
:0d3e1b00000000000000000000000000009a
:203e280000000000000000000000000000000000000000000000000000000000000000007a
:203e480000000000000000000000000000000000000000000000000020000000000000003a
:203e680000000000000000000000000000000000000000000fb01540000000000000000026
:0d3e8800000000000000000000000000002d
:203e950000000000000000000000000000000000000000000000000000000000000000000d
:203eb5000000000000000000000000000000000000000000000000000040000000000000ad
:203ed500000000000000800000000000000000000000000500000000000000000000000048
:0d3ef50002000000000000000000000000be
:203f020000000000000000000000000000000000000000000000000000000000000000009f
:203f220000000000000000000000000000000000000000000000000000000000000000007f
:203f4200000000000000f00000000000c000000000000050800000000000000000000000df
:0d3f6200050000000000000000000000004d
:203f6f00000000000000000000000000000000000000000000000000000000000000000032
:203f8f00000000000000000000000000000000000000000000000000000000000001000011
:203faf00000000000000000000000000000000000000000000b3bd40000000000000000042
:0d3fcf0000000000000000000000000000e5
:203fdc000000000000000000000000000000000000000000000000000000000000000000c5
:203ffc00000000000000000000000000000000000000000000000010800000000000000015
:20401c0000000000000000f000000000000000000000000000582800000000000000000014
:0d403c000000000000000000000000000077
:20404900000000000000000000000010000000000000000000000000000000000000000047
:20406900000000000000000000000000000000000000000000000000000000000000000037
:2040890000000000000000e000000000000000000000000500000000000000000000000032
:0d40a90000000000000000600000000000aa
:2040b6000000000000000000000000000000000000000000000000000000000000000000ea
:2040d6000000000000000000000000000000000000000000000000000000000000000000ca
:2040f60000000000000001000000000003c000000000080f8000000000000000000000004f
:0d411600000000000000000000000000009c
:2041230000000000000000000000000000000000000000000000000000000000000000007c
:204143000000000000000000000000000000000000000000000000038000000000000000d9
:20416300000000000000000000000000000036ef500000038c362940000000000000000099
:0d418300000000000000000000000000002f
:2041900000000000000000000000000000000000000000000000000000000000000000000f
:2041b0000000000000000000000000000000000000000000000000100000000000000000df
:2041d00000000000000800000000000040001d0a00000027809015400000000000000000d4
:0d41f00000000000000001000000000000c1
:2041fd000000000000000000000000000000000000000000000000000000000000000000a2
:20421d00000000000000000000000000000000000000000000000000000000000000000081
:20423d00000000000000000000000000c00000000000100000fbbd40000000000000000099
:0d425d003000000000000000000000000024
:20426a00000000000000000000000000000000000000000000000000000000000000000034
:20428a00000000000000000000000000000000000000000000000004000000000000100000
:2042aa0000000000000000000000000000000000000024000e1c280000100000000000006e
:0d42ca0000000000000000000000000000e7
:2042d7000000000000000000000000000000000000000000000000000000000000000000c7
:2042f700000000000000000000000000000000000000014000000000000000000000000066
:20431700000000000000001f2c20000800004000000000000d7b82808000000000000000c9
:0d4337000000000000001000000000000069
:20434400000000000000000000000000000000000000000000000000000000000000000059
:20436400000000000000000000000000000000000000000000000010000000000000000029
:2043840000000000004000f1ec0001010003c00000000009583c2f4000000000000000002b
:0d43a400000000000000000000000000000c
:2043b1000000000000000000000000000000000000000000000000000000000000000000ec
:2043d1000000000000000000000000000000000000000000000000000000000000000000cc
:2043f10000000000000000000000000001400000000010200e00000000000000000000002d
:0d441100000000000000000000000000009e
:20441e0000000000000000000000000000000000000000000000000000000000000000007e
:20443e0000000000000000000000000000000000000000000000000400000000000010004a
:20445e00000000000040000000000001000000000000241009000000003000000000000090
:0d447e000000000000000100000000000030
:20448b00000000000000000000000000000000000000000000000000000000000000000011
:2044ab000000000000000000000000000000000000000000000000000000000000000000f1
:2044cb00000000000000000000000000000035b6e000000000000000000000000000000006
:0d44eb0000000000000000000000000000c4
:2044f8000000000000000000000000000000000000000000000000000000000000000000a4
:20451800000000000000000000000000000000000000000000000000000000000000000083
:2045380000000000000000000000000000003ec1c00000050000000000000000000000009f
:0d4558000000000000000000000000000056
:20456500000000000000000000000000000000000000000000000000000000000000000036
:2045850000000000000000000000000000000000000000000000000000000000000e000008
:2045a500001cf050000000000000000000000fabc02b802040000000000000000000000015
:0d45c50000000000000000000000000000e9
:2045d2000000000000000000000000000000000000000000000000000000000000000000c9
:2045f2000000000000000000000000000000000000000000000000000000000000000000a9
:204612000010f000000000000000000000003e064000004f000000000000000000000000b5
:0d463200000000000000000000000000007b
:20463f0000000000000000000000000000000000000000000000000000000000000000005b
:20465f0000000000000000000000000000000000000000000000000000000000000000003b
:20467f000000000000000000000000000000000000000083005ee34800000000000000000f
:0d469f00000000000000000000000000000e
:2046ac000000000000000000000000000000000000000000000000000000000000000000ee
:2046cc000000000000000000000000000000000000000000000000000000000000000000ce
:2046ec000000000000000000000000000002c0000000000080176380400000000000000032
:0d470c0000000000000000000000000000a0
:20471900000000000000000000000000000000000000000000000000000000000000000080
:2047390000000000000000000000000000000000000000000000000000000000000100005f
:2047590000000000000000000000000a0060000000000000000000000100000000000000d5
:0d4779000000000000000000000000000033
:20478600000000000000000000000000000000000000000000000000000000000000000013
:2047a6000000000000000000000000000000000000000000000000000000000000010000f2
:2047c60000000000000000000000000401400000000003850a0000000100000000000000fb
:0d47e60000000000000000000000000000c6
:2047f3000000000000000000000000000000000000000000000000000000000000000000a6
:20481300000000000000000000000000000000000000400000000000000000000000000045
:2048330000000000000000000000000001c0000000000000000000000000000000000000a4
:0d4853000000000000000000000000000058
:20486000000000000000000000000000000000000000000000000000000000000000000038
:20488000000000000000000000000000000000000000000000000000000000000000000018
:2048a0000000000000000000000000000000000000000000000000000000000000000000f8
:0d48c00000000000000000000000000000eb
:2048cd000000000000000000000000000000000000000000000000000000000000000000cb
:2048ed000000000000000000000000000000000000000000000000000000000000000001aa
:20490d000000000000000000000000000006ddea500000000cd62950000000000000000012
:0d492d00000000000000000000000000007d
:20493a0000000000000000000000000000000000000000000000000000000000000000005d
:20495a0000000000000000000000000000000000000000000000000000000000000000003d
:20497a003c000000000000000000000002c60e05500000000cb0154800000000000000009d
:0d499a000000000000000000000000000010
:2049a7000000000000000000000000000000000000000000000000000000000000000000f0
:2049c7000000000000000000000000000000000000000000000000000000000000000000d0
:2049e70000000000000000000000000000032fef500000000000000000000000000000003f
:0d4a070000000000000000000000000000a2
:204a1400000000000000000000000000000000000000000000000000000000000000000082
:204a3400000000000000000000000000000000000000000000000000000000000000000062
:204a540000000000001000000000000000021e0a0000000000000000000000000000000008
:0d4a74000000000000000000000000000035
:204a8100000000000000000000000000000000000000000000000000000000000000000015
:204aa1000000000000000000000000000000000000000000000000000000000000000000f5
:204ac1000000000000000000000000000367800000000000000000000000000000000000eb
:0d4ae10000000000000000000000000000c8
:204aee000000000000000000000000000000000000000000000000000000000000000000a8
:204b0e00000000000000000000000000000000000000000000000000000000000000000087
:204b2e0000000000000000000000000002c0000000000000000000000000000000000000a5
:0d4b4e00000000000000000000000000005a
:204b5b0000000000000000000000000000000000000000000000000000000000000000003a
:204b7b000000000000000000000000000000000000000000000000004000000000000400d6
:204b9b0000000000000000000000000001e200000000000000ffa946000000000000000029
:0d4bbb0008000000000000000000000000e5
:204bc8000002000000000000000000000000000000000000000000000000000000000000cb
:204be8000000000000000000000000000000000000000000000000000000000000000000ad
:204c0800000000000000000000000000000400000000000000342a800000000000000000aa
:0d4c2800000000000000000000000000007f
:204c350000000000000000000000000000000000000000000000000000000000000000005f
:204c550000000000000000000000000000000000000000000000000000000000000000003f
:204c7500000000000000000000000000080000000000000500000000000000000000000012
:0d4c95000000000000000000000000000012
:204ca2000000000000000000000000000000000000000000000000000000000000000000f2
:204cc2000000000000000000000000000000000000000100000000000000000000000000d1
:204ce2000000000000000000000000000400000000000000000000000000000000000000ae
:0d4d020000000000000000000000000000a4
:204d0f00000000000000000000000000000000000000000000000000000000000000000084
:204d2f00000000000000000000000000000000000001000000000000000000000000000063
:204d4f00000000000000000000000000000024af500000000c77a9460000000000000000af
:0d4d6f000000000000000000000000000037
:204d7c00000000000000000000000000000000000000000000000000000000000000000017
:204d9c000000000000000000000000000000000000000000000000000000000000000000f7
:204dbc000000000000000000000000000002170a0000000000bc2a8000000000000000004e
:0d4ddc0000000000000000000000000000ca
:204de9000000000000000000000000000000000000000000000000000000000000000000aa
:204e0900000000000000000000000000000000000000000000000040000000000000000049
:204e29000000000000000000000000000060000000004000000000000000000000000000c9
:0d4e4900200000000000000000000000003c
:204e560000000000000000000000000000000000000000000000000000000000000000003c
:204e76000000000000000000000000000000000000000000000000400000000000000000dc
:204e960000000000000000000000000000200000000040000000000000000000000000009c
:0d4eb60000000000000000000000000000ef
:204ec3000000000000000000000000000000000000000000000000000000000000000000cf
:204ee3000000000000000000000000000000000000010000000000000000000000000400aa
:204f0300000000000080000000000000000000000000000381b378840000000000000000db
:0d4f23000000000000000000000000000081
:204f3000000000000000000000000000000000000000000000000000000000000000000061
:204f5000000000000000000000000000000000000001000000000000000000000000000040
:204f700000000000010000000000000000000000000001038fb39d0200000000000000003b
:0d4f90000000000000000000000000000014
:204f9d004404000000000000000000000000000000000000000000000000000000000000ac
:204fbd000000000000000000000000000000000000000000000000000000000000000000d4
:204fdd0000000000000000000000000000000000000000084000000000000000000000006c
:0d4ffd0000000000000000000000000000a7
:20500a000c3400000000000000000000000000000000000000000000000000000000000046
:20502a00000000000000000000000000000000000000000000000000000000000000000066
:20504a0000000000000000000000000000000000000000070e000000000000000000000031
:0d506a000000000000000000000000000039
:20507700000000000000000000000000000000000000000000000000000000000000000019
:20509700000000000000000000000000000000000000004000000000000000000000004079
:2050b700000000000000000000000000000025ef5000000000000000000000000000000075
:0d50d70000000000000000000000000000cc
:2050e40080000000000000000000000000000000000000000000000000000000000000002c
:2051040000000000000000000000000000000000000000000000000000000000000000008b
:205124000000000000000000000000000000140a0000000008000000000000000000000045
:0d514400000000000000000000000000005e
:2051510040000000000000000000000000000000000000000000000a0000000000000000f4
:2051710000000000000000000000000000000000000000000000000000000000000000001e
:20519100000000000000000000000000000000000000000700d33d400000000000000000a7
:0d51b10000000000000000080000000000e9
:2051be000000000000000000000000000000000000000000000000000000000000000000d1
:2051de000000000000000000000000000000000000000000000000000000000000000000b1
:2051fe0000000000000000000000000000c000000000080f0e18280000000000000000006c
:0d521e000000000000000a14000000000065
:20522b00000000000000000000000000000000000000000000000000000000000000000063
:20524b00000000000000000000000000000000000000000000000040000000000000000003
:20526b0000000000040000000000000000000000000000000100000000000000000000001e
:0d528b000000000000000000000000000016
:205298000000000000000000000000000000000000000000000000000000000000000000f6
:2052b800000000000000000000000000000000000000000000000040000000000000000096
:2052d80000000000040000000000000400000000000000000e0000000000000000000000a0
:0d52f80000000000000000000000000000a9
:20530500000000000000000000000000000000000000000000000000000000000000000088
:2053250000000000000000000000000000000000000000000000000000000000000e00005a
:205345000000000000000000000000000000000000038000000000000000000000000000c5
:0d536500000000000000000000000000003b
:2053720000000000000000000000000000000000000000000000000000000000000000001b
:205392000000000000000000000000000000000000000000000000000000000000000000fb
:2053b200000000000000000000000000000280000000000000000000000000000000000059
:0d53d20000000000000000000000000000ce
:2053df000000000000000000000000000000000000000000000000000000000000000000ae
:2053ff0000000000000000000000000000000000000100000000000000000000000000008d
:20541f00001af0400000000000000000000000000000001000000000000000000000000013
:0d543f000000000000000000000000000060
:20544c00000000000000000000000000000000000000000000000000000000000000000040
:20546c000000000000000000000000000000000000000a0000000000000000000000000016
:20548c000000f001000000000000000000000000000000000000000000000000000000000f
:0d54ac0000000000000000000000000000f3
:2054b9000000000000000000000000000000000000000000000000000000000000000000d3
:2054d900000000000000000000000000000000000000000000000040000000000000002053
:2054f90000000000040000000000000000063786e0000000000000000000000000000004e8
:0d5519000000000000000000000000000085
:20552600000000000000000000000000000000000000000000000000000000000000000065
:205546000000000000000000000000000000000000000000000000400000000000000034d1
:2055660000000000040000000000000000040fe1c000000000000000000000000000000469
:0d5586000000000000000000000000000018
:205593000000000000000000000000000000000000000000000000000000000000000000f8
:2055b3000000000000000000000000000000000000010000000000000000000000000000d7
:2055d30000000000000000000000000000000000000000005e000000010000000000000059
:0d55f30000000000000000000000000000ab
:2056000000000000000000000000000000000000000000000000000000000000000000008a
:20562000000000000000000000000000000000000001000000000000000000000000000069
:20564000000000000000000000000000000000000000000000000000000400000000000046
:0d566000000000000000000000000000003d
:20566d0000000000000000000000000000000000000000000000000000000000000000001d
:20568d000000000000000000000000000000000000000000000000000000000000000000fd
:2056ad0000000000000000000000000001600000000000000013a950600000000000000010
:0d56cd0000000000000000000000000000d0
:2056da000000000000000000000000000000000000000000000000000000000000000000b0
:2056fa00000000000000000000000000000000000000000000000000000000000000000090
:20571a00000000000000000000000000e00000000000000000bc2a806000000000000000c9
:0d573a000000000000000000000000000062
:20574700000000000000000000000000000000000000000000000000000000000000000042
:20576700000000000000000000000000000000000000000000000000000000000000000022
:2057870000000000000200000000000000000000000001505c000000000000000000000053
:0d57a70000000000000000000000000000f5
:2057b4000000000000000000000000000000000000000000000000000000000000000000d5
:2057d4000000000000000000000000000000000000000000000000000000000000000000b5
:2057f40000000000000000000000000002c000000000000050000000000000000000000083
:0d5814000000000000000000000000000087
:20582100000000000000000000000000000000000000000000000000000000000004000063
:20584100000000001000000000000000000000000001000000000000000000000000000036
:2058610000000000000000000000001800000000000000000000000000000000000000000f
:0d588100000000000000000000000000001a
:20588e000000000000000000000000000000000000000000000000000000000000040000f6
:2058ae000000000010000000000000000000000000010000000000000000000000000000c9
:2058ce000000000000000000000000140000000000000000000000000000000000000000a6
:0d58ee000000000000000a000000000000a3
:2058fb0000000000000000000000000000000000000000000000000000000000000000008d
:20591b0000000000000000000000000000000000000000000000000000000000000000006c
:20593b00000000000000000000000010000280000000000000d39550000000000000000002
:0d595b0000000000000010004000000000ef
:2059680000000000000000000000000000000000000000000000000000000000000000001f
:205988000000000000000000000000000000000000000000000000000000000000000000ff
:2059a80000000000000000000000000000c380000000000000743c041000000000000000d8
:0d59c80000000000000010000000000000c2
:2059d5000000000000000000000000000000000000000000000000000000000000000000b2
:2059f500000000000000000000000000000000000000000000000000000000000000000092
:205a150000000000380100000000000004600faaa0038000000000000000000000000000f8
:0d5a3500000000000000e0080380000000f9
:205a4200000000000000000000000000000000000000000000000000000000000000000044
:205a6200000000000000000000000000000000000000000000000000000000000000000024
:205a82000000000000020000000000008820030aa0040000000000000000000000000000a9
:0d5aa2000c000000000000040400000000e3
:205aaf000000000000000000000000000000000000000000000000000000000000000000d7
:205acf00000000000000000000000000000000000001800000000000000000000000000036
:205aef0000000000000000000000000000601dca0023000800000000000000000000000025
:0d5b0f000000000000000000000000000089
:205b1c00000000000000000000000000000000000000000000000000000000000000000069
:205b3c00000000000000000000000000000000000001000000000000000000000000000048
:205b5c000000000000000000000000008003a4074081000100000000000000000000000039
:0d5b7c00010000000000000000000000001b
:205b89000000000000000000000000000000000000000000000000000000000000000000fc
:205ba9000000000000000000000000000000000000000001000000000000000000000000db
:205bc900000000000000000000000000000384ea50004000000000000000000000000000bb
:0d5be9000000000000000074020000000039
:205bf60000000000000000000000000000000000000000000000000000000000000000008f
:205c160000000000000000000000000000000000000000000000000000000000000000006e
:205c360000000000000000000000000000000c05500042800000000000000000000000002b
:0d5c56000000000000000008040000000035
:205c6300000000000000000000000000000000000000000000000000000000000000000021
:205c8300000000000000000000000000000000000001000000000000000000000000000000
:205ca30000000000000000000000000000e00688f030000000000000000000000000000053
:0d5cc300050000000000004000258a510887
:205cd0000000000000000000000000000000000000000000000000000000000000000000b4
:205cf000000000000000000000000000000000000001000000000000000000000000000093
:205d100000000000000000000000000022600d08a000000009000000000000000000000033
:0d5d30000800000000000000001d0aa00097
:205d3d00000000000000000000000000000000000000000000000000000000000000000046
:205d5d00000000000000000000000000000000000000000000000000000000000000000026
:205d7d0000000000000084000000000000c2d5ed1028000000000000000c000000000000ba
:0d5d9d0080000000000000000001af0400c5
:205daa000000000000000000000000000000000000000000000000000000000000000000d9
:205dca000000000000000000000000000000000000000000000000000000000000000000b9
:205dea00000000000000f00000000000000775042000000000000000000000000000000009
:0d5e0a00000000000000000000010f00007b
:205e170000000000000000000000000000000000000000000000000000000000000000006b
:205e370000000000000000000000000000000000000040000000000000000000000000000b
:205e570000000000000000000000000a024001c0f000280000000000000000000000000006
:0d5e7700000000000000000000000000001e
:205e84000000000000000000000000000000000000000000000000000000000000000000fe
:205ea40000000000000000000000000000000000000000000000000000400000000000009e
:205ec40000000000000000000000000001400100f20000000e00000000000000000000007c
:0d5ee40000000000000000000000000000b1
:205ef100000000000000000000000000000000000000000000000000000000000000000091
:205f110000000000000000000000000000000000000100000000000000000000000000006f
:205f3100000000000000000073c10410000380000001000100000000000000000000000083
:0d5f510000000000000000006000000000e3
:205f5e00000000000000000000000000000000000000000000000000000000000000000023
:205f7e00000000000000000000000000000000000001000000000000000000000000000002
:205f9e00000000000000000003c0001000040000000200008000000000000000000000008a
:0d5fbe0000000000000000000000000000d6
:205fcb000000000000000000000000000000000000000000000000000000000000000000b6
:205feb00000000000000000000000000000000000000000000000000000000000000000096
:20600b0000000000000001eba404400000000000000040000000000000000600000000005b
:0d602b000000000000000000000000000068
:20603800000000000000000000000000000000000000000000000000000000000000000048
:20605800000000000000000000000000000000000000000000000000000000000000000028
:206078000000000000000003fc000000034000000000400000000000000000000000000086
:0d60980000000000000000000000000000fb
:2060a5000000000000000000000000000000000000000000000000000000000000000000db
:2060c50000000000000000000000000000000000000000000000000000000000000e0000ad
:2060e500001ef0403800000b2f0000e0e1c0000000038000000000000e0000016c604000bc
:0d610500000000000000000000000000008d
:2061120000000000000000000000000000000000000000000000000000000000000000006d
:2061320000000000000000000000000000000000000000000000000000000000000000004d
:206152000010f0080000009ffb90400000000000000000000800000000000000e8c01000fb
:0d6172000000000000000000000000000020
:20617f00000000000000000000000000000000000000000000000000000000000000000000
:20619f000000000000000000000000000000000000000000000000100000000000000000d0
:2061bf00000000000000008000000000000000000000000000000000040000380000000004
:0d61df0000000000000000000000000000b3
:2061ec00000000000000000000000000000000000000000000000000000000000000000093
:20620c00000000000000000000000000000000000000000000000000000000000000000072
:20622c00000000000000000000000000000000000000000d000000000c0000000000000039
:0d624c000000000000000000000000000045
:20625900000000000000000000000000000000000000000000000000000000000000000025
:206279000000000000000000000000400000000000000000000000000000000000000000c5
:2062990000000000000000000000001014003ccf500000000000000000000028000000003e
:0d62b90000000000000000000000000000d8
:2062c6000000000000000000000000000000000000000000000000000000000000000000b8
:2062e600000000000000000000000040000000000000000000000000000000000000000058
:206306000000000000000000000000000040140a00000100000000000000004000000000d8
:0d632600000000000000000000000000006a
:2063330000000000000000000000000000000000000000000000000000000000000000004a
:206353000000000000000000000000000000000000000400000000400000000000000000e6
:2063730000000000000000000000000000028000000000400000000000002c000000000418
:0d63930000000000000000000000000000fd
:2063a0000000000000000000000000000000000000000000000000000000000000000000dd
:2063c00000000000000000000000000000000000000000000000004000000000000000007d
:2063e00000000000000000800000000040c000000000000d0000000000002e2c00000000b6
:0d640000000000000000000000000000008f
:20640d0000000000000000000000000000000000000000000000000000000000000000006f
:20642d0000000000000000000000000000000000000000000000000000000000000000004f
:20644d0000000000000000800000000000e025e081130000001b529000000666cc054100bb
:0d646d000000000000000000000000000022
:20647a00000000000000000000000000000000000000000000000000000000000000000002
:20649a000000000000000000000000000000000000000001000000000000000000000000e1
:2064ba0000000000000091000000000000200cd000080000005b800000000020e0f500005d
:0d64da0000000000000000000000000000b5
:2064e700000000000000000000000000000000000000000000000000000000000000000095
:20650700000000000000000000000000000000000000000000000000000000000000000074
:2065270000000000000000000000000000e01f8e442c00000000000000003400ef21408053
:0d6547000000000000000000000000000047
:20655400000000000000000000000000000000000000000000000000000000000000000027
:20657400000000000000000000000000000000000000000000000000000000000000000007
:206594000000000000000000000000008020020e40000000000000000000262cdd42000086
:0d65b40000000000000000000000000000da
:2065c1000000000000000000000000000000000000000000000000000000000000000000ba
:2065e10000000000000000000000000000000000000000000000000000000000000000009a
:2066010038000000040081c063c1000001404000000000000000000004000001cd604040a5
:0d662100020000000000000000000000006a
