:02000000ff00ff
:080002004c6174746963650030
:17000a00694345637562653220323032302e31322e32373934330071
:16002100506172743a2069434534304858384b2d43423133320018
:1a003700446174653a204d6179203320323032322031313a33353a353300b1
:0200510000ffae
:040053007eaa997e6a
:02005700510056
:0200590001059f
:03005b00920020f0
:03005e00620367d3
:0300610072011019
:0300640082000017
:02006700110086
:02006900010193
:20006b00000000000000000000000000000000000000000000000000030000000000000072
:20008b00000000000000000000000000000000000000000000000000000000000000000055
:2000ab00000000000000000000000000000000000000000000000000000000000000000035
:0d00cb000000000000000000000000000028
:2000d800000000000000000000000000000000000000000000000000000000000000000008
:2000f8000000000000000000000000000000000000000000000000000000000000000000e8
:200118000000000000000000000000000000000000000000000000000000000000000000c7
:0d01380000000000000000000000000000ba
:2001450000000000000000000000000000000000000000000000000000000000000000009a
:2001650000000000000000000000000000000000000000000000000000000000000000007a
:2001850000000000000000000000000000000000000000000000000000000000000000005a
:0d01a5000000000000000400000000000049
:2001b20000000000000000000000000000000000000000000000000000000000000000002d
:2001d20000000000000000000000000000000000000000000000000000000000000000000d
:2001f2000000000000000000000000000000000000000000000000000000000000000000ed
:0d02120000000000000000000000000000df
:20021f000000000000000000000000000000000000000000000000000000000000000000bf
:20023f0000000000000000000000000000000000000000000000000000000000000000009f
:20025f0000000000000000000000000000000000000000000000000000000000000000007f
:0d027f000000000000000000000000000072
:20028c00000000000000000000000000000000000000000000000000000000000000000052
:2002ac00000000000000000000000000000000000000000000000000000000000000000032
:2002cc00000000000000000000000000000000000000000000000000000000000000000012
:0d02ec000000000000000000000000000005
:2002f9000000000000000000000000000000000000000000000000000000000000000000e5
:200319000000000000000000000000000000000000000000000000000000000000000000c4
:200339000000000000000000000000000000000000000000000000000000000000000000a4
:0d0359000000000000000000000000000097
:20036600000000000000000000000000000000000000000000000000000000000000000077
:20038600000000000000000000000000000000000000000000000000000000000000000057
:2003a600000000000000000000000000000000000000000000000000000000000000000037
:0d03c600000000000000000000000000002a
:2003d300000000000000000000000000000000000000000000000000000200000000000008
:2003f3000000000000000000000000000000000000000000000000000000000000000000ea
:200413000000000000000000000000000000000000000000000000000000000000000000c9
:0d04330000000000000000000010000000ac
:2004400000000000000000000000000000000000000000000000000000000000000000009c
:2004600000000000000000000000000000000000000000000000000000000000000000007c
:2004800000000000000000000000000000000000000000000000000000000000000000005c
:0d04a000000000000000000000000000004f
:2004ad0000000000000000000000000000000000000000000000000000000300000000002c
:2004cd0000000000000000000000000000000000000000000000000000000000000000000f
:2004ed000000000000000000000000000000000000000000000000000000000000000000ef
:0d050d0000000000000000000000000000e1
:20051a0000000000000000000000000000000000000000000000008000000300000000003e
:20053a000000000000000000000000000000000000000000000000000000000000000000a1
:20055a00000000000000000000000000000000000000000000000000000000000000000081
:0d057a000000000000000000000000000074
:20058700000000000000000000000000000000000000000000000000000000000000000054
:2005a700000000000000000000000000000000000000000000000000000000000000000034
:2005c700000000000000000000000000000000000000000000000000000000000000000014
:0d05e7000000000000000000000000000007
:2005f4000000000000000000000000000000000000000000000000400000000000000000a7
:200614000000000000000000000000000000000000000000000000000000000000000000c6
:200634000000000000000000000000000000000000000000000000000000000000000000a6
:0d0654000000000000000000000000000099
:20066100000000000000000000000000000000000000000000000000000000000000000079
:20068100000000000000000000000000000000000000000000000000000000000000000059
:2006a100000000000000000000000000000000000000000000000000000000000000000039
:0d06c100000000000000000000100000001c
:2006ce0000000000000000000000000000000000000000000000008000000000000000008c
:2006ee000000000000000000000000000000000000000000000000000000000000000000ec
:20070e000000000000000000000000000000000000000000000000000000000000000000cb
:0d072e0000000000000000000000000000be
:20073b0000000000000000000000000000000000000000000000000000000000000000009e
:201c18000002000000000000000000000000000000000000000000000000000000000000aa
:201c380000000000000000000000000000000000000000000000000000000000000000008c
:201c580000000000000000000000000000000000000000000000000000000000000000006c
:0d1c7800000000000000000000000000005f
:201c850000000000000000000000000000000000002000000000000000000000000000001f
:201ca50000000000000000000000000000000000000000000000000000000000000000001f
:201cc5000000000000000000000000000000000000000000000000000000000000000000ff
:0d1ce50000000000000000000000000000f2
:201cf200000000000000000000000000000000000040000000000000000000000000000092
:201d12000000000000000000000000000000000000000000000000000000000000000000b1
:201d3200000000000000000000000000000000000000000000000000000000000000000091
:0d1d52000000000000000000000000000084
:201d5f00000000000000000000000000000000000000000000000000000000000000000064
:201d7f00000000000000000000000000000000000000000000000000000000000000000044
:201d9f00000000000000000000000000000000000000000000000000000000000000000024
:0d1dbf000000000000000000000000000017
:201dcc000000000000000000000000000000000000000000000000000000000000000000f7
:201dec000000000000000000000000000000000000000000000000000000000000000000d7
:201e0c000000000000000000000000000000000000000000000000000000000000000000b6
:0d1e2c0000000000000000000000000000a9
:201e3900007000000000000000000000000000000000000000000000000000000000000019
:201e5900000000000000000000000000000000000000000000000000000000000000000069
:201e7900000000000000000000000000000000000000000000000000000000000000000049
:0d1e9900000000000000000000000000003c
:201ea6000040000000000000000000000000000000000000000000000000000000000000dc
:201ec6000000000000000000000000000000000000000000000000000000000000000000fc
:201ee6000000000000000000000000000000000000000000000000000000000000000000dc
:0d1f060000000000000000000000000000ce
:201f13000000000000000000000000000000000000000000000000000000000000000000ae
:201f330000000000000000000000000000000000000000000000000000000000000000008e
:201f530000000000000000000000000000000000000000000000000000000000000000006e
:0d1f73000000000000000000000000000061
:201f8000000000000000000000000000000000000000000000000000000000000000000041
:201fa000000000000000000000000000000000000000000000000000000000000000000021
:201fc000000000000000000000000000000000000000000000000000000000000000000001
:0d1fe00000000000000000000000000000f4
:201fed0048000000000000000000000000000000000000000000000000000000000000008c
:20200d000000000000000000000000000000000000000000000000000000000000000000b3
:20202d00000000000000000000000000000000000000000000000000000000000000000093
:0d204d000000000000000000000000000086
:20205a000c000000000000000000000000000000000000000000000000000000000000005a
:20207a00000000000000000000000000000000000000000000000000000000000000000046
:20209a00000000000000000000000000000000000000000000000000000000000000000026
:0d20ba000000000000000000000000000019
:2020c7000000000000000000000000000000000000000000000000000000000000000000f9
:2020e7000000000000000000000000000000000000000000000000000000000000000000d9
:202107000000000000000000000000000000000000000000000000000000000000000000b8
:0d21270000000000000000000000000000ab
:2021340080000000000000000000000000000000000000000000000000000000000000000b
:2021540000000000000000000000000000000000000000000000000000000000000000006b
:2021740000000000000000000000000000000000000000000000000000000000000000004b
:0d219400000000000000000000000000003e
:2021a1004000000000000000000000000000000000000000000000000000000000000000de
:2021c1000000000000000000000000000000000000000000000000000000000000000000fe
:2021e1000000000000000000000000000000000000000000000000000000000000000000de
:0d22010000000000000000000000000000d0
:20220e000000000000000000000000000000000000000000000000000000000000000000b0
:20294b0040000000000000000000000000000000000000000000000000000000000000002c
:20296b0000000000000000000000000000000000000000000000000000000000000000004c
:20298b0000000000000000000000000000000000000000000000000000000000000000002c
:0d29ab00000000000000000000000000001f
:2029b8000000000000000000000000000000000000000000000000000000000000000000ff
:2029d8000000000000000000000000000000000000000000000000000000000000000000df
:2029f8000000000000000000000000000000000000000000000000000000000000000000bf
:0d2a180000000000000000000000000000b1
:202a2500000000000000000000000000000000000000000000000000000000000000000091
:202a4500000000000000000000000000000000000000000000000000000000000000000071
:202a6500000000000000000000000000000000000000000000000000000000000000000051
:0d2a85000000000000000000000000000044
:202a92008000000000000000000000000000000000000000000000000000000000000000a4
:202ab200000000000000000000000000000000000000000000000000000000000000000004
:202ad2000000000000000000000000000000000000000000000000000000000000000000e4
:0d2af20000000000000000000000000000d7
:202aff00440000000000000000000000000000000000000000000000000000000000000073
:202b1f00000000000000000000000000000000000000000000000000000000000000000096
:202b3f00000000000000000000000000000000000000000000000000000000000000000076
:0d2b5f000000000000000000000000000069
:202b6c00080000000000000000000000000000000000000000000000000000000000000041
:202b8c00000000000000000000000000000000000000000000000000000000000000000029
:202bac00000000000000000000000000000000000000000000000000000000000000000009
:0d2bcc0000000000000000000000000000fc
:202bd9000001000000000000000000000000000000000000000000000000000000000000db
:202bf9000000000000000000000000000000000000000000000000000000000000000000bc
:202c190000000000000000000000000000000000000000000000000000000000000000009b
:0d2c3900000000000000000000000000008e
:202c460000000000000000000000000000000000000000000000000000000000000000006e
:202c660000000000000000000000000000000000000000000000000000000000000000004e
:202c860000000000000000000000000000000000000000000000000000000000000000002e
:0d2ca6000000000000000000000000000021
:202cb300007000000000000000000000000000000000000000000000000000000000000091
:202cd3000000000000000000000000000000000000000000000000000000000000000000e1
:202cf3000000000000000000000000000000000000000000000000000000000000000000c1
:0d2d130000000000000000000000000000b3
:202d2000004000000000000000000000000000000000000000000000000000000000000053
:202d4000000000000000000000000000000000000000000000000000000000000000000073
:202d6000000000000000000000000000000000000000000000000000000000000000000053
:0d2d80000000000000000000000000000046
:202d8d00000000000000000000000000000000000000000000000000000000000000000026
:202dad00000000000000000000000000000000000000000000000000000000000000000006
:202dcd000000000000000000000000000000000000000000000000000000000000000000e6
:0d2ded0000000000000000000000000000d9
:202dfa000000000000000000000000000000000000000000000000000000000000000000b9
:202e1a00000000000000000000000000000000000000000000000000000000000000000098
:202e3a00000000000000000000000000000000000000000000000000000000000000000078
:0d2e5a00000000000000000000000000006b
:202e670000000000000000000000000000000000000000000000000000000000000000004b
:202e870000000000000000000000000000000000000000000000000000000000000000002b
:202ea70000000000000000000000000000000000000000000000000000000000000000000b
:0d2ec70000000000000000000000000000fe
:202ed4000000000000000000000000000000000000000000000000000000000000000000de
:202ef4000000000000000000000000000000000000000000000000000000000000000000be
:202f140000000000000000000000000000000000000000000000000000000000000000009d
:0d2f34000000000000000000000000000090
:202f4100000000000000000000000000000000000000000000000040000000000000000030
:202f6100000000000000000000000000000000000000000000000000000000000000000050
:202f8100000000000000000000000000000000000000000000000000000000000000000030
:0d2fa1000000000000000000000000000023
:202fae000000000000000000000000000000000000000000000000a0000000000000000063
:202fce000000000000000000000000000000000000000000000000000000000000000000e3
:202fee000000000000000000000000000000000000000000000000000000000000000000c3
:0d300e0000000000000000000000000000b5
:20301b00000000000000000000000000000000000000000000000000000000000000000095
:20303b00000000000000000000000000000000000000000000000000000000000000000075
:20305b00000000000000000000000000000000000000000000000000000000000000000055
:0d307b000000000000000000000000000048
:20308800000000000000000000000000000000000000000000000000000000000000000028
:2030a800000000000000000000000000000000000000000000000000000000000000000008
:2030c8000000000000000000000000000000000000000000000000000000000000000000e8
:0d30e80000000000000000000000000000db
:2030f50000000000000000000000000000000000000040000000000000000000000000007b
:2031150000000000000000000000000000000000000000000000000000000000000000009a
:2031350000000000000000000000000000000000000000000000000000000000000000007a
:0d315500000000000000000000000000006d
:2031620000000000000000000000000000000000000000000000000000000000000000004d
:2036eb000000000000000000000000000000000000000000000001000000000000000000be
:20370b0000000000000000000000000000000000000000000000000000000000000000009e
:20372b0000000000000000000000000000000000000000000000000000000000000000007e
:0d374b000000000000000000000000000071
:20375800000000000000000000000000000000000000000000000100000000000000000050
:20377800000000000000000000000000000000000000000000000000000000000000000031
:20379800000000000000000000000000000000000000000000000000000000000000000011
:0d37b8000000000000000000000000000004
:2037c5000000000000000000000000000000000000000000000000000000000000000000e4
:2037e5000000000000000000000000000000000000000000000000000000000000000000c4
:203805000000000000000000000000000000000000000000000000000000000000000000a3
:0d3825000000000000001000000000000086
:20383200000000000000000000000000000000000000000000000000000000000000000076
:20385200000000000000000000000000000000000000000000000000000000000000000056
:20387200000000000000000000000000000000000000000000000000000000000000000036
:0d3892000000000000000000000000000029
:20443e0000000000000000000000000000000000000000000000000400000000000000005a
:20445e0000000000000000000000000000000000000000000000000000000000000000003e
:0d447e000000000000000000000000000031
:20448b000000000000000000000000000000000040000000000000000000000000000000d1
:2044ab000000000000000000000000000000000000000000000000000000000000000000f1
:2044cb000000000000000000000000000000000000000000000000000000000000000000d1
:0d44eb0000000000000000000000000000c4
:2044f800000000000000000000000000000000004000000000000000000000000000000064
:20451800000000000000000000000000000000000000000000000000000000000000000083
:20453800000000000000000000000000000000000000000000000000000000000000000063
:0d4558000000000000000000000000000056
:20456500000000000000000000000000000000000000000000000000000000000000000036
:20458500000000000000000000000000000000000000000000000000000000000000000016
:2045a5000000000000000000000000000000000000000000000000000000000000000004f2
:0d45c50000000000000000000000000000e9
:2045d2000000000000000000000000000000000000000000000000000000000000000000c9
:2045f2000000000000000000000000000000000000000000000000000000000000000000a9
:20461200000000000000000000000000000000000000000000000000000000000000000088
:0d463200000000000000000000000000007b
:20463f000000000000000000000000000000000000000000000000a00000000000000000bb
:20465f0000000000000000000000000000000000000000000000000000000000000000003b
:20467f0000000000000000000000000000000000000000000000000000000000000000001b
:0d469f00000000000000000000000000000e
:2046ac000000000000000000000000000000000000000000000000000000000000000000ee
:204bc8000002000000000000000000000000000000000000000000000000000000000000cb
:204be8000000000000000000000000000000000000000000000000000000000000000000ad
:204c080000000000000000000000000000000000000000000000000000000000000000008c
:0d4c2800000000000000000000000000007f
:204c350000000000000000000000000000000000000000000000000000000000000000005f
:204f9d004c00000000000000000000000000000000000000000000000000000000000000a8
:204fbd000000000000000000000000000000000000000000000000000000000000000000d4
:204fdd000000000000000000000000000000000000000000000000000000000000000000b4
:0d4ffd0000000000000000000000000000a7
:20500a0008000000000000000000000000000000000000000000000000000000000000007e
:20502a00000000000000000000000000000000000000000000000000000000000000000066
:20504a00000000000000000000000000000000000000000000000000000000000000000046
:0d506a000000000000000000000000000039
:20507700000400000000000000000000000000000000000000000000000000000000000015
:205097000000000000000000000000000000000000000000000000000000000000000000f9
:2050b7000000000000000000000000000000000000000000000000000000000000000000d9
:0d50d70000000000000000000000000000cc
:2050e400802800000000000000000000000000000000000000000000000000000000000004
:2051040000000000000000000000000000000000000000000000000000000000000000008b
:2051240000000000000000000000000000000000000000000000000000000000000000006b
:0d514400000000000000000000000000005e
:205151004000000000000000000000000000000000000000000000000000000000000000fe
:2051710000000000000000000000000000000000000000000000000000000000000000001e
:205191000000000000000000000000000000000000000000000000000000000000000000fe
:0d51b10000000000000000000000000000f1
:2051be000000000000000000000000000000000000000000000000000000000000000000d1
:20603800080000000000000000000000000000000000000000000000000000000000000040
:20605800000000000000000000000000000000000000000000000000000000000000000028
:20607800000000000000000000000000000000000000000000000000000000000000000008
:0d60980000000000000000000000000000fb
:2060a50000000000000000000000600000000000000000000000000000000000000000007b
:2060c5000000000000000000000000000000000000000000000000000000000000000000bb
:2060e50000000000000000000000000000000000000000000000000000000000000000009b
:0d610500000000000000000000000000008d
:2061120000000000000000000000000000000000000000000000000000000000000000006d
:2061320000000000000000000000000000000000000000000000000000000000000000004d
:2061520000000000000000000000000000000000000000000000000000000000000000002d
:0d6172000000000000000000000000000020
:20617f00000000000000000000000000000000000000000000000000000000000000000000
:20619f000000000000000000000000000000000000000000000000000000000000000000e0
:2061bf000000000000000000000000000000000000000000000000000000000000000000c0
:0d61df0000000000000000000000000000b3
:2061ec00000000000000000000000000000000000000000000000000000000000000000093
:20620c00000000000000000000000000000000000000000000000000000000000000000072
:20622c00000000000000000000000000000000000000000000000000000000000000000052
:0d624c000000000000000000000000000045
:20625900000000000000000000000000000000000000000000000000000000000000000025
:20627900000000000000000000000000000000000000000000000000000000000000000005
:206299000000000000000000000000000000000000000000000000000000000000000000e5
:0d62b90000000000000000000000000000d8
:2062c6000000000000000000000000000000000000000000000000000000000000000000b8
:2062e600000000000000000000000000000000000000000000000000000000000000000098
:20630600000000000000000000000000000000000000000000000000000000000000000077
:0d632600000000000000000000000000006a
:2063330000000000000000000000000000000000000000000000000000000000000000004a
:2063530000000000000000000000000000000000000000000000000000000000000000002a
:2063730000000000000000000000000000000000000000000000000000000000000000000a
:0d63930000000000000000000000000000fd
:2063a0000000000000000000000000000000000000000000000000060000000000000000d7
:2063c0000000000000000000000000000000000000000000000000000000000000000000bd
:2063e00000000000000000000000000000000000000000000000000000000000000000009d
:0d640000000000000000000000000000008f
:20640d0000000000000000000000000000000000000000000000000000000000000000006f
:20642d0000000000000000000000000000000000000000000000000000000000000000004f
:20644d0000000000000000000000000000000000000000000000000000000000000000002f
:0d646d000000000000000000000000000022
:20647a00000000000000000000000000000000000000000000000000000000000000000002
:20649a000000000000000000000000000000000000000000000000000000000000000000e2
:2064ba000000000000000000000000000000000000000000000000000000000000000000c2
:0d64da0000000000000000000000000000b5
:2064e700000000000000000000000000000000000000000000000000000000000000000095
:20650700000000000000000000000000000000000000000000000000000000000000000074
:20652700000000000000000000000000000000000000000000000000000000000000000054
:0d6547000000000000000000000000000047
:20655400000000000000000000000000000000000000000000000000000000000000000027
:20657400000000000000000000000000000000000000000000000000000000000000000007
:206594000000000000000000000000000000000000000000000000000000000000000000e7
:0d65b40000000000000000000000000000da
:2065c1000000000000000000000000000000000000000000000000000000000000000000ba
:2065e1000000000000800000000000000000000000000000000000000000000000000e000c
:20660100000000000000000000000000000000000000000000000000000000000000000079
:0d662100000000000000000000000000006c
:20662e0000000000000000000000000000000000000000000000000000000000000000004c
:20664e0000000000000000000000000000000000000000000000000000000000000000002c
:20666e0000000000000000000000000000000000000000000000000000000000000000000c
:0d668e0000000000000000000000000000ff
:20669b000000000000000000000000000000000000000000000000000000000000000000df
:2066bb0000000000000000000000000000000000000000000000000000005f8014000000cc
:2066db0000000000000200000000000000000000000000000000000000000000000000009d
:0d66fb000000000000000000000000000092
:20670800000000000000000000000000000000000000000000000000000000000000000071
:206728000000000000000000000000000000000000000000000000000000701400000000cd
:20674800000000000000000000000000000000000000000000000000000000000000000031
:0d6768000000000000000000000000000024
:20677500000000000000000000000000000000000000000000000000000000000000000004
:20679500000000000000000000000000000000000000000000000380000000000000000061
:2067b5000000000004000000000000000000000000000000000000000000000000000000c0
:0d67d50000000000000000000000000000b7
:2067e200000000000000000000000000000000000000000000000000000000000000000097
:20680200000000000000000000000000000000000000000000000000000000000000000076
:20682200000000000000000000000000000000000000000000000000000000000000000056
:0d6842000000000000000000000000000049
:20684f00000000000000000000000000000000000000000000000000000000000000000029
:20686f00000000000000000000000000000000000000000000000000000000000000000009
:20688f000000000000000000000000000000000000000000000000000000000000000000e9
:0d68af0000000000000000000000000000dc
:2068bc000000000000000000000000000000000000000000000000000000000000000000bc
:2068dc0000000000000000000000000000000000000000000000000000000000000000009c
:2068fc0000000000000000000000000000000000000000000000000000000000000000007c
:0d691c00000000000000000000000000006e
:2069290000000000000000000000000000000000000000000000000000000000000000004e
:2069490000000000000000000000000000000000000000000000000000000000000000002e
:2069690000000000000000000000000000000000000000000000000000000000000000000e
:0d6989000000000000000000000000000001
:206996000000000000000000000000000000000000000000000000000000000000000000e1
:2069b6000000000000000000000000000000000000000000000000000b00000000000000b6
:2069d6000000000000000000000000000000000000000000000000000000000000000000a1
:0d69f6000000000000000000000000000094
:206a0300000000000000000000000000000000000000000000000000000000000000000073
:206a2300000000000000000000000000000000000000000000000000000000000000000053
:206a4300000000000000000000000000000000000000000000000000000000000000000033
:0d6a63000000000000000000000000000026
:206a7000000000000000000000000000000000000000000000000000000000000000000006
:206a90000000000000000000000000000000000000000000000000000000000000000000e6
:206ab0000000000000000000000000000000000000000000000000000000000000000000c6
:0d6ad00000000000000000000000000000b9
:206add00000000000000000000000000000000000000000000000000000000000000000099
:206afd00000000000000000000000000000000000000000000000000000000000000000079
:206b1d00000000000000000000000000000000000000000000000000000000000000000058
:0d6b3d00000000000000000000000000004b
:206b4a0000000000000000000000000000000000000000000000000000000000000000002b
:206b6a0000000000000000000000000000000000000000000000000000000000000000000b
:206b8a000000000000000000000000000000000000000000000000000000000000000000eb
:0d6baa0008000000000000000000000000d6
:206bb7000000000000000000000000000000000000000000000000000000000000000000be
:206bd70000000000000000000000000000000000000000000000000001000000000000009d
:206bf70000000000000000000000000000000000000000000000000000000000000000007e
:0d6c17000000000000000000000000000070
:206c2400000000000000000000000000000000000000000000000000000000000000000050
:206c44000000000000000000000000000000000000000000000000000080000000000000b0
:206c6400000000000000000000000000000000000000000000000000000000000000000010
:0d6c84000000000000000000000000000003
:206c91000000000000000000000000000000000000000000000000000000000000000000e3
:206cb1000000000000000000000000000000000000000000000000000800000000000000bb
:206cd1000000000000000000000000000000000000000000000000000000000000000000a3
:0d6cf1000000000000000000000000000096
:206cfe00000000000000000000000000000000000000000000000000000000000000000076
:206d1e000000000000000000000000000000000000000000000000000b000000000000004a
:206d3e00000000000000000000000000000000000000000000000000000000000000000035
:0d6d5e000000000000000000000000000028
:206d6b00000000000000000000000000000000000000000000000000000000000000000008
:206d8b000000000000000000000000000000000000000000000000000000000000000000e8
:206dab000000000000000000000000000000000000000000000000000200000000000000c6
:0d6dcb0000000000000000000000000000bb
:206dd800000200000000000000000000000000000000000000000000000000000000000099
:206df80000000000000000000000000000000000000000000000000000000000000000007b
:206e180000000000000000000000000000000000000000000000000000000000000000005a
:0d6e3800000000000000000000000000004d
:206e450000000000000000000000000000000000000000000000000000000000000000002d
:206e650000000000000000000000000000000000000000000000000000000000000000000d
:206e85000000000000000000000000000000000000000000000000000000000000000000ed
:0d6ea50000000000000000000000000000e0
:206eb2000000000000000000000000000000000000000000000000000000000000000000c0
:206ed2000000000000000000000000000000000000000000000000000000000000000000a0
:206ef200000000000000000000000000000000000000000000000000000000000000000080
:0d6f12000000000000000000000000000072
:206f1f00000000000000000000000000000000000000000000000000000000000000000052
:206f3f00000000000000000000000000000000000000000000000000000000000000000032
:206f5f00000000000000000000000000000000000000000000000000000000000000000012
:0d6f7f000000000000000000000000000005
:206f8c000000000000000000000000000000000000000000000000000000000000000000e5
:206fac000000000000000000000000000000000000000000000000000000000000010000c4
:206fcc000000000000000000000000000000000000000000000000000000000000000000a5
:0d6fec000000000000000000000000000098
:206ff900000200000000000000000000000000000000000000000000000000000000000076
:20701900000000000000000000000000000000000000000000000000000000000000000057
:20703900000000000000000000000000000000000000000000000000000000000000000037
:0d70590080000000000000000000000000aa
:2070660000000000000000000000000000000000000000000000000000000000000000000a
:207086000000000000000000000000000000000000000000000000000000000000000000ea
:2070a6000000000000000000000000000000000000000000000000000000000000000000ca
:0d70c60000000000000000000000000000bd
:2070d30000000000000000000000000000000000000000000000000000000000000000009d
:2070f30000000000000000000000000000000000000000000000000000000000000000007d
:2071130000000000000000000000000000000000000000000000000000000000000000005c
:0d713300000000000000000000000000004f
:207140004000000000000000000000000000000000000000000000000000000000000000ef
:2071600000000000000000000000000000000000000000000000000000000000000000000f
:207180000000000000000000000000000000000000000000000000000000000000000000ef
:0d71a00000000000000000000000000000e2
:2071ad000000000000000000000000000000000000000000000000000000000000000000c2
:2071cd000000000000000000000000000000000000000000000000000000000000000000a2
:2071ed00000000000000000000000000000000000000000000000000000000000000000082
:0d720d000000000000000000000000000074
:20721a00000000000000000000000000000000000000000000000000000000000000000054
:20723a00000000000000000000000000000000000000000000000000000000000000000034
:20725a00000000000000000000000000000000000000000000000000000000000000000014
:0d727a000000000000000000000000000007
:207287000000000000000000000000000000000000000000000000000000000000000000e7
:2072a7000000000000000000000000000000000000000000000000000000000000000000c7
:2072c70000000000000800000000000000000000000000000000000000000000000000009f
:0d72e700000000000000000000000000009a
:2072f4008000000000000000000000000000000000000000000000000000000000000000fa
:20731400000000000000000000000000000000000000000000000000000000000000000059
:20733400000000000000000000000000000000000000000000000000000000000000000039
:0d735400000000000000000000000000002c
:2073610000000000000000000000000000000000000000000000000000000000000000000c
:207381000000000000000000000000000000000000000000000000000000000000000000ec
:2073a1000000000000000000000000000000000000000000000000000000000000000000cc
:0d73c10000000000000000000000000000bf
:2073ce0000000000000000000000000000000000000000000000000000000000000000009f
:2073ee0000000000000000000000000000000000000000000000000000000000000000007f
:20740e0000000000000000000000000000000000000000000000000000000000000000005e
:0d742e00000000000000000000000000024f
:02743b0000004f
:02743d0011013b
:02743f00010149
:2074410000000000000000000000000000000000200000000000000000000000000000000b
:2074610000000000000000000000000000000000000000000000000000000000000000000b
:207481000000000000000000000000000000000000000000000000000000000000000000eb
:0d74a10000000000000000000000000000de
:2074ae000000000000000000000000000000000000000000000000000000000000000000be
:2074ce0000000000000000000000000000000000000000000000000000000000000000009e
:2074ee0000000000000000000000000000000000000000000000000000000000000000007e
:0d750e000000000000000000000000000070
:20751b00000000000000000000000000000000001000000000000000000000000000000040
:20753b00000000000000000000000000000000000000000000000000000000000000000030
:20755b000000000000000000000000000000000000001000000000000040000000000000c0
:0d757b000000000000000000000000000003
:207588000000000000000000000000000000000000000000000000000000000000000000e3
:2075a8000000000000000000000000000000000000000000000000000000000000000000c3
:2075c8000000000000000000000000000000000000000000000000000000000000000000a3
:0d75e8000000000000000000000000000096
:2075f500000000000000000000000000000000002000000000000000000000000000000c4a
:20761500000000000000000000000000000000000000000000000000000000000000000055
:20763500000000000000000000000000000000000000000000000000000000000000000035
:0d7655000000000000000000000000000028
:207662000000000000000000000000000000000000000000400000000000000000000000c8
:207682000000000000000000000000000000000000000000000000000000000000000000e8
:2076a2000000000000000000000000000000000000000000000000000000000000000000c8
:0d76c200000000000000000070000000004b
:2076cf0000000000000000000000000000000000000000000000000000000000000000009b
:2076ef0000000000000000000000000000000000000000000000000000000000000000007b
:20770f0000000000000000000000000000000000000010000000000000c00000000000008a
:0d772f00000000000000000000000000004d
:20773c0000000000000000000000000000000000000000000000000000000000000000002d
:20775c0000000000000000000000000000000000000000000000000000000000000000000d
:20777c000000000000000000000000000000000000000000000000000000000000000000ed
:0d779c0000000000000000000000000000e0
:2077a900000000000000000000000000200000000000008000000000000000000000000020
:2077c900080000000000000060000000000000000000000000000000000000000000000038
:2077e90000000000000000000000000000000000000000000040000000000001000000003f
:0d7809000000000000000000000000000072
:20781600000000000000000000000000000000000000000000000000000000000000000052
:20783600000000000000000000000000000000000000000000000000000000000000000032
:20785600000000000000000000000000000000000000000000000000000000000000000012
:0d7876000000000000000000000000000005
:20788300000000000000000000000000003000000000000040000000000000000000000075
:2078a300000c000000000000000000000000000000000000000000000000000000000000b9
:2078c3000000000000000000000000000000000000000000000000000000000000000000a5
:0d78e3000000000000000000000008000090
:2078f00000000000000000000008000000000000200000000000000000000000000200004e
:2079100000080000000000000000000000000000000000000000000000000000000000004f
:20793000000000000000000000000000000000000000000000000000000000000000000037
:0d795000000000000000000000000c00001e
:20795d0000000000000000000000000000000000000000000000000000000000000000000a
:20797d000000000000000000000000000000010000000000000000000000000000000000e9
:20799d000000000000000000180000000000000000000000000000000000000000000000b2
:0d79bd0000000000000000000000000000bd
:2079ca000000000000000000000400d00000000010000000000000000000000000010000b8
:2079ea0000000000000000000000000000000000000000000000000000000000000000007d
:207a0a0000000000000000000000000000000000000000000000000000000000000000005c
:0d7a2a00000000000000000000000000004f
:207a3700000000000000000000000000000000000002e0400000000000000000000000000d
:207a570000000000000000000000000000000000000000000000000000000000000000000f
:207a77000000000000000000000000000000000000000000004000000000000100000000ae
:0d7a970000000000000000000000000000e2
:207aa400000000000000000000080000000000002003400000000000000000000002000055
:207ac4000000000000000000000000000000000000000000000000000000000000000000a2
:207ae400000000000000000000000000000000000000000000000000000000000000000082
:0d7b04000000000000000000000000000074
:207b1100000000000000000000000000000000000000000000000000000000000000000054
:207f73000000000000000000000000000000000000000000000000000000000000010000ed
:207f93000000000000000000000000000000000000000000000000000000000000000000ce
:0d7fb30000000000000000000000000000c1
:207fc0000000000000000000000000000000000000000000000000000000000000000000a1
:207fe000000000000000000000000000000000000000000000000000000000000001000080
:20800000000000000000000000000000000000000000000000000000000000000000000060
:0d8020000000000000000000000000000053
:20802d00000000000000000000000000000000000000000000000000000000000000000033
:20804d00000000000000000000000000000000000000000000000000000000000000000013
:20806d000000000000000000000000000000000000000000000000000000000000000000f3
:0d808d0000000000000000000000000000e6
:20809a000000000000000000000000000000000000000000000000000000000000000000c6
:2080ba000000000000000000000000000000000000000000000000000000000000000000a6
:2080da00000000000000000000000000000000000000000000000000000000000000000086
:0d80fa000000000000000000000000000079
:20810700000000000000000000000000000000000000000000000000000000000000000058
:20812700000000000000000000000000000000000000000000000000000000000000000038
:20814700000000000000000000000000000000000000000000000000000000000000000018
:0d816700000000000000000000000000000b
:208174000000000000000000000000000000000000000000000000000000000000000000eb
:208194000000000000000000000000000000000000000000000000000000000000000000cb
:2081b4000000000000000000000000000000000000000000000000000000000000000000ab
:0d81d400000000000000000000000000009e
:2081e10000000000000000000000000000000000000000000000000000000000000000007e
:2082010000000000000000000000000000000000000000000000000000000000000000005d
:2082210000000000000000000000000000000000000000000000000000000000000000003d
:0d8241000000000000000000000000000030
:20824e00000000000000000000000000000000000000000000000000000000000000000010
:20826e000000000000000000000000000000000000000000000000000000000000000000f0
:20828e000000000000000000000000000000000000000000000000000000000000000000d0
:0d82ae0000000000000000000000000000c3
:2082bb000000000000000000000000000000000000000000000000000000000000000000a3
:2082db00000000000000000000000000000000000000000000000000000000000000000083
:2082fb0000000000000000000000000000000000000000000000000000000000000000045f
:0d831b000000000000001000000000000045
:20832800000000000000000000000000000000000000000000000000000000000000000035
:20834800000000000000000000000000000000000000000000000000000000000000000015
:208368000000000000000000000000000000000000000000000000000000000000000004f1
:0d83880000000000000010000000000000d8
:208395000000000000000000000000000000000000000000000000000000000000000000c8
:2083b5000000000000000000000000000000000000000000000000000000000000000000a8
:2083d500000000000000000000000000000000000000000000000000000000000000000088
:0d83f500000000000000000000000000007b
:2084020000000000000000000000000000000000000000000000000000000000000000005a
:2084220000000000000000000000000000000000000000000000000000000000000000003a
:2084420000000000000000000000000000000000000000000000000000000000000000001a
:0d846200000000000000000000000000000d
:20846f000000000000000000000000000000000000000000000000000000000000000000ed
:20848f000000000000000000000000000000000000000000000000000000000000000000cd
:2084af000000000000000000000000000000000000000000000000000000000000000000ad
:0d84cf0000000000000000000000000000a0
:2084dc00000000000000000000000000000000000000000000000000000000000000000080
:2084fc00000000000000000000000000000000000000000000000000000000000000000060
:20851c0000000000000000000000000000000000000000000000000000000000000000003f
:0d853c000000000000000000000000000032
:20854900000000000000000000000000000000000000000000000000000000000000000012
:208569000000000000000000000000000000000000000000000000000000000000000000f2
:208589000000000000000000000000000000000000000000000000000000000000000000d2
:0d85a90000000000000000000000000000c5
:2085b6000000000000000000000000000000000000000000000000000000000000000000a5
:2085d600000000000000000000000000000000000000000000000000000000000000000085
:2085f600000000000000000000000000000000000000000000000000000000000000000065
:0d8616000000000000000000000000000057
:20862300000000000000000000000000000000000000000000000000000000000000000037
:20864300000000000000000000000000000000000000000000000000000000000000000017
:208663000000000000000000000000000000000000000000000000000100000000000000f6
:0d86830000000000000010000000000000da
:208690000000000000000000000000000000000000000000000000000000000000000000ca
:2086b0000000000000000000000000000000000000000000000000000000000000000000aa
:2086d000000000000000000000000000000000000000000000000000010000000000000089
:0d86f000000000000000100000000000006d
:2086fd0000000000000000000000000000000000000000000000000000000000000000005d
:20871d0000000000000000000000000000000000000000000000000000000000000000003c
:20873d0000000000000000000000000000000000000000000000000000000000000000001c
:0d875d00000000000000000000000000000f
:20876a000000000000000000000000000000000000000000000000000000000000000000ef
:20878a000000000000000000000000000000000000000000000000000000000000000000cf
:2087aa000000000000000000000000000000000000000000000000000000000000000000af
:0d87ca0000000000000000000000000000a2
:2087d700000000000000000000000000000000000000000000000000000000000000000082
:2087f700000000000000000000000000000000000000000000000000000000000000000062
:20881700000000000000000000000000000000000000000000000000000000000000000041
:0d8837000000000000000000000000000034
:20884400000000000000000000000000000000000000000000000000000000000000000014
:208864000000000000000000000000000000000000000000000000000000000000000000f4
:208884000000000000000000000000000000000000000000000000000000000000000000d4
:0d88a40000000000000000000000000000c7
:2088b1000000000000000000000000000000000000000000000000000000000000000000a7
:2088d100000000000000000000000000000000000000000000000000000000000000000087
:2088f100000000000000000000000000000000000000000000000000000000000000000067
:0d8911000000000000000000000000000059
:20891e00000000000000000000000000000000000000000000000000000000000000000039
:20893e00000000000000000000000000000000000000000000000000000000000000000019
:20895e000000000000000000000000000000000000000000400000000000000000000000b9
:0d897e0000000000000000000000000000ec
:20898b000000000000000000000000000000000000000000000000000000000000000000cc
:2089ab000000000000000000000000000000000000000000000000000000000000010000ab
:2089cb00000000000000000000000000000000000000400000000000000000000000000448
:0d89eb00000000000000000000000000007f
:2089f80000000000000000000000000000000000000000000000000000000000000000005f
:208a180000000000000000000000000000000000000000000000000000000000000100003d
:208a38000000000000000000000000000000000000004000000000000000000000000004da
:0d8a58000000000000000000000000000011
:208a65000000000000000000000000000000000000000000000000000000000000000000f1
:208a85000000000000000000000000000000000000000000000000000000000000000000d1
:208aa5000000000004000000000000000000000000000000000000000000000000000000ad
:0d8ac5000000000000000020000000000084
:208ad200000000000000000000000000000000000000000000000000000000000000000084
:208af200000000000000000000000000000000000000000000000000000000000000000064
:208b1200000000000000000000000000000000000000000000000000000000000000000043
:0d8b32000000000000000000000000000036
:208b3f00000000000000000000000000000000000000000000000000000000000000000016
:208b5f000000000000000000000000000000000000000000000000000000000000000000f6
:208b7f000000000000000000000000000000000000000000000000000000000000000000d6
:0d8b9f0000000000000000000000000000c9
:208bac000000000000000000000000000000000000000000000000000000000000000000a9
:208bcc00000000000000000000000000000000000000000000000000000000000000000089
:208bec00000000000000000000000000000000000000000000000000000000000000000069
:0d8c0c00000000000000000000000000005b
:208c190000000000000000000000000000000000000000000000000000000000000000102b
:208c390000000000000000000000000000000000000000000000000000000000000000001b
:208c59000000000000000000000000000000000000000000000000000000000000000000fb
:0d8c790000000000000000000000000000ee
:208c86000001000000000000000000000000000000000000000000000000000000000000cd
:208ca6000000000000000000000000000000000000000000000000000000000000000000ae
:208cc60000000000000000000000000000000000000000000000000000000000000000008e
:0d8ce6000000000000000000000000000081
:208cf3000c0000000000000000000000000000000000000000000000000000000000000055
:208d1300000000000000000000000000000000000000000000000000000000000000000040
:208d3300000000000000000000000000000000000000000000000000000000000000000020
:0d8d53000000000000000000000000000013
:208d60004000000000000000000000000000000000000000000000000000000000000000b3
:208d80000000000000000000000000000000000000000000000000000000000000000000d3
:208da0000000000000000000000000000000000000000000000000000000000000000000b3
:0d8dc00000000000000000000000000000a6
:208dcd00802c000000000000000000000000000000000000000000000000000000000000da
:208ded00000000000400000000000000000000000000000000000000000000000000000062
:208e0d00000000000000000000000000000000000000000000000000000000000000000045
:0d8e2d000000000000000000000000000038
:208e3a00000400000000000000000000000000000000000000000000000000000000000014
:208e5a000000000002000000000000000000000000000000000000000000000000000000f6
:208e7a000000000000000000000000000000000000000000000000000000000000000000d8
:0d8e9a0000000000000000000000000000cb
:208ea7000000000000000000000000000000000000000000000000000000000000000000ab
:208ec70000003c00000000000000000000000000000000000000000000000000000000004f
:208ee70000000000000000000000000000000000000000000000000000000000000000006b
:0d8f0700000000000000000000000000005d
:208f14004000000000000000000000000000000000000000000000000000000000000000fd
:208f340000683c020000000000000000000000000000000000000000000000000000000077
:208f54000000000000000000000000000000000000000000000000000000000000000000fd
:0d8f740000000000000000000000000000f0
:208f81000000000000000000000000000000000000000000000000000000000000000000d0
:208fa1000000000000000000000000000000000000000000000000000000000000000000b0
:208fc100000000000000000000000000000000000000000000000000000000000000000090
:0d8fe1000000000000000000000000000083
:208fee00000000000000000000000000000000000000000000000000000000000000000063
:20900e00000000000000000000000000000000000000000000000000000000000000000042
:20902e00000000000000000000000000000000000000000000000000000000000000000022
:0d904e000000000000000000000000000015
:20905b000000000000000000000000000000000000000000000000000000000000000000f5
:20907b000000000000000000000000000000000000000000000000000000000000000000d5
:20909b000000000000000000000000000000000000000000000000000000000000000000b5
:0d90bb0000000000000000000000000000a8
:2090c800000000000000000000000000000000000000000000000000000000000000000088
:2090e800000000000000000000000000000000000000000000000000000000000000000068
:20910800000000000000000000000000000000000000000000000000000000000000000047
:0d912800000000000000000000000000003a
:209135000000000000000000000000000000000000200000000000000000000000000000fa
:209155000000000000000000000000000000000000000000000000000000000000000000fa
:209175000000000000180000000000000000000000000000000000000000000000000000c2
:0d91950000000000000000000000000000cd
:2091a20000000000000000000000000000000000005000000000000000000000000000005d
:2091c20000000000000000000000000000000000000000000000000000000000000000008d
:2091e20000000000000000000000000000000000000000000000000000000000000000006d
:0d920200000000000000000000000000005f
:20920f0000000000000000000000000000000000000000000000000000000000000000003f
:20922f0000000000000000000000000000000000000000000000000000000000000000001f
:20924f000000000000000000000000000000000000000000000000000000000000000000ff
:0d926f0000000000000000000000000000f2
:20927c000000000000000000000000000000000000000000000000000000000000000000d2
:20929c000000000000000000000000000000000000000000000000000000000000000000b2
:2092bc00000000000000000000000000000000000000000000000000000000000000000092
:0d92dc000000000000000000000000000085
:2092e900000000000000000000000000000000000000000000000000000000000000000065
:20930900000000000000000000000000000000000000000000000000000000000000000044
:20932900000000000000000000000000000000000000000000000000000000000000000024
:0d9349000000000000000000000000000017
:209356000000000000000000000000000000000000000000000000000000000000000000f7
:209376000000000000000000000000000000000000000000000000000000000000000000d7
:209396000000000000000000000000000000000000000000000000000000000000000000b7
:0d93b60000000000000000000000000000aa
:2093c30000000000000000000000000000000000000000000000000000000000000000008a
:2093e30000000000000000000000000000000000000000000000000000000000000000006a
:20940300000000000000000000000000000000000000000000000000000000000000000049
:0d942300000000000000000000000000003c
:2094300000000000000000000000000000000000000000000000000000000000000000001c
:209450000000000000000000000000000000000000000000000000000000000000000000fc
:209470000000000000000000000000000000000000000000000000000000000000000000dc
:0d94900000000000000000000000000000cf
:20949d000000000000000000000000000000000000000000000000000000000000000000af
:2094bd0000000000000000000000000000000000000000000000000000000000000000008f
:2094dd0000000000000000000000000000000000000000000000000000000000000000006f
:0d94fd000000000000000000000000000062
:20950a00000000000000000000000000000000000000000000000000000000000000000041
:20952a00000000000000000000000000200000000000000000000000000000000000000001
:20954a00000000000000000000000000000000000000000000000000000000000000000001
:0d956a0000000000000000000000000000f4
:209577000000000000000000000000000000000000000000000000000000000000000000d4
:209597000000000000000000000000000000000000000000000000000000000000000000b4
:209bfa0000000000000000000000000000400000000000000000000000000000000000000b
:209c1a0000000000000000000000000000000000000000000000000000000000000000002a
:0d9c3a00000000000000000000000000001d
:209c47000000000000000000000000000000000000000000000000000000000000000000fd
:209c67000000000000000000000000000000000000000000000000000000000000000000dd
:209c87000000000000000000000000000000000000000000000000000000000000000000bd
:0d9ca70000000000000000000000000000b0
:209cb400000000000000000000000000000000000000000000000000000000000000000090
:209cd400000000000000000000000000000000000000000000000000000000000000000070
:209cf400000000000000000000000000000000000000000000000000000000000000000050
:0d9d14000000000000000000000000000042
:209d21000040000000000000000000000000000000000000000000000000000000000000e2
:209d4100000000000000000000000000000000000000000000000000000000000000000002
:209d61000000000000000000000000000000000000000000000000000000000000000000e2
:0d9d810000000000000000000000000000d5
:209d8e00007000000000000000000000000000000000000000000000000000000000000045
:209dae00000000000000000000000000000000000000000000000000000000000000000095
:209dce00000000000010000000000000000000000000000000000000000000000000000065
:0d9dee000000000000000000000000000068
:209dfb00000000000000000000000000000000000000000000000000000000000000000048
:209e1b00000000000000000000000000000000000000000000000000000000000000000027
:209e3b000000000000000000000000000000000000004000000000000000000000000000c7
:0d9e5b0000000000000000000000000000fa
:209e68000000000000000000000000000000000000000000000000000000000000000000da
:209e88000000000000000000000000000000000000000000000000000000000000000000ba
:209ea80000000000000000000000000000000000000040000000000000000000000000005a
:0d9ec800000000000000000000000000008d
:209ed50000000000000000000000000000000000000000000000000000000000000000006d
:209ef500000000000000000000000028000000000000000000000000000000000000000025
:209f150000000000000000000000000000000000000000000000000000000000000000002c
:0d9f3500000000000000000000000000001f
:209f42000000000000000000000000000000000000000000000000000000000000000000ff
:209f62000000000000000000000000000000000000000000000000000000000000000000df
:209f82000000000000000000000000000000000000000000000000000000000000000000bf
:0d9fa20000000000000000000000000000b2
:209faf00000000000000000000000000000000000000000000000000000000000000000092
:209fcf00000000000000000000000000000000000000000000000000000000000000000072
:209fef00000000000000000000000000000000000000000000000000000000000000000052
:0da00f000000000000000000000000000044
:20a01c00000000000000000000000000000000000000000000000000000000000000000024
:20a03c00000000000000000000000000000000000000000000000000000000000000000004
:20a05c000000000000000000000000000000000000000000000000000000000000000000e4
:0da07c0000000000000000000000000000d7
:20a089000000000000000000000000000000000000000000000000000000000000000000b7
:20a0a900000000000000000000000000000000000000000000000000000000000000000097
:20a0c900000000000000000000000000000000000000000000000000000000000000000077
:0da0e900000000000000000000000000006a
:20a0f600000100000000000000000000000000000000000000000000000000000000000049
:20a11600000000000000000000000000000000000000000000000000000000000000000029
:20a13600000000000000000000000000000000000000000000000000000000000000000009
:0da1560000000000000000000000000000fc
:20a163000c00000000000000000000000000000000000000000000000000000000000000d0
:20a183000000000000000000000000000000000000000000000000000000000000000000bc
:20a1a30000000000000000000000000000000000000000000000000000000000000000009c
:0da1c300000000000000000000000000008f
:20a1d0004c0000000000000000000000000000000000000000000000000000000000000023
:20a1f00000000000000000000000000000000000000000000000000000000000000000004f
:20a210000000000000000000000000000000000000004000000000000100000000000000ed
:0da230000000000000000000000000000021
:20a23d00800000000000000000000000000000000050000000000000000000000000000031
:20a25d000000000000000000000000000000000000000000000000000000000000000000e1
:20a27d000000000000000000000000000000000000000000000000000000000000000000c1
:0da29d0000000000000000000000000000b4
:20a2aa00000000000000000000000000000000000000000000000000000000000000000094
:20a2ca00000000000000000000000000000000000000000000000000000000000000000074
:20a2ea00000000000000000000000000000000000000000000000000000000000000000054
:0da30a000000000000000000000000000046
:20a31700000000000000000000000000000000000000000000000000000000000000000026
:20a33700000000000000000000000000000000000000000000000000000000000000000006
:20a357000000000000000000000000000000000000000000000000000000000000000000e6
:0da3770000000000000000000000000000d9
:20a38400400000000000000000000000000000000000000000000000000000000000000079
:20a3a400000000000000000000000000000000000000000000000000000000000000000099
:20a3c400000000000000000000000000000000000000000000000000000000000000000079
:0da3e400000000000000000000000000006c
:20a3f10000000000000000000000000000000000000000000000000000000000000000004c
:20a4110000000000000000000000000000000000000000000000000000000000000000002b
:20a4310000000000000000000000000000000000000000000000000000000000000000000b
:0da4510000000000000000000000000000fe
:20a45e000000000000000000000000000000000000000000000000000000000000000000de
:20a47e000000000008000000000000000000000000000000000000000000000000000000b6
:20a49e0000000000000000000000000000000000000000000000000000000000000000009e
:0da4be000000000000000000000000000091
:20a4cb00000000000000000000000000000000000000000000000000000000000000000071
:20a4eb00000000000000000000000000000000000000000000000000000000000000000051
:20a50b00000000000000000000000000000000000000000000000000000000000000000030
:0da52b000000000000000000000000000023
:20a53800000000000000000000000000000000000000000000000000000000000000000003
:20a558000000000000000000000000000000000000000000000000000000000000000000e3
:20a578000000000000000000000000000000000000000000000000000000000000000000c3
:0da5980000000000000000000000000000b6
:20a5a500000000000000000000000000000000000000000000000000000000000000000096
:20a5c500000000000000000000000000000000000000000000000000000000000000000076
:20a5e500000000000000000000000000000000000000000000000000000000000000000056
:0da605000000000000000000000000000048
:20a61200000000000000000000000000000000000000000000000000000000000000000028
:20a63200000000000000000000000000000000000000000000000000000000000000000008
:20a652000000000000000000000000000000000000000000000000000000000000000000e8
:0da6720000000000000000000000000000db
:20a67f000000000000000000000000000000000000000000000000000000000000000000bb
:20a69f0000000000000000000000000000000000000000000000000000000000000000009b
:20a6bf0000000000000000000000000000000000000000000000000000000000000000007b
:0da6df00000000000000000000000000006e
:20a6ec0000000000000000000000000000000000000000000000000000000000000000004e
:20a70c0000000000000000000000000000000000000000000000000000000000000000002d
:20a72c0000000000000000000000000000000000000000000000000000000000000000000d
:0da74c000000000000000000000000000000
:20a759000000000000000000000000000000000000000000000000000000000000000000e0
:20a779000000000000c0000000000000000000000000000000000000000000000000000000
:20a799000000000000000000000000000000000000000000000000000000000000000000a0
:0da7b9000000000000000000000000000093
:20a7c600000000000000000000000000000000000000000000000000000000000000000073
:20a7e60000000000000000000000000000000000000000000000000000000000000004004f
:20a80600000000000000000000000000000000000000000000000000000000000000000032
:0da826000000000000000000000000000025
:20a83300000000000000000000000000000000000000000000000000000000000000000005
:20a853000000000000000000000000000000000000000000000000000000000000000000e5
:20a873000000000000000000000000000000000000000000000000000000000000000000c5
:0da8930000000000000000000000000000b8
:20a8a000000000000000000000000000000000000000000000000000000000000000000098
:20a8c000000000000000000000000000000000000000000000000000000000000000000078
:20a8e000000000000000000000000000000000000000000000000000000000000000000058
:0da90000000000000000000000000000004a
:20a90d0000000000000000000000000000000000000000000000000000000000000000002a
:20a92d0000000000000000000000000000000000000000000000000000000000000000000a
:20a94d000000000000000000000000000000000000000000000000000000000000000000ea
:0da96d0000000000000000000000000000dd
:20a97a000000000000000000000000000000000000000000000000000000000000000000bd
:20a99a0000000000000000000000000000000000000000000000000000000000000000009d
:20a9ba0000000000000000000000000000000000000000000000000000000000000000007d
:0da9da000000000000000000000000000070
:20a9e700000000000000000000000000000000000000000000000000000000000000000050
:20aa070000000000000000000000000000000000000000000000000000000000000000002f
:20aa270000000000000000000000000000000000000000000000000000000000000000000f
:0daa47000000000000000000000000000002
:20aa54000000000000000000000000000000000000000000000000000000000000000000e2
:20aa74000000000000000000000000000000000000000000000000000000000000000000c2
:20aa94000000000000000000000000000000000000000000000000000000000000000000a2
:0daab4000000000000000000000000000095
:20aac100000000000000000000000000000000000000000000000000000000000000000075
:20aae100000000000000000000000000000000000000000000000000000000000000000055
:20ab0100000000000000000000000000000000000000000000000000000000000000000034
:0dab21000000000000000000000000000027
:20ab2e00000000000000000000000000000000000000000000000000000000000000000007
:20ab4e000000000000000000000000000000000000000000000000000000000000000000e7
:20ab6e000000000000010000000000000000000000000000000000000000000000000000c6
:0dab8e0000000000000000000000000000ba
:20ab9b0000000000000000000000000000000000000000000000000000000000000000009a
:20abbb0000000000000000000000000000000000000000000000000000000000000000007a
:20abdb00000000000000000000000000000000000000000000000000010000000000000059
:0dabfb00000000000000000000000000004d
:20ac080000000000000000000000000000000000000000000000000000000000000000002c
:20ac280000000000000000000000000000000000000000000000000000000000000000000c
:20ac48000000000000000000000000000000000000000000000000000100000000000000eb
:0dac680000000000000000000000000000df
:20ac75000000000000000000000000000000000000000000000000000000000000000000bf
:20ac950000000000000000000000000000000000000000000000000000000000000000009f
:20acb50000000000000000000000000000000000000000000000000000000000000000007f
:0dacd5000000000000000000000000000072
:20ace200000000000000000000000000000000000000000000000000000000000000000052
:20ad0200000000000000000000000000000000000000000000000000000000000000000031
:20ad2200000000000000000000000000000000000000000000000000000000000000000011
:0dad42000000000000000000000000000004
:20ad4f000040000000000000000000000000000000000000000000000000000000000000a4
:20ad6f000000000000000000000000000000000000000000000000000000000000000000c4
:20ad8f000000000000000000000000000000000000000000000000000000000000000000a4
:0dadaf000000000000000000000000000097
:20adbc0000280000000000000000000000000000000000000000000000000000000000004f
:20addc00000000000000000000000000000000000000000000000000000000000000000057
:20adfc00000000000000000000000000000000000000000000000000000000000000000037
:0dae1c000000000000000000000000000029
:20ae2900000000000000000000000000000000000000000000000000000000000000000009
:20ae49000000000000000000000000000000000000000000000000000000000000000000e9
:20ae69000000000000000000000000000000000000000000000000000000000000000000c9
:0dae890000000000000000000000000000bc
:20ae960000010000000000000000000000000000000000000000000000000000000000009b
:20aeb60000000000000000000000000000000000000000000000000000000000000000007c
:20aed60000000000000000000000000000000000000000000000000000000000000000005c
:0daef600000000000000000000000000004f
:20af0300080000000000000000000000000000000000000000000000000000000000000026
:20af230000000000000000000000000000000000000000000000000000000000000000000e
:20af43000000000000000000000000000000000000000000000000000000000000000000ee
:0daf630000000000000000000000000000e1
:20af700044000000000000000000000000000000000000000000000000000000000000007d
:20af90000000000000000000000000000000000000000000000000000000000000000000a1
:20afb000000000000000000000000000000000000000000000000000000000000000000081
:0dafd0000000000000000000000000000074
:20afdd008000000000000000000000000000000000000000000000000000000000000000d4
:20affd00000000000000000000000000000000000000000000000000000000000000000034
:20b01d00000000000000000000000000000000000000000000000000000000000000000013
:0db03d000000000000000000000000000006
:20b04a000000000000000000000000000000000000000000000000000000000000000000e6
:20b06a000000000000000000000000000000000000000000000000000000000000000000c6
:20b08a000000000000000000000000000000000000000000000000000000000000000000a6
:0db0aa000000000000000000000000000099
:20b0b700000000000000000000000000000000000000000000000000000000000000000079
:20b0d700000000000000000000000000000000000000000000000000000000000000000059
:20b0f700000000000000000000000000000000000000000000000000000000000000000039
:0db11700000000000000000000000000002b
:20b124004000000000000000000000000000000000000000000000000000000000000000cb
:20b144000000000000000000000000000000000000000000000000000000000000000000eb
:20b164000000000000000000000000000000000000000000000000000000000000000000cb
:0db1840000000000000000000000000000be
:20b1910000000000000000000000000000000000000000000000000000000000000000009e
:20b1b100000000000000000000000004000000000000000000000004000000000000100066
:20b1d1000000000000400000000000010247b5053000040000b42a84001000000000000074
:0db1f1000000000000000100000000000050
:20b1fe00000000000000000000000000000000000000000000000000000000000000000031
:20b21e00000000000000000000000000000000000000000000000000000000000000000010
:20b23e00000000000000000000000000020240ca302000000e879540000000000000000028
:0db25e0000000000000000000000000000e3
:20b26b000000000000000000000000000000000000000000000000000000000000000000c3
:20b28b00000000000000000000000004000000000000000000000004000000000004100087
:20b2ab0000000000004008a00000000102423e05f000000000000000000000000000000023
:0db2cb000000000000000000000000000076
:20b2d800000000000000000000000000000000000000000000000000000000000000000056
:20b2f80000000000000000000000000000000000000000000000000000000000000400062c
:20b318000000000000007010000000000207fdef00000000000000000000000000000000a0
:0db338000000000000000000000000000008
:20b345000000000000000000000000000000000000000000000000000000000000000000e8
:20b365000000000000000000000000000000000000000000000000000000000000000000c8
:20b3850000000000000001093240234000031ff02000000000000000000000000000000097
:0db3a500000000000000000000000000009b
:20b3b20000000000000000000000000000000000000000000000000000000000000000007b
:20b3d20000000000000000000000000000000000000000000000000000000000000000005b
:20b3f20000000000000000e9b9410040000035e3600000001e000000000000000000000082
:0db41200000000000000000000000000002d
