:02000000ff00ff
:080002004c6174746963650030
:17000a00694345637562653220323032302e31322e32373934330071
:16002100506172743a2069434534304858384b2d43423133320018
:1b003700446174653a204d617920323820323032322031363a30343a32360078
:0200520000ffad
:040054007eaa997e69
:02005800510055
:02005a0001059e
:03005c00920020ef
:03005f00620367d2
:0300620072011018
:0300650082000016
:02006800110085
:02006a00010192
:20006c00000000000000000000000000000000000000000000000000000000000000000074
:20008c00000000000000000000000000000000000000000000000000000000000000000054
:2000ac0000000000000000000000000800000000000000000000000000000000000000002c
:0d00cc000000000000000000000000000027
:2000d900000000000000000000000000000000000000000000000000000000000000000007
:2000f9000000000000000000000000000000000000000000000000000000000000000000e7
:200119000000000000000000000000000000000000000000000000000000000000000000c6
:0d01390000000000000000000000000000b9
:20014600000000000000000000000000000000000000000000000000000000000000000099
:20016600000000000000000000000000000000000000000000000000000000000000000079
:20018600000000000000000000000004000000000000000000000000000000000000000055
:0d01a6000000000000000400000000000048
:2001b30000000000000000000000000000000000000000000000000000000000000000002c
:2001d30000000000000000000000000000000000000000000000000000000000000000000c
:2001f3000000000000000000000000000000000000000000000000000000000000000000ec
:0d02130000000000000000000000000000de
:200220000000000000000000000000000000000000000000000000000000000000000000be
:2002400000000000000000000000000000000000000000000000000000000000000000009e
:20026000000000000000000000000008000000000000000000000000000000000000000076
:0d0280000000000000000000000000000071
:20028d00000000000000000000000000000000000000000000000000000000000000000051
:2002ad00000000000000000000000000000000000000000000000000000000000000000031
:2002cd00000000000000000000000000000000000000000000000000000000000000000011
:0d02ed000000000000000000000000000004
:2002fa000000000000000000000000000000000000000000000000000000000000000000e4
:20031a000000000000000000000000000000000000000000000000000000000000000000c3
:20033a000000000000000000000000000000000000000000000000000000000000000000a3
:0d035a000000000000000000000000000096
:20036700000000000000000000000000000000000000000000000000000000000000000076
:20038700000000000000000000000000000000000000000000000000000000000000000056
:2003a700000000000000000000000000000000000000000000000000000000000000000036
:0d03c7000000000000000000000000000029
:2003d400000000000000000000000000000000000000000000000000000000000000000009
:2003f4000000000000000000000000000000000000000000000000000000000000000000e9
:200414000000000000000000000000000000000000000000000000000000000000000000c8
:0d04340000000800000000000010000000a3
:2004410000000000000000000000000000000000000000000000000000000000000000009b
:2004610000000000000000000000000000000000000000000000000000000000000000007b
:2004810000000000000000000000000000000000000000000000000000000000000000005b
:0d04a100000000000000000000000000004e
:2004ae0000000000000000000000000000000000000000000000000000000000000000002e
:2004ce0000000000000000000000000000000000000000000000000000000000000000000e
:2004ee000000000000000000000000000000000000000000000000000000000000000000ee
:0d050e0000000000000000000000000000e0
:20051b000000000000000000000000000000000000000000000000000000000000000000c0
:20053b000000000000000000000000000000000000000000000000000000000000000000a0
:20055b0000000000000000000000000000000000000000000000000000000000000000027e
:0d057b000000000000000000000000000073
:20058800000000000000000000000000000000000000000000000000000000000000000053
:2005a800000000000000000000000000000000000000000000000000000000000000000033
:2005c800000000000000000000000000000000000000000000000000000000000000000013
:0d05e8000000000000000000000000000006
:2005f5000000000000000000000000000000000000000000000000000000000000000000e6
:200615000000000000000000000000000000000000000000000000000000000000000000c5
:200635000000000000000000000000000000000000000000000000000000000000000001a4
:0d0655000000000000000000000000000098
:20066200000000000000000000000000000000000000000000000000000000000000000078
:20068200000000000000000000000000000000000000000000000000000000000000000058
:2006a200000000000000000000000000000010000000000000000000000000000000000028
:0d06c200000000000000000000100000001b
:2006cf0000000000000000000000000000000000000000000000000000000000000000000b
:2006ef000000000000000000000000000000000000000000000000000000000000000000eb
:20070f000000000000000000000000000000000000000000000000000000000000000002c8
:0d072f0000000000000000000000000000bd
:20073c0000000000000000000000000000000000000000000000000000000000000000009d
:20075c0000000000000000000000000000000000000000000000000000000000000000007d
:20077c0000000000000000000000000000000000000000000000000000000000000000005d
:2016d0000000000000000000000000000000000000000000000000000000000000000004f6
:0d16f00000000000000000000000000000ed
:2016fd000000000000000000000000000000000000000000000000000000000000000000cd
:20171d000000000000000000000000000000000000000000000000000000000000000000ac
:20173d0000000000000000000000000000000000000000000000000000000000000000008c
:201c19000002000000000000000000000000000000000000000000000000000000000000a9
:201c390000000000000000000000000000000000000000000000000000000000000000008b
:201c590000000000000000000000000000000000000000000000000000000000000000006b
:0d1c7900000000000000000000000000005e
:201c860000000000000000000000000000000000000000000000000000000000000000003e
:201ca60000000000000000000000000000000000000000000000000000000000000000001e
:201cc6000000000000000000000000000000000000000000000000000000000000000000fe
:0d1ce60000000000000000000000000000f1
:201cf3000000000000000000000000000000000000000000000000000000000000000000d1
:201d13000000000000000000000000000000000000000000000000000000000000000000b0
:201d3300000000000000000000000000000000000000000000000000000000000000000090
:0d1d53000000000000000000000000000083
:201d6000000000000000000000000000000000000000000000000000000000000000000063
:201d8000000000000000000000000000000000000000000000000000000000000000000043
:201da000000000000000000000000000000000000000000000000000000000000000000023
:0d1dc0000000000000000000000000000016
:201dcd000000000000000000000000000000000000000000000000000000000000000000f6
:201ded000000000000000000000000000000000000000000000000000000000000000000d6
:201e0d000000000000000000000000000000000000000000000000000000000000000000b5
:0d1e2d0000000000000000000000000000a8
:201e3a00000000000000000000000000000000000020000000000000000000000000000068
:201e5a00000000000000000000000000000000000000000000000000000000000000000068
:201e7a00000000000000000000000000000000000000000000000000000000000000000048
:0d1e9a00000000000000000000000000003b
:201ea7000000000000000000000000000000000000400000000000000000000000000000db
:201ec7000000000000000000000000000000000000000000000000000000000000000000fb
:201ee7000000000000000000000000000000000000000000000000000000000000000000db
:0d1f070000000000000000000000000000cd
:201f14000000000000000000000000000000000000000000000000000000000000000000ad
:201f340000000000000000000000000000000000000000000000000000000000000000008d
:201f540000000000000000000000000000000000000000000000000000000000000000006d
:0d1f74000000000000000000000000000060
:201f8100003800000000000000000000000000000000000000000000000000000000000008
:201fa100000000000000000000000000000000000000000000000000000000000000000020
:201fc100000000000000000000000000000000000000000000000000000000000000000000
:0d1fe10000000000000000000000000000f3
:201fee0044000000000000000000000000000000000000000000000000000000000000008f
:20200e000000000000000000000000000000000000000000000000000000000000000000b2
:20202e00000000000000000000000000000000000000000000000000000000000000000092
:0d204e000000000000000000000000000085
:20205b0008000000000000000000000000000000000000000000000000000000000000005d
:20207b00000000000000000000000000000000000000000000000000000000000000000045
:20209b00000000000000000000000000000000000000000000000000000000000000000025
:0d20bb000000000000000000000000000018
:2020c8000000000000000000000000000000000000000000000000000000000000000000f8
:2020e8000000000000000000000000000000000000000000000000000000000000000000d8
:202108000000000000000000000000000000000000000000000000000000000000000000b7
:0d21280000000000000000000000000000aa
:2021350080000000000000000000000000000000000000000000000000000000000000000a
:2021550000000000000000000000000000000000000000000000000000000000000000006a
:2021750000000000000000000000000000000000000000000000000000000000000000004a
:0d219500000000000000000000000000003d
:2021a2004000000000000000000000000000000000000000000000000000000000000000dd
:2021c2000000000000000000000000000000000000000000000000000000000000000000fd
:2021e2000000000000000000000000000000000000000000000000000000000000000000dd
:0d22020000000000000000000000000000cf
:20220f000000000000000000000000000000000000000000000000000000000000000000af
:20222f0000000000000000000000000000000000000000000000000000000000000000008f
:20224f0000000000000000000000000000000000000000000000000000000000000000006f
:0d226f000000000000000000000000000062
:20227c00000000000000000000000000000000000000000000000000000000000000000042
:20229c00000000000000000000000000000000000000000000000000000000000000000022
:2022bc00000000000000000000000000000000000000000000000000000000000000000002
:0d22dc0000000000000000000000000000f5
:2022e9000000000000000000000000000000000000000000000000000000000000000000d5
:202309000000000000000000000000000000000000000000000000000000000000000000b4
:20232900000000000000000000000000000000000000000000000000000000000000000094
:0d2349000000000000000000000000000087
:20235600000000000000000000000000000000000000000000000000000000000000000067
:20237600000000000000000000000000000000000000000000000000000000000000000047
:20239600000000000000000000000000000000000000000000000000000000000000000027
:0d23b600000000000000000000000000001a
:2023c3000000000000000000000000000000000000000000000000000000000000000000fa
:2023e3000000000000000000000000000000000000000000000000000000000000000000da
:202403000000000000000000000000000000000000000000000000000000000000000000b9
:0d24230000000000000000000000000000ac
:2024300000000000000000000000000000000000000000000000000000000000000000008c
:2024500000000000000000000000000000000000000000000000000000000000000000006c
:2024700000000000000000000000000000000000000000000000000001000000000000004b
:0d249000000000000000000000000000003f
:20249d0000000000000000000000000000000000000000000000000000000000000000001f
:2024bd000000000000000000000000000000000000000000000000000000000000000000ff
:2024dd000000000000000000000000000000000000000000000000000000000000000000df
:20294c0040000000000000000000000000000000000000000000000000000000000000002b
:20296c0000000000000000000000000000000000000000000000000000000000000000004b
:20298c0000000000000000000000000000000000000000000000000000000000000000002b
:0d29ac00000000000000000000000000001e
:2029b9000000000000000000000000000000000000000000000000000000000000000000fe
:2029d9000000000000000000000000000000000000000000000000000000000000000000de
:2029f9000000000000000000000000000000000000000000000000000000000000000000be
:0d2a190000000000000000000000000000b0
:202a2600000000000000000000000000000000000000000000000000000000000000000090
:202a4600000000000000000000000000000000000000000000000000000000000000000070
:202a6600000000000000000000000000000000000000000000000000000000000000000050
:0d2a86000000000000000000000000000043
:202a93008000000000000000000000000000000000000000000000000000000000000000a3
:202ab300000000000000000000000000000000000000000000000000000000000000000003
:202ad3000000000000000000000000000000000000000000000000000000000000000000e3
:0d2af30000000000000000000000000000d6
:202b000048000000000000000000000000000000000000000000000000000000000000006d
:202b2000000000000000000000000000000000000000000000000000000000000000000095
:202b4000000000000000000000000000000000000000000000000000010000000000000074
:0d2b60000000000000000000000000000068
:202b6d000c000000000000000000000000000000000000000000000000000000000000003c
:202b8d00000000000000000000000000000000000000000000000000000000000000000028
:202bad00000000000000000000000000000000000000000000000000000000000000000008
:0d2bcd0000000000000000000000000000fb
:202bda000005000000000000000000000000000000000000000000000000000000000000d6
:202bfa000000000000000000000000000000000000000000000000000000000000000000bb
:202c1a0000000000000000000000000000000000000000000000000000000000000000009a
:0d2c3a00000000000000000000000000008d
:202c4700002c00000000000000000000000000000000000000000000000000000000000041
:202c670000000000000000000000000000000000000000000000000000000000000000004d
:202c870000000000000000000000000000000000000000000000000000000000000000002d
:0d2ca7000000000000000000000000000020
:202cb400000000000000000000000000000000000000000000000000000000000000000000
:202cd4000000000000000000000000000000000000000000000000000000000000000000e0
:202cf4000000000000000000000000000000000000000000000000000000000000000000c0
:0d2d140000000000000000000000000000b2
:202d2100000000000000000000000000000000000000000000000000000000000000000092
:202d4100000000000000000000000000000000000000000000000000000000000000000072
:202d6100000000000000000000000000000000000000000000000000000000000000000052
:0d2d81000000000000000000000000000045
:202d8e00000000000000000000000000000000000000000000000000000000000000000025
:202dae000000000000000000000000000000000000000000000000400000000000000000c5
:202dce000000000000000000000000000000000000000000000000000000000000000000e5
:0d2dee0000000000000000000000000000d8
:202dfb000000000000000000000000000000000000000000000000000000000000000000b8
:202e1b00000000000000000000000000000000000000000000000000000000000000000097
:0d3230000000000000001000000000000081
:20323d00000000000000000000000000000000000000000000000000000000000000000071
:20325d00000000000000000000000000000000000000000000000000000000000000000051
:20327d00000000000000000000000000000000000000000000000000000000000000000031
:0d329d000000000000000000000000000024
:2038a0000000000000000000000000000000000000400000000000000000000000000000c8
:2038c0000000000000000000000000000000000000000000000000000000000000000000e8
:2038e0000000000000000000000000000000000000000000000000000000000000000000c8
:0d39000000000000000000000000000000ba
:20390d0000000000000000000000000000000000000000000000000000000000000000009a
:20392d0000000000000000000000000000000000000000000000000000000000000000007a
:20394d0000000000000000000000000000000000000000000000000000000000000000005a
:0d396d00000000000000000000000000004d
:20397a0000000000000000000000000000000000000000000000000000000000000000002d
:20399a0000000000000000000000000000000000000000000000000000000000000000000d
:2039ba000000000000000000000000000000000000000000000000000000000000000000ed
:0d39da0000000000000000000000000000e0
:2039e7000000000000000000000000000000000000000000000000000000000000000000c0
:203a070000000000000000000000000000000000000000000000000000000000000000009f
:203a270000000000000000000000000000000000000000000000000000000000000000007f
:0d3a47000000000000000000000000000072
:203a5400000000000000000000000000000000000000000000000000000000000000000052
:203a7400000000000000000000000000000000000000000000000000000000000000000032
:203a9400000000000000000000000000000000000000000000000000000000000000000012
:0d3ab4000000000000000000000000000005
:203ac1000000000000000000000000000000000000000000000000000000000000000000e5
:203ae1000000000000000000000000000000000000000000000000000000000000000000c5
:203b01000000000000000000000000000000000000000000000000000000000000000000a4
:0d3b21000000000000000000000000000097
:203b2e00000000000000000000000000000000000000000000000000000000000000000077
:203b4e00000000000000000000000000000000000000000000000000000000000000000057
:203b6e00000000000000000000000000000000000000000000000000000000000000000433
:0d3b8e00000000000000000000000000002a
:203b9b0000000000000000000000000000000000000000000000000000000000000000000a
:203bbb000000000000000000000000000000000000000000000000000000000000000000ea
:203bdb000000000000000000000000000000000000000000000000000000000000000000ca
:0d3bfb0000000000000000000000000000bd
:203c080000000000000000000000000000000000000000000000000001000000000000009b
:203c280000000000000000000000000000000000000000000000000000000000000000007c
:203c480000000000000000000000000000000000000000000000000000000000000000005c
:0d3c6800000000000000000000000000004f
:203c750000000000000000000000000000000000000000000000000000000000000000002f
:203fb0000000000000000000000000000000000000004000000000000000000000000000b1
:0d3fd00000000000000000000000000000e4
:203fdd000000000000000000000000000000000000000000000000000000000000000000c4
:203ffd000000000000000000000000000000000000000000000000000000000000000000a4
:20401d00000000000000000000000000000000000000000000000000000000000000000083
:0d403d000000000000000000000000000076
:20404a00000000000000000000000000000000000000000000000000000000000000000056
:20406a00000000000000000000000000000000000000000000000000000000000000000036
:20408a00000000000000000000000000000000000000000000000000000000000000000016
:0d40aa000000000000000000000000000009
:2040b7000000000000000000000000000000000000000000000000000000000000000000e9
:2040d7000000000000000000000000000000000000000000000000000000000000000000c9
:2040f7000000000000000000000000000000000000000000000000000000000000000000a9
:0d411700000000000000000000000000009b
:2041240000000000000000000000000000000000000000000000000000000000000000007b
:2041440000000000000000000000000000000000000000000000000000000000000000005b
:2041640000000000000000000000000000000000000000000000000000000000000000003b
:0d418400000000000000000000000000002e
:2041910000000000000000000000000000000000000000000000000000000000000000000e
:2041b1000000000000000000000000000000000000000000000000000000000000000000ee
:2041d1000000000000000000000000000000000000000000000000000000000000000000ce
:0d41f10000000000000000000000000000c1
:2041fe000000000000000000000000000000000000000000000000000000000000000000a1
:20421e00000000000000000000000000000000000000000000000000000000000000100070
:20423e00000000000000000000000000000000000000000000000000000000000000000060
:0d425e000000000000000000000000000053
:20426b00000000000000000000000000000000000000000000000000000000000000000033
:20428b00000000000000000000000000000000000000000000000000000000000000100003
:2042ab000000000000000000000000000000000000000000000000000000000000000000f3
:0d42cb0000000000000000000000000000e6
:2042d8000000000000000000000000000000000000000000000000000000000000000000c6
:2042f8000000000000000000000000000000000000000000000000000000000000000000a6
:20431800000000000000000000000000000000000000000000000000000000000000000085
:0d4338000000000000000000000000000078
:20434500000000000000000000000000000000000000000000000000000000000000000058
:20436500000000000000000000000000000000000000000000000000000000000000000038
:20438500000000000000000000000000000000000000000000000000000000000000000018
:0d43a500000000000000000000000000000b
:2043b2000000000000000000000000000000000000000000000000000000000000000000eb
:2043d2000000000000000000000000000000000000000000000000000000000000000000cb
:2043f2000000000000000000000000000000000000000000000000000000000000000000ab
:0d441200000000000000000000000000009d
:20441f0000000000000000000000000000000000000000000000000000000000000000007d
:20443f0000000000000000000000000000000000000010000000000000000000000010003d
:20445f0000000000000000000000000000000000000000000000000000000000000000003d
:0d447f000000000000000000000000000030
:20448c00000000000000000000000000000000000000000000000000000000000000000010
:2044ac000000000000000000000000000000000000000000000000000000000000000000f0
:2044cc000000000000000000000000000000000000000000000000000000000000000000d0
:0d44ec0000000000000000000000000000c3
:2044f9000000000000000000000000000000000000000000000000000000000000000000a3
:20451900000000000000000000000000000000000000000000000000000000000000000082
:20453900000000000000000000000000000000000000000000000000000000000000000062
:0d4559000000000000000000000000000055
:20456600000000000000000000000000000000000000000000000000000000000000000035
:20458600000000000000000000000000000000000000000000000000000000000000000015
:2045a6000000000000000000000000000000000000000000000000000000000000000000f5
:0d45c60000000000000000000000000000e8
:2045d3000000000000000000000000000000000000000000000000000000000000000000c8
:2045f3000000000000000000000000000000000000000000000000000000000000000000a8
:20461300000000000000000000000000000000000000000000000000000000000000000087
:0d463300000000000000000000000000007a
:2046400000000000000000000000000000000000000000000000000000000000000000005a
:2046600000000000000000000000000000000000000000000000000000000000000000003a
:2046800000000000000000000000000000000000000000000000000000000000000000001a
:0d46a000000000000000000000000000000d
:2046ad000000000000000000000000000000000000000000000000000000000000000000ed
:2046cd000000000000000000000000000000000000000000000000000000000000000000cd
:2046ed000000000000000000000000000000000000000000000000000000000000000000ad
:0d470d00000000000000000000000000009f
:20471a0000000000000000000000000000000000000000000000000000000000000000007f
:20473a0000000000000000000000000000000000000000000000000000000000000000005f
:20475a0000000000000000000000000000000000000000000000000001000000000000003e
:0d477a000000000000000000000000000032
:20478700000000000000000000000000000000000000000000000000000000000000000012
:2047a7000000000000000000000000000000000000000000000000000000000000000000f2
:2047c7000000000000000000000000000000000000000000000000000100000000000000d1
:0d47e70000000000000000000000000000c5
:2047f4000000000000000000000000000000000000000000000000000000000000000000a5
:20481400000000000000000000000000000000000000000000000000000000000000000084
:20483400000000000000000000000000000000000000000000000000000000000000000064
:204bc9000002000000000000000000000000000000000000000000000000000000000000ca
:204be9000000000000000000000000000000000000000000000000000000000000000000ac
:204c090000000000000000000000000000000000000000000000000000000000000000008b
:0d4c2900000000000000000000000000007e
:204c360000000000000000000000000000000000000000000000000000000000000000005e
:204c560000000000000000000000000000000000000000000000000000000000000000003e
:204c760000000000000000000000000000000000000000000000000000000000000000001e
:0d4c96000000000000000000000000000011
:204ca3000000000000000000000000000000000000000000000000000000000000000000f1
:204cc3000000000000000000000000000000000000000000000000000000000000000000d1
:204ce3000000000000000000000000000000000000000000000000000000000000000000b1
:0d4d030000000000000000000000000000a3
:204d1000000000000000000000000000000000000000000000000000000000000000000083
:204d3000000000000000000000000000000000000000000000000000000000000000000063
:204d5000000000000000000000000000000000000000000000000000000000000000000043
:0d4d70000000000000000000000000000036
:204d7d00000000000000000000000000000000000000000000000000000000000000000016
:204d9d000000000000000000000000000000000000000000000000000000000000000000f6
:204dbd000000000000000000000000000000000000000000000000000000000000000000d6
:0d4ddd0000000000000000000000000000c9
:204dea000000000000000000000000000000000000000000000000000000000000000000a9
:204e0a00000000000000000000000000000000000001000000000000000000000000000087
:204e2a00000000000000000000000000000000000000000000000000000000000000000068
:0d4e4a00000000000000000000000000005b
:204e570000000000000000000000000000000000000000000000000000000000000000003b
:204e770000000000000000000000000000000000000100000000000000000000000000001a
:204e97000000000000000000000000000000000000000000000000000000000000000000fb
:0d4eb70000000000000000000000000000ee
:204ec4000000000000000000000000000000000000000000000000000000000000000000ce
:204ee4000000000000000000000000000000000000000000000000000000000000000000ae
:204f040000000000000000000000000000000000000000000000000000000000000000008d
:0d4f24000000000000000000000000000080
:204f3100000000000000000000000000000000000000000000000000000000000000000060
:204f5100000000000000000000000000000000000000000000000000000000000000000040
:204f7100000000000000000000000000000000000000000000000000000000000000000020
:0d4f91000000000000000000000000000013
:204f9e004c00000000000000000000000000000000000000000000000000000000000000a7
:204fbe000000000000000000000000000000000000000000000000000000000000000000d3
:204fde000000000000000000000000000000000000000000000000000000000000000000b3
:0d4ffe0000000000000000000000000000a6
:20500b0008000000000000000000000000000000000000000000000000000000000000007d
:20502b00000000000000000000000000000000000000000000000000000000000000000065
:20504b00000000000000000000000000000000000000000000000000000000000000000045
:0d506b000000000000000000000000000038
:20507800000000000000000000000000000000000000000000000000000000000000000018
:205098000000000000000000000000000000000000000000000000000000000000000000f8
:2050b8000000000000000000000000000000000000000000000000000000000000000000d8
:0d50d80000000000000000000000000000cb
:2050e5008038000000000000000000000000000000000000000000000000000000000000f3
:2051050000000000000000000000000000000000000000000000000000000000000000008a
:2051250000000000000000000000000000000000000000000000000000000000000000006a
:0d514500000000000000000000000000005d
:205152004000000000000000000000000000000010000000000000000000000000000000ed
:2051720000000000000000000000000000000000000000000000000000000000000000001d
:205192000000000000000000000000000000000000000000000000000000000000000000fd
:0d51b20000000000000000000000000000f0
:2051bf000000000000000000000000000000000008000000000000000000000000000000c8
:2051df000000000000000000000000000000000000000000000000000000000000000000b0
:2051ff00000000000000000000000000000000000000000000000000000000000000000090
:0d521f000000000000000000000000000082
:20522c00000000000000000000000000000000000000000000000000000000000000000062
:20584200000000000000000000000000000000000001000000000000000000000000000045
:20586200000000000000000000000000000000000000000000000000000000000000000026
:0d5882000000000000000000000000000019
:20588f000000000000000000000000000000000000000000000000000000000000000000f9
:2058af000000000000000000000000000000000000010000000000000000000000000000d8
:2058cf000000000000000000000000000000000000000000000000000000000000000000b9
:0d58ef0000000000000000000000000000ac
:2058fc0000000000000000000000000000000000000000000000000000000000000000008c
:20591c0000000000000000000000000000000000000000000000000000000000000000006b
:20593c0000000000000000000000000000000000000000000000000000000000000000004b
:0d595c00000000000000000000000000003e
:2059690000000000000000000000000000000000000000000000000000000000000000001e
:205989000000000000000000000000000000000000000000000000000000000000000000fe
:2059a9000000000000000000000000000000000000000000000000000000000000000000de
:0d59c90000000000000000000000000000d1
:2059d6000000000000000000000000000000000000000000000000000000000000000000b1
:2059f600000000000000000000000000000000000000000000000000000000000000000091
:205a160000000000000000000000000000000000000000000000000000000000000000016f
:0d5a36000000000000000000000000000063
:205a4300000000000000000000000000000000000000000000000000000000000000000043
:205a6300000000000000000000000000000000000000000000000000000000000000000023
:205a8300000000000000000000000000000000000000000000000000000000000000000201
:0d5aa3008000000000000000000000000076
:205ab0000000000000000000000000000000000000000000000000000000000000000000d6
:205ad0000000000000000000000000000000000000000000000000000000000000000000b6
:205af000000000000000000000000000000000000000000000000000000000000000000096
:0d5b10000000000000000000000000000088
:205b1d00000000000000000000000000000000000000000000000000000000000000000068
:205b3d00000000000000000000000000000000000000000000000000000000000000000048
:205b5d00000000000000000000000000000000000000000000000000000000000000000028
:0d5b7d00000000000000000000000000001b
:205b8a000000000000000000000000000000000000000000000000000000000000000000fb
:205baa000000000000000000000000000000000000000000000000000000000000000000db
:205bca000000000000000000000000000000000000000000000000000000000000000000bb
:0d5bea0000000000000000000000000000ae
:205bf70000000000000000000000000000000000000000000000000000000000000000008e
:205c170000000000000000000000000000000000000000000000000000000000000000006d
:205c370000000000000000000000000000000000000000000000000000000000000000004d
:0d5c57000000000000000000000000000040
:205c6400000000000000000000000000000000000000000000000000000000000000000020
:205c8400000000000000000000000000000000000000000000000000000000000000000000
:205ca40000000000000000000000000000000000000000000c0000000000000000000000d4
:0d5cc40000000000000000000000000000d3
:205cd1000000000000000000000000000000000000000000000000000000000000000000b3
:205cf100000000000000000000000000000000000000000000000000000000000000000093
:205d1100000000000000000000000000000000000000000019000000000000000000000059
:0d5d31000000000000000000000000000065
:205d3e00000000000000000000000000000000000000000000000000000000000000000045
:205d5e00000000000000000000000000000000000000000000000000000000000000000025
:205d7e00000000000000000000000000000000000000000000000000000000000000000005
:0d5d9e0028000000000000000000000000d0
:205dab000000000000000000000000000000000000000000000000000000000000000000d8
:205dcb000000000000000000000000000000000000000000000000000000000000000000b8
:205deb00000000000000000000000000000000000000000000000000000000000000000098
:0d5e0b00000000000000000000000000008a
:205e180000000000000000000000000000000000000000000000000000000000000000006a
:205e380000000000000000000000000000000000000000000000000000000000000000004a
:205e5800000000000000000000000000000000000000000000736d44000000000000000006
:0d5e7800000000000000000000000000001d
:205e85000000000000000000000000000000000000000000000000000000000000000000fd
:205ea5000000000000000000000000000000000000000000000000000000000000000000dd
:205ec500000000000000000000000000000000000000000f00b7d480400000000000000063
:0d5ee50000000000000000000000000000b0
:205ef200000000000000000000000000000000000000000000000000000000000000000090
:205f1200000000000000000000000000000000000000a000000000000000000000000000cf
:205f320000000000000000000000000000000000000000000e000000000000000000000041
:0d5f52000000000000000000000000000042
:205f5f00000000000000000000000000000000000000000000000000000000000000000022
:205f7f00000000000000000000000000000000000000400000000000004000000000000082
:205f9f000000000000000000000000000000000000000000100000000000000000000000d2
:0d5fbf0000000000000000000000000000d5
:205fcc000000000000000000000000000000000000000000000000000000000000000000b5
:205fec00000000000000000000000000000000000000000000000000000000000000000095
:20600c00000000000000000000000000000000000000000000000000000000000000000074
:20644e0000000000000000000000000000000000000000000000000000000100000000002d
:0d646e000000000000000000000000000021
:20647b00000000000000000000000000000000000000000000000000000000000000000001
:20649b000000000000000000000000000000000000000000000000000000000000000000e1
:2064bb000000000000000000000000000000000000000000000000000000000000000000c1
:0d64db0000000000000000000000000000b4
:2064e800000000000000000000000000000000000000000000000000000000000000000094
:20650800000000000000000000000000000000000000000000000000000000000000000073
:20652800000000000000000000000000000000000000000000000000000000000000000053
:0d6548000000000000000000000000000046
:20655500000000000000000000000000000000000000000000000000000000000000000026
:20657500000000000000000000000000000000000000000000000000000000000000000006
:206595000000000000000000000000000000000000000000000000000000000000000000e6
:0d65b50000000000000000000000000000d9
:2065c2000000000000000000000000000000000000000000000000000000000000000000b9
:2065e200000000000000000000000000000000000000000000000000000000000000000099
:20660200000000000000000000000000000000000000000000000000000000000000000078
:0d662200000000000000000000000000006b
:20662f0000000000000000000000000000000000000000000000000000000000000000004b
:20664f0000000000000000000000000000000000000000000000000000000000000000002b
:20666f0000000000000000000000000000000000000000000000000000000000000000000b
:0d668f0000000000000000000000000000fe
:20669c000000000000000000000000000000000000000000000000000000000000000000de
:2066bc0000000000000000000000000000000000000002247800000000000000000200001e
:2066dc00000000000000000000000000080000000000000000000000000000000000000096
:0d66fc000000000000000000000000000091
:20670900000000000000000000000000000000000000000000000000000000000000000070
:20672900000000000000000000000000000000000000103e4340000000000000000000007f
:2067490000000000000000000000000000000000000000000000000000000000000000042c
:0d6769000000000000000000000000000023
:20677600000000000000000000000000000000000000000000000000000000000000000003
:2067960000000000000000000000000000000000000e0000020000000000000000000000d3
:2067b600000000000000000000000000000000000000000000000000004000000000000083
:0d67d6000000000000000000004000000076
:2067e300000000000000000000000000000000000000000000000000000000000000000096
:20680300000000000000000000000000000000000000000002c0000000000000000420008f
:20682300000000000004000000000000000000000000000000000000002000000000000031
:0d68430005000000000000000380000000c0
:20685000000000000000000000000000000000000000000000000000000000000000000028
:2068700000000000000000000000000000000000000000007800000000000000000100008f
:206890000000000000000000000000000000000000000000000000000000000000000000e8
:0d68b00000000000000000200000000000bb
:2068bd000000000000000000000000000000000000000000000000000000000000000000bb
:2068dd0000000000000000000000000000000000000000000040000000000000000000005b
:2068fd0000000000000000000000000000000000000000000000000000004000000000003b
:0d691d000000000000000014000000000059
:20692a0000000000000000000000000000000000000000000000000000000000000000004d
:20694a0000000000000000000000000000000000000101607e00000000000000000000004d
:20696a0000000000000100000000000000000000000000001e0000000101400000000000ac
:0d698a0000000000000010000000000000f0
:206997000000000000000000000000000000000000000000000000000000000000000000e0
:2069b70000000000000000000000000000000000000100b42f400003500000000000a000a9
:2069d700000000000006000000000000000000000000000900000000010080000000000010
:0d69f70084000000000010000000000000ff
:206a0400000000000000000000000000000000000000000000000000000000000000000072
:206a24000000000000000000000000000000000000000020024020000000000000000000d0
:206a4400000000000000000000000000000000000000000000000000000000000000000032
:0d6a64000000000000000000002ffb5108a2
:206a7100000000000000000000000000000000000000000000000000000000000000000005
:206a9100000000000000000000000000000000000000003c03600000000000000000000046
:206ab1000000000000000000000000000000000000000000000000000000000000000000c5
:0d6ad1000000000000000000003f952200c2
:206ade00000000000000000000000000000000000000000000000000000000000000000098
:206afe00000000000000000000000000000000000000000022010000200000000000000035
:206b1e00000000000100000000000000000000000000000000000000000a0000000000004c
:0d6b3e0000000000000000000380000000c7
:206b4b0000000000000000000000000000000000000000000000000000000000000000002a
:206b6b00000000000000000000000000000000000000000041ca00004000000000000000bf
:206b8b00000000000288000000000000000000000000000000000000000000000000000060
:0d6bab0000000000000000000000000000dd
:206bb800000000000000000000000000000000002800000000000000000000000000000095
:206bd800000000000000000000000000000000000000000038000000000000000000000065
:206bf80000000000000000000000000000000000000000000edbad46600000000000000041
:0d6c1800000000000000000000000000006f
:206c250000000000000000000000000000000000000000000000000000000000000000004f
:206c4500000000000000000000000000000000000000003c43cc00000000000000000000e4
:206c650000000000000000000000000a000000000000000910d3d4800000000000000000c5
:0d6c85000000000000000000000000000002
:206c92000000000000000000000000000000000000000000000000000000000000000000e2
:206cb20000000000000000000000000000000000000c003e00000000500000000000000028
:206cd2000000000000000000000000000000000000000000000000000000000000000000a2
:0d6cf2000000000000000008074000000046
:206cff00000000000000000000000000000000000000000000000000000000000000000075
:206d1f0000000000000000000000000000000000000c0036004e0000a00000000000000024
:206d3f00000000000000000000000000100000000000200000000000000000000000000004
:0d6d5f0000000000000000040740000000dc
:206d6c00000000000000000000000000000000000000000000000000000000000000000007
:206d8c0000000000000000000000000000000000000010006a00000000000000000000006d
:206dac002000000000000000000000000000000000000000000000000000000000000000a7
:0d6dcc0000000000000000000000000000ba
:206dd900000200000000000000000000000000000000000000000000000000000000000098
:206df9000000000000000000000000000000000000001000404000000000000000000000ea
:206e1900000000000000000000000000000000000000000000000000000000000000000059
:0d6e3900000000000000000000000000004c
:206e460000000000000000000000000000000000000000000000000000000000000000002c
:206e660000000000000000000000000000000000000e10007200000000000000000e00006e
:206e860004ec550000000000000000000000000000000000000000000000000000000004a3
:0d6ea60000000000000000000000000000df
:206eb3000000000000000000000000000000000000000000000000000000000000000000bf
:206ed3000000000000000000000000000000000000001e1c414000000000000000000000e4
:206ef3003830550000000000000000000000000000000000000000000000000000000004be
:0d6f13000000000000000000000000000071
:206f20000000000000000000000000000000000000080032be8000000000000000000000d9
:206f4000000000000000000000000000000000000005003e7a0000800000000000050014db
:206f600062ec95020000000000000000000000000000000000000000000a00000000000022
:0d6f80000000000000000000000000000004
:206f8d0000000000000000000010000000000000000700003e8040000000000000000000cf
:206fad0000000000000000000000000000000000000c001c03c000000000000000080002cf
:206fcd0000f0a901000000000000000000000000000000000000000000000000000000000a
:0d6fed000000000000000000000000000097
:206ffa00000200000000000000000000000000000000000000000000000000000000000075
:20701a0000000000000000000000000000000000000000007800000050000000000000008e
:20703a000418f060400000000000000000000000000010000000000000000000000000007a
:0d705a000000000000000200000000000027
:20706700000000000000000000000000000000000000000000000000000000000000000009
:20708700000000000000000000000000000000000000002441400000200000000000000024
:2070a7002010f0000000000000000000000000000000280000000000010000000000000080
:0d70c70008000000000000000000000000b4
:2070d400400000000000000000000000000000000003000000000000000000000000000059
:2070f400000000000000000000000000000000000000000c00c000000000000000000000b0
:207114002c000000000000000000000000000000000000000000000000000000000000002f
:0d713400000000000000202000000000000e
:2071410000000000000000000000000000000000000000000000000000000000000000002e
:207161000000000000000000000000000000000000000040014040000000000000000164e8
:207181003c00000000000000000000000000000000000000000000000000000000000000b2
:0d71a10000000000000000000000000000e1
:2071ae000000000000000000000000000000000000000000000000000000000000000000c1
:2071ce0000000000000000000000000020000000000000000000000000000000000000067b
:2071ee003c0cf06100380000000000000000000000000000000000000000000000000000b0
:0d720e000000000000000000000000000073
:20721b00000000000000000000000000000000000000000000000000000000000000000053
:20723b000000000000000000000000005000000000000000324f000000000000000000243e
:20725b003000f00100000000000000000000000000000000000000000000000000000000f2
:0d727b0000000000000000100000000000f6
:207288000000000000000000000000000000000000000000000000000000000000000000e6
:2072a8000000000000000000000000000000000000000000020100000000000000000000c3
:2072c8000008f0414000000000000020a0000000000000000000000000000000000000006d
:0d72e8000000000000000000000000000099
:2072f5008000000000000000000000000000000000000000000000000000000000000000f9
:20731500000000000000000000000000000000000000000026cb0000000000000000000067
:207335000010f0000000000000000000000000000000000000000000000000000000000038
:0d735500000000000000000000000000002b
:2073620000000000000000000000000000000000000000000000000000000000000000000b
:2073820000000000000000000000000000000000000d000472010000000000000004000063
:2073a200034b7f0000300000000000040800000000000000000000000000000000000000c2
:0d73c20000000000000000000000000000be
:2073cf0000000000000000000000000000000000000000000000000000000000000000009e
:2073ef0000000000000000000000000000000000000d000277c90000000000000008000027
:20740f0000ebcc00400000000000000a040000000000000000000000000000000000000058
:0d742f00000000000000000000000000024e
:02743c0000004e
:02743e0011013a
:02744000010148
:2074420000000000000000000000000000000000200000000000000000000000000000000a
:2074620000000000000000000000000000000000000000000000000000000000000000000a
:207482000000000000000000000000000000000000000000000000000000000000000000ea
:0d74a20000000000000004000000000000d9
:2074af000000000000000000000000000000000000000000000000000000000000000000bd
:2074cf0000000000000000000000000000000000000000000000000000000000000000009d
:2074ef0000000000000000000000000000000000000000000000000000000000000000007d
:0d750f00000000000000000000000000006f
:20751c000000000000000000000000000000000010014000000000000000000000000000fe
:20753c0000000000000000000000000000000000000000000000000000000000000000002f
:20755c000000000000000000000000000000000000001000000000000040000000000000bf
:0d757c0000000000000004000000000000fe
:207589000000000000000000000000000000000000020000000000000000000000000000e0
:2075a9000000000000000000000000000000000000000000000000000000000000000000c2
:2075c9000000000000000000000000000000000000000000000000000000000000000000a2
:0d75e9000000000000000000000000000095
:2075f6000000000000000000000000000000000020000000c0000000000000000000000095
:20761600000000000000000000000000000000000000000000000000000000000000000054
:20763600000000000000000000000000000000000000000000000000000000000000000034
:0d765600000000000000080000000000001f
:207663000000000000000000000000000000000000000000400000000000000000000000c7
:207683000000000000000000000000000000000000000000000000000000000000000000e7
:2076a3000000000000000000000000000000000000000000000000000000000000000000c7
:0d76c30000000000000000000000f00000ca
:2076d000000000000000000000000008000000000000000000000000000000000000000092
:2076f00000000000000000000000000000000000000000000000000000000000000000007a
:2077100000000000000000000000000000000000000020000000000000c000100000000069
:0d773000000000000000000000000000004c
:20773d000000000000000000000000380000000000000000000000000000000000000000f4
:20775d0000000000000000000000000000000000000000000000000000000000000000000c
:20777d0000000000000000000000000000000000000000000000000000800000000000006c
:0d779d0000000000000000000000000000df
:2077aa0000000000000000000000000020000000000000800000000000000000000000001f
:2077ca00080000000000000000000000000000000000000000000000000000000000000097
:2077ea0000000000000000000000000000000000000000000040000000000001000000003e
:0d780a000000000000000000000000000071
:20781700000000000000000000000000000000000000000000000000000000000000000051
:20783700000000000000000000000000000000000000000000000000000000000000000031
:20785700000000000000000000000000000000000000000000000000000000000180000090
:0d7877000000000000000000000000000004
:20788400000000000000000000000000001000000003400040000000000000000000000051
:2078a400000c000000000000000000000000000000000000000000000000000000000000b8
:2078c4000000000000000000000000000000000000000000000000000000000000000000a4
:0d78e4000000000000000000000004000093
:2078f1000000000000000000000800000020000020000000400000000000000000020000ed
:20791100000000000000000000000000000000000000000000000000000000000000000056
:20793100000000000000000000000000000000000000000000000000000000000000000036
:0d79510000000000000000003000040000f5
:20795e00000000000000000000000000000000000000000000000000000000000000000009
:20797e000000000000000000000000000000000000000000000000000000000000000000e9
:20799e000000000000000000000000000000000000000000000000000000000000000000c9
:0d79be000000000000000000d800000000e4
:2079cb00000000000000000000040000000000001000000000000000000000000001002c5b
:2079eb0000000000000000000000000000000000000000000000000000000000000000007c
:207a0b0000000000000000000000000000000000000000000000000000000000000000005b
:0d7a2b0000000000000000005800000000f6
:207a38000000000000000000000000000000000000000040000000000000000000000000ee
:207a580000000000000000000000000000000000000000000000000000000000000000000e
:207a78000000000000000000000000000000000000000000004000000000000100000000ad
:0d7a980000000000000000000010000000d1
:207aa500000000000000000000080000000000002000000000000000000006000002000091
:207ac500000000000000000040000000000000000000000000000000000000000000000061
:207ae50000020000000000000000000000000000000000000000000000000000000000007f
:0d7b05000000000000000000000000000073
:207b1200000000000000000000000000000000000000000000000000000000000000000053
:207b3200000000000000000000000000000000000000000000000000000000000000000033
:207b5200000000000000000000000000000000000000000000000000000000000000000013
:20810800000000000000000000000000000000000000000000000000010000000000000056
:20812800000000000000000000000000000000000000000000000000000000000000000037
:20814800000000000000000000000000000000000000000000000000000000000000000017
:0d816800000000000000000000000000000a
:208175000000000000000000000000000000000000000000000000000000000000000000ea
:20871e00000000000000000000000000000000000000000000000000000000000000040037
:20873e0000000000000000000000000000000000000000000000000000000000000000001b
:0d875e00000000000000000000000000000e
:20876b000000000000000000000000000000000000000000000000000000000000000000ee
:20878b000000000000000000000000000000000000000000000000000000000000000000ce
:2087ab000000000000000000000000000000000000000000000000000000000000000000ae
:0d87cb0000000000000000000000000000a1
:2087d800000000000000000000000000000000000000000000000000000000000000000081
:2087f800000000000000000000000000000000000000000000000000000000000000000061
:20881800000000000000000000000000000000000000000000000000000000000000000040
:0d8838000000000000000000000000000033
:20884500000000000000000000000000000000000000000000000000000000000000000013
:208865000000000000000000000000000000000000000000000000000000000000000000f3
:208885000000000000000000000000000000000000000000000000000100000000000000d2
:0d88a50000000000000000000000000000c6
:2088b2000000000000000000000000000000000000000000000000000000000000000000a6
:2088d200000000000000000000000000000000000000000000000000000000000000000086
:2088f200000000000000000000000000000000000000000000000000000000000000000066
:0d8912000000000000000000000000000058
:20891f00000000000000000000000000000000000000000000000000000000000004000034
:20893f00000000000000000000000000000000000000000000000000000000000000000018
:20895f000000000000000000000000000000000000000000000000000000000000000000f8
:0d897f0000000000000000000000000000eb
:20898c000000000000000000000000000000000000000000000000000000000000000000cb
:2089ac000000000000000000000000000000000000000000000000000000000000000000ab
:2089cc0000000000000000000000000000000000000000000000000000000000000000008b
:0d89ec00000000000000000000000000007e
:2089f90000000000000000000000000000000000000000000000000000000000000000005e
:208a190000000000000000000000000000000000000000000000000000000000000000003d
:208a390000000000000000000000000000000000000000000000000000000000000000001d
:0d8a59000000000000000000000000000010
:208a66000000000000000000000000000000000000000000000000010000000000000000ef
:208a86000000000000000000000000000000000000000000000000000000000000000000d0
:208aa6000000000000000000000000000000000000000000000000000000000000000000b0
:0d8ac60000000000000000000000000000a3
:208ad300000000000000000000000000000000000000000000000000000000000000000083
:208af3000000000000000000000000000000000000000080000000000000000000000000e3
:208b1300000000000000000000000000000000000000000000000000000000000000000042
:0d8b33000000000000000000000000000035
:208b4000000000000000000000000000000000000000000000000000000000000000000015
:208b60000000000000000000000000000000000000000000000000000000000000000000f5
:208b80000000000000000000000000000000000000000000000000000000000000000000d5
:0d8ba00000000000000000000000000000c8
:208bad000000000000000000000000000000000000000000000000000000000000000000a8
:208bcd00000000000000000000000000000000000000000000000000000000000000000088
:208bed00000000000000000000000000000000000000000000000000000000000000000068
:0d8c0d00000000000000000000000000005a
:208c1a0000000000000000000000000000000000000000000000000000000000000000003a
:208c3a0000000000000000000000000000000000000000000000000000000000000000001a
:208c5a000000000000000000000000000000000000000000000000000000000000000000fa
:0d8c7a0000000000000000000000000000ed
:208c87000001000000000000000000000000000000000000000000000000000000000000cc
:208ca7000000000000000000000000000000000000000000000000000000000000000000ad
:208cc70000000000000000000000000000000000000000000000000000000000000000008d
:0d8ce7000000000000000000000000000080
:208cf400080000000000000000000000000000000000000000000000000000000000000058
:208d140000000000000000000000000000000000000000000000000000000000000000003f
:208d340000000000000000000000000000000000000000000000000001000000000000001e
:0d8d54000000000000000000000000000012
:208d61004000000000000000000000000000000000000000000000000000000000000000b2
:208d81000000000000000000000000000000000000000000000000000000000000000000d2
:208da1000000000000000000000000000000000000000000000000000100000000000000b1
:0d8dc10000000000000000000000000000a5
:208dce00800000000000000000000000000000000000000000000000000000000000000005
:208dee00000000000000000000000000000000000000000000000000000000000000000065
:208e0e00000000000000000000000000000000000000000000000000000000000000000044
:0d8e2e000000000000000000000000000037
:208e3b00000000000000000000000000000000000000000000000000000000000000000017
:208e5b000000000000000000000000000000000000000000000000000000000000000000f7
:208e7b00000000000000000000000000000000000000000000000000008000000000000057
:0d8e9b0000000000000000000000000000ca
:208ea800003400000000000000000000000000000000000000000000000000000000000076
:208ec80000000000000000000000000000000000000000000000000000000000000000008a
:208ee80000000000000000000000000000000000000000000000000000000000000000006a
:0d8f0800000000000000000000000000005c
:208f15004004000000000000000000000000000000000000000000000000000000000000f8
:208f350000000000000000000000000000000000000000000000000000000000000000001c
:208f55000000000000000000000000000000000000000000000000000000000000000000fc
:0d8f750000000000000000000000000000ef
:208f820000000000000000000004000000000000000040000000000000000000000000008b
:208fa2000000000000000000000000000000000000000000000000000000000000000000af
:208fc20000000000000000000000000000000000000000000000000000000000000000008f
:0d8fe2000000000000000000000000000082
:208fef000000000000000000000a0000000000000000000000000000000000000000000058
:20900f00000000000000000000000000000000000000000000000000000000000000000041
:20902f00000000000000000000000000000000000000000000000000000000000000000021
:0d904f000000000000000000000000000014
:20905c000000000000000000000000000000000000000000000000000000000000000000f4
:20907c000000000000000000000000000000000000000000000000000000000000000000d4
:20909c00000000000000000000000000000000000000000000000000008000000000000034
:0d90bc0000000000000000000000000000a7
:2090c900000000000000000000000000000000000000000000000000000000000000000087
:2090e900000000000000000000000000000000000000000000000000000000000000000067
:20910900000000000000000000000000000000000000000000000000000000000000000046
:2094de0000000000000000000000000000000000000040000000000000000000000000002e
:0d94fe000000000000000000000000000061
:20950b00000000000000000000000000000000000000000000000000000000000000000040
:20952b00000000000000000000000000000000000000000000000000000000000000000020
:20954b00000000000000000000000000000000000000000000000000000000000000000000
:0d956b0000000000000000000000000000f3
:209578000000000000000000000000000000000000000000000000000000000000000000d3
:209598000000000000000000000000000000000000000000000000000000000000000000b3
:2095b800000000000000000000000000000000000000000000000000000000000000000093
:0d95d8000000000000000000000000000086
:2095e500000000000000000000000000000000000000000000000000000000000000000066
:20960500000000000000000000000000000000000000000000000000000000000000000045
:20962500000000000000000000000000000000000000000000000000000001000000000024
:0d9645000000000000000000000000000018
:209652000000000000000000000000000000000000000000000000000000000000000000f8
:20967200000000000000000000000000000000000004000002c90000000000000000000009
:209692000000000000000000000000000000000000000000000000000000000000000000b8
:0d96b20000000000000000000000000000ab
:2096bf0000000000000000000000000000000000000000000000000000000000000000008b
:2096df0000000000000000000000000000000000000c00000200000000000000000000005d
:2096ff0000000000000000000000000000000000000000000000000000000000000000004b
:0d971f00000000000000000000000000003d
:20972c0000000000000000000000000000000000000000000000000000000000000000001d
:20974c000000000000000000000000000000000000000000234a20008000000000000000f0
:20976c000000000000000000000000000000000000000000000000000000000000000000dd
:0d978c0000000000000000000000000000d0
:209799000000000000000000000000000000000000000000000000000000000000000000b0
:2097b900000000000000000000000000000000000000000020600000000000000000000010
:2097d900000000000000000000000000000000000000000000000000000000000000000070
:0d97f9000000000000000000000000000063
:20980600000000000000000000000000000000000000000000000000000000000000000042
:20982600000000000000000000000000000000000000002400c0000000000000000000003e
:20984600000000000000000000000000000000000000000000000000010000000000000001
:0d98660000000000000000000000000000f5
:209873000000000000000000000000000000000000000000000000000000000000000000d5
:20989300000000000000000000000000000000000000000020000000000000000000000095
:2098b300000000000000000000000000000000000000000000000000000000000000000095
:0d98d3000000000000000000000000000088
:2098e000000000000000000000000000000000000000000000000000000000000000000068
:20990000000000000000000000000000000000000000000002400000000000000000000005
:20992000000000000000000000000000000000000000000000000000000000000000000027
:0d994000000000000000000000000000001a
:20994d000000000000000000000000000000000000000000000000000000000000000000fa
:20996d000000000000000000000000000000000000000004020000000000000000000000d4
:20998d000000000000000000000000000000000000000000000000000000000000000000ba
:0d99ad0000000000000000000000000000ad
:2099ba0000000000000000000000000000000000000000000000000000000000000000008d
:2099da000000000000000000000000000000000000000004404000000000000000000000e9
:2099fa0000000000000000000000000000000000000000000000000000000000000000004d
:0d9a1a00000000000000000000000000003f
:209a270000000000000000000000000000000000000000000000000000000000000000001f
:209a47000000000000000000000000000000000000001000200000000000000000000000cf
:209a67000000000000000000000000000000000000000000000000000000000000000000df
:0d9a870000000000000000000000000000d2
:209a94000000000000000000000000000000000000000000000000000000000000000000b2
:209ab40000000000000000000000000000000000000c000003600000000000000000000023
:209ad400000000000000000000000000000000000000000000000000000000000000000072
:0d9af4000000000000000000000000000065
:209b0100000000000000000000000000000000000000000000000000000000000000000044
:209b210000000000000000000000000000000000000c100e23c01000000000000000000007
:209b4100000000000000000000000000000000000000000000000000000000000000000004
:0d9b610000000000000000000000000000f7
:209b6e000000000000000000000000000000000000000000000000000000000000000000d7
:209b8e00000000000000000000000000000000000000000025400000000000000000000052
:209bae00000000000000000000000000000000000000000000000000000000000000000097
:0d9bce00000000000000000000000000008a
:209bdb0000000000000000000000000000000000000000000000000000000000000000006a
:209bfb0000000000000000000000000000000000000e100c020000000040000000000000de
:209c1b00000000000000000000000000000000000000000000000000000000000000000029
:0d9c3b00000000000000000000000000001c
:209c48000000000000000000000000000000000000000000000000000000000000000000fc
:209c6800000000000000000000000000000000000000000062400000000000000001000039
:209c88000000000000000000000000000000000000000000000000000000000000000000bc
:0d9ca80000000000000000000000000000af
:209cb50000000000000000000000000000000000000000000000000000000000000000008f
:209cd500000000000000000000000000000000000000100420000000000000000002000039
:209cf50000000000000000000000000000000000000000000000000000000000000000004f
:0d9d15000000000000000000000000000041
:209d22000000000000000000000000000000000000000000000000800000000000000000a1
:209d420000000000000000000000000000000000000c000026ca0000000000000000000005
:209d620000000000000000000000000000000000000000000000000000000002c0500000cf
:0d9d820000000000000000000000000000d4
:209d8f00000000000000000000000000000000000000000000000040000000000000000074
:209daf0000000000000000000000000000000000000400002201000000000000000000006d
:209dcf00000000000000000000000000000000000000000000000000000000021aa00800b0
:0d9def000000000000001000000000000057
:209dfc00000000000000000000000000000000000000000000000000000000000000000047
:209e1c00000000000000000000000000000000000000000102c9200000000000000000003a
:209e3c00000000000080000000000000000000000000000000000000000000000000000086
:0d9e5c0000080000000000000000000000f1
:209e69000000000000000000000000000000000000000000000000000000000000000000d9
:209e8900000000000000000000000000000000000000000001400000000000000000000078
:209ea900000000000000000000000000000000000000000000000000000000000000000099
:0d9ec9000018000000000000000000000074
:209ed60000000000000000000000000000000000000000000000000000000000000000006c
:209ef6000000000000000000000000000000000000000000404000000000000000000000cc
:209f160000000000000000000000000000000000000000000000000000000000000000002b
:0d9f3600000100000000000000000000001d
:209f43000000000000000000000000000000000000000000000000000000000000000000fe
:209f630000000000000000000000000000000000000040003a000000000000000000020062
:209f830000000000000000000000000000000000000000000000000000000030000000008e
:0d9fa3000001800000000000000000000030
:209fb000004000000000000000000000000000000000000000000000000000000000000051
:209fd000000000000000000000000000000000000001000037c00000000000000000000079
:209ff000000000000000000000000000000000000000000000000000000000000000000051
:0da010000000000000000000000000000043
:20a01d000070000000000000000000000000000000000000000000000000000000000000b3
:20a03d00000000000000000000000000000000000001000002000000000000000000000000
:20a05d000000000000000000000000000000000000000000000000000000000000000000e3
:0da07d0000000000000000000000000000d6
:20a08a000000000000000000000000000000000000000000000000000000000000000000b6
:20a0aa00000000000000000000000000000000000000001c03c000000000000000000000b7
:20a0ca00000000000000000000000000000000000000000000000000000000000000000076
:0da0ea000000000000000000000000000069
:20a0f700000100000000000000000000000000000000000000000000000000000000000048
:20a11700000000000000000000000000000000000000002402000000000000000000000002
:20a13700000000000000000000000000000000000000000000000000000004000000000004
:0da1570000000000000000000000000000fb
:20a164000800000000000000000000000000000000000000000000000000000000000000d3
:20a18400000000000000000000000000000000000000002473604000000000000000000084
:20a1a40000000000000000000000000000000000000000000000000000000c00000000305f
:0da1c400001000000000100000000000006e
:20a1d10044000000000000000000000000000000000000000000000000000000000000002a
:20a1f1000000000000000000000000000000000000000020314000000000000000000000bd
:20a21100000000000800000000000000000000000000000000000000010000000000001014
:0da231000080e000000010000000000000b0
:20a23e00800000000000000000000000000000000000000000000000000000000000000080
:20a25e00000000000000000000000000000000000000000e02400001000000000000060089
:20a27e00000000000401000000000000000000000000000000000000010000014050000029
:0da29e0000000000000000000000000000b3
:20a2ab00000000000000000000000000000000000000000000000000000000000000000093
:20a2cb0000000000000000000000000000000000000e00167a0000000000000000000000d5
:20a2eb00000000000400000000000000000000000000000000000000000000001aa001385c
:0da30b000000000000000000000000000045
:20a31800000000000000000000000000000000000000000000000000000000000000000025
:20a3380000000000000000000000000000000000000010002c400000000000000001000088
:20a358000000000000000000000000000000000000000000000000000000000000000002e3
:0da378000000078140000000000000000010
:20a38500400000000000000000000000000000000000000000000000000000000000000078
:20a3a500000000000000000000000000000000000000000006000000000000000000200072
:20a3c500000000000000000000000000000000000000000000000000000000000000000177
:0da3e500000003a829000000000000000097
:20a3f20000000000000000000000000000000000000000000000000000000000000000004b
:20a41200000000000000000000000000000000000004000000000000200000000000000006
:20a432000000000000000000000000000000000000000000000000000000004160ff0080ea
:0da452000000097e10000000200000000046
:20a45f000000000000000000000000000000000000000000000000000000000000000000dd
:20a47f0000000000000000000000000000000000000c000000000000500000000000000061
:20a49f0000000000000000000000000000000000000001000000000000000022f8f501800c
:0da4bf00020008692100000060000000009c
:20a4cc00000000000000000000000000000000000000000000000000000000000000000070
:20a4ec00000000000000000000000000000000000000000000001000000000000000000040
:20a50c000000000000000000000000000000000000000000000000000000142800000000f3
:0da52c000000900000000000201c000084d2
:20a53900000000000000000000000000000000000000000000000000000000000000000002
:20a55900000000000000000000000000000000000000000000e00000000000000000000002
:20a579000000000000000000000000000000000000000000000000000000000400000000be
:0da5990000001000000000006016c8022045
:20a5a600000000000000000000000000000000000000000000000000000000000000000095
:20a5c6000000000000000000000000000000000000000086000000110000082800000000ae
:20a5e6000000000000000000000000000000000000000000000000000000003f4055080475
:0da6060000b00324000000000024b000009c
:20a61300000000000000000000000000000000000000000000000000000000000000000027
:20a63300000000000000000000000000000000000000010400000008100016a800400000ec
:20a653000000000000000000000000000000000000000000000000000000160408aa00001b
:0da6730000980904f100000000258080001f
:20a680000000000000000000000000000000000000000000000000000000000000000000ba
:20a6a00000000000000000000000000000000000000000000000000000000000000000009a
:20a6c000000000000000040000000000000000000000000000000000000000002ff0000057
:0da6e0000000dd240000000000000000006c
:20a6ed0000000000000000000000000000000000000000000000000000000000000000004d
:20a70d0000000000000000000000000000000000000000000000000000000000000000002c
:20a72d0000000000000000000000000000000000000000004000000000000168c9f080002a
:0da74d0000001570200000006000000000fa
:20a75a000000000000000000000000000000000000000000000000000000000000000000df
:20a77a00000000000000000000000000000000000000100000000000000d000000000000a2
:20a79a0000000000000000000000000000000000000000000000000004003c342ff000000c
:0da7ba000000094280000001400000000086
