:02000000ff00ff
:080002004c6174746963650030
:17000a00694345637562653220323032302e31322e32373934330071
:16002100506172743a2069434534304858384b2d43423133320018
:1b003700446174653a204d617920323820323032322031323a32313a31310083
:0200520000ffad
:040054007eaa997e69
:02005800510055
:02005a0001059e
:03005c00920020ef
:03005f00620367d2
:0300620072011018
:0300650082000016
:02006800110085
:02006a00010192
:20006c00000000000000000000000000000000000000000000000000000000000000000074
:20008c00000000000000000000000000000000000000000000000000000000000000000054
:2000ac0000000000000000000000000800000000000000000000000000000000000000002c
:0d00cc000000000000000000000000000027
:2000d900000000000000000000000000000000000000000000000000000000000000000007
:2000f9000000000000000000000000000000000000000000000000000000000000000000e7
:200119000000000000000000000000000000000000000000000000000000000000000000c6
:0d01390000000000000000000000000000b9
:20014600000000000000000000000000000000000000000000000000000000000000000099
:20016600000000000000000000000000000000000000000000000000000000000000000079
:20018600000000000000000000000004000000000000000000000000000000000000000055
:0d01a6000000000000000400000000000048
:2001b30000000000000000000000000000000000000000000000000000000000000000002c
:2001d30000000000000000000000000000000000000000000000000000000000000000000c
:2001f3000000000000000000000000000000000000000000000000000000000000000000ec
:0d02130000000000000000000000000000de
:200220000000000000000000000000000000000000000000000000000000000000000000be
:2002400000000000000000000000000000000000000000000000000000000000000000009e
:20026000000000000000000000000008000000000000000000000000000000000000000076
:0d0280000000000000000000000000000071
:20028d00000000000000000000000000000000000000000000000000000000000000000051
:2002ad00000000000000000000000000000000000000000000000000000000000000000031
:2002cd00000000000000000000000000000000000000000000000000000000000000000011
:0d02ed000000000000000000000000000004
:2002fa000000000000000000000000000000000000000000000000000000000000000000e4
:20031a000000000000000000000000000000000000000000000000000000000000000000c3
:20033a000000000000000000000000000000000000000000000000000000000000000000a3
:0d035a000000000000000000000000000096
:20036700000000000000000000000000000000000000000000000000000000000000000076
:20038700000000000000000000000000000000000000000000000000000000000000000056
:2003a700000000000000000000000000000000000000000000000000000000000000000036
:0d03c7000000000000000000000000000029
:2003d400000000000000000000000000000000000000000000000000000000000000000009
:2003f4000000000000000000000000000000000000000000000000000000000000000000e9
:200414000000000000000000000000000000000000000000000000000000000000000000c8
:0d04340000000800000000000010000000a3
:2004410000000000000000000000000000000000000000000000000000000000000000009b
:2004610000000000000000000000000000000000000000000000000000000000000000007b
:2004810000000000000000000000000000000000000000000000000000000000000000005b
:0d04a100000000040000000000000000004a
:2004ae0000000000000000000000000000000000000000000000000000000000000000002e
:2004ce0000000000000000000000000000000000000000000000000000000000000000000e
:2004ee000000000000000000000000000000000000000000000000000000000000000000ee
:0d050e0000000000000000000000000000e0
:20051b000000000000000000000000000000000000000000000000000000000000000000c0
:20053b000000000000000000000000000000000000000000000000000000000000000000a0
:20055b0000000000000000000000000000000000000000000000000000000000000000027e
:0d057b000000000000000000000000000073
:20058800000000000000000000000000000000000000000000000000000000000000000053
:2005a800000000000000000000000000000000000000000000000000000000000000000033
:2005c800000000000000000000000000000000000000000000000000000000000000000013
:0d05e8000000000000000000000000000006
:2005f5000000000000000000000000000000000000000000000000000000000000000000e6
:200615000000000000000000000000000000000000000000000000000000000000000000c5
:200635000000000000000000000000000000000000000000000000000000000000000001a4
:0d0655000000000000000000000000000098
:20066200000000000000000000000000000000000000000000000000000000000000000078
:20068200000000000000000000000000000000000000000000000000000000000000000058
:2006a200000000000000000000000000000010000000000000000000000000000000000028
:0d06c200000000000000000000100000001b
:2006cf0000000000000000000000000000000000000000000000000000000000000000000b
:2006ef000000000000000000000000000000000000000000000000000000000000000000eb
:20070f000000000000000000000000000000000000000000000000000000000000000002c8
:0d072f0000000000000000000000000000bd
:20073c0000000000000000000000000000000000000000000000000000000000000000009d
:20075c0000000000000000000000000000000000000000000000000000000000000000007d
:20077c0000000000000000000000000000000000000000000000000000000000000000005d
:0d1c0c00800000000000000000000000004b
:201c19000002000000000000000000000000000000000000000000000000000000000000a9
:201c390000000000000000000000000000000000000000000000000000000000000000008b
:201c590000000000000000000000000000000000000000000000000000000000000000016a
:0d1c7900000000000000000000000000005e
:201c860000000000000000000000000000000000000000000000000000000000000000003e
:201ca60000000000000000000000000000000000000000000000000000000000000000001e
:201cc6000000000000000000000000000000000000000000000000000000000000000000fe
:0d1ce60000000000000000000000000000f1
:201cf3000000000000000000000000000000000000000000000000000000000000000000d1
:201d13000000000000000000000000000000000000000000000000000000000000000000b0
:201d3300000000000000000000000000000000000000000000000000000000000000000090
:0d1d53000000000000000000000000000083
:201d6000000000000000000000000000000000000000000000000000000000000000000063
:201d8000000000000000000000000000000000000000000000000000000000000000000043
:201da000000000000000000000000000000000000000000000000000000000000000000023
:0d1dc0000000000000000000000000000016
:201dcd000000000000000000000000000000000000000000000000000000000000000000f6
:201ded000000000000000000000000000000000000000000000000000000000000000000d6
:201e0d000000000000000000000000000000000000000000000000000000000000000000b5
:0d1e2d0000000000000000000000000000a8
:201e3a00002800000000000000000000000000000000000000000000000000000000000060
:201e5a00000000000000000000000000000000000000000000000000000000000000000068
:201e7a00000000000000000000000000000000000000000000000000000000000000000048
:0d1e9a00000000000000000000000000003b
:201ea7000040000000000000000000000000000000000000000000000000000000000000db
:201ec7000000000000000000000000000000000000000000000000000000000000000000fb
:201ee7000000000000000000000000000000000000000000000000000000000000000000db
:0d1f070000000000000000000000000000cd
:201f14000000000000000000000000000000000000000000000000000000000000000000ad
:201f340000000000000000000000000000000000000000000000000000000000000000008d
:201f540000000000000000000000000000000000000000000000000000000000000000006d
:0d1f74000000000000000000000000000060
:201f8100000000000000000000000000000000000000000000000000000000000000000040
:201fa100000000000000000000000000000000000000000000000000000000000000000020
:201fc100000000000000000000000000000000000000000000000000000000000000000000
:0d1fe10000000000000000000000000000f3
:201fee0048000000000000000000000000000000000000000000000000000000000000008b
:20200e000000000000000000000000000000000000000000000000000000000000000000b2
:20202e00000000000000000000000000000000000000000000000000000000000000000092
:0d204e000000000000000000000000000085
:20205b000c0000000000000000000000000000000000000000000000000000000000000059
:20207b00000000000000000000000000000000000000000000000000000000000000000045
:20209b00000000000000000000000000000000000000000000000000000000000000000025
:0d20bb000000000000000000000000000018
:2020c8000000000000000000000000000000000000000000000000000000000000000000f8
:2020e8000000000000000000000000000000000000000000000000000000000000000000d8
:202108000000000000000000000000000000000000000000000000000000000000000000b7
:0d21280000000000000000000000000000aa
:2021350080000000000000000000000000000000000000000000000000000000000000000a
:2021550000000000000000000000000000000000000000000000000000000000000000006a
:2021750000000000000000000000000000000000000000000000000000000000000000004a
:0d219500000000000000000000000000003d
:2021a2004000000000000000000000000000000000000000000000000000000000000000dd
:2021c2000000000000000000000000000000000000000000000000000000000000000000fd
:2021e2000000000000000000000000000000000000000000000000000000000000000000dd
:0d22020000000000000000000000000000cf
:20220f000000000000000000000000000000000000000000000000000000000000000000af
:20222f0000000000000000000000000000000000000000000000000000000000000000008f
:20224f0000000000000000000000000000000000000000000000000000000000000000006f
:0d226f000000000000000000000000000062
:20227c00000000000000000000000000000000000000000000000000000000000000000042
:20229c00000000000000000000000000000000000000000000000000000000000000000022
:2022bc00000000000000000000000000000000000000000000000000000000000000000002
:0d22dc0000000000000000000000000000f5
:2022e9000000000000000000000000000000000000000000000000000000000000000000d5
:202309000000000000000000000000000000000000000000000000000000000000000000b4
:20232900000000000000000000000000000000000000000000000000000000000000000094
:0d2349000000000000000000000000000087
:20235600000000000000000000000000000000000000000000000000000000000000000067
:20237600000000000000000000000000000000000000000000000000000000000000000047
:20239600000000000000000000000000000000000000000000000000010000000000000026
:0d23b600000000000000000000000000001a
:2023c3000000000000000000000000000000000000000000000000000000000000000000fa
:2023e3000000000000000000000000000000000000000000000000000000000000000000da
:202403000000000000000000000000000000000000000000000000000000000000000000b9
:0d24230000000000000000000000000000ac
:2024300000000000000000000000000000000000000000000000000000000000000000008c
:2024500000000000000000000000000000000000000000000000000000000000000000006c
:2024700000000000000000000000000000000000000000000000000000000000000000004c
:0d249000000000000000000000000000003f
:20249d0000000000000000000000000000000000000000000000000000000000000000001f
:2024bd000000000000000000000000000000000000000000000000000000000000000000ff
:2024dd000000000000000000000000000000000000000000000000000000000000000000df
:0d24fd0000000000000000000000000000d2
:20250a000000000000000000000000000000000000000000000000000000000000000000b1
:20252a00000000000000000000000000000000000000000000000000000000000000000091
:20254a00000000000000000000000000000000000000000000000000000000000000000071
:0d256a000000000000000000000000000064
:20257700000000000000000000000000000000000000000000000000000000000000000044
:20259700000000000000000000000000000000000000000000000000000000000000000024
:2025b700000000000000000000000000000000000000000000000000000000000000000004
:0d25d70000000000000000000000000000f7
:2025e4000000000000000000000000000000000000000000000000000000000000000000d7
:202604000000000000000000000000000000000000000000000000000000000000000000b6
:20262400000000000000000000000000000000000000000000000000000000000000000096
:0d2644000000000000000000000000000089
:20265100000000000000000000000000000000000000000000000000000000000000000069
:20267100000000000000000000000000000000000000000000000000000000000000000049
:20269100000000000000000000000000000000000000000000000000000000000000000029
:0d26b100000000000000000000000000001c
:2026be000000000000000000000000000000000010000000000000000000000000000000ec
:2026de000000000000000000000000000000000000000000000000000000000000000000dc
:2026fe000000000000000000000000000000000000000000000000000000000000000000bc
:0d271e0000000000000000000000000000ae
:20272b0000000000000000000000000000000000200000000000000000000000000000006e
:20274b0000000000000000000000000000000000000000000000000000000000000000006e
:20276b0000000000000000000000000000000000000000000000000000000000000000004e
:0d278b000000000000000000000000000041
:20279800000000000000000000000000000000000000000000000000000000000000000021
:2027b800000000000000000000000000000000000000000000000000000000000000000001
:2027d8000000000000000000000000000000000000000000000000000000000000000000e1
:0d27f80000000000000000000000000000d4
:2028050018000000000000000000000000000000000000000000000000000000000000009b
:20282500000000000000000000000000000000000000000000000000000000000000000093
:20284500000000000000000000000000000000000000000000000000000000000000000073
:0d2865000000000000000000000000000066
:20287200000000000000000000000000000000000000000000000000000000000000000046
:20289200000000000000000000000000000000000000000000000000000000000000000026
:2028b2000000000000000000000000000000000000004000000000000000000000000000c6
:0d28d20000000000000000000000000000f9
:2028df000000000000000000000000000000000000000000000000000100000000000000d8
:2028ff000000000000000000000000000000000000000000000000000000000000000000b9
:20291f00000000000000000000000000000000000000400000000000000000000000000058
:0d293f00000000000000000000000000008b
:20294c0040000000000000000000000000000000000000000000000000000000000000002b
:20296c0000000000000000000000000000000000000000000000000000000000000000004b
:20298c0000000000000000000000000000000000000000000000000000000000000000002b
:0d29ac00000000000000000000000000001e
:2029b9000000000000000000000000000000000000000000000000000000000000000000fe
:2029d9000000000000000000000000000000000000000000000000000000000000000000de
:2029f9000000000000000000000000000000000000000000000000000000000000000000be
:0d2a190000000000000000000000000000b0
:202a260000040000000000000000000000000000000000000000000000000000000000008c
:202a4600000000000000000000000000000000000000000000000000000000000000000070
:202a6600000000000000000000000000000000000000000000000000000000000000000050
:0d2a86000000000000000000000000000043
:202a9300802c00000000000000000000000000000000000000000000000000000000000077
:202ab300000000000000000000000000000000000000000000000000000000000000000003
:202ad3000000000000000000000000000000000000000000000000000000000000000000e3
:0d2af30000000000000000000000000000d6
:202b0000400000000000000000000000000000000000000000000000000000000000000075
:202b2000000000000000000000000000000000000000000000000000000000000000000095
:202b4000000000000000000000000000000000000000000000000000000000000000000075
:0d2b60000000000000000000000000000068
:202b6d000c000000000000000000000000000000000000000000000000000000000000003c
:202b8d00000000000000000000000000000000000000000000000000000000000000000028
:202bad00000000000000000000000000000000000000000000000000000000000000000008
:0d2bcd0000000000000000000000000000fb
:202bda000001000000000000000000000000000000000000000000000000000000000000da
:202bfa000000000000000000000000000000000000000000000000000000000000000000bb
:202c1a0000000000000000000000000000000000000000000000000000000000000000009a
:0d2c3a00000000000000000000000000008d
:202c470000000000000000000000000000000000000000000000000000000000000000006d
:202c670000000000000000000000000000000000000000000000000000000000000000004d
:202c870000000000000000000000000000000000000000000000000000000000000000002d
:0d2ca7000000000000000000000000000020
:202cb400000000000000000000000000000000000000000000000000000000000000000000
:202cd4000000000000000000000000000000000000000000000000000000000000000000e0
:202cf4000000000000000000000000000000000000000000000000000000000000000000c0
:0d2d140000000000000000000000000000b2
:202d2100000000000000000000000000000000000000000000000000000000000000000092
:202d4100000000000000000000000000000000000000000000000000000000000000000072
:202d6100000000000000000000000000000000000000000000000000000000000000000052
:0d2d81000000000000000000000000000045
:202d8e00000000000000000000000000000000000000000000000000000000000000000025
:202dae00000000000000000000000000000000000000000000000000000000000000000005
:202dce000000000004000000000000000000000000000000000000000000000000000000e1
:0d2dee0000000000000000000000000000d8
:202dfb000000000000000000000000000000000000000000000000000000000000000000b8
:202e1b00000000000000000000000000000000000000000000000000000000000000000097
:202e3b00000000000000000000000000000000000000000000000000000000000000000077
:2032100000000000000000000000000000000000000040000000000000000000000000005e
:0d3230000000000000000000000000000091
:20323d00000000000000000000000000000000000000000000000000000000000000000071
:20325d00000000000000000000000000000000000000000000000000000000000000000051
:20327d00000000000000000000000000000000000000000000000000000000000000000031
:0d329d000000000000000000000000000024
:2032aa00000000000000000000000000000000000000000000000000000000000000000004
:2032ca000000000000000000000000000000000000000000000000000000000000000000e4
:2032ea000000000000000000000000000000000000000000000000000000000000000000c4
:0d330a0000000000000000000000000000b6
:20331700000000000000000000000000000000000000000000000000000000000000000096
:20333700000000000000000000000000000000000000000000000000000000000000000076
:20335700000000000000000000000000000000000000000000000000000000000000000056
:0d3377000000000000000000000000000049
:20338400000000000000000000000000000000000000000000000000000000000000000029
:2033a400000000000000000000000000000000000000000000000000000000000000000009
:2033c4000000000000000000000000000000000000000000000000000000000000000000e9
:0d33e40000000000000000000000000000dc
:2033f1000000000000000000000000000000000000000000000000000000000000000000bc
:2034110000000000000000000000000000000000000000000000000000000000000000009b
:2034310000000000000000000000000000000000000000000000000000000000000000007b
:0d345100000400000000000000000000006a
:20345e0000000000000000000000000000000000000000000000000000000000000000004e
:20347e0000000000000000000000000000000000000000000000000000000000000000002e
:20349e0000000000000000000000000000000000000000000000000000000000000000000e
:0d34be000000000000000000000000000001
:203f030000000000000000000000000000000000000000000000000000000000001000008e
:203f230000000000000000000000000000000000000000000000000000000000000000007e
:203f430000000000000000000000000000000000000000000000000000000000000000005e
:0d3f63000000000000000000000000000051
:203f7000000000000000000000000000000000000000000000000000000000000000000031
:203f9000000000000000000000000000000000000000000000000000000000000000000011
:203fb0000000000000000000000000000000000000000000000000000000000000000000f1
:0d3fd00000000000000000000000000000e4
:203fdd000000000000000000000000000000000000000000000000000000000000000000c4
:203ffd000000000000000000000000000000000000000000000000000000000000000000a4
:20401d00000000000000000000000000000000000000000000000000000000000000000083
:0d403d000000000000000000000000000076
:20404a00000000000000000000000000000000000000000000000000000000000000000056
:20406a00000000000000000000000000000000000000000000000000000000000000000036
:20408a00000000000000000000000000000000000000000000000000000000000000000016
:0d40aa000000000000000000000000000009
:2040b7000000000000000000000000000000000000000000000000000000000000000000e9
:2040d7000000000000000000000000000000000000000000000000000000000000000000c9
:2040f7000000000000000000000000000000000000000000000000000000000000000000a9
:0d411700000000000000000000000000009b
:2041240000000000000000000000000000000000000000000000000000000000000000007b
:2041440000000000000000000000000000000000000000000000000000000000000000005b
:2041640000000000000000000000000000000000000000000000000000000000000000003b
:0d418400000000000000000000000000002e
:2041910000000000000000000000000000000000000000000000000000000000000000000e
:2041b1000000000000000000000000000000000000000000000000000000000000000000ee
:2041d1000000000000000000000000010000000000000400000000000010000000000000b9
:0d41f1004000000000000000000000000081
:2041fe000000000000000000000000000000000000000000000000000000000000000000a1
:20421e00000000000000000000000000000000000000000000000000000000000000000080
:20423e00000000000000000000000010000000000000000000000000000000000000000050
:0d425e000000000000000000000000000053
:20426b00000000000000000000000000000000000000000000000000000000000000000033
:20428b00000000000000000000000000000000000000000000000000000000000000000013
:2042ab000000000000000000000000000000000000000000000000000000000000000000f3
:0d42cb0000000000000000000000000000e6
:2042d8000000000000000000000000000000000000000000000000000000000000000000c6
:2042f8000000000000000000000000000000000000000000000000000000000000000000a6
:20431800000000000000000000000000000000000000000000000000000000000000000085
:0d4338000000000000001000000000000068
:20434500000000000000000000000000000000000000000000000000000000000000000058
:20436500000000000000000000000000000000000000000000000000000000000000000038
:20438500000000000000000000000000000000000000000000000000000000000000000018
:0d43a500000000000000000000000000000b
:2043b2000000000000000000000000000000000000000000000000000000000000000000eb
:2043d2000000000000000000000000000000000000000000000000000000000000000000cb
:2043f2000000000000000000000000000000000000000000000000000000000000000000ab
:0d441200000000000000000000000000009d
:20441f0000000000000000000000000000000000000000000000000e00000000000000006f
:20443f0000000000000000000000000000000000000000000000000000000000000000005d
:20445f00000000000000000000000001000000000000040000000000001000000000000028
:0d447f0040000000000001000000000000ef
:20448c00000000000000000000000000000000000000000000000000000000000000000010
:2044ac000000000000000000000000000000000000000000000000000000000000000000f0
:2044cc000000000000000000000000000000000000000000000000000000000000000000d0
:0d44ec0000000000000000000000000000c3
:2049e8000000000000000000000000000000000000000000000000000000000000000004ab
:0d4a08000000000000001000000000000091
:204a1500000000000000000000000000000000000000000000000000000000000000000081
:204a3500000000000000000000000000000000000000000000000000000000000000000061
:204a5500000000000000000000000000000000000000000000000000000000000000000041
:0d4a75000000000000000000000000000034
:204a8200000000000000000000000000000000000000000000000000000000000000000014
:204aa2000000000000000000000000000000000000000000000000000000000000000000f4
:204ac2000000000000000000000000000000000000000000000000000000000000000000d4
:0d4ae20000000000000000000000000000c7
:204aef000000000000000000000000000000000000000000000000000000000000000000a7
:204b0f00000000000000000000000000000000000000000000000000000000000000000086
:204b2f00000000000000000000000000000000000000000000000000000000000000000066
:0d4b4f000000000000000000000000000059
:204b5c00000000000000000000000000000000000000000000000000002000000000000019
:204b7c00000000000000000000000000000000000000000000000000000000000000000019
:204b9c000000000000000000000000000000000000000000000000000000000000000000f9
:0d4bbc0000000000000000000000000000ec
:204bc90000020000000000000000000000000000000000000000000000400000000000008a
:204be9000000000000000000000000000000000000000000000000000000000000000000ac
:204c090000000000000000000000000000000000000000000000000000000000000000008b
:0d4c2900000000000000000000000000007e
:204c360000000000000000000000000000000000000000000000000000000000000000005e
:204c560000000000000000000000000000000000000000000000000000000000000000003e
:204c760000000000000000000000000000000000000000000000000000000000000000001e
:0d4c96000000000000000000000000000011
:204ca3000000000000000000000000000000000000000000000000000000000000000000f1
:204cc3000000000000000000000000000000000000000000000000000000000000000000d1
:204ce3000000000000000000000000000000000000000000000000000000000000000000b1
:0d4d030000000000000000000000000000a3
:204d1000000000000000000000000000000000000000000000000000000000000000000083
:204d3000000000000000000000000000000000000000000000000000000000000000000063
:204d5000000000000000000000000000000000000000000000000000010000000000000042
:0d4d70000000000000000000000000000036
:204d7d00000000000000000000000000000000000000000000000000000000000000000016
:204d9d000000000000000000000000000000000000000000000000000000000000000000f6
:204dbd000000000000000000000000000000000000000000000000000000000000000000d6
:0d4ddd0000000000000000000000000000c9
:204dea000000000000000000000000000000000000000000000000000000000000000000a9
:204e0a00000000000000000000000000000000000000000000000000000000000000000088
:204e2a00000000000000000000000000000000000000000000000000000000000000000068
:0d4e4a00000000000000000000000000005b
:204e570000000000000000000000000000000000000000000000000000000000000000003b
:204e770000000000000000000000000000000000000000000000000000000000000000001b
:204e97000000000000000000000000000000000000000000000000000000000000000000fb
:0d4eb70000000000000000000000000000ee
:204ec4000000000000000000000000000000000000000000000000000004000000000000ca
:204ee4000000000000000000000000000000000000000000000000000000000000000000ae
:204f040000000000000000000000000000000000000000000000000000000000000000008d
:0d4f24000000000000000000000000000080
:204f310000000000000000000000000000000000000000000000000000340000000000002c
:204f5100000000000000000000000000000000000000000000000000000000000000000040
:204f7100000000000000000000000000000000000000000000000000000000000000000020
:0d4f91000000000000000000000000000013
:204f9e004c00000000000000000000000000000000000000000000000000000000000000a7
:204fbe00000000000000000000000000000000000000014000000000000000000000000092
:204fde000000000000000000000000000000000000000000000000000000000000000000b3
:0d4ffe0000000000000000000000000000a6
:20500b000c0000000000000000000000000000000000000000000000000000000000000079
:20502b000000000000000000000000000000000000000080000000000000000000000000e5
:20504b00000000000000000000000000000000000000000000000000000000000000000045
:0d506b000000000000000000000000000038
:20507800000000000000000000000000000000000000000000000000000000000000000018
:205098000000000000000000000000000000000000000000000000000000000000000000f8
:2050b8000000000000000000000000000000000000000000000000000000000000000000d8
:0d50d80000000000000000000000000000cb
:2050e50080000000000000000000000000000000000000000000000000000000000000002b
:2051050000000000000000000000000000000000000000000000000000000000000000008a
:2051250000000000000000000000000000000000000000000000000000000000000000006a
:0d514500000000000000000000000000005d
:2051520040000000000000000000000000000000000000000000000000000cfa08000000ef
:205172000000000000000000000000000000000000000000000000000040000000000000dd
:205192000000000000000000000000000000000000000000000000000000000000000000fd
:0d51b20000000000000000000000000000f0
:2051bf00003000000000000000000000000000000000000000000000000250f50000000059
:2051df000000000000000000000000000000000000000000000000000000000000000000b0
:2051ff00000000000000000000000000000000000000000000000000000000000000000090
:0d521f000000000000000000000000000082
:20522c00000000000000000000000000000000000000000000000000000000000000000062
:20524c00000000000000000000000000000000000000000000000000000000000000000042
:20526c00000000000000000000000000000000000000000000d6c170200000001af060c0d1
:0d528c00000000000000000800000000000d
:205299000000000000000000000000000000000000000000000000000000000000000000f5
:2052b9000000000000000000000000000000000000000000000000000000000000000000d5
:2052d900000000000000000000000000000000000000000000f23d400000000000f0010055
:0d52f90000000000000000040000000000a4
:20530600000000000000000000000000000000000000000000000000000000000000000087
:20532600000000000000000000000000000000000000000000000000100000000000000057
:20534600000000000000000000000000000000000003828700d201702e00160600a5403891
:0d53660000800000000000000000000000ba
:2053730000000000000000000000000000000000000000000000000000000000000000001a
:205393000000000000000000000000000000000000000000000000002000000000000000da
:2053b300000000000000000000000000000000000000020980b03d4200000029405a01015b
:0d53d30000100000000000000000000000bd
:2053e0000000000000000000000000000000000000000000000000000000000000000000ad
:2054000000000000000000000000000000000000000000000000000000000000000000008c
:20542000000000000000000000000000000000000000000999d201702c00000018f04030e3
:0d544000020000000000000000000000005d
:20544d0000000000000000000000000000000000000000000000000000000000000000003f
:20546d0000000000000000000000000000000000000000000000000000000000000000001f
:20548d00000000000000000000000000000000000000000108f83d464400000000f0011036
:0d54ad0001000000000000000000000000f1
:2054ba000000000000000000000000000000000000000000000000000000000000000000d2
:2054da000000000000000000000000000000000000000000000000000000000000000000b2
:2054fa00000000000000000000000000000000000000005000d201782000200018f060004f
:0d551a000100000000000000000000000083
:20552700000000000000000000000000000000000000000000000000000000000000000064
:20554700000000000000000000000000000000000000000000000000000000000000000044
:20556700000000000000000000000000000000000000006900b83d401000140010f0000062
:0d5587000200000000000000000000000015
:205594000000000000000000000000000000000000000000000000000000000000000000f7
:2055b4000000000000000000000000000000000000000000000000000000000000000000d7
:2055d4000000000000000000000000000000000000000000001a3c28000000000000000039
:0d55f40000381b3c15040000000000000002
:20560100000000000000000000000000000000000000000000000000000000000000000089
:20562100000000000000000000000000000000000000000000000000000000000000000069
:205641000000000000000000000000000000000000000000000003c000000038000000004e
:0d5661000000d13328000000000000000010
:20566e0000000000000000000000000000000000000000000000000000000000000000001c
:20568e000000000000000000000000000000000000000000000000000000000000000000fc
:2056ae0000000000000000000000000000000000000000001d723c280020000000000000c9
:0d56ce00008000000000001400000000003b
:2056db000000000000000000000000000000000000000000000000000000000000000000af
:2056fb0000000000000000000000000000000000000000000000000000000000000000008f
:20571b0000000000000000000000000000000000000000001d0003c000000000000000008e
:0d573b000030000000000008000000000029
:20574800000000000000000000000000000000000000000000000000000000000000000041
:20576800000000000000000000000000000000000000000000000000000000000000000021
:20578800000000000000000000000000000000000000000100723c20000000000000000032
:0d57a8000080000000000000000000000074
:2057b5000000000000000000000000000000000000000000000000000000000000000000d4
:2057d5000000000000000000000000000000000000000000000000000000000000000000b4
:2057f5000000000000000000000000000000000000000000080803c20000000000000000bf
:0d5815000030000000000000000000000056
:20582200000000000000000000000000000000000000000000000000000000000000000066
:20584200000000000000000000000000000000000000000000000000000000000000000145
:2058620000000000000000000000000a00000000000100501c3a3c20040000000000000015
:0d5882000000000000000000000000000019
:20588f000000000000000000000000000000000000000000000000000000000000000000f9
:2058af000000000000000000000000000000000000000000000000000000000000000000d9
:2058cf0000000000000000000000000400000000000000a0100803c8000000000000000032
:0d58ef0000000000000000080000000000a4
:2058fc0000000000000000000000000000000000000000000000000000000000000000008c
:20591c0000000000000000000000000000000000000000000000000000000000000000006b
:20593c0000000000000000000000000000664491c000030001323c20000014681cf04000f6
:0d595c00000180000000000160000000005c
:2059690000000000000000000000000000000000000000000000000000000000000000001e
:205989000000000000000000000000000000000000000000000000000000000000000000fe
:2059a900000000000000000000000000002665f0c00000000f0003c14000000010f0000090
:0d59c90001000000000000000000000000d0
:2059d6000000000000000000000000000000000000000000000000000000000000000000b1
:2059f600000000000000000000000000000000000000000000000000000000000000000091
:205a160000000000000000000000000001c39dadf123a000001215580e0020600c0e00384f
:0d5a36000000003bc1c10001e79dc56000fc
:205a4300000000000000000000000000000000000000000000000000000000000000000043
:205a6300000000000000000000000000000000000000000000000000000000000000000023
:205a8300000000000000000000000000e364360ff000100000081540100004004b0d0000ae
:0d5aa30000000003c0010000203e8ff00055
:205ab0000000000000000000000000000000000000000000000000000000000000000000d6
:205ad0000000000000000000000000000000000000000000000000000000000000000000b6
:205af0000000000000000000000000000003c0e500030000000029500c00166ac8fd0230ef
:0d5b100000000b23e800000007878810301c
:205b1d00000000000000000000000000000000000000000000000000000000000000000068
:205b3d00000000000000000000000000000000000000000000000000000000000000000048
:205b5d000000000000000000000000000006250a00010000003016800402002bf07e081075
:0d5b7d000000054028200000043504000051
:205b8a000000000000000000000000000000000000000000000000000000000000000000fb
:205baa000000000000000000000000000000000000010000000000000000000000000000da
:205bca00000000000200000000000008016074d00000005000033c10000000027ca4220029
:0d5bea003019a033c1800010000000000041
:205bf70000000000000000000000000000000000000000000000000000000000000000008e
:205c170000000000000000000000000000000000000100000000000000000000000000006c
:205c37000000000001300000000000040023be920000000000003c0000000003d05b1840e3
:0d5c570018000003c0410000000000000024
:205c640000000000000000000000000000000000000000000000000000000000000004001c
:205c8400000000000000000000000000000000000000000000000000000000000000000000
:205ca40000000000000000000000000002079d93b000000b800000000000207459ff20015f
:0d5cc40000180821548000000000000000be
:205cd1000000000000000000000000000000000000000000000000000000000000000200b1
:205cf100000000000000000000000000000000000000000000000000000000000000000093
:205d110000000000000000000000000002c00faee000000189000000000804757f25000064
:0d5d31000170e542a86500000000000000c0
:205d3e00000000000000000000000000000000000000000000000000000000000000000045
:205d5e00000000000000000000000000000000000000000000000000000000000000000025
:205d7e00000000000000000000000000000037c2b000285000000000000000654b00000034
:0d5d9e000001807bc18000020000000000b9
:205dab000000000000000000000000000000000000000000000000000000000000000000d8
:205dcb000000000000000000000000000000000000000000000000000000000000000000b8
:205deb0000000000000000000000000001403cde8000112000000000000000635940000090
:0d5e0b0028000003c0040083c00000000058
:205e180000000000000000000000000000000000000000000000000000000000000000006a
:205e380000000000000000000000000000000000000000000000000000000000000000004a
:205e5800000000000000000000000000000627bcc0001000000000000000000040810200ae
:0d5e780000701f76ac00000002400000002a
:205e85000000000000000000000000000000000000000000000000000000000000000000fd
:205ea5000000000000000000000000000000000000000000000000000000000000000000dd
:205ec50000000000000000000000000000038d8ac0040000000000000000000000db0800fc
:0d5ee50000089de9500000000700000000cb
:205ef200000000000000000000000000000000000000000000000000000000000000000090
:205f120000000000000000000000004000000000000000000000000000000000000000002f
:205f3200000000000000000000000000000221ee10210000000000000400406e00a5401066
:0d5f52000038003bc100000000000000000e
:205f5f00000000000000000000000000000000000000000000000000000000000000000022
:205f7f000000000000000000000000400000000000000000000000000000000000000000c2
:205f9f000000000000000000000000000006450d20100000000000000001802ac05a000095
:0d5fbf0000080003c02000000000000000ea
:205fcc000000000000000000000000000000000000000000000000000000000000000000b5
:205fec00000000000000000000000000000000000000000000000000000000000000000095
:20600c0000000000000000000000000001400000000000850a000000000c2063fa1d0000fe
:0d602c008001a86f84000000003cca400005
:20603900000000000000000000000000000000000000000000000000000000000000000047
:20605900000000000000000000000000000000000000000000000000000000000000000027
:2060790000000000000000000000000002600000000000000000000000a02c03cd8b00017d
:0d6099002890092b48040000002ce5b00001
:2060a6000000000000000000000000000000000000000000000000000000000000000000da
:2060c6000000000000000000000000000000000000000000000000000000000000000000ba
:2060e60000000000000080000000000a01469de55200000800f602c0000236715e96020096
:0d6106000050ade90800000040400000001e
:2061130000000000000000000000000000000000000000000000000000000000000000006c
:2061330000000000000000000000000000000000000000000000000000000000000000004c
:20615300000000000000700000000004154002055000000100dbec0000001440009600005a
:0d6173000100b5a63c040000230000000060
:206180000000000000000000000000000000000000000000000000000000000000000000ff
:2061a0000000000000000000000000000000000000000000000000000000000000000000df
:2061c00000000000000000057e5800000063f7efa0000005183ac04000001628686200009c
:0d61e0000000adfb94020000003dcfa000c8
:2061ed00000000000000000000000000000000000000000000000000000000000000000092
:20620d00000000000000000000000000000000000000000000000000000000000000000071
:20622d00000000000000f0077ca4000000229f00a08000001ab700000006003c5e6e00007a
:0d624d001800abb494000000c02600500003
:20625a00000000000000000000000000000000000000000000000000000000000000000024
:20627a000000000000000000000000000000000000000000000000400000000000000000c4
:20629a0000000000000000000000000001e396b3b0000000195a8f808002207359620000b5
:0d62ba0004798bf290000000603ec0f020df
:2062c7000000000000000000000000000000000000000000000000000000000000000000b7
:2062e700000000000000000000000000000000000000000000000040000000000000000057
:206307000000000000000000000000000363c4add000030f1e98050000001c40efe60000d1
:0d6327000058ad7d6c400000001c06010018
:20633400000000000000000000000000000000000000000000000000000000000000000049
:20635400000000000000000000000000000000000000000000000000000000000000000029
:20637400000000000000000000000000000037efa0000008003fb0c880008004f84d020039
:0d6394000080156b60080001c72180a00487
:2063a1000000000000000000000000000000000000000000000000000000000000000000dc
:2063c1000000000000000000000000000000000000000000000000000000000000000000bc
:2063e10000000000000000000000000000001f00a0000007083c20880001003c40e8000085
:0d6401000070938264000003e4240050004a
:20640e0000000000000000000000000000000000000000000000000000000000000000006e
:20642e0000000000000000000000000000000000000000000000000000000000000000004e
:20644e00000000000000000000000000016026f4a000000398f29a4080000403dc970000b2
:0d646e000080196ad0080402604ffa120085
:20647b00000000000000000000000000000000000000000000000000000000000000000001
:20649b000000000000000000000000000000000000000000000000000000000000000000e1
:2064bb000000000000000090000000000000059470000001005c0248500014026b9e000012
:0d64db00019095021c000401e2558a50005a
:2064e800000000000000000000000000000000000000000000000000000000000000000094
:20650800000000000000000000000000000000000000000000000000000000000000000073
:20652800000000000000700000000000000215cc302040000e00604040400429fd0e1000fa
:0d654800000191e238801001e2cd82d020e8
:20655500000000000000000000000000000000000000000000000000000000000000000026
:20657500000000000000000000000000000000000000000000000000000000000000000006
:206595000000000000000000000000000004060c700000000fb310800020020368e0004061
:0d65b5002801906e38000001c70202d000de
:2065c2000000000000000000000000000000000000000000000000000000000000000000b9
:2065e200000000000000000000000000000000000001000000000000000000000000000098
:2066020000000000000001f1f1540000004075acc0202800015b1d00000036645a28020041
:0d66220000800b3b30080003e796ecc02021
:20662f0000000000000000000000000000000000000000000000000000000000000000004b
:20664f0000000000000000000000000000000000000100000000000000000000000000002a
:20666f0000000000000000d04154000000234f0330001000089a1e8000001428102800003d
:0d668f000090054170040002641503300006
:20669c000000000000000000000000000000000000000000000000000000000000000000de
:2066bc000000000000000000000000000000000000000000000000000000000000020000bc
:2066dc0000000000000000000000000000001ed0800003500dbabc0000002028d8d1000069
:0d66fc0000598fa4cc000015c024f0300020
:20670900000000000000000000000000000000000000000000000000000000000000000070
:20672900000000000000000000000000000000000000000000000000000000000000000050
:2067490000000000000000000000000000003ce0001000001e74294000001c2009d10000f3
:0d676900000009eb30000008001dc53000e5
:20677600000000000000000000000000000000000000000000000000000000000000010002
:206796000003fcc000000000000000000000000000002000000000280000000000000000dc
:2067b6000000000000000000000000e00000018f040400050a72a10081001462fa590000df
:0d67d6000279d06b880800014015afa000cb
:2067e300000000000000000000000000000000000000000000000000000000000000020094
:206803000003fc8100000000000000000000000000000000000000102000000000000000c5
:2068230000000000000000000000000001c0000f0088000d909c0480410024425d561000d6
:0d6843002009914344401022401f00a00096
:20685000000000000000000000000000000000000000000000000000000000000000000028
:20687000000000000000000000000000000000000000000000000000000000000000000008
:206890000000000000000000000000c40002800000000003981bb580000014065ccc000075
:0d68b0000000e125a40000200724a6902090
:2068bd000000000000000000000000000000000000000000000000000000000000000000bb
:2068dd0000000000000000000000000000000000000000000000000000000000000000009b
:2068fd0000000000000000000000004a00000000000000000b9a8a400000003068690000c1
:0d691d0000000069a4200001469c009000cd
:20692a0000000000000000000000000000000000000000000000000000000000000000004d
:20694a0000000000000000000000000000000000000100000000000000000000000000002c
:20696a000000000000000000000000000267afba1000000d187ea6408001202a5e03020074
:0d698a000119853788000001c71f9cc0005f
:206997000000000000000000000000000000000000000000000000000000000000000000e0
:2069b7000000000000000000000000000000000000010600000000000000000000000000b9
:2069d700000000000000000000000000026276fa5000000b00b4360000009c00d0f3000028
:0d69f700000900fb882000600404f5c000ca
:206a0400000000000000000000000000000000000000000000000000000000000000000072
:206a2400000000000000000000000000000000000000000000000000000000000002000050
:206a44000000000000000000000000000067400a540000030c000000000086776c7b020434
:0d6a64000201b1f1a4080000003ce7b00001
:206a7100000000000000000000000000000000000000000000000000000000000000000005
:206a91000000000000000000000000000000000000000000000000000000000000000000e5
:206ab10000000000000000000000000000438c05a28800008000000000054069c0de0000fb
:0d6ad10000009041a40000000035bde080f1
:206ade00000000000000000000000000000000000000000000000000000000000000000098
:206afe000000000000000000000000000000000000008000000000000000000000000000f8
:206b1e00000000000000000000000000000055a50000100380f68cc0000026014cd1020042
:0d6b3e000081d7ea5c080400001f8690006b
:206b4b0000000000000000000000000000000000000000000000000c00000000000000001e
:206b6b000000000000000000000000000000000000004000000000000000000000000000ca
:206b8b0000000000000000000000000200422f00a00020000013330000001e0350510000af
:0d6bab000030e903a40408004004b06000bd
:206bb8000000000000000000000000000000000000000000000000000000000000000000bd
:206bd80000000000000000000000000000000000000000000000000000000000000000009d
:206bf800000000000000000000000000004717a34020000d8a5e15400000003000000000a2
:0d6c180000018f6730000000007d8cc0205f
:206c250000000000000000000000000000000000000000000000000000000000000000004f
:206c450000000000000000000000000000000000000000000000000000000000000000002f
:206c650000000000000000000000000080201e02c204000500001540000a00000000000025
:0d6c850000710375700000004254099080fa
:206c92000000000000000000000000000000000000000000000000000000000000000000e2
:206cb200000000000000000000000000000000000000000000000020500000000000000052
:206cd20000000000000000000000004002e02fac10200003187e18c0800454626e0000005c
:0d6cf200009013bebc0000004040000000f8
:206cff00000000000000000000000000000000000000000000000000000000000000000075
:206d1f00000000000000000000000000000000000000000000000010200000000000000024
:206d3f000000000000000000000000100062340c3000000010380cc000000202500f0000db
:0d6d5f0000909b760c000000224000000018
:206d6c00000000000000000000000000000000000000000000000000000000000000000007
:206d8c000000000000000000000000000000000000000000000000000000000000000000e7
:206dac0000000000000000000000000001400ea96000102981134cc0000000646933000096
:0d6dcc0000f01b38cc000001e07ca5a00009
:206dd900000200000000000000000000000000000000000000000000000000000000000098
:206df90000000000000000000000000000000000000000000000000000000000000000007a
:206e190000000000000000000000000000200ddf000028458c53730000800064d9cc000005
:0d6e390000909167300000000325c5801017
:206e460000000000000000000000000000000000000000000000000000000000000000002c
:206e66000000000000000000000000000000000000000000000000000000000000000040cc
:206e86000000000000000000000000e002000f853600020000b6bec08000360558e2020013
:0d6ea60000980f78cc08e00007feea0420f9
:206eb3000000000000000000000000000000000000000000000000000000000000000000bf
:206ed30000000000000000000000000000000000000000000000000000000000000000801f
:206ef30000000000000000000000000002c2c5c03000000000d02fc00000043000e2000031
:0d6f13000110018330000000023e048000e8
:206f2000000000000000000000000000000000000000000000000000000000000000000051
:206f4000000000000000000000000000000000000000000000000000000000000000000031
:206f6000000000000000000000000000014000000000000b9e72b0008000943afc33020086
:0d6f8000000005f080000000007fd85400e4
:206f8d000000000000000000000000000000000000000000000000000000000000000000e4
:206fad000000000010000000000000000000000000000000000000000000000000000000b4
:206fcd00000000000000000000000000000200000000000910d80fc00000000350cc0000c3
:0d6fed00000003b400000000021ca582009b
:206ffa00000200000000000000000000000000000000000000000000000000000000000075
:20701a00000000000000000000000000000000000000000000000000000000000000000056
:20703a00000000000000000000000000000000000000000500b203c000001664ee630200ef
:0d705a000870013bdc0800006001850004a7
:20706700000000000000000000000000000000000000000000000000000000000000000009
:207087000000000000000000000000000000000000000000000000000000000000000000e9
:2070a700000000000000000000000000014000000000000008fc3c0000000070e0390000bf
:0d70c700000091039c00000000350a00004d
:2070d40000000000000000000000000000000000000000000000000000000000000000009c
:2070f40000000000000000000000000000000000000000000000000000000000000000007c
:2071140000000000000000000000000000601de0a000010b9f971ec082000603c9cc00001e
:0d71340000189fba840000000005880020ac
:207141008000000000000000000000000000000000000000000000000000000000000000ae
:2071610000000000000000000000000000000000000000000000000000000000000000000e
:2071810000000000000000000000000000420000a00000078e303b4000001c015933000023
:0d71a10018b8e57694000003c00d00020050
:2071ae000000000000000000000000000000000000000000000000000000000000000000c1
:2071ce000000000000000000000000000000000000000000000000000000000000000000a1
:2071ee000000000000000000000000000240358093a80801807bac40000006614a3300007b
:0d720e0002380030b4080001e04e80a000fe
:20721b00000000000000000000000000000000000000000000000000000000000000000053
:20723b00000000000000000000000000000000000000000000000000000000000000000033
:20725b0000000000003000000000000001c01400f00000030c0f6c400000002bdecc00007f
:0d727b0000000b4078000800033f05a00054
:207288000000000000000000000000000000000000000000000000000000000000000000e6
:2072a8000000000000000000000000000000000000000000000000000000000000000000c6
:2072c800000000000000000000000000020000000000030018078cc0800016006833000005
:0d72e8000011800000002000607fc85020d1
:2072f5008000000000000000000000000000000000000000000000000000000000000000f9
:20731500000000000000000000000000000000000000000000000000000000000000000058
:2073350000000000000000000000000000c00000000000001f000cc000001c215ccc000028
:0d7355000008f0000000000043dc0582008d
:207362000000000000000000000000000000000040000000000000000000000000000000cb
:2073820000000000100000000000000000000000000100000000004000000000000000009a
:2073a200000000000000000000000000000000000000001018171bc080000002c82e020037
:0d73c2001098000000000003c300c401305b
:2073cf0000000000000000000000000000000000400000000000000000000000000000005e
:2073ef000000000010000000000000000000000000010000000000418000000000000000ac
:20740f00000000000000000000000000004000000000000f1c143d800000000350ad000021
:0d742f0001b8000000000002e2b4080002f5
:02743c0000004e
:02743e0011013a
:02744000010148
:2074420000000000000000000000000000000000200000000000000000000000000000000a
:2074620000000000000000000000000000000000000000000000000000000000000000000a
:207482000000000000000000000000000000000000000000000000000000000000000000ea
:0d74a20000000000000004000000000000d9
:2074af000000000000000000000000000000000000000000000000000000000000000000bd
:2074cf0000000000000000000000000000000000000000000000000000000000000000009d
:2074ef0000000000000000000000000000000000000000000000000000000000000000007d
:0d750f00000000000000000000000000006f
:20751c0000000000000000000000000000000000100000000000000000000000000000003f
:20753c0000000000000000000000000000000000000000000000000000000000000000002f
:20755c000000000000000000000000000000000000001000000000000040000000000000bf
:0d757c000000000000000400d0000000002e
:207589000000000000000000000000000000000000000000000000000000000000000000e2
:2075a9000000000000000000000000000000000000000000000000000000000000000000c2
:2075c9000000000000000000000000000000000000000000000000000000000000000000a2
:0d75e9000000000000000000000000000095
:2075f600000000000000000000000000000000002000000040000000000000000000000015
:20761600000000000000000000000000000000000000000000000000000000000000000054
:20763600000000000000000000000000000000000000000000000000000000000000000034
:0d76560000000000000008000000300000ef
:207663000000000000000000000000000000000000000000400000000000000000000000c7
:207683000000000000000000000000000000000000000000000000000000000000000000e7
:2076a3000000000000000000000000000000000000000000000000000000000000000000c7
:0d76c3000000000000000000d0005000009a
:2076d00000000000000000000000000000000000000000000000000000000000000000009a
:2076f00000000000000000000000000000000000000000000000000000000000000000007a
:2077100000000000000000000000000000000000000010000000000000c000000000000089
:0d773000000000000000000000000000004c
:20773d0000000000000000000000000000000000000000000000000000000000000000002c
:20775d0000000000000000000000000000000000000000000000000000000000000000000c
:20777d000000000000000000000000000000000000002000040000000000000400000000c4
:0d779d0000000000000000000000000000df
:2077aa0000000000000000000000000020000000000000800000000000000000000000001f
:2077ca00080000000000000000000000000000000000000000000000000000000000000097
:2077ea0000000000000000000000000000000000000000000040000000000001000000003e
:0d780a000000000000000000000000000071
:20781700000000000000000000000000000000000000000000000000000000000000000c45
:20783700000000000000000000000000000000000000000000000000000000000000000031
:20785700000000000000000000000000000000000000000000000000000000000000000011
:0d7877000000000000000000000000000004
:20788400000000000000000000000000001000000000200040000000000000000000000074
:2078a400000c000000000000000000000000000000000000000000000000000000000000b8
:2078c4000000000000000000000000000000000000000000000000000000000000000000a4
:0d78e400000000000000000000000800008f
:2078f100000000000000000000080000000000002000e0000000000000000000000200006d
:20791100000400000000000000000000000000000000000000000000000000000000000052
:20793100000000000000000000000000000000000000000000000000000000000000000036
:0d795100000000000000000000000c00001d
:20795e00000000000000000000000000000000000000000000000000000000000000000009
:20797e000000000000000000000000000000000000000000000000000000000000000000e9
:20799e000000000000000000000000000000000000000000000000000000000000000000c9
:0d79be0000000000000000000000000000bc
:2079cb00000000000000000000040000000000001000000000000000000000000001000087
:2079eb0000000000000000000000000000000000000000000000000000000000000000007c
:207a0b0000000000000000000000000000000000000000000000000000000000000000005b
:0d7a2b00000000000000000000000000004e
:207a38000000000000000000000000d00000000000034040000000000000000000000000db
:207a580000000000000000000000000000000000000000000000000000000000000000000e
:207a78000000000000000000000000000000000000000000004000000000000100000000ad
:0d7a98000000000000000000501000000081
:207aa500000000000000000000080080000000002000000000000000000000000002000017
:207ac500000000000000000000000000000001800000000000000000000000000000000020
:207ae500000000000000000000000000000000000000000000000000000000000000000081
:0d7b050000000000000000008000000000f3
:207b1200000000000000000000000000000000000000000000000000000000000000000053
:207b3200000000000000000000000000000000000000000000000000000000000000000033
:207b5200000000000000000000000000000000000000000000000000000000000000000013
:0d7b72000000000000000000000000000006
:208664000000000000000000000000000000000000000000000000000004000000000004ee
:0d86840000000000000000000000000000e9
:208691000000000000000000000000000000000000000000000000000000000000000000c9
:2086b1000000000000000000000000000000000000000000000000000000000000000000a9
:2086d100000000000000000000000000000000000000000000000000000000000000000485
:0d86f100000000000000000000000000007c
:2086fe0000000000000000000000000000000000000000000000000000000000000000005c
:20871e0000000000000000000000000000000000000000000000000000000000000000003b
:20873e0000000000000000000000000000000000000000000000000000000000000000001b
:0d875e00000000000000000000000000000e
:20876b000000000000000000000000000000000000000000000000000000000000000000ee
:20878b000000000000000000000000000000000000000000000000000000000000000000ce
:2087ab000000000000000000000000000000000000000000000000000000000000000000ae
:0d87cb0000000000000000000000000000a1
:2087d800000000000000000000000000000000000000000000000000000000000000000081
:2087f800000000000000000000000000000000000000000000000000000000000000000061
:20881800000000000000000000000000000000000000000000000000000000000000000040
:0d8838000000000000000000000000000033
:20884500000000000000000000000000000000000000000000000000000000000000000013
:208865000000000000000000000000000000000000000000000000000000000000000000f3
:20888500000000000000000000000000000000000000400000000000000000000000000093
:0d88a50000000000000000000000000000c6
:2088b2000000000000000000000000000000000000000000000000000000000000000000a6
:2088d20000000000000000000000000000000000000c000063c9000000000000000000004e
:2088f200000000000000000000000000000000000000000000000000000000000000000066
:0d8912000000000000000000000000000058
:20891f00000000000000000000000000000000000000000000000000000000000000000038
:20893f0000000000000000000000000000000000000c00043a01000000000000000002804b
:20895f000000000000020000000000000000000000000000000000000000000000000000f6
:0d897f0000000000000000000000000000eb
:20898c000000000000000000000000000000000000000000000000000000000000000000cb
:2089ac00000000000000000000000000000000000000000438c900000000000000000000a6
:2089cc0000000000000000000000000000000000000000000000000000000000000000008b
:0d89ec00000000000000000000000000007e
:2089f90000000000000000000000000000000000000000000000000000000000000000005e
:208a190000000000000000000000000000000000000000007fc108000000000000000000f5
:208a390000000000000000000000000000000000000000000000000000000000000000001d
:0d8a59000000000000000000000000000010
:208a66000000000000000000000000000000000000000000000000000000000000000000f0
:208a8600000000000000000000000020000000000000000400c000000000000000000040ac
:208aa6000000000000000000000000000000000000000000000000000000000000000000b0
:0d8ac60000000000000000000000000000a3
:208ad300000000000000000000000000000000000000000000000000000000000000000083
:208af30000000000000000000000000000000000000000000000000000000000000004005f
:208b1300000000000002000000000000000000000000000000000000000000000000000040
:0d8b33000000000000000000000000000035
:208b4000000000000000000000000000000000000000000000000000000000000000000015
:208b6000000000000000000000000000000000000000001e00c00000000000000000000017
:208b80000000000000000000000000000000000000000000000000000000000000000000d5
:0d8ba00000000000000000000000000000c8
:208bad000000000000000000000000000000000000000000000000000000000000000000a8
:208bcd00000000000000000000000000000000000000003c0000000000000000000000004c
:208bed00000000000000000000000000000000000000000000000000000000000000000068
:0d8c0d00000000000000000000000000005a
:208c1a00002c0000000000000000000000000000000000000000000000000000000000000e
:208c3a00000000000000000000000000000000000000003c03c0000000000000000000001b
:208c5a000000000000000000000000000000000000000000000000000000000000000000fa
:0d8c7a0000000000000000000000000000ed
:208c87000001000000000000000000000000000000000000000000000000000000000000cc
:208ca70000000000000000000000000000000000000010000000000000000000000000009d
:208cc70000000000000000000000000020000000000000000000000000000000000000006d
:0d8ce7000000000000000000000000000080
:208cf4000c0000000000000000000000000000000000000000000000000000000000000054
:208d140000000000000000000000000000000000000c000003c0040000000000000000006c
:208d340000000000000000000000000000000000000000000000000000000000000000001f
:0d8d54000000000000000000000000000012
:208d61004800000000000000000000000000000000000000000000000000000000000000aa
:208d810000000000000000000000000000000000000410003b600000000000000000000023
:208da1000000000000000000000000000000000000000000000000000000000000000000b2
:0d8dc10000000000000000000000000000a5
:208dce008000000000000000000000000000000010000000000000000000000000000000f5
:208dee0000000000000000000000000000000000000000023c4000000000000000000000e7
:208e0e00000000000001000000000000000000000000000000000000000000000000000043
:0d8e2e000000000000000000000000000037
:208e3b000000000000000000000000000000000028000000000000000000000000000000ef
:208e5b0000000000000000000000000000000000000e101e7e000000000000000000040039
:208e7b000000000000000000000000000000000000000000000000000000000000000000d7
:0d8e9b0000000000000000000000000000ca
:208ea8000000000000000000000000000000000000000000000000000000000000000000aa
:208ec800000000000000000000000000000000000000000003c000000000000000000000c7
:208ee80000000000000000000000000000000000000010000000000000000000000000005a
:0d8f0800000000000000000000000000005c
:208f15004000000000000000000000000000000000000000000000000000000000000000fc
:208f350000000000000000000000000000000000000010000000000000000000000000000c
:208f55000000000000000000000000000000000000000800000000000000000000000000f4
:0d8f750000000000000000000000000000ef
:208f82000000000000000000000000000000000000000000000000000000000000000000cf
:208fa200000000000000000000000000000000000004002c004e0000000000000000000031
:208fc20000000000000000000000000000000000000000000000000000000001c05000007e
:0d8fe2000000000000000000000000000082
:208fef00000000000000000000000000000000000000000000000000000000000000000062
:20900f0000000000000000000000000000000000000400000201000000000000000000003a
:20902f00000000000000000000000000000000000000000000000000000000000ca008006d
:0d904f000000000000000000000000000014
:20905c000000000000000000000000000000000000000000000000000000000000000000f4
:20907c000000000000000000000000000040000000000002036c080000000000000000001b
:20909c0000000000000000000000000000000000000000000000000000003c000000000078
:0d90bc0000000000000000000000000000a7
:2090c900000000000000000000000000000000000000000000000000000000000000000087
:2090e900000000000000000000000000000000000000001c0140000000000000000000000a
:20910900000000000000000000000000000000000000000000000000000000000000000046
:0d9129000000000000000000000000000039
:20913600000000000000000000000000000000000000000000000000000000000000000019
:209156000000000000000000000000000000000000000000004000000000000000000000b9
:209176000000000000000000000000100000000000002000000000000100000000000000a8
:0d91960000000000000000000000000000cc
:2091a3000000000000000000000000000000000000000000000000000000000000000000ac
:2091c300000000000000000000000000000000000000000478000000000000000000000010
:2091e300000000000008000000000000000000000000000000000000000000000000000064
:0d920300000000000000000000000000005e
:20921000000000000000000000000000000000000000000000000000000000000000000836
:20923000000000000000000000000000000000000000002c01c00000000000000000000031
:2092500000000000000000000000000000000000000000000000000000001c0000000000e2
:0d92700000000000000000000000000000f1
:20927d00000000000000000000000000000000000000000000000000000000000000007061
:20929d00000000000000000000000000000000000000002000000000000000000000000091
:2092bd00000000000000000000000000000000000000000000000000000000000000000091
:0d92dd000000000000000000000000000084
:2092ea00000000000000000000000000000000000000000000000000000000000000000064
:20930a00030294000000000000000000000000000000000202400000000000000000000066
:20932a00000000000000000000000000000000000000000000000000000000000000000023
:0d934a000000000000000000000000000016
:209357000000000000000000000000000000000000000000000000000000000000000000f6
:20937700000168020000000000000000000000000000001602000000000000000000000053
:209397000000000000000000000000000000000000000000000000000000000000000000b6
:0d93b70000000000000000000000000000a9
:2093c400000000000000000000000000000000000000000000000000000000000000000089
:2093e4000000000000000000000000000000000000000000316000000000000000000000d8
:20940400000000000000000000000000000000000000000000000000000000000000000048
:0d942400000000000000000000000000003b
:2094310000000000000000000000000000000000000000000000000000000000000000001b
:20945100000000000000000000000000000000000000000430e040000000000000000000a7
:209471000000000000000000000000000000000000000000000000000000000000000000db
:0d94910000000000000000000000000000ce
:20949e000000000000000000000000000000000000000000000000000000000000000000ae
:2094be00000000000000000000000003800000000000002400c000005000000000000000d7
:2094de0000000000000000000000000000000000000040000000000000000000000000042a
:0d94fe000000000000000800000000000059
:20950b00000000000000000000000000000000000000000000000000000000000000000040
:20952b0000000000000000000000000000000000000e000c320000000000000000000000d4
:20954b000000000000000000000000000000000000004000000000000000000000000000c0
:0d956b0000000000000004000000000000ef
:209578000000000000000000000000000000000000000000000000000000000000000000d3
:20959800000000000000000000000000000000000000100201400000000000000000000060
:2095b800000000000000000000000000000000000000000000000000010000000000000092
:0d95d8000000000000000000000000000086
:2095e500000000000000000000000000000000000300000000000000000000000000000063
:20960500000000000000000000000000000000000000000c02000000000000000000000037
:20962500000000000000000000000000000000000000000000000000000000000000000025
:0d9645000000000000000000000000000018
:209652000000000000000000000000000000000000000000000000000000000000000000f8
:2096720000000000000000000000000000000000000c0002000000000000000000000000ca
:209692000000000000000000000000000000000000000000000000000000000000000000b8
:0d96b20000000000000000000000000000ab
:2096bf0000000000000000000000000000000000000000000000000000000000000000008b
:2096df0000000000000000000000000000000000000c00040000000000000000000c00004f
:2096ff0000000000000000000000000000000000000000000000000000000000000000004b
:0d971f00000000000000000000000000003d
:20972c0000000000000000000000000000000000000000000000000000000000000000001d
:20974c000000000000000000000000000000000000000000000000000000000000000004f9
:20976c000000000000000000000000000000000000000000805014020000000000000000f7
:0d978c0000000000000000000000000000d0
:209799000000000000000000000000000000000000000000000000000000000000000000b0
:2097b9000000000000000000000000000000000000000000004040000000000000000020f0
:2097d90000000000000000000000000000000000000000010086a800000000000000000041
:0d97f9000000000000000000000000000063
:20980600000000000000000000000000000000000000000000000000000000000000000042
:20982600000000000000000000000000000000000000000000000000000000000000000022
