:02000000ff00ff
:080002004c6174746963650030
:17000a00694345637562653220323032302e31322e32373934330071
:16002100506172743a2069434534304858384b2d43423133320018
:1b003700446174653a204d617920323120323032322032323a35323a30370080
:0200520000ffad
:040054007eaa997e69
:02005800510055
:02005a0001059e
:03005c00920020ef
:03005f00620367d2
:0300620072011018
:0300650082000016
:02006800110085
:02006a00010192
:20006c00000000000000000000000000000000000000000000000000000000000000000074
:20008c00000000000000000000000000000000000000000000000000000000000000000054
:2000ac0000000000000000000000000800000000000000000000000000000000000000002c
:0d00cc000000000000000000000000000027
:2000d900000000000000000000000000000000000000000000000000000000000000000007
:2000f9000000000000000000000000000000000000000000000000000000000000000000e7
:200119000000000000000000000000000000000000000000000000000000000000000000c6
:0d01390000000000000000000000000000b9
:20014600000000000000000000000000000000000000000000000000000000000000000099
:20016600000000000000000000000000000000000000000000000000000000000000000079
:20018600000000000000000000000004000000000000000000000000000000000000000055
:0d01a6000000000000000400000000000048
:2001b30000000000000000000000000000000000000000000000000000000000000000002c
:2001d30000000000000000000000000000000000000000000000000000000000000000000c
:2001f3000000000000000000000000000000000000000000000000000000000000000000ec
:0d02130000000000000000000000000000de
:200220000000000000000000000000000000000000000000000000000000000000000000be
:2002400000000000000000000000000000000000000000000000000000000000000000009e
:20026000000000000000000000000008000000000000000000000000000000000000000076
:0d0280000000000000000000000000000071
:20028d00000000000000000000000000000000000000000000000000000000000000000051
:2002ad00000000000000000000000000000000000000000000000000000000000000000031
:2002cd00000000000000000000000000000000000000000000000000000000000000000011
:0d02ed000000000000000000000000000004
:2002fa000000000000000000000000000000000000000000000000000000000000000000e4
:20031a000000000000000000000000000000000000000000000000000000000000000000c3
:20033a000000000000000000000000000000000000000000000000000000000000000000a3
:0d035a000000000000000000000000000096
:20036700000000000000000000000000000000000000000000000000000000000000000076
:20038700000000000000000000000000000000000000000000000000000000000000000056
:2003a700000000000000000000000000000000000000000000000000000000000000000036
:0d03c7000000000000000000000000000029
:2003d400000000000000000000000000000000000000000000000000000000000000000009
:2003f4000000000000000000000000000000000000000000000000000000000000000000e9
:200414000000000000000000000000000000000000000000000000000000000000000000c8
:0d04340000000800000000000010000000a3
:2004410000000000000000000000000000000000000000000000000000000000000000009b
:2004610000000000000000000000000000000000000000000000000000000000000000007b
:2004810000000000000000000000000000000000000000000000000000000000000000005b
:0d04a100000000000000000000000000004e
:2004ae0000000000000000000000000000000000000000000000000000000000000000002e
:2004ce0000000000000000000000000000000000000000000000000000000000000000000e
:2004ee000000000000000000000000000000000000000000000000000000000000000000ee
:0d050e0000000000000000000000000000e0
:20051b000000000000000000000000000000000000000000000000000000000000000000c0
:20053b000000000000000000000000000000000000000000000000000000000000000000a0
:20055b0000000000000000000000000000000000000000000000000000000000000000027e
:0d057b000000000000000000000000000073
:20058800000000000000000000000000000000000000000000000000000000000000000053
:2005a800000000000000000000000000000000000000000000000000000000000000000033
:2005c800000000000000000000000000000000000000000000000000000000000000000013
:0d05e8000000000000000000000000000006
:2005f5000000000000000000000000000000000000000000000000000000000000000000e6
:200615000000000000000000000000000000000000000000000000000000000000000000c5
:200635000000000000000000000000000000000000000000000000000000000000000001a4
:0d0655000000000000000000000000000098
:20066200000000000000000000000000000000000000000000000000000000000000000078
:20068200000000000000000000000000000000000000000000000000000000000000000058
:2006a200000000000000000000000000000010000000000000000000000000000000000028
:0d06c200000000000000000000100000001b
:2006cf0000000000000000000000000000000000000000000000000000000000000000000b
:2006ef000000000000000000000000000000000000000000000000000000000000000000eb
:20070f000000000000000000000000000000000000000000000000000000000000000002c8
:0d072f0000000000000000000000000000bd
:20073c0000000000000000000000000000000000000000000000000000000000000000009d
:20075c0000000000000000000000000000000000000000000000000000000000000000007d
:20077c0000000000000000000000000000000000000000000000000000000000000000005d
:201c19000002000000000000000000000000000000000000000000000000000000000000a9
:201c390000000000000000000000000000000000000000000000000000000000000000008b
:201c590000000000000000000000000000000000000000000000000000000000000000006b
:0d1c7900000000000000000000000000005e
:201c860000000000000000000000000000000000000000000000000000000000000000003e
:201ca60000000000000000000000000000000000000000000000000000000000000000001e
:201cc6000000000000000000000000000000000000000000000000000000000000000000fe
:0d1ce60000000000000000000000000000f1
:201cf3000000000000000000000000000000000000000000000000000000000000000000d1
:201d13000000000000000000000000000000000000000000000000000000000000000000b0
:201d3300000000000000000000000000000000000000000000000000000000000000000090
:0d1d53000000000000000000000000000083
:201d6000000000000000000000000000000000000000000000000000000000000000000063
:201d8000000000000000000000000000000000000000000000000000000000000000000043
:201da000000000000000000000000000000000000000000000000000000000000000000023
:0d1dc0000000000000000000000000000016
:201dcd000000000000000000000000000000000000000000000000000000000000000000f6
:201ded000000000000000000000000000000000000000000000000000000000000000000d6
:201e0d000000000000000000000000000000000000000000000000000000000000000000b5
:0d1e2d0000000000000000000000000000a8
:201e3a00000000000000000000000000000000000000000000000000000000000000000088
:201e5a00000000000000000000000000000000000000000000000000000000000000000068
:201e7a00000000000000000000000000000000000000000000000000000000000000000048
:0d1e9a00000000000000000000000000003b
:201ea70000000000000000000000000000000000000000000000000000000000000000001b
:201ec7000000000000000000000000000000000000000000000000000000000000000000fb
:201ee7000000000000000000000000000000000000000000000000000000000000000000db
:0d1f070000000000000000000000000000cd
:201f14000004000000000000000000000000000000000000000000000000000000000000a9
:201f340000000000000000000000000000000000000000000000000000000000000000008d
:201f540000000000000000000000000000000000000000000000000000000000000000006d
:0d1f74000000000000000000000000000060
:201f810000340000000000000000000000000000000000000000000000000000000000000c
:201fa100000000000000000000000000000000000000000000000000000000000000000020
:201fc100000000000000000000000000000000000000000000000000000000000000000000
:0d1fe10000000000000000000000000000f3
:201fee0044000000000000000000000000000000000000000000000080000000000000000f
:20200e000000000000000000000000000000000000000000000000000000000000000000b2
:20202e00000000000000000000000000000000000000000000000000000000000000000092
:0d204e000000000000000000000000000085
:20205b0008000000000000000000000000000000000000000000000140000000000000001c
:20207b00000000000000000000000000000000000000000000000000000000000000000045
:20209b00000000000000000000000000000000000000000000000000000000000000000025
:0d20bb000000000000000000000000000018
:2020c8000000000000000000000000000000000000000000000000000000000000000000f8
:2020e8000000000000000000000000000000000000000000000000000000000000000000d8
:202108000000000000000000000000000000000000000000000000000000000000000000b7
:0d21280000000000000000000000000000aa
:2021350080000000000000000000000000000000000000000000000000000000000000000a
:2021550000000000000000000000000000000000000000000000000000000000000000006a
:2021750000000000000000000000000000000000000000000000000000000000000000004a
:0d219500000000000000000000000000003d
:2021a2004000000000000000000000000000000000000000000000000000000000000000dd
:2021c2000000000000000000000000000000000000000000000000000000000000000000fd
:2021e2000000000000000000000000000000000000000000000000000000000000000000dd
:0d22020000000000000000000000000000cf
:20220f000000000000000000000000000000000000000000000000000000000000000000af
:20294c008038000000000000000000000000000000000000000000000000000000000000b3
:20296c0000000000000000000000000000000000000000000000000000000000000000004b
:20298c0000000000000000000000000000000000000000000000000000000000000000002b
:0d29ac00000000000000000000000000001e
:2029b9000000000000000000000000000000000000000000000000000000000000000000fe
:2029d9000000000000000000000000000000000000000000000000000000000000000000de
:2029f9000000000000000000000000000000000000000000000000000000000000000000be
:0d2a190000000000000000000000000000b0
:202a2600000000000000000000000000000000000000000000000000000000000000000090
:202a4600000000000000000000000000000000000000000000000000000000000000000070
:202a6600000000000000000000000000000000000000000000000000000000000000000050
:0d2a86000000000000000000000000000043
:202a93008000000000000000000000000000000000000000000000000000000000000000a3
:202ab300000000000000000000000000000000000000000000000000000000000000000003
:202ad3000000000000000000000000000000000000000000000000000000000000000000e3
:0d2af30000000000000000000000000000d6
:202b000048000000000000000000000000000000000000000000000000000000000000006d
:202b2000000000000000000000000000000000000000000000000000000000000000000095
:202b4000000000000000000000000000000000000000000000000000000000000000000075
:0d2b60000000000000000000000000000068
:202b6d000c000000000000000000000000000000000000000000000000000000000000003c
:202b8d00000000000000000000000000000000000000000000000000000000000000000028
:202bad00000000000000000000000000000000000000000000000000000000000000000008
:0d2bcd0000000000000000000000000000fb
:202bda00000500000000000000000000000000000380000000000000000000000000000053
:202bfa000000000000000000000000000000000000000000000000000000000000000000bb
:202c1a0000000000000000000000000000000000000000000000000000000000000000009a
:0d2c3a00000000000000000000000000008d
:202c4700002800000000000000000000000000000000000000000000000000000000000045
:202c670000000000000000000000000000000000000000000000000000000000000000004d
:202c870000000000000000000000000000000000000000000000000000000000000000002d
:0d2ca7000000000000000000000000000020
:202cb400000000000000000000000000000000000000000000000000000000000000000000
:202cd4000000000000000000000000000000000000000000000000000000000000000000e0
:202cf4000000000000000000000000000000000000000000000000000000000000000000c0
:0d2d140000000000000000000000000000b2
:202d2100000000000000000000000000000000000000000000000000000000000000000092
:202d4100000000000000000000000000000000000000000000000000000000000000000072
:202d6100000000000000000000000000000000000000000000000000000000000000000052
:0d2d81000000000000000000000000000045
:202d8e00000000000000000000000000000000000000000000000000000000000000000025
:202dae00000000000000000000000000000000000000000000000000000000000000000005
:202dce000000000000000000000000000000000000000000000000000000000000000000e5
:0d2dee0000000000000000000000000000d8
:202dfb000000000000000000000000000000000000000000000000000000000000000000b8
:202e1b00000000000000000000000000000000000000000000000000000000000000000097
:202e3b00000000000000000000000000000000000000000000000000000000000000000077
:0d2e5b00000000000000000000000000006a
:202e680000000000000000000000000000000000000000000000000000000000000000004a
:202e880000000000000000000000000000000000000000000000000000000000000000002a
:202ea80000000000000000000000000000000000000000000000000000000000000000000a
:0d2ec80000000000000000000000000000fd
:202ed5000000000000000000000000000000000000000000000000000000000000000000dd
:202ef5000000000000000000000000000000000000000000000000000000000000000000bd
:202f150000000000000000000000000000000000000000000000000000000000000000009c
:0d2f3500000000000000000000000000008f
:202f4200080000000000000000000000000000000000000000000000000000000000000067
:202f620000000000000000000000000000000000000000000000000000000000000000004f
:202f820000000000000000000000000000000000000000000000000000000000000000002f
:0d2fa2000000000000000000000000000022
:202faf002000000000000000000000000000000000000000000000000000000000000000e2
:202fcf000000000000000000000000000000000000000000000000000000000000000000e2
:202fef000000000000000000000000000000000000000000000000000000000000000000c2
:0d300f0000000000000000000000000000b4
:20301c00000000000000000000000000000000000000000000000000000000000000000094
:203759000000000000000000000000000000000000000000000000008000000000000000d0
:20377900000000000000000000000000000000000000000000000000000000000000000030
:20379900000000000000000000000000000000000000000000000000000000000000000010
:0d37b9000000000000000000000000000003
:2037c6000000000000000000000000000000000000000000000000000000000000000000e3
:203b6e00000000000000000000000000000000000000000000000000010000000000000036
:0d3b8e00000000000000000000000000002a
:203b9b0000000000000000000000000000000000000000000000000000000000000000000a
:203bbb000000000000000000000000000000000000000000000000000000000000000000ea
:203bdb000000000000000000000000000000000000000000000000000000000000000000ca
:0d3bfb0000000000000000000000000000bd
:203c080000000000000000000000000000000000000000000000000000000000000000009c
:203c280000000000000000000000000000000000000000000000000000000000000000007c
:203c480000000000000000000000000000000000000000000000000000000000000000005c
:0d3c6800000000000000000000000000004f
:203c750000000000000000000000000000000000000000000000000000000000000000002f
:203c950000000000000000000000000000000000000000000000000000000000000000000f
:203cb5000000000000000000000000000000000000000000000000000000000000000000ef
:0d3cd50000000000000000000000000000e2
:203ce2000000000000000000000000000000000000000000000000000000000000000004be
:203d02000000000000000000000000000000000000000000000000000000000000000000a1
:203d2200000000000000000000000000000000000000000000000000000000000000000081
:0d3d42000000000000000000000000000074
:203d4f00000000000000000000000000000000000000000000000000000000000000000054
:203d6f00000000000000000000000000000000000000000000000000000000000000000034
:203d8f00000000000000000000000000000000000000000000000000000000000000000014
:0d3daf000000000000000000000000000007
:203dbc000000000000000000000000000000000000000000000000000000000000000000e7
:203ddc0000000000000000000000000000000000000000007a000000000073ba80000000a0
:203dfc0003da33000002000560100000000000000000000000000000000000000000000020
:0d3e1c000000000000000000000000000099
:203e2900000000000000000000000000000000000000000000000000000000000000000079
:203e4900000000000000000000000000000000000000100000400000090877778000000486
:203e690000f8cc00000000ffaafc00000000000000000000000000000000000000000000d0
:0d3e8900000000000000000000000000002c
:203e960000000000000000000000000000000000000000000000000e0000000000000000fe
:203eb60000000000000000000000000000000000000e0020000000000008dea000800000b8
:203ed600016ef000000071a87b8808000002800000000000000000000000000000000000c7
:0d3ef60000000000000000000000000000bf
:203f030000000080000000000000000000000000000000000000000e000000000000000010
:203f2300000000000000000000000000000000000000003c03c000000010f40680000000f5
:203f430000f00f00000008bb43440000000400000000000000000000000000000000000011
:0d3f63000000000000000000000000000051
:203f7000000000000000000000000000000000000000000000000000000000000000000031
:203f90000000000000000000000000000000000000000000000000000000000000000020f1
:203fb000020d21000000500bb0cc00000200000000000000000000000000000000000000e8
:0d3fd00000000000000000000000000000e4
:203fdd000000000000000000000000000000000000000000000000000000000000000000c4
:203ffd00000000000000000000000000000000000000000003c000000000000000000004dd
:20401d0002cb12100001d8f5e730000003d0000000000000000000000000000000000000dc
:0d403d000000000000000000000000000076
:20404a00000000000000000000000000000000000000000000000040000000000000000016
:20406a0000000000000000000000000000000000000000203a000000018a97014000000079
:20408a00280000000000118b283c0000000780000000000000000000000000000000000067
:0d40aa000000000000000000000000000009
:2040b7000800000000000000000000000000000000000000000000a0000000000000000041
:2040d700000000000000000000000000000000000000001c414000000010f8140000000010
:2040f7006c0000000000080b83c000000000000000000000000000000000000000000000e7
:0d411700000000000000000000000000009b
:2041240000000000000000000000000000000000000000ff5808000000000000000000001c
:20414400000000000000000000000000000000000000001600000000000000000000001431
:20416400020c5500000000e7619408000000000000000000000000000000000000000000f4
:0d418400000000000000000000000000002e
:20419100000000000000000000000000000000000000003b4800000000000000000000008b
:2041b100000000000000000000000000000000000000001400c00000000900000000000011
:2041d1000340aa00000000e9c25400000000000000000000000000000000000000000000e2
:0d41f10000000000000000000000000000c1
:2041fe0000000000000000000000000000000000000fc10000000000800000000000000051
:20421e000000000000000000000000000000000000008c0000000000080097954000101c54
:20423e00045dcc00004000b7f37808050000000000000000000000000010000000000000b4
:0d425e000000000000000000000000000053
:20426b000000000000000000000000000000000000078f000000000140000000000000005c
:20428b00000000000000000000000000000000000000400000c00000030073ccc0001024dd
:2042ab0037cb33000040d18742dc40090000000000000000000000000010000000000000af
:0d42cb0000000000000000000000000000e6
:2042d8000000000000000000000000000000000000000000000000000000000000000000c6
:2042f80000000000000000000000000000000000000000006a0000000580861540000016c6
:20431800760ae2020000008fe760000001400000000000000000000000000000000000000a
:0d4338000000000000000000000000000078
:20434500000000000000000000000000000000000000000000000010000000000000000048
:204365000000000000000000000000000000000000000000274000000908f42a8010000012
:204385007b40d100000011b3adc80000002000000000000000000000000000000000000033
:0d43a50040000000000000000000000000cb
:2043b20000000000000000000000000000000000000001000000000080000000000000006a
:2043d20000000000000000000000000000000000000c001c000000000d080000000000008e
:2043f20073ee7b02010051a9a8cc0000e80016f6600000000000000000000000000000000a
:0d441200000000000000000000000000009d
:20441f000000000000000000000000000000000000000e000000000140000000000000002e
:20443f0000000000000000000000000000000000000c1000024000000519000000001000d1
:20445f0040e0ed0000c000ebab3000011400169e4000000040000000001000000000000051
:0d447f0040000000000001000000000000ef
:20448c00000000000000000000000000000000000000000000000000000000000000000010
:2044ac0000000000000000000000000000000000000000040200000001997a014000002075
:2044cc00007ef000000000fd38cc00000206c0000000000000000000000000000000000099
:0d44ec0000000000000000000000000000c3
:2044f9000000000000000000000000000000000000000000000000000000000000000000a3
:20451900000000000000000000000000000000000000002427400020008ed414000000045d
:2045390002f00f000000d1e9a730000001c28000000000000000000000000000000000008d
:0d4559000000000000000000000000000055
:20456600000000000000000000000000000000000000000000000000000000000000000035
:2045860000000000000000000000000000000000000e0000300000400d009ed9800000147f
:2045a6007aee9902000201a96330000003607c8f00004020000000000000000000000000e5
:0d45c60000000000000000000000000000e8
:2045d3000000000000000000000000000000000000000000000000000000000000000000c8
:2045f3000000000000000000000000000000000000000000404000000980f706c0000026bc
:2046130000e01b00000500bf6ccc400003c3b700f000005000000000000000000000000093
:0d463300000000000000000000000000007a
:2046400000000000000000000000000000000000000000000000000000000000000000005a
:204660000000000000000000000000000000000000040000220000200008000000000414d4
:20468000007ca500010000abe294080000060fd022000000000000000000000000000000c8
:0d46a000000000000000000000000000000d
:2046ad000000000000000000000000000000000000000000000000000000000000000000ed
:2046cd0000000000000000000000000000000000000c002401c000000010000000000002ca
:2046ed0001505500000001b7c0cc0000000006a050000000000000000000000000000000cd
:0d470d00000000000000000000000000009f
:20471a0000000000000000000000000000000000000000000000000000000000000000007f
:20473a000000000000000000000000000000000000000000340000000008fa7300000000b6
:20475a00024ffb000000000b2b48080001405fcae020000000000000000000000000000003
:0d477a000000000000000000000000000032
:20478700000000000000000000000000000000000000000000000000000000000000000012
:2047a70000000000000000000000000000000000000000243d4000000d005e0cc00000001a
:2047c7003b4c80000000000bc1e000000023bc0fc000000000000000000000000000000071
:0d47e70000000000000000000000000000c5
:2047f4000000000000000000000000000000000000000000000000000000000000000000a5
:20481400000000000000000000000000000000000000000038c010000000938d8080000656
:2048340038ece202000000092d700000000026f4700000000000000000000000000000002c
:0d4854000000000000000000000000000057
:20486100000000000000000000000000000000000000000000000000000000000000000037
:20488100000000000000000000000000000000000000000002600000050fd018c0000a00ef
:2048a1002820e200000000f9fce800000402cd874000000000000000000000000000000056
:0d48c10000000000000000000000000000ea
:2048ce000000000000000000000000000000000000000000000000000000000000000000ca
:2048ee00000000000000000000000000000000000000002002e010000d80031540000004af
:20490e00620d9600000001cbb8cc080001429ca65020000000000000000000000000000037
:0d492e00000000000000000000000000007c
:20493b0000000000000000000000000000000000000000000000000000000000000000005c
:20495b00000000000000000000000000000000000000000c266000000100f42a80100002f9
:20497b0033d96900000051090330000003e4250950000000000000000000000000000000b5
:0d499b00050000000000000000000000000a
:2049a8000000000000000000000000000000000000000000000000000000000000000000ef
:2049c8000000000000000000000000000000000000000000316010000181126a800000169a
:2049e80003df3300001018092e8c00000062c000000000000000000001000000000000008c
:0d4a080000000000000000000000000000a1
:204a1500000000000000000000000000000000000000000000000000000000000000000081
:204a3500000000000000000000000000000000000000000040600000050e36e580000024ef
:204a550003decc0000007009ff1400000006400000000000000000000000000000000000c2
:0d4a75000000000000000000000000000034
:204a8200000000000000000000000000000000000000000000000000000000000000000014
:204aa20000000000000000000000000000000000000c000c03c01000001a3ba8c0800004c8
:204ac2007a6c4700003239c9603c000001e006d960000000000000000000000000000000b7
:0d4ae20000000000000000000000000000c7
:204aef000000000000000000000000000000000000000000000000000000000000000000a7
:204b0f0000000000000000000000000000000000000400020160000005080028c000000228
:204b2f006bdde200000109af43c004000002c3f9601000000000000000000000000000004e
:0d4b4f000000000000000000000000000059
:204b5c00000000000000000000000000000000000000000000000000000000000000000039
:204b7c00000000000000000000000000000000000000000000000000000000000000010018
:204b9c0002fd080000005013f99c20000000000000000000000000000000000000000000da
:0d4bbc0000000000000000000000000000ec
:204bc9000002000000000000000000000000000000000000000000000000000000000000ca
:204be9000000000000000000000000000000000000000000000000000000000000000000ac
:204c0900026805080000d881b0b40000000000000000000000000000000000000000000057
:0d4c2900000000000000000000000000007e
:204c360000000000000000000000000000000000000000000000000000000000000000005e
:204c56000000000000000000000000100000000000000000000000000f00f30140000000eb
:204c760063ea22000002500934580000004000000000000000000000000000000000000088
:0d4c96000000000000000000000000000011
:204ca3000000000000000000000000000000000008000000000000000000000000000000e9
:204cc300000000000000000000000028000000000000000000000000070014280200003430
:204ce3002d6aee00000408bb6e2000000020000000000000000000000000000000000000b7
:0d4d030000000000000000000000000000a3
:204d1000007000000000000000000000000000000000000000000000000000000000000013
:204d300000000000000000000000000000000000000000000000000000400000000002061b
:204d500079def0000000000133a08800000026f10000400000000000000000000000000049
:0d4d70000000000000000000000000000036
:204d7d000040000000000000000000000000000000000000000000000000000000000000d6
:204d9d000000000000000000000000000000000000000000000000020000000000000026ce
:204dbd0003700f00000000074394420000000ce04000000000000000000000000000000008
:0d4ddd0000000000000000000000000000c9
:204dea000000000000000000000000000000000000000000000000000000000000000000a9
:204e0a00000000000000000000000000000000000000000000000000000000000000000088
:204e2a002b6ae6020000001070cc080000003cec102000000000000000000000000000003f
:0d4e4a00000000000000000000000000005b
:204e570000000000000000000000000000000000000000000000000000000000000000003b
:204e77000000000000000000000000000000000000000000000000000f0000000000003cd0
:204e970001609b00000000f040cc00000002c500101000000000000000000000000000001c
:0d4eb70000000000000000000000000000ee
:204ec4000000000000000000000000000000000000000000000000000000000000000000ce
:204ee40000000000000000000000000000000000000000000000000000009e8cc0000000c4
:204f04000158c202000070f773300000000006e5500000000000000000000000000000002b
:0d4f24000000000000000000000000000080
:204f3100000000000000000000000000000000000000000000000000000000000000000060
:204f5100000000000000000000000000000000000000000000000000004f13f300000400e7
:204f71000010c200000070d1f0cc000001c00005500000000000000000000000000000003b
:0d4f91000000000000000000000000000013
:204f9e004800000000000000000000000000000000000000000000000000000000000000ab
:204fbe000000000000000000000000000000000000000000000000000008be57000000179f
:204fde006fea4400000000f97210080000039fdef000000000000000000000000000000023
:0d4ffe0000000000000000000000000000a6
:20500b0008000000000000000000000000000000000000000000000000000000000000007d
:20502b0000000000000000000000000000000000000000000000000000595b4e80000000e3
:20504b00356a770000000081c048000003c39c8bf0000000000000000000000000000000c9
:0d506b000000000000000000000000000038
:20507800000000000000000000000000000000000000000000000000000000000000000018
:20509800000000000000000000000000000000000000000000000000011c0000000000409b
:2050b80007de3300000039c337308000014717d66000000000000000000000000000000048
:0d50d80000000000000000000000000000cb
:2050e50080000000000000000000000000000000000000000000000000000000000000002b
:205105000000000000000000000000000000000000000000000000000010000000000a0070
:205125002afbcc00000000ef7ccc200003640fd96010000000000000000000000000000063
:0d514500000000000000000000000000005d
:205152004000000000000000000000000000000000000000000000000000000000000000fd
:2051720000000000000000000000000000000000000000000000000000000000000000001d
:205192002f6a9f02000000a1a3300800004000000000000000000000000080000000000087
:0d51b20000000000000000000000000000f0
:2051bf000000000000000000000000000000000000000000000000000000000000000000d0
:2051df000000000000000000000000000000000000000000000000000000000000000000b0
:2051ff002960f60000005101c0cc0000002000000000000000000000000100000000000012
:0d521f000000000000000000000000000082
:20522c00000000000000000000000000000000000000000000000000000000000000000062
:20524c000000000000000000000000000000000000000000000000280000300020000000ca
:20526c002c6e02000000000fb0600000000006000800000000000000000000000000000059
:0d528c000000000000000000000000000015
:205299000000000000000000000000000000000000000000000000000000000000000000f5
:2052b9000000000000000000000000000000000000000000000000028000000000800004cf
:2052d90064fb0800000000a3a8c0640002400000002000000000000000000000000000007d
:0d52f90000000000000000000000000000a8
:20530600000000000000000000000000000000000000000000000000000000000000000087
:2053260000000000000000000000000000000000000000000000000000007a65a0000000e8
:2053460026585c080000000369a4080009e00e896800000000000000000000000000000065
:0d536600000000000000000000000000003a
:2053730000000000000000000000000000000000000000000000000000000000000000001a
:2053930000000000000000000000000000000000000000000000000000000ba580100000ba
:2053b300667f3500000000a081a400001023c0e961000000000000000000000000000000be
:0d53d30000000000000000000000000000cd
:2053e0000000000000000000000000000000000000000000000000000000000000000000ad
:205400000000000000000000000000000000000000000000000000000500523c2000803425
:20542000280ea0200000d18b2a4020000006169cc800000000000000000000000000000010
:0d544000000000000000000000000000005f
:20544d0000000000000000000000000000000000000000000000000000000000000000003f
:20546d000000000000000000000000000000000000000200000000000d8002bc00000806c4
:20548d006fc050004000180fbc180000034036b330040000000000000000000000000000e5
:0d54ad0000000000000000000000000000f2
:2054ba000000000000000000000000000000000000000000000000000000000000000000d2
:2054da000000000000000000000000000000000000000140000000005000023c00000c00d7
:2054fa00004e0422000050076a100000000660855008000000000000002e000000000000dc
:0d551a000000000000000000000000000084
:20552700000000000000000000000000000000000000000000000000000000000000000064
:205547000000000000000000000000000000000000000080000000002000003c0040000028
:205567000000041000000805bc8400000002dc0aa01000000000000000000000000000002b
:0d5587000000000000000000000000000017
:205594000000000000000000000000000000000000000000000000000000000000000000f7
:2055b40000000000000000000000000000000000000001000000000007800000000000202f
:2055d400006e0100000050aba8840004000395e36000000000000000000000000000000042
:0d55f40000000000000000000000000000aa
:20560100000000000000000000000000000000000000000000000000000000000000000089
:20562100000000000000000000000000000000000000008000000000208000000000001435
:205641003cfb0400001809b53610000000037dd6300000000000000000000000000000006c
:0d566100000000000000000000000000003c
:20566e0000000000000000000000000000000000000000000000000000000000000000001c
:20568e000000000000000000000000000000000000000000000000000000000000000000fc
:2056ae00001e55000000b815728c080008000000000000000000000000000000000000008e
:0d56ce0002000000000000000000000000cd
:2056db000000000000000000000000000000000000010000000000000000000000000000ae
:2056fb0000000000000000000000000000000000000000000000000000000000000000008f
:20571b000340aa0000003080c28c0000114000000000000000000000000000000000000032
:0d573b00050000000000000000000000005c
:2057480000000000000000000000000000000000000500f7a940000000000000000000005c
:20576800000000000000000000000000000000000000000000000040000000000000017c64
:2057880025eac002000101cb295c000000029cd4600000000000000000000000000000000c
:0d57a80000000000000000000000000000f4
:2057b500000000000000000000000000000000000001083801400000000000000000000052
:2057d500000000000000000000000000000000000000000000000000000000000000001c98
:2057f50030e03000000000b5bf18000001c64791f000000000000000000000000000000039
:0d5815000000000000000000000000000086
:20582200000000000000000000000000000000000000003bb80080000000000000000000f3
:20584200000000000000000000000028000000000000000000000020080e000000000014d4
:2058620004ca9b00000001c963c0000008004005a0000000000000000000000000000000e3
:0d5882000000000000000000000000000019
:20588f00000000000000000000000000000000000001007020004000000000000000000028
:2058af000000000000000000000000100000000000000000000000100b00000000000000ae
:2058cf002a6f0e00000000b3c03c000015c21c0a5000000000000000000000000000000016
:0d58ef0000000000000000000000000000ac
:2058fc0000000000000000000000000000000000000000f3c6c000001e025b5e000000003a
:20591c000000000000000000000000000000000000000000000000000180129680000004be
:20593c00637cf5000201508130e4000001403ec6d00000000000000000000000000000007a
:0d595c0000000000000000000000cfa408c3
:2059690000000000000000000000000000000000000000b71700000000034a2600000000dd
:20598900000000000000000000000000000000000000000000000000000ab02940000002d9
:2059a90026d050000030098b6b0c0000002016bf10800000000000000000000000000000d8
:0d59c9000000000000000000000c0f510065
:2059d60000000000000000000000000000000000000000000000000a000158050800000041
:2059f6000000000000000000000000000000000000000000000000000000060cc08f4000f0
:205a1600625cc3220000000979408000e000000000000000000000000000000000000000ab
:0d5a3600000000000000e000000dafa40023
:205a430000000000000000000000000000000000000000000000000004000005000000003a
:205a63000000000000000000000000000000000000000040000000000d00000cc000a0006a
:205a830000e04100800000ffb848000000000000000000000900000000000000000000005a
:0d5aa300000000000000000000010fa00046
:205ab0000000000000000000000000000000000000000000000000000c00000000000000ca
:205ad000000000000000000000000000000c00000000000000000008080a0000000400008c
:205af000004893020000599b27a000000407b6e052000050000000000000000000000004b7
:0d5b10000000000000000000000000000088
:205b1d000000000000000000000000000000000000000000000000008000000000000000e8
:205b3d0000000000000000000000000000100000000000000000000001000000000800002f
:205b5d0001d06c10000000f367c0000000035f00000000200000000000000000000000003f
:0d5b7d00000000000000000000000000001b
:205b8a000000000000000000000000000000000000000000000004001c38000000000000a3
:205baa0000000000000000000000000007800000000002800000000050000000000000344e
:205bca00281af070c000181073440900014016e50000000000000000000000000000000035
:0d5bea002000000000000000060000000088
:205bf7000000000000000000000000000000000000000000000004a17e400000000000002b
:205c1700000000000000000000000000000000000000000000000000200000000000000647
:205c37004000f020400000a7438800000023f505f0800000000000000000000000000000be
:0d5c5700000000000000000004000000003c
:205c6400000000000000000000000000000000000000000000000000000000000000000020
:205c84000000000000000000000000000000000000000000000000000001128cc00000069b
:205ca40005d92d000305d1e1319800100340000000000000008016800000000000000000e9
:0d5cc4000000000000000000600000000073
:205cd1000000000000000000000000000000000000000000000000020000000000000000b1
:205cf100000000000000000000000000000000000000000000000000000d92f30000000001
:205d1100381f2d000000119b68cc000802e00000000000000090294000000000000000002b
:0d5d31000000000000000000400000000025
:205d3e0000000000000000000000000000000000000801000000000600037a0e00000000ab
:205d5e00000000000000000000000000010000000000040000000000000000000000000e12
:205d7e00280000000018801533880814000000000000000100000000000000000000000058
:0d5d9e0000000000000000000000000000f8
:205dab000000000000000000000000000000000000070e00000000000001686a00000000f0
:205dcb00000000000000000000000000008000000000000000000000000000000000001424
:205deb0028000000000030a08388260200000000000000000000000000000000000000006d
:0d5e0b00000000000000000000000000008a
:205e180000000000000000000000000000000000000801f3c7000020000000000000000087
:205e3800000000000000000000000000000000000000000000000000000000000000003c0e
:205e5800004c00000000000568d80800080745eaf00000000a000000000000000000000059
:0d5e7800000000000000000000000000001d
:205e850000000000000000000000000000000000000f0fb73a80000000000000000000006e
:205ea500000000000000000000000000000000000000000000000000200900000000002e86
:205ec50002ce330001005005c19800000007cd050000000000000000000000000000000032
:0d5ee50000000000000000000000000000b0
:205ef200000000000000000000000000000000000000000000000000000000000000000090
:205f12000000000000000000000000000000dad68000400000000000000e07bd40040000e9
:205f3200201af0410000501d683c0000e0e000000000028000f0000000010100000000009f
:0d5f52000000000000000000000000000042
:205f5f00000000000000000000000000000000000000000000000000000000000000000022
:205f7f00000000000000000000000000070037ab40400000000000000010f43e82080000cd
:205f9f004010f000000000dd2cac0000002380000000000000383fc24000000000000000d1
:0d5fbf0000000000000000000000000000d5
:205fcc00000000000000000000000000000000000001800000000000140000000000000020
:205fec00000000000000000000000000000000000000000000000000000878002000011ed6
:20600c003fc805c0800000adf0282000000001af04000003009b108020a0000000000000a1
:0d602c000000000000000000000000000067
:206039000000000000000000000000000000000000058000000000000000000000000000c2
:20605900000000000000000000000000000000000000000000000000001000000080000097
:2060790079d9f52000000005000064000000010f00100000803b50c000404c0000000000c0
:0d60990000000000000000000000000000fa
:2060a6000000000000000000000000000000000000000000000000001400000000000000c6
:2060c60000000000000000000000000000000000000000000000000055017265a02eaa40d5
:2060e600034805f0b90000a33a9009e0000001cf04000000080000000e0000000000000061
:0d6106000400000000000000000000000088
:206113000000000000000000000000000000000000000a0000000000000000000000000062
:20613300000000000000000000000000000000000000000000000003a08d0b65800040806c
:2061530000c0f508420001af406000000800000f00100000100000000000000000000000a6
:0d617300000000000000000000000000001f
:206180000000000000000000000000000000000000080010000000000000000000000000e7
:2061a0000000000000000000000000000000000000000000000000000018327320002006dc
:2061c0002bc805c89005000ba08c28400000000000000000000000000400000000000000c7
:0d61e00000000000000000000000000000b2
:2061ed000000000000000000000000000000000000090010294040000000000000000000d0
:20620d000000000000000000000000000000000000000000000000000009da4cc040400002
:20622d003de0f52161020007c3b000800000000000000000000000000800000000000000b9
:0d624d000000000000000000000000000044
:20625a00000000000000000000000000000000000000000000000000000000000000000024
:20627a00000000000000000000000000000000000000000000000000010082154020a0006c
:20629a0003c805c1000098b5e2c428000000400000000050000000000040800040a56000a3
:0d62ba0000000000000000000000000000d7
:2062c7000000000000000000000000000000000000000000000000000000000000000000b7
:2062e7000000000000000000000000000000000000000000000000000580502a80004000d8
:2063070000e0f528c00010a0c2c400000002c000000000200000000000a1400000a53800e3
:0d6327000000000000000000000000000069
:20633400000000000000000000000000000000000000000000000000000000000000000049
:206354000000000000000000000000000000000000000000000000000008d265c00000002a
:206374000048f090000080e033c104000000000000000041000000000000000000000000a8
:0d63940000000000000000000000000000fc
:2063a1000000000000000000000000000000000000000000000000000000000000000000dc
:2063c1000000000000000000000000000000000000000000000000020000bebf000000003d
:2063e10000000f000000510043c00000000000000000002089000000000000000000000090
:0d640100000000000000000000000000008e
:20640e000000000000000000000000000000000010000006014020000000000000000000f7
:20642e00000000000000000000000000000000000000000000000000001800000000a01e78
:20644e000148f0b0028050a802950400020001cf061808078073a800400000000000000056
:0d646e000000000000000000000000000021
:20647b0000000000000000000000000000000000000000140280000000000000000000006b
:20649b00000000000000000000000000000000000000000000000003000900000000400095
:2064bb0000200f000000080d0168000001c0000f00181001000428000000000000000000ef
:0d64db0000000000000000000000000000b4
:2064e80006000000000000000000000000000000000000128140400000005805000000001e
:20650800000000000000000000000000000000000000000000000000001c86168000002417
:206528006548f080000000e1f7bc000000000000000000079e1730408000000000000000f6
:0d6548000000000000000000000000000046
:206555000000000000000000000000000000000000000000014000000000000508000000d8
:206575000000000000000000000000000000000000000000000000000000b02942000004e7
:2065950020200f20000000a3ab3c00000000000000000000900030400000000000000000ed
:0d65b50000000000000000000000000000d9
:2065c2000000000000000000000000000000000000000000000000000000000000000000b9
:2065e20000000000000000000000000000000000000000000000000008000603c004001ea6
:2066020001c8f0801000500b697c0040000000000000000000000000044a00000000000160
:0d662200000000000000000000000000006b
:20662f0000000000000000000000000000000000000000000000000000000000000000004b
:20664f0000000000000000000000000000000000000000000000000007000403c008000055
:20666f0000000f282005000903fc008000000000000000000000000008800000000000009f
:0d668f00800000000000000000000000007e
:20669c000600000000000000000000000000000000000000000000000000000000000000d8
:2066bc00000000000000000000000000000000000000000000000000000a3800200000005c
:2066dc000148f090000000000000000000000000000010000070002000000028000000000d
:0d66fc0000000bb014800000000000000042
:20670900000000000000000000000000000000000000000000000000000000000000000070
:20672900000000000000000000000000000000000000000000000000001b000000800000b5
:2067490000000f040000000000000000000000000000200000000000800400000000000079
:0d6769000000090000050000000000000015
:206776000000000000000000000000000000000000000000000000040000000000000000ff
:2067960000000000000000000000000000000000000000000000000007001a25a02e0020af
:2067b6000068552038000000000000e003603580f0804000007343e0000000000000003937
:0d67d600000015e0010000000000000000c0
:2067e300000000000000000000000000000000000000000000000000000000000000000096
:20680300000000000000000000000003000000000000000000000000098002658000003cc6
:2068230000005500000000000000000003c01e0fa00040000002c3c00000000000000002a9
:0d6843008010a3003c0000000000000000d9
:20685000000000000000000000000000000000000000000000000000000000000000000028
:2068700000000000000000000000000000000000000000000000000005085a332804410001
:20689000000cf0689002000fb03c0044154600ef060000080156c3e0000000280000000039
:0d68b00000000000000000000000000000db
:2068bd000000000000000000000000000000000000000000000000000000000000000000bb
:2068dd000000000000000000000000000000000000000000000000000090fa8cc008203c61
:2068fd000000f010600c000b03c004820800010f00000003080f43c0000000400000000046
:0d691d00000000000000000000000000006d
:20692a00000004000000000000000000000000000000000000000000000000000000000049
:20694a000000000000000000000000000000000000000000000000000001121548000000bd
:20696a000000a5404000000000000000016040ef060000000102154020004000000000108a
:0d698a0000d0000000000000000000000030
:206997000000040000000000000000000000000000000000000000000000000000000000dc
:2069b70000000000000000000000000000000000000000000000000000080815400000005b
:2069d70000c05a00000000000000000000c2010f009800000e502a80000080000000001084
:0d69f700005800000000000000000000003b
:206a0400000000000000000000000000000000000000000000000000000000000000000072
:206a2400000000000000000000000000000000000000000000000000000076014000002675
:206a44000000a5400000380000000000000001af061000000000000000a020724c020000cf
:0d6a6400001800000000000000000000000d
:206a7100000000000000000000000000000000000000000000000000000000000000000005
:206a9100000000000000000000000000000000000000000000000000000008014010000488
:206ab10000c05a0800000800000000000000000f0180000f0000000000003c42fc00000082
:0d6ad10000f00000000000000000000000c8
:206ade00000000000000000000000000000000000000000000000000000000000000000098
:206afe0000000000000000000000000000000000000000000000000005c8d79640000000fe
:206b1e00000cf0400005800073c10000000734bab00010000000000000000e04000000009b
:0d6b3e00021805e00000000000000000004b
:206b4b0000000000000000000000000000000000000000000000000000000000000000002a
:206b6b000000000000000000000000000000000000000000000000000080bbb3820000009a
:206b8b000000f000000090f003c02300000406ba80800000080000000000022400000000a2
:0d6bab00040003003c00000000000000009a
:206bb8000000000000000000000000000000000000000000000000000000000000000000bd
:206bd80000000000000000000000000000000000000000000000000000190203c0000000bf
:206bf8000000000000000000000000080003c1cf040000098000000000000000fe00010056
:0d6c1800000000300c4e00000000000000e5
:206c250000000000000000000000000000000000000000000000000000000000000000004f
:206c4500000000000000000000000000000000000000000000000000010a0403c00000005d
:206c65000000000001000000000000040007c10f00900007000000000000000350a00000a9
:0d6c8500000000000c0400000000000000f2
:206c92000000000000000000000000000000000000000000000000000000000000000000e2
:206cb2000000000000000000000000000000000000000000000000000100000000040000bd
:206cd200000000001001000073c10040020036aaa000000000000000000000040000000097
:0d6cf200000009b000480000000000000094
:206cff00000000000000000000000000000000000000000000000000000000000000000075
:206d1f0000000000000000000000000000000000000000000000000000000000000800004c
:206d3f00000000002012700003c0248000403400f010100000000000000000340000000073
:0d6d5f0000000582000000000000000000a0
:206d6c00000000000000000000000000000000000000000000000000000000000000000007
:206d8c000000000000000000000000000000000000008000000000400008180020000020c7
:206dac0028ce0f000000018d78fc00000002aec74080000000000000000600000000000083
:0d6dcc0004000000000000000000000000b6
:206dd900000200000000000000000000000000000000000000000000000000000000000098
:206df9000000000000000000000000000000000000000000000000000100080000808084ed
:206e190003e05a0000007107e38c00000003addb500000000000000000000000000000005a
:0d6e3900020000000000000000000000004a
:206e460000000000000000000000000000000000000000000000000000000000000000002c
:206e6600000000000000000000000000000000000000000000000000000f7a25a0000000be
:206e86003bef5a000000801978a48000000020c01028000001000000000080001a05203823
:0d6ea60000000000000000000000000000df
:206eb3000000000000000000000000000000000000000000000000000000000000000000bf
:206ed30000000000000000000000000000000000000000000000000000080be58000001413
:206ef30043f978000000909f2c8c00000142b400211003800a0000000001742dd00a0000b3
:0d6f13000000000000000000000000000071
:206f2000000000000000000000000000000000000000000000000000000000000000000051
:206f400000000000000000000000000000000000000000000000001820187a7320002000b4
:206f600071fa0102000001bf218c0000100285aa0280000000000000000020000000000053
:0d6f80000000000000000000000000000004
:206f8d000000000000000000000000000000000000000000000000000000000000000000e4
:206fad00000000000000000000000000000000000000000000000029c700da4cc00002806c
:206fcd0060d0d10000000091f43000000803820a0000000000000000000024000000000033
:0d6fed000000000000000000000000000097
:206ffa00000200000000000000000000000000000000000000000000000000000000000075
:20701a00000000000000000000000000000000000000000000000000080082154000000077
:20703a00006a3f00028000197b702000000047ea00800000000000000040802e780a0000c6
:0d705a00021800000000000000000000000f
:20706700000000000000000000000000000000000000000000000000000000000000000009
:207087000000000000000000000000000000000000000000000000000b00502a8000008064
:2070a700225fa0000100009f2c8c00080142020a008000200000000000a14065d000000043
:0d70c70005000000000000000000000000b7
:2070d400000000000000000000000000000000000000000000000006000000000000000096
:2070f4000000000000000000000000000000000000000000000000000000128000000126c3
:20711400676cc20000000199798c00000203f5aff020000d1a000000000000000000000047
:0d713400000000000000000000000000004e
:207141000000400000000000000000000000000000000000000000000000000000000000ee
:207161000000000000000000000000000000000000000000000000000000181404000414c6
:2071810020ec340000000091f638000003c60e06e000000b0a00000000a600000000000077
:0d71a10000000000000000000000000000e1
:2071ae000000000000000000000000000000000000000000000000000000000000000000c1
:2071ce0000000000000000000000000000000000000000000000000000010703c000016075
:2071ee00204cd1020032000b616c080009c066ac302800070ab3c200000000000000000077
:0d720e00000000683d0000000000000000ce
:20721b00000000000000000000000000000000000000000000000000000000000000000053
:20723b00000000000000000000000000000000000000000000000000000f0403c80000a4b1
:20725b000010d1004000000d8290000803639d0820000000803fc000000e00000000000013
:0d727b00000000003c0000000000000000ca
:207288000000000000000000000000000000000000000000000000000000000000000000e6
:2072a80000000000000000000000000000000000000006000000000000000383c000003e3c
:2072c8003aea7a01000000033e1c000000001ee0a00000000ab70080808020015af501005a
:0d72e8000000000000000000000000000099
:2072f5008000000000000000000000000000000000000000000000000000000000000000f9
:20731500000000000000000000000000000000000000000000000000000d0403c000001c68
:2073350061fe75000000008de6d000000003e5d08080000000740000000c0c0010f50100d7
:0d735500000000000000000000000000002b
:2073620000000000000000000000000000000000000000000000000000000000000000000b
:20738200000000000000000000000020000000000000000000000000000e00000000003e7f
:2073a2006800000000011819787c00000060000000000007813600009000a00000000030bf
:0d73c20000000000000000000000000000be
:2073cf0000000000000000000000000000000000000000000000000000000000000000009e
:2073ef00000000000000000000000000000000000000000000000000001c0000000001263b
:20740f003c000000000008ef2f80000882600000000000000db4100000016c000000000053
:0d742f00000000000000000000000000024e
:02743c0000004e
:02743e0011013a
:02744000010148
:2074420000000000000000000000000000000000200000000000000000000000000000000a
:2074620000000000000000000000000000000000000000000000000000000000000000000a
:207482000000000000000000000000000000000000000000000000000000000000000000ea
:0d74a2000000000000000400800000000059
:2074af000000000000000000000000000000000000000000000000000000000000000000bd
:2074cf0000000000000000000000000000000000000000000000000000000000000000009d
:2074ef0000000000000000000000000000000000000000000000000000000000000000007d
:0d750f0000000000000000007000000000ff
:20751c00000000000000000000000000000000001003c0000000000000000000000000007c
:20753c0000000000000000000000000000000000000000000000000000000000000000002f
:20755c000000000000000000000000000000000000001000000000000040000000000000bf
:0d757c0000000000000004000000000000fe
:207589000000000000000000000000000000000000020000000000000000000000000000e0
:2075a9000000000000000000000000000000000000000000000000000000000000000000c2
:2075c9000000000000000000000000000000000000000000000000000000000000000000a2
:0d75e9000000000000000000000000000095
:2075f6000000000000000000000000000000000020000000c0000000000000000000000095
:20761600000000000000000000000000000000000000000000000000000000000000000054
:20763600000000000000000000000000000000000000000000000000000000000000000034
:0d76560000000000000008000000b000006f
:207663000000000000000000000000000000000000000000400000000000000000000000c7
:207683000000000000000000000000000000000000000000000000000000000000000000e7
:2076a3000000000000000000000000000000000000000000040000000000000000000000c3
:0d76c300000000000000000000007000004a
:2076d00000000000000000000000000000000000000000000000000000000000000000009a
:2076f00000000000000000000000000000000000000000000000000000000000000000007a
:207710000000000000000000000000000000000000002000000000000080000000000000b9
:0d7730000000000000000000d0000000007c
:20773d0000000000000000000000000000000000000000000000000000000000000000002c
:20775d0000000000000000000000000000000000000000000000000000000000000000000c
:20777d0000000000000000000000000000000000000000000000000000800000000000006c
:0d779d00000000000000000080000000005f
:2077aa000000000000000000000000002000000000000080000000000000040000000020fb
:2077ca00080000000000000000000000000000000000000000060000000000000000000091
:2077ea0000000000000000000000000000000000000000000040000000000001000000003e
:0d780a000000000000000000000000000071
:20781700000000000000000000000000000000000000000000000000000000000000000c45
:20783700000000000000000000000000000000000000000000000000000000000000000031
:20785700000000000000000000000000000000000000000000000000000000000000000011
:0d7877000000000000000000000000000004
:20788400000000000000000000000000003000000000000040000000000000000000000074
:2078a400000c000000000000000000000000000000000000000000000000000000000000b8
:2078c4000000000000000000000000000000000000000000000000000000000000000000a4
:0d78e4000000000000000000d000080000bf
:2078f10000000000000000000008000000000000200000000000000000000000000200004d
:20791100000400000000000000000000000000000000000000000000000000000000000052
:20793100000000000000000000000000000000000000000000000000000000000000000036
:0d79510000000000000000008000040000a5
:20795e00000000000000000000000080000000000000000000000000000000000000000089
:20797e000000000000000000000000000000000000000000000000000000000000000000e9
:20799e000000000000000000000000000000000000000000000000000000000000000000c9
:0d79be0000000000000000000000000000bc
:2079cb00000000000000000000040050000000001000000000000000000000000001000037
:2079eb0000000000000000000000000000000000000000000000000000000000000000007c
:207a0b0000000000000000000000000000000000000000000000000000000000000000005b
:0d7a2b00000000000000000000000000004e
:207a38000000000000000000000000000000000000014040000000000000000000000000ad
:207a580000000000000000000000000000000000000000000000000000000000000000000e
:207a78000000000000000000000000000000000000000000004000000000000100000000ad
:0d7a980000000000000000000010000000d1
:207aa500000000000000000000080000000000002002000000000000000000000002000095
:207ac500001000000000000000000000000000000000000000000000000001800000000010
:207ae500000000000000000000000000000000000000000000000000000000000000000081
:0d7b05000000000000000000000000000073
:207b1200000000000000000000000000000000001000000000000000000000000000000043
:207b3200000000000000000000000000000000000000000000000000000000000000000033
:207b5200000000000000000000000000000000000000000000000000000000000000000013
:0d7b72000000000000000000000000000006
:207b7f000000000000000000000000000000000020000000000000000000000000000000c6
:207b9f000000000000000000000000000000000000000000000000000000000000000000c6
:207bbf000000000000000000000000000000000000000000000000000000000000000000a6
:0d7bdf000000000000000000000000000099
:207bec00000000000000000000000000000000000000000000000000000000000000000079
:207c0c00000000000000000000000000000000000000000000000000000000000000000058
:207c2c00000000000000000000000000000000000000000000000000010000000000000433
:0d7c4c00000000000000000000000000002b
:207c590000000000000000000000000000000000000000000000000000000000000000000b
:207c79000000000000000000000000000000000000000000000000000000000000000000eb
:207c99000000000000000000000000000000000000000000000000000100000000000004c6
:0d7cb90000000000000000000000000000be
:207cc60000000000000000000000000000000000000000000000000000000000000000009e
:207ce60000000000000000000000000000000000000000000000000000000000000000007e
:207d060000000000000000000000000000000000000000000000000000000000000000005d
:0d7d26000000000000000000000000000050
:207d3300000000000000000000000000000000000000000000000000000000000000000030
:207d5300000000000000000000000000000000000000000000000000000000000000000010
:207d73000000000000000000000000000000000000000000000000000000000000000000f0
:0d7d930000000000000000000000000000e3
:207da0000000000000000000000000000000000000000000000000000000000000000000c3
:207dc0000000000000000000000000000000000000000000000000000000000000000000a3
:207de000000000000000000000000000000000000000000000000000000000000000000083
:0d7e00000000000000000000000000000075
:207e0d00000000000000000000000000000000000000000000000200000000000000000053
:207e2d00000000000000000000000000000000000000000000000000000000000000000035
:207e4d00000000000000000000000000000000000000000000000000000000000000000015
:0d7e6d000000000000000000000000000008
:207e7a000000000000000000000000000000000000000000000000000000000000000000e8
:207e9a000000000000000000000000000000000000000000000000000000000000000000c8
:207eba000000000000000000000000000000000000000000000000000000000000000000a8
:0d7eda000000000000000400000000000097
:207ee70000000000000000000000000000000000000000000000000000000000000000007b
:207f070000000000000000000000000000000000000000000000000000000000000000005a
:207f270000000000000000000000000000000000000000000000000000000000000000003a
:0d7f47000000000000000800000000000025
:207f540000000000000000000000000000000000000000000000000000000000000000000d
:207f74000000000000000000000000000000000000000000000000000000000000000000ed
:207f94000000000000000000000000000000000000000000000000000000000000000000cd
:0d7fb40000000000000000000000000000c0
:207fc1000000000000000000000000000000000000000000000000000000000000000000a0
:207fe100000000000000000000000000000000000000000000000000000000000000000080
:2080010000000000000000000000000000000000000000000000000000000000000000005f
:0d8021000000000000000000000000000052
:20802e00000000000000000000000000000000000000000000000000000000000000000032
:20804e00000000000000000000000000000000000001000000000000000000000000000011
:20806e000000000000000000000000000000000000000000000000000000000000000000f2
:0d808e0000000000000000000000000000e5
:20809b000000000000000000000000000000000000000000000000000000000000000000c5
:2080bb000000000000000000000000000000000000000000000000000000000000000000a5
:2080db00000000000000000000000000000000000000000000000000000000000000000085
:0d80fb000000000000000000000000000078
:20810800000000000000000000000000000000000000000000000000000000000000000057
:20812800000000000000000000000000000000000000000000000000000000000000000037
:20814800000000000000000000000000000000000000100000000000000000000000000007
:0d816800000000000000000000000000000a
:208175000000000000000000000000000000000000000000000000000000000000000000ea
:208195000000000000000000000000000000000000000000000000000000000000000000ca
:2081b5000000000000000000000000000000000000000800000000000000000000000000a2
:0d81d500000000000000000000000000009d
:2081e20000000000000000000000000000000000000000000000000000000000000000007d
:2082020000000000000000000000000000000000000000000000000000000000000000005c
:2082220000000000000000000000000000000000000000000000000000000000000000003c
:0d824200000000000000000000000000002f
:20824f0000000000000000000000000000000000000000000000000000000000000000000f
:20826f000000000000000000000000000000000000000000000000000000000000000000ef
:20828f000000000000000000000000000000000000000000000000000000000000000000cf
:0d82af0000000000000000000000000000c2
:2082bc000000000000000000000000000000000000000000000000000000000000000000a2
:2082dc00000000000000000000000000000000000000000000000040000000000000000042
:2082fc00000000000000000000000000000000000000000000000000000000000000000062
:0d831c000000000000000000000000000054
:20832900000000000000000000000000000000000000000000000000000000000000000034
:208349000000000000000000000000000000000000000000000000400000000000000000d4
:208369000000000000000000000000000000000000000000000000000000000000000000f4
:0d83890000000000000000000000000000e7
:208396000000000000000000000000000000000000000000000000000000000000000000c7
:2083b6000000000000000000000000000000000000000000000000000000000000000000a7
:2083d600000000000000000000000000000000000000000000000000000000000000000087
:0d83f600000000000000000000000000007a
:20840300000000000000000000000000000000000000000000000000000000000000000059
:20842300000000000000000000000000000000000000000000000000000000000000000039
:20844300000000000000000000000000000000000000000000000000000000000000000019
:0d846300000000000000000000000000000c
:208470000000000000000000000000000000000000000000000000000000000000000000ec
:208490000000000000000000000000000000000000000000000000000000000000000000cc
:2084b0000000000000000000000000000000000000000000000000000000000000000000ac
:0d84d000000000000000000000000000009f
:2084dd0000000000000000000000000000000000000000000000000000000000000000007f
:2084fd0000000000000000000000000000000000000000000000000000000000000000005f
:20851d0000000000000000000000000000000000000000000000000000000000000000003e
:0d853d000000000000000000000000000031
:20854a00000000000000000000000000000000000000000000000000000000000000000011
:20856a000000000000000000000000000000000000000000000000000000000000000000f1
:20858a000000000000000000000000000000000000000000000000000000000000000000d1
:0d85aa0000000000000000000000000000c4
:2085b7000000000000000000000000000000000000000000000000000000000000000000a4
:2085d700000000000000000000000000000000000000000000000000000000000000000084
:2085f700000000000000000000000000000000000000000000000000000000000000000064
:0d8617000000000000000000000000000056
:20862400000000000000000000000000000000000000000000000000000000000000000036
:20864400000000000000000000000000000000000000000000000000000000000000000016
:208664000000000000000000000000000000000000000000000000000100000000000000f5
:0d86840000000000000010000000000000d9
:208691000000000000000000000000000000000000000000000000000000000000000000c9
:2086b1000000000000000000000000000000000000000000000000000000000000000000a9
:2086d100000000000000000000000000000000000000000000000000010000000000000088
:0d86f100000000000000100000000000006c
:2086fe0000000000000000000000000000000000000000000000000000000000000000005c
:20871e0000000000000000000000000000000000000000000000000000000000000000003b
:20873e0000000000000000000000000000000000000000000000000000000000000000001b
:0d875e00000000000000000000000000000e
:20876b000000000000000000000000000000000000000000000000000000000000000000ee
:20878b000000000000000000000000000000000000000000000000000000000000000000ce
:2087ab000000000000000000000000000000000000000000000000000100000000000000ad
:0d87cb0000000000000000000000000000a1
:2087d800000000000000000000100000000000000000000000000000000000000000000071
:2087f800000000000000000000000000000000000000000000000000000000000000000061
:20881800000000000000000000000000000000000000000000000000000000000000000040
:0d8838000000000000000000000000000033
:20884500000000000000000000100000000000000000000000000000000000000000000003
:208865000000000000000000000000000000000000000000000000000000000000000000f3
:208885000000000000000000000000000000000000000000000000000000000000000000d3
:0d88a50000000000000000000000000000c6
:2088b200240000000000000000000000000000000000000000000000000000000000000082
:2088d200000000000000000000000000000000000000000000000000000000000000000086
:2088f200000000000000000000000000000000000000000000000000000000000000000066
:0d8912000000000000000000000000000058
:20891f00080000000000000000000000000000001000000000000000000000000000000020
:20893f00000000000000000000000000000000000000000000000000000000000000000018
:20895f000000000000000000000000000000000000000000000000000000000000000000f8
:0d897f0000000000000000000000000000eb
:20898c000000000000000000000000000000000000000000000000000000000000000000cb
:2089ac000000000000000000000000000000000000000000000000000000000000000000ab
:2089cc0000000000000000000000000000000000000000000000000000000000000000008b
:0d89ec00000000000000000000000000007e
:2089f900003800000000000000000000000000000000000000000000000000000000000026
:208a190000000000000000000000000000000000000000000000000000000000000000003d
:208a390000000000000000000000000000000000000000000000000000000000000000001d
:0d8a59000000000000000000000000000010
:208a66000000000000000000000000000000000000100000000000000000000000000000e0
:208a86000000000000000000000000000000000000000000000000000000000000000000d0
:208aa6000000000000000000000000000000000000000000000000000000000000000000b0
:0d8ac60000000000000000000000000000a3
:208ad300000000000000000000000000000000000000000000000000000000000000000083
:208af300000000000000000000000000000000000000000000000000000000000000000063
:208b1300000000000000000000000000000000000000000000000000000000000000000042
:0d8b33000000000000000000000000000035
:208b4000000000000000000000000000000000000000000000000000000000000000000015
:208b60000000000000000000000000000000000000000000000000000000000000000000f5
:208b80000000000000000000000000000000000000000000000000000000000000000000d5
:0d8ba00000000000000000000000000000c8
:208bad000000000000000000000000000000000000000000000000000000000000000000a8
:208bcd00000000000000000000000000000000000000000000000000000000000000000088
:208bed00000000000000000000000000000000000000000000000000000000000000000068
:0d8c0d00000000000000000000000000005a
:208c1a0000000000000000000000000000000000000000000000000000000000000000003a
:208c3a0000000000000000000000000000000000000000000000000000000000000000001a
