:02000000ff00ff
:080002004c6174746963650030
:17000a00694345637562653220323032302e31322e32373934330071
:16002100506172743a2069434534304858384b2d43423133320018
:1a003700446174653a204d6179203820323032322032303a30333a323700b0
:0200510000ffae
:040053007eaa997e6a
:02005700510056
:0200590001059f
:03005b00920020f0
:03005e00620367d3
:0300610072011019
:0300640082000017
:02006700110086
:02006900010193
:20006b00000000000000000000000000000000000000000000000000000000000000000075
:20008b00000000000000000000000000000000000000000000000000000000000000000055
:2000ab0000000000000000000000000800000000000000000000000000000000000000002d
:0d00cb000000000000000000000000000028
:2000d800000000000000000000000000000000000000000000000000000000000000000008
:2000f8000000000000000000000000000000000000000000000000000000000000000000e8
:200118000000000000000000000000000000000000000000000000000000000000000000c7
:0d01380000000000000000000000000000ba
:2001450000000000000000000000000000000000000000000000000000000000000000009a
:2001650000000000000000000000000000000000000000000000000000000000000000007a
:20018500000000000000000000000004000000000000000000000000000000000000000056
:0d01a5000000000000000400000000000049
:2001b20000000000000000000000000000000000000000000000000000000000000000002d
:2001d20000000000000000000000000000000000000000000000000000000000000000000d
:2001f2000000000000000000000000000000000000000000000000000000000000000000ed
:0d02120000000010000000000000000000cf
:20021f000000000000000000000000000000000000000000000000000000000000000000bf
:20023f0000000000000000000000000000000000000000000000000000000000000000009f
:20025f00000000000000000000000008000000100000000000000000000000000000000067
:0d027f000000000000000000000000000072
:20028c00000000000000000000000000000000000000000000000000000000000000000052
:2002ac00000000000000000000000000000000000000000000000000000000000000000032
:2002cc000000000000000000000000000000003000000000000000000000000000000000e2
:0d02ec000000000000000000000000000005
:2002f9000000000000000000000000000000000000000000000000000000000000000000e5
:200319000000000000000000000000000000000000000000000000000000000000000000c4
:200339000000000000000000000000000000000000000000000000000000000000000000a4
:0d0359000000000000000000000000000097
:20036600000000000000000000000000000000000000000000000000000000000000000077
:20038600000000000000000000000000000000000000000000000000000000000000000057
:2003a600000000000000000000000000000000000000000000000000000000000000000037
:0d03c600000000000000000000000000002a
:2003d30000000000000000000000000000000000000000000000000000000000000000000a
:2003f3000000000000000000000000000000000000000000000000000000000000000000ea
:20041300000000000000000000000000005000000000000000000000000000000000000079
:0d04330000000000000000000010000000ac
:2004400000000000000000000000000000000000000000000000000000000000000000009c
:2004600000000000000000000000000000000000000000000000000000000000000000007c
:20048000000000000000000000000000000800000000000000000000000000000000000054
:0d04a000000000000000000000000000004f
:2004ad0000000000000000000000000000000000000000000000000000000000000000002f
:2004cd0000000000000000000000000000000000000000000000000000000000000000000f
:2004ed000000000000000000000000000000000000000000000000000000000000000000ef
:0d050d0000000000000000000000000000e1
:20051a000000000000000000000000000000000000000000000000000000000000000000c1
:20053a000000000000000000000000000000000000000000000000000000000000000000a1
:20055a00000000000000000000000000000000000000000000000000000000000000000081
:0d057a000000000000000000000000000074
:20058700000000000000000000000000000000000000000000000000000000000000000054
:2005a700000000000000000000000000000000000000000000000000000000000000000034
:2005c700000000000000000000000000000000000000000000000000000000000000000014
:0d05e7000000000000000000000000000007
:2005f4000000000000000000000000000000000000000000000000000000000000000000e7
:200614000000000000000000000000000000000000000000000000000000000000000000c6
:200634000000000000000000000000000000000000000000000000000000000000000000a6
:0d0654000000000000000000000000000099
:20066100000000000000000000000000000000000000000000000000000000000000000079
:20068100000000000000000000000000000000000000000000000000000000000000000059
:2006a100000000000000000000000000000010000000000000000000000000000000000029
:0d06c100000000000000000000100000001c
:2006ce0000000000000000000000000000000000000000000000000000000000000000000c
:2006ee000000000000000000000000000000000000000000000000000000000000000000ec
:20070e000000000000000000000000000000000000000000000000000000000000000000cb
:0d072e0000000000000000000000000000be
:20132700000000000000000000000000000000004000000000000000000000000000000066
:20134700000000000000000000000000000000000000000000000000000000000000000086
:20136700000000000000000000000000000000000000000000000000000000000000000066
:0d1387000000000000000000000000000059
:20139400000000000000000000000000000000000000000000000000000000000000000039
:2013b400000000000000000000000000000000000000000000000000000000000000000019
:2013d4000000000000000000000000000000000000000000000000000000000000000004f5
:0d13f40000000000000000000000000000ec
:201401000000000000000000000000000000000000000000000000000000000000000000cb
:201421000000000000000000000000000000000000000000000000000000000000000000ab
:2014410000000000000000000000000000000000000000000000000000000000000000008b
:201c18000002000000000000000000000000000000000000000000000000000000000000aa
:201c380000000000000000000000000000000000000000000000000000000000000000008c
:201c580000000000000000000000000000000000000000000000000000000000000000006c
:0d1c7800000000000000000000000000005f
:201c850000000000000000000000000000000000000000000000000000000000000000003f
:201fed004c0000000000000000000000000000000000000000000000000000000000000088
:20200d000000000000000000000000000000000000000000000000000000000000000000b3
:20202d00000000000000000000000000000000000000000000000000000000000000000093
:0d204d000000000000000000000000000086
:20205a000c000000000000000000000000000000000000000000000000000000000000005a
:20207a00000000000000000000000000000000000000000000000000000000000000000046
:20209a00000000000000000000000000000000000000000000000000000000000000000026
:0d20ba000000000000000000000000000019
:2020c7000000000000000000000000000000000000000000000000000000000000000000f9
:2020e7000000000000000000000000000000000000000000000000000000000000000000d9
:202107000000000000000000000000000000000000000000000000000000000000000000b8
:0d21270000000000000000000000000000ab
:2021340080000000000000000000000000000000000000000000000000000000000000000b
:2021540000000000000000000000000000000000000000000000000000000000000000006b
:2021740000000000000000000000000000000000000000000000000000000000000000004b
:0d219400000000000000000000000000003e
:2021a1004004000000000000000000000000000000000000000000000000000000000000da
:2021c1000000000000000000000000000000000000000000000000000000000000000000fe
:2021e1000000000000000000000000000000000000000000000000000000000000000000de
:0d22010000000000000000000000000000d0
:20220e00002800000000000000000000000000000000000000000000000000000000000088
:20222e00000000000000000000000000000000000000000000000000000000000000000090
:20224e00000000000000000000000000000000000000000000000000000000000000000070
:0d226e000000000000000000000000000063
:20227b00000000000000000000000000000000000000000000000000000000000000000043
:20294b00400400000000000000000000000000000000000000000000000000000000000028
:20296b0000000000000000000000000000000000000000000000000000000000000000004c
:20298b0000000000000000000000000000000000000000000000000000000000000000002c
:0d29ab00000000000000000000000000001f
:2029b8000028000000000000000000000000000000000000000000000000000000000000d7
:2029d8000000000000000000000000000000000000000000000000000000000000000000df
:2029f8000000000000000000000000000000000000000000000000000000000000000000bf
:0d2a180000000000000000000000000000b1
:202a2500000000000000000000000000000000000000000000000000000000000000000091
:202a4500000000000000000000000000000000000000000000000000000000000000000071
:202a6500000000000000000000000000000000000000000000000000000000000000000051
:0d2a85000000000000000000000000000044
:202a92008000000000000000000000000000000000000000000000000000000000000000a4
:202ab200000000000000000000000000000000000000000000000000000000000000000004
:202ad2000000000000000000000000000000000000000000000000000000000000000000e4
:0d2af20000000000000000000000000000d7
:202aff00400000000000000000000000000000000000000000000000000000000000000077
:202b1f00000000000000000000000000000000000000000000000000000000000000000096
:202b3f00000000000000000000000000000000000000000000000000000000000000000076
:0d2b5f000000000000000000000000000069
:202b6c00080000000000000000000000000000000000000000000000000000000000000041
:202b8c00000000000000000000000000000000000000000000000000000000000000000029
:202bac00000000000000000000000000000000000000000000000000000000000000000009
:0d2bcc0000000000000000000000000000fc
:202bd9000001000000000000000000000000000000000000000000000000000000000000db
:202bf9000000000000000000000000000000000000000000000000000000000000000000bc
:202c190000000000000000000000000000000000000000000000000000000000000000009b
:0d2c3900000000000000000000000000008e
:202c460000000000000000000000000000000000000000000000000000000000000000006e
:202c660000000000000000000000000000000000000000000000000000000000000000004e
:202c860000000000000000000000000000000000000000000000000000000000000000002e
:0d2ca6000000000000000000000000000021
:202cb300000000000000000000000000000000000000000000000000000000000000000001
:202cd3000000000000000000000000000000000000000000000000000000000000000000e1
:202cf3000000000000000000000000000000000000000000000000000000000000000000c1
:0d2d130000000000000000000000000000b3
:202d2000000000000000000000000000000000000000000000000000000000000000000093
:202d4000000000000000000000000000000000000000000000000000000000000000000073
:202d6000000000000000000000000000000000000000000000000000000000000000000053
:0d2d80000000000000000000000000000046
:202d8d00000000000000000000000000000000000000000000000000000000000000000026
:202dad00000000000000000000000000000000000000000000000000000000000000000006
:202dcd000000000000000000000000000000000000000000000000000000000000000000e6
:0d2ded0000000000000000000000000000d9
:202dfa000000000000000000000000000000000000000000000000000000000000000000b9
:202e1a00000000000000000000000000000000000000000000000000000000000000000098
:202e3a00000000000000000000000000000000000000000000000000000000000000000078
:0d2e5a00000000000000000000000000006b
:202e670000000000000000000000000000000000400000000000000000000000000000000b
:202e870000000000000000000000000000000000000000000000000000000000000000002b
:202ea70000000000000000000000000000000000000000000000000000000000000000000b
:0d2ec70000000000000000000000000000fe
:202ed4000000000000000000000000000000000000000000000000000000000000000000de
:202ef4000000000000000000000000000000000000000000000000000000000000000000be
:202f1400000000000000000000000000000000000000000000000000000000000000000499
:0d2f34000000000000000000000000000090
:202f4100000000000000000000000000000000000000000000000000000000000000000070
:202f6100000000000000000000000000000000000000000000000000000000000000000050
:202f8100000000000000000000000000000000000000000000000000000000000000000030
:0d2fa1000000000000000000000000000023
:202fae00000000000000000000000000000000000000000000000000000000000000000003
:202fce000000000000000000000000000000000000000000000000000000000000000000e3
:202fee000000000000000000000000000000000000000000000000000000000000000000c3
:0d300e0000000000000000000000000000b5
:20301b00000000000000000000000000000000000000000000000000000000000000000095
:20303b00000000000000000000000000000000000000000000000000000000000000000075
:20305b00000000000000000000000000000000000000000000000000000000000000000055
:0d307b000000000000000000000000000048
:20308800000000000000000000000000000000000000000000000000000000000000000028
:2030a800000000000000000000000000000000000000000000000000000000000000000008
:2030c8000000000000000000000000000000000000000000000000000000000000000000e8
:0d30e80000000000000000000000000000db
:2030f5000000000000000000000000000000000010000000000000000000000000000000ab
:2031150000000000000000000000000000000000000000000000000000000000000000009a
:2031350000000000000000000000000000000000000000000000000000000000000000007a
:0d315500000000000000000000000000006d
:2031620000000000000000000000000000000000200000000000000000000000000000002d
:2031820000000000000000000000000000000000000000000000000000000000000000002d
:2031a20000000000000000000000000000000000000000000000000000000000000000000d
:0d31c2000000000000000000000000000000
:2031cf000000000000000000000000000000000000000000000000000000000000000000e0
:2031ef000000000000000000000000000000000000000000000000000000000000000000c0
:20320f0000000000000000000000000000000000000000000000000000000000000000009f
:0d322f000000000000000000000000000092
:20323c00000000000000000000000000000000000000000000000000000000000000000072
:20325c00000000000000000000000000000000000000000000000000000000000000000052
:20327c00000000000000000000000000000000000000000000000000000000000000000032
:0d329c000000000000000000000000000025
:2032a900000000000000000000000000000000000000000000000000000000000000000005
:2032c9000000000000000000000000000000000000000000000000000000000000000000e5
:2032e9000000000000000000000000000000000000000000000000000000000000000000c5
:0d33090000000000000000000000000000b7
:2033160018000000000000000000000000000000000000000000000000000000000000007f
:20333600000000000000000000000000000000000000000000000000000000000000000077
:20335600000000000000000000000000000000000000000000000000000000000000000057
:0d337600000000000000000000000000004a
:2033830000000000000000000000000000000000000000000000000000000000000000002a
:2033a30000000000000000000000000000000000000000000000000000000000000000000a
:2033c3000000000000000000000000000000000000000000000000000000000000000000ea
:0d33e30000000000000000000000000000dd
:2033f0000000000000000000000000000000000000000000000000000000000000000000bd
:2034100000000000000000000000000000000000000000000000000000000000000000009c
:2034300000000000000000000000000000000000000000000000000000000000000000007c
:0d345000000000000000000000000000006f
:20345d0000000000000000000000000000000000000000000000000000000000000000004f
:20347d0000000000000000000000000000000000000000000000000000000000000000002f
:20349d0000000000000000000000000000000000000000000000000000000000000000000f
:0d34bd000000000000000000000000000002
:2034ca000000000000000000000000000000000000000000000000000000000000000000e2
:2034ea000000000000000000000000000000000000000000000000000000000000000000c2
:20350a000000000000000000000000000000000000000000000000000000000000000000a1
:0d352a000000000000000000000000000094
:20353700000000000000000000000000000000001000000000000000000000000000000064
:20355700000000000000000000000000000000000000000000000000000000000000000054
:20357700000000000000000000000000000000000000000000000000000000000000000034
:0d3597000000000000000000000000000027
:2035a400000000000000000000000000000000000000000000000000000000000000000007
:2035c4000000000000000000000000000000000000000000000000000000000000000000e7
:2035e4000000000000000000000000000000000000000000000000000000000000000000c7
:0d36040000000000000000000000000000b9
:20361100000000000000000000000000000000000000000000000000000000000000000099
:20363100000000000000000000000000000000000000000000000000000000000000000079
:20365100000000000000000000000000000000000000000000000000000000000000000059
:0d367100000000000000000000000000004c
:20367e0000000000000000000000000000000000000000000000000000000000000000002c
:20369e0000000000000000000000000000000000000000000000000000000000000000000c
:2036be000000000000000000000000000000000000000000000000000000000000000000ec
:0d36de0000000000000000000000000000df
:2036eb000000000000000000000000000000000000000000000000000000000000000000bf
:20370b0000000000000000000000000000000000000000000000000000000000000000009e
:20372b0000000000000000000000000000000000000000000000000000000000000000007e
:0d374b000000000000000000000000000071
:20375800100000000000000000000000000000000000000000000000000000000000000041
:20377800000000000000000000000000000000000000000000000000000000000000000031
:20379800000000000000000000000000000000000000000000000000000000000000000011
:0d37b8000000000000000000000000000004
:2037c5000000000000000000000000000000000000000000000000000000000000000000e4
:2037e5000000000000000000000000000000000000000000000000000000000000000000c4
:20380500000000000280000000000000000000000000000000000000000000000000000021
:0d3825000000000000000000000000000096
:20383200000000000000000000000000000000000000000000000000000000000000000076
:20385200000000000000000000000000000000000000000000000000000000000000000056
:20387200000000000100000000000000000000000000000000000000000000000000000035
:0d3892000000000000000000000000000029
:20389f00000000000000000000000000000000000000000000000000000000000000000009
:2038bf000000000000000000000000000000000000000000000000000000000000000000e9
:2038df000000000000000000000000000000000000000000000000000000000000000000c9
:0d38ff0000000000000000000000000000bc
:20390c0000000000000000000000000000000000000000000000000000000000000000009b
:20392c0000000000000000000000000000000000000000000000000000000000000000007b
:20394c0000000000000000000000000000000000000000000000000000000000000000005b
:0d396c00000000000000000000000000004e
:2039790000000000000000000000000000000000000000000000000000000000000000002e
:2039990000000000000000000000000000000000000000000000000000000000000000000e
:2039b9000000000000000000000000200000000000000000000000000000000000000000ce
:0d39d90000000000000000000000000000e1
:2039e6000000000000000000000000000000000000000000000000000000000000000000c1
:203a06000000000000000000000000000000000000000000000000000000000000000000a0
:203a2600000000000000000000000000000000000000000000000000000000000000000080
:2043d1000000000000000000000000000000000000000000000000000000000000010000cb
:2043f1000000000000000000000000000000000000000000000000000000000000000000ac
:0d441100000000000000000000000000009e
:20441e0000000000000000000000000000000000000000000000000000000000000000007e
:20443e0000000000000000000000000000000000000000000000000000000000000100005d
:20445e00000000000000000000000001000000000000040000000000001000000000000029
:0d447e0040000000000001000000000000f0
:20448b00000000000000000000000000000000000000000000000000000000000000000011
:2044ab000000000000000000000000000000000000000000000000000000000000000000f1
:2044cb000000000000000000000000000000000000000000000000000000000000000000d1
:0d44eb0000000000000000000000000000c4
:204860000000000000000000000000000000000000004000000000000000000000000000f8
:20488000000000000000000000000000000000000000000000000000000000000000000018
:2048a0000000000000000000000000000000000000000000000000000000000000000000f8
:0d48c00000000000000000000000000000eb
:2048cd000000000000000000000000000000000000000000000000000000000000000000cb
:2048ed000000000000000000000000000000000000000000000000000000000000000000ab
:20490d0000000000000000000000000000000000000000000000000000000000000000008a
:0d492d00000000000000000000000000007d
:20493a0000000000000000000000000000000000000000000000000000000000000000005d
:20495a0000000000000000000000000000000000000000000000000000000000000000003d
:20497a0000000000000000000000000000000000000000000000000000000000000000001d
:0d499a000000000000000000000000000010
:2049a7000000000000000000000000000000000000000000000000000000000000000000f0
:2049c7000000000000000000000000000000000000000000000000000000000000000000d0
:2049e7000000000000000000000000000000000000000000000000000000000000000000b0
:0d4a070000000000000000000000000000a2
:204a1400000000000000000000000000000000000000000000000000000000000000000082
:204a3400000000000000000000000000000000000000000000000000000000000000000062
:204a5400000000000000000000000000000000000000000000000000000000000000000042
:0d4a74000000000000000000000000000035
:204a8100000000000000000000000000000000000000000000000000000000000000000015
:204aa1000000000000000000000000000000000000000000000000000000000000000000f5
:204ac1000000000004000000000000000000000000000000000000000000000000000000d1
:0d4ae10000000000000000000000000000c8
:204aee000000000000000000000000000000000000000000000000000000000000000000a8
:204b0e00000000000000000000000000000000000000000000000000000000000000000087
:204b2e00000000000400000000000000000000000000000000000000000000000000000063
:0d4b4e00000000000000000000000000005a
:204b5b0000000000000000000000000000000000000000000000000000000000000000003a
:204b7b0000000000000000000000000000000000000000000000000000000000000000001a
:204b9b000000000000000000000000000000000000000000000000000000000000000000fa
:0d4bbb0000000000000000000000000000ed
:204bc8000002000000000000000000000000000000000000000000000000000000000000cb
:204be8000000000000000000000000000000000000000000000000000000000000000000ad
:204c080000000000000000000000000000000000000000000000000000000000000000008c
:0d4c2800000000000000000000000000007f
:204c350000000000000000000000000000000000000000000000000000000000000000005f
:204c550000000000000000000000000000000000000000000000000000000000000000003f
:204c750000000000000000000000000000000000000000000000000000000000000000001f
:0d4c95000000000000000000000000000012
:204ca2000000000000000000000000000000000000000000000000000000000000000000f2
:204cc2000000000000000000000000000000000000000000000000000000000000000000d2
:204ce2000000000000000000000000000000000000000000000000000000000000000000b2
:0d4d020000000000000000000000000000a4
:204d0f00000000000000000000000000000000000000000000000000000000000000000084
:204d2f00000000000000000000000000000000000000000000000000000000000000000064
:204d4f00000000000000000000000000000000000000000000000000000000000000000044
:0d4d6f000000000000000000000000000037
:204d7c00000000000000000000000000000000000000000000000000000000000000000017
:204d9c000000000000000000000000000000000000000000000000000000000000000000f7
:204dbc000000000000000000000000000000000000000000000000000000000000000000d7
:0d4ddc0000000000000000000000000000ca
:204de9000000000200000000000000000000000000000000000000000000000000000000a8
:204e0900000000000000000000000000000000000000000000000000000000000000000089
:204e2900000000000000000000000000000000000000000000000000000000000000000069
:0d4e4900000000000000000000000000005c
:204e5600000000040000000000000000000000000000000000000000000000000000000038
:204e760000000000000000000000000000000000000000000000000000000000000000001c
:204e96000000000000000000000000000000000000000000000000000000000000000000fc
:0d4eb60000000000000000000000000000ef
:204ec3000004000000000000000000000000000000000000000000000000000000000000cb
:204ee3000000000000000000000000000000000000000000000000000000000000000000af
:204f030000000000000000000000000000000000000000000000000000000000000000008e
:0d4f23000000000000000000000000000081
:204f3000003c00000000000000000000000000000000000000000000000000000000000025
:204f5000000000000000000000000000000000000000000000000000000000000000000041
:204f7000000000000000000000000000000000000000000000000000000000000000000021
:0d4f90000000000000000000000000000014
:204f9d004400000000000000000000000000000000000000000000000000000000000000b0
:204fbd000000000000000000000000000000000000000000000000000000000000000000d4
:204fdd000000000000000000000000000000000000000000000000000000000000000000b4
:0d4ffd0000000000000000000000000000a7
:20500a0008000000000000000000000000000000000000000000000000000000000000007e
:20502a00000000000000000000000000000000000000000000000000000000000000000066
:20504a00000000000000000000000000000000000000000000000000000000000000000046
:0d506a000000000000000000000000000039
:20507700000000000000000000000000000000000000000000000000000000000000000019
:205097000000000000000000000000000000000000000000000000000000000000000000f9
:2050b7000000000000000000000000000000000000000000000000000000000000000000d9
:0d50d70000000000000000000000000000cc
:2050e40080000000000000000000000000000000000000000000000000000000000000002c
:2051040000000000000000000000000000000000000000000000000000000000000000008b
:2051240000000000000000000000000000000000000000000000000000000000000000006b
:0d514400000000000000000000000000005e
:205151004000000000000000000000000000000000000000000000000000000000000000fe
:2051710000000000000000000000000000000000000000000000000000000000000000001e
:205191000000000000000000000000100000000000000000000000000000000000000000ee
:0d51b10000000000000000000000000000f1
:2051be000000000000000000000000000000000000000000000000000000000000000000d1
:2051de000000000000000000000000000000000000000000000000000000000000000000b1
:2051fe00000000000000000000000010000000000000000000000000000000000000000081
:0d521e000000000000000000000000000083
:20522b00000000000000000000000000000000000000000000000000000000000000000063
:20524b00000000000000000000000000000000000000000000000000000000000000000043
:20526b00000000000000000000000000000000000000000000000000000000000000000023
:0d528b000000000000000000000000000016
:205298001800000000000000000000000000000000000000000000000000000000000000de
:2052b8000000000000000000000000000000000000000000000000000000000000000000d6
:2052d800200000000000000000000000000000000000000000000000000000000000000096
:0d52f80000000000000000000000000000a9
:20530500000000000000000000000000000000000000000000000006000000000000000082
:20532500000000000000000000000000000000000000000000000000000000000000000068
:2053450000c86000020000000000000000000000000000000000000000000000000000001e
:0d536500000000000000000000000000003b
:2053720000000000000000000000000000000000000000000000000000000000000000001b
:205392000000000000000000000000000000000000000000000000000000000000000000fb
:2053b200017b1010000000000000000000000000000000000000000000000000000000003f
:0d53d20000000000000000000000000000ce
:2053df000000000000000000000000000000000000000000000000000000000000000000ae
:2053ff0000000000000000000000000000000000000000000000000000000000000000008e
:20541f00040000000000000000000000000000000000000000000000000000000000000069
:0d543f000000000000000000000000000060
:20544c00000000000000000000000000000000000000000000000000000000000000000040
:20546c0000000000000000000000000000000000000000000000000000000000000000041c
:20548c002c00000000000000000000000000000000000000000000000000000000000000d4
:0d54ac0000000000000000000000000000f3
:2054b9000000000000000000000000000000000000000000000000000000000000000000d3
:2054d9000000000000000000000000000000000000000000000000000000000000000000b3
:2054f900000000000000000000000000000000000000000000000000000000000000000093
:0d5519000000000000000000000000000085
:20552600000000000000000000000000000000000000000000000000000000000000000065
:20554600000000000000000000000000000000000000000000000000000000000000000045
:20556600000000000000000000000000000000000000000000000000000000000000000025
:0d5586000000000000000000000000000018
:205593000000000000000000000000000000000000000000000000000000000000000000f8
:2055b3000000000000000000000000000000000000000000000000000000000000000000d8
:2055d3000000000000000000000000000000000000000000000000000000000000000000b8
:0d55f30000000000000000000000000000ab
:2056000000000000000000000000000000000000000000000000000000000000000000008a
:2056200000000000000000000000000000000000000000000000000000000000000000006a
:20564000340000000000000000000000000000000000000000000000000000000000000016
:0d566000000000000000000000000000003d
:20566d0000000000000000000000000000000000000000000000000000000000000000001d
:20568d000000000000000000000000000000000000000000000000000000000000000000fd
:2056ad000000000000050000000000000000000000000000000000000000000000000000d8
:0d56cd0000000000000000000000000000d0
:2056da000000000000000000000000000000000000000000000000000000000000000000b0
:2056fa00000000000000000000000000000000000000000000000000000000000000000090
:20571a0000000000000200000000000000000000000000000000000000000000000000006d
:0d573a000000000000000000000000000062
:20574700000000000000000000000000000000000000000000000000000000000000000042
:20576700000000000000000000000000000000000000000000000000000000000000000022
:20578700000000000000000000000000000000000000000000000000000000000000000002
:0d57a70000000000000000000000000000f5
:2057b4000000000000000000000000000000000000000000000000000000000000000000d5
:2057d4000000000000000000000000000000000000000000000000000000000000000000b5
:2057f400000000000000000000000000000000000000000000000000000000000000000095
:0d5814000000000000000000000000000087
:20582100000000000000000000000000000000000000000000000000000000000000000067
:2058410000000000000000000000000000000000000008000000000000000000000000003f
:20586100000000000000000000000000001000000000000000000000000000000000000017
:0d588100000000000000000000000000001a
:20588e000000000000000000000000000000000000000000000000000000000000000000fa
:2058ae000000000000000000000000000000000000000000000000000000000000000000da
:2058ce000000000000000000000000000000000000000000000000000000000000000000ba
:0d58ee0000000000000000000000000000ad
:2058fb0000000000000000000000000000000000000000000000000000000000000000008d
:20591b0000000000000000000000000000000000000000000000000000000000000000006c
:20593b00000000000000000000000000000000000000000000000000000000001af0400002
:0d595b0000818002950000000000000000a7
:2059680000000000000000000000000000000000000000000000000000000000000000001f
:205988000000000000000000000000000000000000000000000000000000000000000000ff
:2059a8000000000000000000000000000000000000000000000000000000000000f00000ef
:0d59c8000050010168000000000000000018
:2059d5000000000000000000000000000000000000000000000000000000000000000000b2
:2059f500000000000000000000000000000000000000000000000000000000000000000092
:205a15000000000000000000000000000000000000000000000000000e000000000000382b
:0d5a3500000000000000e002000000000082
:205a4200000000000000000000000000000000000000000000000000000000000000000044
:205a6200000000000000000000000000000000000000000000000000000000000000000024
:205a8200000000000000000000000000000000000000000000000000000000000000000004
:0d5aa20000000000000000014000000000b6
:205aaf000000000000000000000000000000000000000000000000000000000000000000d7
:205acf000000000000000000000000000000000000000000000000000000000000000000b7
:205aef00000000000000000000000000000000000000000000000000000000600000000037
:0d5b0f0000800023c1000000000000000025
:205b1c00000000000000000000000000000000000000000000000000000000000000000069
:205b3c00000000000000000000000000000000000000000000000000000000000000000049
:205b5c00000000000000000000000000000000000000000000000000000000000000000029
:0d5b7c0000100043c0000000000000000009
:205b89000000000000000000000000000000000000000000000000000000000000000000fc
:205ba9000000000000000000000000000000000000000000000000000000000000000000dc
:205bc900000000000000000000000000000000000000000000000000000020001cf0400050
:0d5be90000000073c100000000000000007b
:205bf60000000000000000000000000000000000000000000000000000000000000000008f
:205c160000000000000000000000000000000000000000000000000000000000000000006e
:205c36000000000000000000000000000000000000000000000000000000040000f000005a
:0d5c560000000043c000000000000000003e
:205c6300000000000000000000000000000000000000000000000000000000000000000021
:205c8300000000000000000000000000000000000000000000000000000000000000000001
:205ca300000000000000000000000000000000000000000000000000000000001cf0400095
:0d5cc3000000003bc10000000000000000d8
:205cd0000000000000000000000000000000000000000000000000000000000000000000b4
:205cf000000000000000000000000000000000000000000000000000000000000000000094
:205d10000000000000000000000000000000000000000000000000000000000010f0000073
:0d5d300000000043c0000000000000000063
:205d3d00000000000000000000000000000000000000000000000000000000000000000046
:205d5d00000000000000000000000000000000000000000000000000000000000000000026
:205d7d00000000000000000000000000000000000000000000000000000006640af0400062
:0d5d9d0000001000000000000000000000e9
:205daa000000000000000000000000000000000000000000000000000000000000000000d9
:205dca000000000000000000000000000000000000000000000000000000000000000000b9
:205dea000000000000000000000000000000000000000000000000000000042010f0000075
:0d5e0a00000080000000000000000000000b
:205e170000000000000000000000000000000000000000000000000000000000000000006b
:205e370000000000000000000000000000000000000000000000000000000000000000004b
:205e5700000000000000000000000000000000000000000000000000000000001cf04000df
:0d5e77000000102bc100040000000000001e
:205e84000000000000000000000000000000000000000000000000000000000000000000fe
:205ea4000000000000000000000000000000000000000000000000000000000000000000de
:205ec4000000000000000000000000000000000000000000000000000000000000f00000ce
:0d5ee40000008003c000000000000000006e
:205ef100000000000000000000000000000000000000000000000000000000000000000091
:205f1100000000000000000000000000000000000000000000000000000000000000000070
:205f3100000000000000000000000000000000000000000000000000000000001cf0400004
:0d5f5100000000000000000000018f0400af
:205f5e00000000000000000000000000000000000000000000000000000000000000000023
:205f7e00000000000000000000000000000000000000000000000000000000000000000003
:205f9e000000000000000000000000000000000000000000000000000000000010f00000e3
:0d5fbe00000000000000000000000f0000c7
:205fcb000000000000000000000000000000000000000000000000000000000000000000b6
:205feb00000000000000000000000000000000000000000000000000000000000000000096
:20600b000000000000010000000000000000400000000000180000000000006008f0400084
:0d602b0000800000000000000000000000e8
:20603800000000000000000000000000000000000000000000000000000000000000000048
:20605800000000000000000000000000000000000000000000000000000000000000000028
:206078000000000000000000000000000002000000000000000000000000000010f0000006
:0d6098003850000000000000000000000073
:2060a5000000000000000000000000000000000000000000000000000000000000000000db
:2060c5000000000000000000000000000000000000000000000000000000000000000000bb
:2060e5000000000000000000000000e0000001af06038000000000000e0020001af04038d2
:0d61050000000102950000000000000000f5
:2061120000000000000000000000000000000000000000000000000000000000000000006d
:2061320000000000000000000000000000000000000000000000000000000000000000004d
:206152000000000000000000000000000002410f00000000000000000000140010f00000c7
:0d6172000000000294010000000000000089
:20617f00000000000000000000000000000000000000000000000000000000000000000000
:20619f000000000000000000000000000000000000000000000000000000000000000000e0
:2061bf00000000000000000000000000000020cf5400000000073c1000000000000000002a
:0d61df0000000000000000000000000000b3
:2061ec0000000000040000000000000000000000000000000000000000000000000000008f
:20620c00000000000000000000000000000000000000000000000000000000000000000072
:20622c000000000000000000000000000000240fa000000000043c0000000000000000003f
:0d624c000000000000000000000000000045
:20625900000000000000000000000000000000000000000000000000000000000000000025
:20627900000000000000000000000000000000000000000000000000000000000000000005
:20629900000000000000000000000000000600000000000500073c10000006601af04000d7
:0d62b90000000000000000000000000000d8
:2062c6000000000000000000000000000000000000000000000000000000000000000000b8
:2062e600000000000000000000000000000000000000000000000000000000000000000098
:20630600000000000000000000000000000000000000000080043c000000000000f00000c7
:0d632600000000000000000000000000006a
:2063330000000000000000000000000000000000400000000000000000000000000000000a
:2063530000000000000000000000000000000000000000000000000000000000000000002a
:20637300000000000000000000000000004000000000000000023c1000000000000000007c
:0d63930000000000000000000000000000fd
:2063a0000000000000000000000000000000000000000000000000000000000000000000dd
:2063c0000000000000000000000000000000000000000000000000000000000000000000bd
:2063e000000000000000000000000000002000000000000000043c0000000000000000003d
:0d640000000000000000000000000000008f
:20640d0000000000000000000000000000000000000000000000000000000000000000006f
:20642d0000000000000000000000000000000000000000000000000000000000000000004f
:20644d00000000000000000000000000000000000000000019000000000000000ef04000d8
:0d646d000000000000000000000000000022
:20647a00000000000000000000000000000000000000000000000000000000000000000002
:20649a000000000000000000000000000000000000000000000000000000000000000000e2
:2064ba000000000000000000000000000000000000000000080000000000000000f00000ca
:0d64da0000000000000000000000000000b5
:2064e700000000000000000000000000000000000000000000000000000000000000000095
:20650700000000000000000000000000000000000000000000000000000000000000000074
:2065270000000000000000000000000000000000000000000103bc1000000600000000007e
:0d6547000000000000000000000000000047
:20655400000000000000000000000000000000000000000000000000000000000000000027
:20657400000000000000000000000000000000000000000000000000000000000000000007
:20659400000000000000000000000000000000000000000008043c0000000000000000009f
:0d65b40000000000000000000000000000da
:2065c1000000000000000000000000000000000000000000000000000000000000000000ba
:2065e10000000000000000000000000000000000000000000000000000000000000000009a
:2066010000000000000000000000000000000685040000000006bc100000000018f04000d0
:0d662100000000000000000000000000006c
:20662e0000000000000000000000000000000000000000000000000000000000000000004c
:20664e0000000000000000000000000000000000000000000000000000000000000000002c
:20666e0000000000000000000000000000000f000000000000003c000000000000f00000d1
:0d668e0000000000000000000000000000ff
:20669b000000000000000000000000000000000000000000000000000000000000000000df
:2066bb000000000000000000000000000000000000000000000000000000000000000000bf
:2066db0000000000000000000000000000000000000000000000000000000000000000009f
:0d66fb000000000000000000000000000092
:20670800000000000000000000000000000000000000000000000000000000000000000071
:20672800000000000000000000000000000000000000000000000000000000000000000051
:206748000000000000000000000000000002800000000000000000000000000000000000af
:0d6768000000000000000004000000000020
:20677500000000000000000000000000000000000000000000000000000000000000000004
:206795000000000000000000000000000000000000000000000000000000000000000000e4
:2067b5000000000000000000000000e0000001af04038000000000000000000000000000ad
:0d67d50000000000000000000000000000b7
:2067e200000000000000000000000000000000000000000000000000000000000000000097
:20680200000000000000000000000000000000000000000000000000000000000000000076
:206822000000000000000000000000000000010f0000000000000000000000000000000046
:0d6842000000000000000000000000000049
:20684f00000000000000000000000000000000000000000000000000000000000000000029
:20686f00000000000000000000000000000000000000000000000000000000000000000009
:20688f00000000000000000000000000000000000000000580000000000000000000000064
:0d68af0000000000000000200000000000bc
:2068bc000000000000000000000000000000000000000000000000000000000000000000bc
:2068dc0000000000000000000000000000000000000000000000000000000000000000009c
:2068fc0000000000000000000000000000000000000000000000000000000000000000007c
:0d691c00000000000000000000000000006e
:2069290000000000000000000000000000000000000000000000000000000000000000004e
:2069490000000000000000000000000000000000000000000000000000000000000000002e
:20696900000000000000000000000000000600000000000000000000000000000000000008
:0d69890000000000000004000000000000fd
:206996000000000000000000000000000000000000000000000000000000000000000000e1
:2069b6000000000000000000000000000000000000000000000000000000000000000000c1
:2069d6000000000000000000000000000000000000000000000000000000000000000000a1
:0d69f6000000000000000a0000000000008a
:206a0300000000000000000000000000000000000000000000000000000000000000000073
:206a2300000000000000000000000000000000000000000000000000000000000000000053
:206a4300000000000000000000000000000000000000000000000000000000000000000033
:0d6a63000000000000000000000000000026
:206a7000000000000000000000000000000000000000000000000000000000000000000006
:206a90000000000000000000000000000000000000000000000000000000000000000000e6
:206ab0000000000000000000000000000000000000000000000000000000000000000000c6
:0d6ad00000000000000000000000000000b9
:206add00000000000000000000000000000000000000000000000000000000000000000099
:206afd00000000000000000000000000000000000000000000000000000000000000000079
:206b1d0000000000000000000000000000607c80540000000002bc100000000000000000da
:0d6b3d00000000000000000000000000004b
:206b4a0000000000000000000000000000000000000000000000000000000000000000002b
:206b6a0000000000000000000000000000000000000000000000000000000000000000000b
:206b8a0000000000000000000000000000021f00f000000000003c0000000000000000009e
:0d6baa0000000000000000000000000000de
:206bb7000000000000000000000000000000000000000000000000000000000000000000be
:206bd70000000000000000000000000000000000000000000000000000000000000000009e
:206bf700000000000000000000000000000201cf04000000000000000000000000000000a8
:0d6c17000000000000000000000000000070
:206c2400000000000000000000000000000000000000000000000000000000000000000050
:206c4400000000000000000000000000000000000000000000000000000000000000000030
:206c64000000000000000000000000000000000f0000000000000000000000000000000001
:0d6c84000000000000000000000000000003
:206c91000000000000000000000000000000000000000000000000000000000000000000e3
:206cb1000000000000000000000000000000000000000000000000000000000000000000c3
:206cd10000000000000000000000000a000001cf04000000000000000000000000000000c5
:0d6cf1000000000000000000000000000096
:206cfe00000000000000000000000000000000000000000000000000000000000000000076
:206d1e00000000000000000000000000000000000000000000000000000000000000000055
:206d3e000000000000000000000000040040010f00000000000000000000000000000000e1
:0d6d5e000000000000000000000000000028
:206d6b00000000000000000000000000000000000000000000000000000000000000000008
:206d8b000000000000000000000000000000000000000000000000000000000000000000e8
:206dab00014ea00000000000000000000000000000000000000000000000000000000000d9
:0d6dcb0000001000000000000600000000a5
:206dd800000200000000000000000000000000000000000000000000000000000000000099
:206df80000000000000000000000000000000000000000000000000000000000000000007b
:206e180002d05a01000000000000000000000000000000000000000000000000000000002d
:0d6e38000000f0000000000000000000005d
:206e450000000000000000000000000000000000000000000000000000000000000000002d
:206e650000000000000000000000000000000000000000000000000000000000000000000d
:206e85000000000002010000000000000000000000000000000000000000000000000038b2
:0d6ea5000100a0000000e00162beb020006e
:206eb2000000000000000000000000000000000000000000000000000000000000000000c0
:206ed2000000000000000000000000000000000000000000000000000000000000000000a0
:206ef200000000000002000000000000000000000000000000000000000e00000000000070
:0d6f1200020100000000000006e6b03000a3
:206f1f00000000000000000000000000000000000000000000000000000000000000000052
:206f3f00000000000000000000000000000000000000000000000000000000000000000032
:206f5f00000000000000000000000000000000000000000000000000000000000000000012
:0d6f7f0000000000000000004007ca0000f4
:206f8c000000000000000000001000000000000000000000000000000000000000000000d5
:206fac000000000000000000000000000000000000000000000000000000000000010004c0
:206fcc000000000000000000000000000000000000000000000000000000000000000000a5
:0d6fec00000000000000000000010a008409
:206ff900000200000000000000000000000000000000000000000000000000000000000076
:20701900000000001000000000000000000000000000000000000000000000000000000047
:207039000000000000800000000000000000000000000000000000000000000000000000b7
:0d7059000000000000000001605eaf342068
:2070660000000000000000000000000000000000000000000000000000000000000000000a
:207086000000000010000000000000000000000000000000000000000000000000000000da
:2070a6000000000001180400000000000000000000000000000000000000000000000000ad
:0d70c600000000000000000342240fb00095
:2070d30040000000000000000000000000000000000000000000000000000000000000005d
:2070f30000000000000000000000000000000000000000000000000000000000000200007b
:20711300000000000000000000000000000000000000080000000000000000000000000054
:0d713300000003e00000000260000000000a
:207140004000000000000000000000000000000000000000000000000000000000000000ef
:2071600000000000000000000000000000000000000000000000000000000000000000000f
:207180003000000000000000000000000000000000001000000000000000000000000000af
:0d71a0000000094014000000c000000000c5
:2071ad000000000000000000000000000000000000000000000000000000000000000000c2
:2071cd000000000000000000000000000000000000000000000000000000000000000000a2
:2071ed00000000000000000000000000000000000000000000000000000000000000000181
:0d720d000019cbbb8d08000002ad90000001
:20721a00000000000000000000000000000000000000000000000000000000000000000054
:20723a00000000000000000000000000000000000000000000000000000000000000000034
:20725a00000000000000000000000000000000000000000000000000000000000000000212
:0d727a0000510b430c0000000425a400008f
:207287000000000000000000000000000000000000000000000000000000000000000000e7
:2072a7000000000000000000000000000000000000000000000000000000000000000000c7
:2072c700000000000000000000000020000000000000200000000000000000000000000166
:0d72e7000000a000000000080004cf04b06b
:2072f4008000000000000000000000000000000000000000000000000000000000000000fa
:20731400000000000000000000000000000000000000000000000000000000000000000059
:20733400200000000000000000000000000000000000100000000000000000000000000207
:0d735400040000000000001000160f1000e3
:2073610000000000000000000000000000000000000000000000000000000000000000000c
:207381000000000000000000000000000000000000000000000000000000000000000000ec
:2073a1000000000000000000000000000010000000000000000000000000000000000000bc
:0d73c10000000000000000006735aa501019
:2073ce0000000000000000000000000000000000000000000000000000000000000000009f
:2073ee0000000000000000000000000000000000000000000000000000000000000000007f
:20740e0000000000000000000000000000000000000000000000000000000000000000005e
:0d742e000000000000000000042c0f5202be
:02743b0000004f
:02743d0011013b
:02743f00010149
:2074410000000000000000000000000000000000200000000000000000000000000000000b
:2074610000000000000000000000000000000000000000000000000000000000000000000b
:207481000000000000000000000000000000000000000000000000000000000000000000eb
:0d74a10000000000000000000000000000de
:2074ae0000000000000000000000000000000000000340000000000000000000000000007b
:2074ce0000000000000000000000000000000000000000000000000000000000000000009e
:2074ee0000000000000000000000000000000000000000000000000000000000000000007e
:0d750e000000000000000000000000000070
:20751b00000000000000000000000000000000001000000000000000000000000000000040
:20753b00000000000000000000000000000000000000000000000000000000000000000030
:20755b000000000000000000000000000000000000001000000000000040000000000000c0
:0d757b000000000000000000000000000003
:207588000000000000000000000000000000000000000000000000000000000000000000e3
:2075a8000000000000000000000000000000000000000000000000000000000000000000c3
:2075c8000000000000000000000000000000000000000000000000000000000000000000a3
:0d75e8000000000000000000000000000096
:2075f5000000000000000000000000000000000020000000c0000000000000000000000c8a
:20761500000000000000000000000000000000000000000000000000000000000000000055
:20763500000000000000000000000000000000000000000000000000000000000000000035
:0d76550000000000000000008000000000a8
:207662000000000000000000000000000000000000000000c0000000000000000000000246
:207682000000000000000000000000000000000000000000000000000000000000000000e8
:2076a2000000000000000000000000000000000000000000000000000000000000000000c8
:0d76c2000000000000000000b0000000000b
:2076cf00000000000000000000000008000000000000000000000000000000000000000093
:2076ef0000000000000000000000000000000000000000000000000000000000000000007b
:20770f0000000000000000000000000000000000000010000000000000400000000000000a
:0d772f00000000000000000000000000004d
:20773c000000000000000000000000500000000000000000000000000000000000000000dd
:20775c0000000000000000000000000000000000000000000000000000000000000000000d
:20777c000000000000000000000000000000000000002000000000000000000000000000cd
:0d779c0000000000000000000000000000e0
:2077a900000000000000000000000000200000000000008000000000000000000000000020
:2077c900080000000000000060000000000000000000000000000000000000000000000038
:2077e90000000000000000000000000000000000000000000040000000000001000000003f
:0d7809000000000000000000000000000072
:20781600000000000000000000000000000000000000000000000000000000000000000052
:20783600000000000000000000000000000000000000000000000000000000000000000032
:20785600000000000000000000000000000000000000000000000000000000000000000012
:0d7876000000000000000000000000000005
:20788300000000000000000000000000001000000000000040000000000000000000000095
:2078a300000c000000000000000000000000000000000000000000000000000000000000b9
:2078c3000000000000000000000000000000000000000000000000000000000000000000a5
:0d78e3000000000000000000000008000090
:2078f00000000000000000000008000000200000200000000000000000000000000200002e
:2079100000080000000000000000000000000000000000000000000000000000000000004f
:20793000000000000000000000000000000000000000000000000000000000000000000037
:0d795000000000000000000000000c00001e
:20795d0000000000000000000000000000000000000000000000000000000000000000000a
:20797d000000000000000000200000000000000000000000000000000000000000000000ca
:20799d000000000000000000000000000000000000000000000000000000000000000000ca
:0d79bd0000000000000000000000000000bd
:2079ca00000000000000000000040000000000001000000000000000000000000001000088
:2079ea0000000000000000000000000000000000000000000000000000000000000000007d
:207a0a0000000000000000000000000000000000000000000000000000000000000000005c
:0d7a2a00000000000000000000000000004f
:207a3700000000000000000000000000000000000003c0400000000000000000000000002c
:207a570000000000000000000000000000000000000000000000000000000000000000000f
:207a77000000000000000000000000000000000000000000004000000000000100000000ae
:0d7a970000000000000000000000000000e2
:207aa400000000000000000000080000000000002000000000000000000000000002000098
:207ac4000000000000000000000000000000000000000000000000000000000000000000a2
:207ae400000000000000000000000000000000000000000000000000000000000000000082
:0d7b04000000000000000000000000000074
:207b1100000000000000000000000000000000000000000000000000000000000000000054
:2083b500000000000040000000000000000000000000000000000000000000000000000068
:2083d500000000000000000000000000000000000000000000000000000000000000000088
:0d83f500000000000000000000000000007b
:2084020000000000000000000000000000000000000000000000000000000000000000005a
:2084220000000000000000000000000000000000000000000000000000000000000000003a
:2084420000000000000000000000000000000000000000000000000000000000000000001a
:0d846200000000000000000000000000000d
:20846f000000000000000000000000000000000000000000000000000000000000000000ed
:20848f000000000000000000000000000000000000000000000000000000000000000000cd
:2084af000000000000000000000000000000000000000000000000000000000000000000ad
:0d84cf0000000000000000000000000000a0
:2084dc00000000000000000000000000000000000000000000000000000000000000000080
:2084fc00000000000000000000000000000000000000000000000000000000000000000060
:20851c0000000000000000000000000000000000000000000000000000000000000000003f
:0d853c000000000000000000000000000032
:20854900000000000000000000000000000000000000000000000000000000000000000012
:208569000000000000000000000000000000000000000000000000000000000000000000f2
:208589000000000000000000000000000000000000000000000000000000000000000000d2
:0d85a90000000000000000000000000000c5
:2085b6000000000000000000000000000000000000000000000000000000000000000000a5
:2085d600000000000000000000000000000000000000000000000000000000000000000085
:2085f600000000000000000000000000000000000000000000000000000000000000000065
:0d8616000000000000000000000000000057
:20862300000000000000000000000000000000000000000000000000000000000000000037
:20864300000000000000000000000000000000000000000000000000000000000000000017
:208663000000000000000000000000000000000000000000000000000000000000000000f7
:0d86830000000000000000000000000000ea
:208690000000000000000000000000000000000000000000000000000000000000000000ca
:2086b0000000000000000000000000000000000000000000000000000000000000000000aa
:2086d00000000000000000000000000000000000000040000000000000000000000000004a
:0d86f000000000000000000000000000007d
:2086fd0000000000000000000000000000000000000000000000000000000000000000005d
:20871d0000000000000000000000000000000000000000000000000000000000000000003c
:20873d0000000000000000000000000000000000000000000000000000000000000000001c
:0d875d00000000000000000000000000000f
:20876a000000000000000000000000000000000028000000000000000000000000000000c7
:20878a000000000000000000000000000000000000000000000000000000000000000000cf
:2087aa000000000000000000000000000000000000000000000000000000000000000000af
:0d87ca0000000000000000000000000000a2
:2087d700000000000000000000000000000000000000000000000000000000000000000082
:2087f700000000000000000000000000000000000000000000000000000000000000000062
:20881700000000000000000000000000000000000000000000000000000000000000000041
:0d8837000000000000000000000000000034
:20884400000000000000000000000000000000000000000000000000000000000000000014
:208864000000000000000000000000000000000000000000000000000000000000000000f4
:208884000000000000000000000000000000000000000000000000000000000000000000d4
:0d88a40000000000000000000000000000c7
:2088b1000000000000000000000000000000000000000000000000000000000000000000a7
:2088d100000000000000000000000000000000000000000000000000000000000000000087
:2088f100000000000000000000000000000000000000000000000000000000000000000067
:0d8911000000000000000000000000000059
:20891e00000000000000000000000000000000000000000000000000000000000000000039
:20893e00000000000000000000000000000000000000000000000000000000000000000019
:20895e000000000000000000000000000000000000000000000000000000000000000000f9
:0d897e0000000000000000000000000000ec
:20898b000000000000000000000000000000000000000000000000000000000000000000cc
:2089ab000000000000000000000000000000000000000000000000000000000000000000ac
:2089cb0000000000000000000000000000000000000000000000000000000000000000008c
:0d89eb00000000000000000000000000007f
:2089f80000000000000000000000000000000000000040000000000000000000000000001f
:208a180000000000000000000000000000000000000000000000000000000000000000003e
:208a380000000000000000000000000000000000000000000000000000000000000000001e
:0d8a58000000000000000000000000000011
:208a65000000000000000000000000000000000000000000000000000000000000000000f1
:208a8500000000000000000000000000000000000000000000000040000000000000000091
:208aa5000000000000000000000000000000000000000000000000000100000000000000b0
:0d8ac50000000000000000000000000000a4
:208ad200000000000000000000000000000000000000000000000000000000000000000084
:208af200000000000000000000000000000000000000000000000000000000000000000064
:208b1200000000000000000000000000000000000000000000000000000000000000000043
:0d8b32000000000000000000000000000036
:208b3f00000000000000000000000000000000000000000000000000000000000000000016
:208b5f000000000000000000000000000000000000000000000000000000000000000000f6
:208b7f000000000000000000000000000000000000000000000000000000000000000000d6
:0d8b9f0000000000000000000000000000c9
:208bac000000000000000000000000000000000000000000000000000000000000000000a9
:208bcc00000000000000000000000000000000000000000000000000000000000000000089
:208bec00000000000000000000000000000000000000000000000000000000000000000069
:0d8c0c00000000000000000000000000005b
:208c1900002c0000000000000000000000000000000000000000000000000000000000000f
:208c390000000000000000000000000000000000000000000000000000000000000000001b
:208c59000000000000000000000000000000000000000000000000000000000000000000fb
:0d8c790000000000000000000000000000ee
:208c86000005000000000000000000000000000000000000000000000000000000040000c5
:208ca6000000000000000000000000000000000000000000000000000000000000000000ae
:208cc60000000000000000000000000000000000000000000000000000000000000000008e
:0d8ce6000000000000000000000000000081
:208cf3000c0000000000000000000000000000000000000000000000000000000000000055
:208d1300000000000000000000000000000000000000000000000000000000000000000040
:208d3300000000000000000000000000000000000000000000000000000000000000000020
:0d8d53000000000000000000000000000013
:208d60004800000000000000000000000000000000000000000000000000000000000000ab
:208d80000000000000000000000000000000000000000000000000000000000000000000d3
:208da0000000000000000000000000000000000000000000000000000000000000000000b3
:0d8dc00000000000000000000000000000a6
:208dcd00800000000000000000000000000000000000000000000000000000000000000006
:208ded00000000000400000000000000000000000000000000000000000000000000000062
:208e0d00000000000000000000000000000000000000000000000000000000000000000045
:0d8e2d000000000000000000000000000038
:208e3a00000000000000000000000000000000000000000000000000000000000000000018
:208e5a000000000000000000000000000000000000000000000000000000000000000000f8
:208e7a000000000000000000000000000000000000000000000000000000000000000000d8
:0d8e9a0000000000000000000000000000cb
:208ea7000000000000000000000000000000000000000000000000000000000000000000ab
:208ec70000000000000000000000000000000000000000000000000000000000000000008b
:208ee70000000000000000000000000000000000000000000000000000000000000000006b
:0d8f0700000000000000000000000000005d
:208f14004000000000000000000000000000000000000000000000000000000000000000fd
:208f340000000000000000000000000000000000000000000000000000000000000000001d
:208f54000000000000000000000000000000000000000000000000000000000000000000fd
:0d8f740000000000000000000000000000f0
:208f81000000000000000000000000000000000000000000000000000000000000000000d0
:208fa1000000000000000000000000000000000000000000000000000000000000000000b0
:208fc100000000000000000000000000000000000000000000000000000000000000000090
:0d8fe10000000000000000a00000000000e3
:208fee00000000000000000000000000000000000000000000000000000000000000000063
:20900e00000000000000000000000000000000000000000000000000000000000000000042
:20902e00000000000000000000000000000000000000000000000000000000000000000022
:0d904e000000000000000000000000000015
:20905b000000000000000000000000000000000000000000000000000000000000000000f5
:20907b000000000000000000000000000000000000000000000000000000000000010000d4
:20909b000000000000000000000000000000000000000000000000000000000000000000b5
:0d90bb0000000000000000000000000000a8
:2090c800000000000000000000000000000000000000000000000000000000000000000088
:2090e800000000000000000000000000000000000000000000000000000000000000000068
:20949d0000000000000000000000000000000000000000003fc000000000000000000000b0
:2094bd0000000000000000000000000000000000000000000000000000000000000000008f
:2094dd0000000000000000000000000000000000000000000000000000000000000000006f
:0d94fd000000000000000000000000000062
:20950a0000000000000000000000000000000000000000003fc460000000000000000000de
:20952a00000000000000000000000000000000000000000000000000000000000000000021
:20954a00000000000000000000000000000000000000000000000000000000000000000001
:0d956a0000000000000000000000000000f4
:209577000000000000000000000000000000000000000000000000000000000000000000d4
:209d21000040000000000000000000000000000000000000000000000000000000000000e2
:209d4100000000000000000000000000000000000000000000000000000000000000000002
:209d61000000000000000000000000000000000000000000000000000000000000000000e2
:0d9d810000000000000000000000000000d5
:209d8e00007000000000000000000000000000000000000000000000000000000000000045
:209dae00000000000000000000000000000000000000000000000000000000000000000095
:209dce00000000000000000000000000000000000000000000000000000000000000000075
:0d9dee000000000000000000000000000068
:209dfb00000000000000000000000000000000000000000000000000000000000000000048
:209e1b0000000000000000000000000000000403c800000000000000000000000000000058
:209e3b00000000000000000000000000000000000000000000000000000000000000000007
:0d9e5b0000000000000000000000000000fa
:209e68000000000000000000000000000000000000000000000000000000000000000000da
:209e880000000000000000000000000000000683c000000000000000000000000000000071
:209ea80000000000000000000000000000000000000000000000000000000000000000009a
:0d9ec800000000000000000000000000008d
:209ed50000000000000000000000000000000000000000000000000000000000000000006d
:209ef5000000000000e000000000000000000000000000000000000000000000000000006d
:209f150000000000000000000000000000000000000000000000000000000000000000002c
:0d9f3500000000000000000000000000001f
:209f42000000000000000000000000000000000000000000000000000000000000000000ff
:209f62000000000000000000000000000000000000000000000000000000000000000000df
:209f82000000000000000000000000000000000000000000000000000000000000000000bf
:0d9fa20000000000000000000000000000b2
:209faf00000000000000000000000000000000000000000000000000000000000000000092
:209fcf00000000000000000000000000000000000000000000000000000000000000000072
:209fef00000000000000000000000000000000000000000000000000000000000000000052
:0da00f000000000000000000000000000044
:20a01c00000000000000000000000000000000000000000000000000000000000000000024
:20a03c00000000000000000000000000000000000000000000000000000000000000000004
:20a05c000000000000000000000000000000000000000000000000000000000000000000e4
:0da07c0000000000000000000000000000d7
:20a08900000000000000000000000000000000000180000000000000000000000000000036
:20a0a90000000000000000000000000000080000000000000000000000000000000000008f
:20a0c900000000000000000000000000000000000000000000000000000000000000000077
:0da0e900000000000000000000000000006a
:20a0f600000100000000000000000000000000000000000000000000000000000000000049
:20a11600000000000000000000000000000000000000000000000000000000000000000029
:20a13600000000000000000000000000000000000000000000000000000000000000000009
:0da1560000000000000000000000000000fc
:20a163000c00000000000000000000000000000000000000000000000000000000000000d0
:20a183000000000000000000000000000000000000000000000000000000000000000000bc
:20a1a30000000000000000000000000000000000000000000000000000000000000000009c
:0da1c300000000000000000000000000008f
:20a1d0004c0000000000000000000000000000000000000000000000000000000000000023
:20a1f00000000000000000000000000000000000000000000000000000000000000000004f
:20a210000000000000000000000000000000000000004000000000000100000000000000ed
:0da230000000000000000000000000000021
:20a23d00800000000000000000000000000000000040000000000000000000000000000041
:20a25d000000000000000000000000001000000000000000000000000000000000000000d1
:20a27d000000000000000000000000000000000000000000000000000000000000000000c1
:0da29d0000000000000000000000000000b4
:20a2aa00000000000000000000000000000000000000000000000000000000000000000094
:20a2ca00000000000000000000000000000000000000000000000000000000000000000074
:20a2ea00000000000000000000000000000000000000000000000000000000000000000054
:0da30a000000000000000000000000000046
:20a31700000000000000000000000000000000000000000000000000000000000000000026
:20a33700000000000000000000000000000000000000000000000000000000000000000006
:20a357000000000000000000000000000000000000000000000000000000000000000000e6
:0da3770000000000000000000000000000d9
:20a38400400000000000000000000000000000000000000000000000000000000000000079
:20a3a400000000000000000000000000000000000000000000000000000000000000000099
:20a3c400000000000000000000000000000000000000000000000000000000000000000079
:0da3e400000000000000000000000000006c
:20a3f10000000000000000000000000000000000000000000000000000000000000000004c
:20a4110000000000000000000000000000000000000000000000000000000000000000002b
:20a4310000000000000000000000000000000000000000000000000000000000000000000b
:0da4510000000000000000000000000000fe
